{
  "address": "0x556eD33ea22476Ea9B8f39bC2e6a5972Dd28bac8",
  "abi": [
    {
      "inputs": [
        {
          "internalType": "contract IUser",
          "name": "_user",
          "type": "address"
        },
        {
          "internalType": "contract IMasterChef",
          "name": "_masterChef",
          "type": "address"
        },
        {
          "internalType": "contract IKeplerPair",
          "name": "_pair",
          "type": "address"
        },
        {
          "internalType": "contract IERC20",
          "name": "_busd",
          "type": "address"
        },
        {
          "internalType": "contract IERC20",
          "name": "_sds",
          "type": "address"
        },
        {
          "internalType": "contract IKeplerFactory",
          "name": "_factory",
          "type": "address"
        }
      ],
      "stateMutability": "nonpayable",
      "type": "constructor"
    },
    {
      "anonymous": false,
      "inputs": [
        {
          "indexed": true,
          "internalType": "address",
          "name": "previousOwner",
          "type": "address"
        },
        {
          "indexed": true,
          "internalType": "address",
          "name": "newOwner",
          "type": "address"
        }
      ],
      "name": "OwnershipTransferred",
      "type": "event"
    },
    {
      "inputs": [],
      "name": "MIN_INVITER_AMOUNT",
      "outputs": [
        {
          "internalType": "uint256",
          "name": "",
          "type": "uint256"
        }
      ],
      "stateMutability": "view",
      "type": "function"
    },
    {
      "inputs": [],
      "name": "MIN_LOCK_AMOUNT",
      "outputs": [
        {
          "internalType": "uint256",
          "name": "",
          "type": "uint256"
        }
      ],
      "stateMutability": "view",
      "type": "function"
    },
    {
      "inputs": [
        {
          "internalType": "uint256",
          "name": "crycleId",
          "type": "uint256"
        }
      ],
      "name": "addCrycle",
      "outputs": [],
      "stateMutability": "nonpayable",
      "type": "function"
    },
    {
      "inputs": [],
      "name": "busd",
      "outputs": [
        {
          "internalType": "contract IERC20",
          "name": "",
          "type": "address"
        }
      ],
      "stateMutability": "view",
      "type": "function"
    },
    {
      "inputs": [
        {
          "internalType": "string",
          "name": "title",
          "type": "string"
        },
        {
          "internalType": "string",
          "name": "mainfest",
          "type": "string"
        }
      ],
      "name": "createCrycle",
      "outputs": [],
      "stateMutability": "nonpayable",
      "type": "function"
    },
    {
      "inputs": [
        {
          "internalType": "uint256",
          "name": "",
          "type": "uint256"
        }
      ],
      "name": "crycleInfo",
      "outputs": [
        {
          "internalType": "address",
          "name": "creator",
          "type": "address"
        },
        {
          "internalType": "string",
          "name": "title",
          "type": "string"
        },
        {
          "internalType": "string",
          "name": "mainfest",
          "type": "string"
        },
        {
          "internalType": "uint256",
          "name": "userNum",
          "type": "uint256"
        }
      ],
      "stateMutability": "view",
      "type": "function"
    },
    {
      "inputs": [
        {
          "internalType": "uint256",
          "name": "",
          "type": "uint256"
        },
        {
          "internalType": "address",
          "name": "",
          "type": "address"
        }
      ],
      "name": "crycleUsers",
      "outputs": [
        {
          "internalType": "uint256",
          "name": "",
          "type": "uint256"
        }
      ],
      "stateMutability": "view",
      "type": "function"
    },
    {
      "inputs": [
        {
          "internalType": "uint256",
          "name": "num",
          "type": "uint256"
        }
      ],
      "name": "doVote",
      "outputs": [],
      "stateMutability": "nonpayable",
      "type": "function"
    },
    {
      "inputs": [],
      "name": "factory",
      "outputs": [
        {
          "internalType": "contract IKeplerFactory",
          "name": "",
          "type": "address"
        }
      ],
      "stateMutability": "view",
      "type": "function"
    },
    {
      "inputs": [],
      "name": "masterChef",
      "outputs": [
        {
          "internalType": "contract IMasterChef",
          "name": "",
          "type": "address"
        }
      ],
      "stateMutability": "view",
      "type": "function"
    },
    {
      "inputs": [],
      "name": "nextVoteId",
      "outputs": [
        {
          "internalType": "uint256",
          "name": "",
          "type": "uint256"
        }
      ],
      "stateMutability": "view",
      "type": "function"
    },
    {
      "inputs": [],
      "name": "owner",
      "outputs": [
        {
          "internalType": "address",
          "name": "",
          "type": "address"
        }
      ],
      "stateMutability": "view",
      "type": "function"
    },
    {
      "inputs": [],
      "name": "pair",
      "outputs": [
        {
          "internalType": "contract IKeplerPair",
          "name": "",
          "type": "address"
        }
      ],
      "stateMutability": "view",
      "type": "function"
    },
    {
      "inputs": [],
      "name": "renounceOwnership",
      "outputs": [],
      "stateMutability": "nonpayable",
      "type": "function"
    },
    {
      "inputs": [],
      "name": "sds",
      "outputs": [
        {
          "internalType": "contract IERC20",
          "name": "",
          "type": "address"
        }
      ],
      "stateMutability": "view",
      "type": "function"
    },
    {
      "inputs": [],
      "name": "startVote",
      "outputs": [],
      "stateMutability": "nonpayable",
      "type": "function"
    },
    {
      "inputs": [
        {
          "internalType": "address",
          "name": "newOwner",
          "type": "address"
        }
      ],
      "name": "transferOwnership",
      "outputs": [],
      "stateMutability": "nonpayable",
      "type": "function"
    },
    {
      "inputs": [],
      "name": "user",
      "outputs": [
        {
          "internalType": "contract IUser",
          "name": "",
          "type": "address"
        }
      ],
      "stateMutability": "view",
      "type": "function"
    },
    {
      "inputs": [
        {
          "internalType": "address",
          "name": "",
          "type": "address"
        }
      ],
      "name": "userCrycle",
      "outputs": [
        {
          "internalType": "uint256",
          "name": "",
          "type": "uint256"
        }
      ],
      "stateMutability": "view",
      "type": "function"
    },
    {
      "inputs": [
        {
          "internalType": "uint256",
          "name": "",
          "type": "uint256"
        }
      ],
      "name": "voteInfo",
      "outputs": [
        {
          "internalType": "uint256",
          "name": "voteId",
          "type": "uint256"
        },
        {
          "internalType": "uint256",
          "name": "beginAt",
          "type": "uint256"
        },
        {
          "internalType": "uint256",
          "name": "countAt",
          "type": "uint256"
        },
        {
          "internalType": "uint256",
          "name": "finishAt",
          "type": "uint256"
        }
      ],
      "stateMutability": "view",
      "type": "function"
    }
  ],
  "transactionHash": "0x11fe42432c2122cd801deb5b030bfc3ba5c874a077723234e4b3a8e8f46d6430",
  "args": [
    "0x26CeF7683a8dC396e8456B015031766F17d2E2d7",
    "0xA5C2320a994A43392444E81387E7B99B1D8DDe7A",
    "0xD7AD7Cce0FDB83b05630E7b27957A6d2F6C597d4",
    "0xbd2F3a31154AfB86bA921E4f418C46FdAf2737BE",
    "0x43b23adfB319D309C5466295ACCA1800430d1Ba6",
    "0xdC569F7e64699Df55420724E53db3bb9f733E7eE"
  ],
  "solcInputHash": "069546371c1ebabbc356d0dc68cd1fda",
  "bytecode": "0x60806040523480156200001157600080fd5b5060405162001e7d38038062001e7d833981810160405260c08110156200003757600080fd5b508051602082015160408301516060840151608085015160a0909501519394929391929091600062000068620002e6565b600080546001600160a01b0319166001600160a01b0383169081178255604051929350917f8be0079c531659141344cd1fd0a4f28419497f9722a3daafe3b4186f6b6457e0908290a35060408051608081018252308152815160208082018452600080835281840192835284518083018652818152948401949094526060830184905260058054600181018255945282517f036b6384b5eca791c62761152d0c79bb0604c104a5fb6f4eb0703f3154bb3db0600490950294850180546001600160a01b0319166001600160a01b0390921691909117815591518051939492936200017a937f036b6384b5eca791c62761152d0c79bb0604c104a5fb6f4eb0703f3154bb3db101929190910190620002ea565b506040820151805162000198916002840191602090910190620002ea565b50606091820151600391909101556040805160808101825260008082524260208301818152938301818152948301908152600180548082018255925291517fb10e2d527612073b26eecdfd717e6a320cf44b4afac2b0732d9fcbe2b7fa0cf660049092029182015591517fb10e2d527612073b26eecdfd717e6a320cf44b4afac2b0732d9fcbe2b7fa0cf783015591517fb10e2d527612073b26eecdfd717e6a320cf44b4afac2b0732d9fcbe2b7fa0cf882015590517fb10e2d527612073b26eecdfd717e6a320cf44b4afac2b0732d9fcbe2b7fa0cf990910155600980546001600160a01b03199081166001600160a01b0398891617909155600a8054821696881696909617909555600b8054861694871694909417909355600c8054851692861692909217909155600d80548416918516919091179055600e8054909216921691909117905562000386565b3390565b828054600181600116156101000203166002900490600052602060002090601f016020900481019282601f106200032d57805160ff19168380011785556200035d565b828001600101855582156200035d579182015b828111156200035d57825182559160200191906001019062000340565b506200036b9291506200036f565b5090565b5b808211156200036b576000815560010162000370565b611ae780620003966000396000f3fe608060405234801561001057600080fd5b506004361061012c5760003560e01c80638494ff35116100ad578063c45a015511610071578063c45a01551461038a578063d347eed714610392578063dd764abf146104bf578063e207d04d146104c7578063f2fde38b146104cf5761012c565b80638494ff351461021d5780638da5cb5b14610260578063a0e6248514610268578063a8aa1b311461037a578063b1d52687146103825761012c565b80634c0a6af0116100f45780634c0a6af0146101f55780634f8632ba146101fd578063575a86b214610205578063687ceaa51461020d578063715018a6146102155761012c565b806306aa467214610131578063124258c61461016f578063254068b01461018e5780633a4ae634146101b45780633ca5b234146101d1575b600080fd5b61015d6004803603604081101561014757600080fd5b50803590602001356001600160a01b03166104f5565b60408051918252519081900360200190f35b61018c6004803603602081101561018557600080fd5b5035610512565b005b61015d600480360360208110156101a457600080fd5b50356001600160a01b031661099c565b61018c600480360360208110156101ca57600080fd5b50356109ae565b6101d9610ad9565b604080516001600160a01b039092168252519081900360200190f35b61018c610ae8565b6101d9610e03565b6101d9610e12565b61015d610e21565b61018c610e2f565b61023a6004803603602081101561023357600080fd5b5035610eed565b604080519485526020850193909352838301919091526060830152519081900360800190f35b6101d9610f24565b6102856004803603602081101561027e57600080fd5b5035610f33565b60405180856001600160a01b031681526020018060200180602001848152602001838103835286818151815260200191508051906020019080838360005b838110156102db5781810151838201526020016102c3565b50505050905090810190601f1680156103085780820380516001836020036101000a031916815260200191505b50838103825285518152855160209182019187019080838360005b8381101561033b578181015183820152602001610323565b50505050905090810190601f1680156103685780820380516001836020036101000a031916815260200191505b50965050505050505060405180910390f35b6101d961108f565b6101d961109e565b6101d96110ad565b61018c600480360360408110156103a857600080fd5b8101906020810181356401000000008111156103c357600080fd5b8201836020820111156103d557600080fd5b803590602001918460018302840111640100000000831117156103f757600080fd5b91908080601f016020809104026020016040519081016040528093929190818152602001838380828437600092019190915250929594936020810193503591505064010000000081111561044a57600080fd5b82018360208201111561045c57600080fd5b8035906020019184600183028401116401000000008311171561047e57600080fd5b91908080601f0160208091040260200160405190810160405280939291908181526020018383808284376000920191909152509295506110bc945050505050565b61015d611273565b61015d611280565b61018c600480360360208110156104e557600080fd5b50356001600160a01b0316611296565b600660209081526000928352604080842090915290825290205481565b600d546040805163b68d0a0960e01b815233600482015290516000926001600160a01b03169163b68d0a09916024808301926020929190829003018186803b15801561055d57600080fd5b505afa158015610571573d6000803e3d6000fd5b505050506040513d602081101561058757600080fd5b5051600e54600b5460408051631e6e234160e31b81526001600160a01b03928316600482015281519495506000948594939093169263f3711a0892602480840193919291829003018186803b1580156105df57600080fd5b505afa1580156105f3573d6000803e3d6000fd5b505050506040513d604081101561060957600080fd5b508051602091820151600b5460408051630dfe168160e01b815290519396509194506000936001600160a01b0390911692630dfe1681926004808201939291829003018186803b15801561065c57600080fd5b505afa158015610670573d6000803e3d6000fd5b505050506040513d602081101561068657600080fd5b5051600d546001600160a01b039081169116146106a357816106a5565b825b600e54600b546040805163fa80ccd760e01b81526001600160a01b0392831660048201523360248201529051939450600093919092169163fa80ccd7916044808301926020929190829003018186803b15801561070157600080fd5b505afa158015610715573d6000803e3d6000fd5b505050506040513d602081101561072b57600080fd5b5051600a54600b5460408051632d2d55eb60e01b81526001600160a01b03928316600482015233602482015290519394506000939190921691632d2d55eb916044808301926020929190829003018186803b15801561078957600080fd5b505afa15801561079d573d6000803e3d6000fd5b505050506040513d60208110156107b357600080fd5b50519050600061080f60646108096107dd670de0b6b3a76400006107d789886113aa565b9061140c565b6108036107fc6107f589670de0b6b3a764000061140c565b8a906113aa565b8c90611473565b90611473565b906113aa565b6008546000908152600260209081526040808320338452600783528184205484529091529020549091506108975760085460009081526003602090815260408083203384526007835281842054845290915290205461086f906001611473565b6008546000908152600360209081526040808320338452600783528184205484529091529020555b6008546000908152600260209081526040808320338452600783528184205484529091529020546108c89089611473565b6008805460009081526002602090815260408083203380855260078452828520548552908352818420959095559254825260048152828220938252929092529020546109149089611473565b60088054600090815260046020818152604080842033808652908352818520969096559354835290815282822093825292909252902054811015610992576040805162461bcd60e51b815260206004820152601060248201526f696c6c6567616c20766f7465206e756d60801b604482015290519081900360640190fd5b5050505050505050565b60076020526000908152604090205481565b6000811180156109bf575060055481105b610a03576040805162461bcd60e51b815260206004820152601060248201526f1a5b1b1959d85b0818dc9e58db19525960821b604482015290519081900360640190fd5b3360009081526007602052604090205415610a59576040805162461bcd60e51b8152602060048201526011602482015270616c726561647920696e20637279636c6560781b604482015290519081900360640190fd5b600081815260066020908152604080832033845282528083204290556007909152902081905560058054610ab49160019184908110610a9457fe5b90600052602060002090600402016003015461147390919063ffffffff16565b60058281548110610ac157fe5b90600052602060002090600402016003018190555050565b600c546001600160a01b031681565b610af06114cd565b6001600160a01b0316610b01610f24565b6001600160a01b031614610b5c576040805162461bcd60e51b815260206004820181905260248201527f4f776e61626c653a2063616c6c6572206973206e6f7420746865206f776e6572604482015290519081900360640190fd5b6000610b66611280565b9050610b706114d1565b600181118015610b9f575042600180830381548110610b8b57fe5b906000526020600020906004020160030154115b15610be8576040805162461bcd60e51b81526020600482015260146024820152730d8c2e6e840ecdee8ca40dcdee840ccd2dcd2e6d60631b604482015290519081900360640190fd5b600a546040805163964f551760e01b81526004810184905290516001600160a01b039092169163964f55179160248082019260009290919082900301818387803b158015610c3557600080fd5b505af1158015610c49573d6000803e3d6000fd5b5050600d546040805163964f551760e01b81526004810186905290516001600160a01b03909216935063964f5517925060248082019260009290919082900301818387803b158015610c9a57600080fd5b505af1158015610cae573d6000803e3d6000fd5b5050600e54600b5460408051631181ee7b60e31b81526001600160a01b039283166004820152602481018790529051919092169350638c0f73d89250604480830192600092919082900301818387803b158015610d0a57600080fd5b505af1158015610d1e573d6000803e3d6000fd5b505060408051608081018252938452426020850181815262069780820192860192835262093a809091016060860190815260018054808201825560009190915295517fb10e2d527612073b26eecdfd717e6a320cf44b4afac2b0732d9fcbe2b7fa0cf660049097029687015590517fb10e2d527612073b26eecdfd717e6a320cf44b4afac2b0732d9fcbe2b7fa0cf786015590517fb10e2d527612073b26eecdfd717e6a320cf44b4afac2b0732d9fcbe2b7fa0cf8850155517fb10e2d527612073b26eecdfd717e6a320cf44b4afac2b0732d9fcbe2b7fa0cf9909301929092555050565b6009546001600160a01b031681565b600a546001600160a01b031681565b69010f0cf064dd5920000081565b610e376114cd565b6001600160a01b0316610e48610f24565b6001600160a01b031614610ea3576040805162461bcd60e51b815260206004820181905260248201527f4f776e61626c653a2063616c6c6572206973206e6f7420746865206f776e6572604482015290519081900360640190fd5b600080546040516001600160a01b03909116907f8be0079c531659141344cd1fd0a4f28419497f9722a3daafe3b4186f6b6457e0908390a3600080546001600160a01b0319169055565b60018181548110610efa57fe5b60009182526020909120600490910201805460018201546002830154600390930154919350919084565b6000546001600160a01b031690565b60058181548110610f4057fe5b600091825260209182902060049091020180546001808301805460408051601f60026000199685161561010002969096019093169490940491820187900487028401870190528083526001600160a01b039093169550929390929190830182828015610fed5780601f10610fc257610100808354040283529160200191610fed565b820191906000526020600020905b815481529060010190602001808311610fd057829003601f168201915b50505060028085018054604080516020601f600019610100600187161502019094169590950492830185900485028101850190915281815295969594509092509083018282801561107f5780601f106110545761010080835404028352916020019161107f565b820191906000526020600020905b81548152906001019060200180831161106257829003601f168201915b5050505050908060030154905084565b600b546001600160a01b031681565b600d546001600160a01b031681565b600e546001600160a01b031681565b602082511115611104576040805162461bcd60e51b815260206004820152600e60248201526d7469746c6520746f6f206c6f6e6760901b604482015290519081900360640190fd5b61040081511115611150576040805162461bcd60e51b81526020600482015260116024820152706d61696e6665737420746f6f206c6f6e6760781b604482015290519081900360640190fd5b611159336114e4565b6111945760405162461bcd60e51b815260040180806020018281038252603a815260200180611a57603a913960400191505060405180910390fd5b60408051608081018252338152602080820185815292820184905260006060830181905260058054600181018255915282517f036b6384b5eca791c62761152d0c79bb0604c104a5fb6f4eb0703f3154bb3db0600490920291820180546001600160a01b0319166001600160a01b0390921691909117815593518051939493611246937f036b6384b5eca791c62761152d0c79bb0604c104a5fb6f4eb0703f3154bb3db190930192919091019061199d565b506040820151805161126291600284019160209091019061199d565b506060820151816003015550505050565b681b1ae4d6e2ef50000081565b600854600090611291906001611473565b905090565b61129e6114cd565b6001600160a01b03166112af610f24565b6001600160a01b03161461130a576040805162461bcd60e51b815260206004820181905260248201527f4f776e61626c653a2063616c6c6572206973206e6f7420746865206f776e6572604482015290519081900360640190fd5b6001600160a01b03811661134f5760405162461bcd60e51b8152600401808060200182810382526026815260200180611a316026913960400191505060405180910390fd5b600080546040516001600160a01b03808516939216917f8be0079c531659141344cd1fd0a4f28419497f9722a3daafe3b4186f6b6457e091a3600080546001600160a01b0319166001600160a01b0392909216919091179055565b6000826113b957506000611406565b828202828482816113c657fe5b04146114035760405162461bcd60e51b8152600401808060200182810382526021815260200180611a916021913960400191505060405180910390fd5b90505b92915050565b6000808211611462576040805162461bcd60e51b815260206004820152601a60248201527f536166654d6174683a206469766973696f6e206279207a65726f000000000000604482015290519081900360640190fd5b81838161146b57fe5b049392505050565b600082820183811015611403576040805162461bcd60e51b815260206004820152601b60248201527f536166654d6174683a206164646974696f6e206f766572666c6f770000000000604482015290519081900360640190fd5b3390565b6008546114df906001611473565b600855565b600b54600c546000918291611505916001600160a01b03908116911661168c565b600a54600b5460408051632898262360e21b81526001600160a01b0392831660048201528783166024820152600360448201529051939450600093919092169163a260988c916064808301926020929190829003018186803b15801561156a57600080fd5b505afa15801561157e573d6000803e3d6000fd5b505050506040513d602081101561159457600080fd5b5051600a54600b5460408051632cae426b60e01b81526001600160a01b039283166004820152888316602482015290519394506000939190921691632cae426b916044808301926020929190829003018186803b1580156115f457600080fd5b505afa158015611608573d6000803e3d6000fd5b505050506040513d602081101561161e57600080fd5b50519050681b1ae4d6e2ef500000611642670de0b6b3a76400006107d785876113aa565b10158061166e575069010f0cf064dd5920000061166b670de0b6b3a76400006107d784876113aa565b10155b1561167f5760019350505050611687565b600093505050505b919050565b600080836001600160a01b0316630dfe16816040518163ffffffff1660e01b815260040160206040518083038186803b1580156116c857600080fd5b505afa1580156116dc573d6000803e3d6000fd5b505050506040513d60208110156116f257600080fd5b50516040805163d21220a760e01b815290519192506000916001600160a01b0387169163d21220a7916004808301926020929190829003018186803b15801561173a57600080fd5b505afa15801561174e573d6000803e3d6000fd5b505050506040513d602081101561176457600080fd5b505190506001600160a01b0382811690851614806117935750836001600160a01b0316816001600160a01b0316145b6117d4576040805162461bcd60e51b815260206004820152600d60248201526c34b63632b3b0b6103a37b5b2b760991b604482015290519081900360640190fd5b600080866001600160a01b0316630902f1ac6040518163ffffffff1660e01b815260040160606040518083038186803b15801561181057600080fd5b505afa158015611824573d6000803e3d6000fd5b505050506040513d606081101561183a57600080fd5b5080516020909101516dffffffffffffffffffffffffffff91821693501690506001600160a01b03868116908516141561191357811561190e57611903826107d7670de0b6b3a7640000876001600160a01b03166370a082318c6040518263ffffffff1660e01b815260040180826001600160a01b0316815260200191505060206040518083038186803b1580156118d157600080fd5b505afa1580156118e5573d6000803e3d6000fd5b505050506040513d60208110156118fb57600080fd5b5051906113aa565b945050505050611406565b611990565b826001600160a01b0316866001600160a01b0316141561199057801561199057611903816107d7670de0b6b3a7640000866001600160a01b03166370a082318c6040518263ffffffff1660e01b815260040180826001600160a01b0316815260200191505060206040518083038186803b1580156118d157600080fd5b5060009695505050505050565b828054600181600116156101000203166002900490600052602060002090601f016020900481019282601f106119de57805160ff1916838001178555611a0b565b82800160010185558215611a0b579182015b82811115611a0b5782518255916020019190600101906119f0565b50611a17929150611a1b565b5090565b5b80821115611a175760008155600101611a1c56fe4f776e61626c653a206e6577206f776e657220697320746865207a65726f20616464726573736174206c65617365206c6f636b20353030204255534420616e6420534453206f7220696e766974652035303030204255534420616e6420534453536166654d6174683a206d756c7469706c69636174696f6e206f766572666c6f77a2646970667358221220e882bf7d541678b1b7b50c3f503d2cf63331b9dc504f678180aa0d00c2f1300364736f6c63430007020033",
  "devdoc": {
    "kind": "dev",
    "methods": {
      "owner()": {
        "details": "Returns the address of the current owner."
      },
      "renounceOwnership()": {
        "details": "Leaves the contract without owner. It will not be possible to call `onlyOwner` functions anymore. Can only be called by the current owner. NOTE: Renouncing ownership will leave the contract without an owner, thereby removing any functionality that is only available to the owner."
      },
      "transferOwnership(address)": {
        "details": "Transfers ownership of the contract to a new account (`newOwner`). Can only be called by the current owner."
      }
    },
    "version": 1
  },
  "userdoc": {
    "kind": "user",
    "methods": {},
    "version": 1
  },
  "storageLayout": {
    "storage": [
      {
        "astId": 7,
        "contract": "contracts/farm/Crycle.sol:Crycle",
        "label": "_owner",
        "offset": 0,
        "slot": "0",
        "type": "t_address"
      },
      {
        "astId": 1613,
        "contract": "contracts/farm/Crycle.sol:Crycle",
        "label": "voteInfo",
        "offset": 0,
        "slot": "1",
        "type": "t_array(t_struct(VoteInfo)1610_storage)dyn_storage"
      },
      {
        "astId": 1619,
        "contract": "contracts/farm/Crycle.sol:Crycle",
        "label": "crycleVotes",
        "offset": 0,
        "slot": "2",
        "type": "t_mapping(t_uint256,t_mapping(t_uint256,t_uint256))"
      },
      {
        "astId": 1625,
        "contract": "contracts/farm/Crycle.sol:Crycle",
        "label": "crycleVoteUserNum",
        "offset": 0,
        "slot": "3",
        "type": "t_mapping(t_uint256,t_mapping(t_uint256,t_uint256))"
      },
      {
        "astId": 1631,
        "contract": "contracts/farm/Crycle.sol:Crycle",
        "label": "userVotes",
        "offset": 0,
        "slot": "4",
        "type": "t_mapping(t_uint256,t_mapping(t_address,t_uint256))"
      },
      {
        "astId": 1634,
        "contract": "contracts/farm/Crycle.sol:Crycle",
        "label": "crycleInfo",
        "offset": 0,
        "slot": "5",
        "type": "t_array(t_struct(CrycleInfo)1601_storage)dyn_storage"
      },
      {
        "astId": 1640,
        "contract": "contracts/farm/Crycle.sol:Crycle",
        "label": "crycleUsers",
        "offset": 0,
        "slot": "6",
        "type": "t_mapping(t_uint256,t_mapping(t_address,t_uint256))"
      },
      {
        "astId": 1644,
        "contract": "contracts/farm/Crycle.sol:Crycle",
        "label": "userCrycle",
        "offset": 0,
        "slot": "7",
        "type": "t_mapping(t_address,t_uint256)"
      },
      {
        "astId": 1646,
        "contract": "contracts/farm/Crycle.sol:Crycle",
        "label": "currentVoteId",
        "offset": 0,
        "slot": "8",
        "type": "t_uint256"
      },
      {
        "astId": 1648,
        "contract": "contracts/farm/Crycle.sol:Crycle",
        "label": "user",
        "offset": 0,
        "slot": "9",
        "type": "t_contract(IUser)7662"
      },
      {
        "astId": 1650,
        "contract": "contracts/farm/Crycle.sol:Crycle",
        "label": "masterChef",
        "offset": 0,
        "slot": "10",
        "type": "t_contract(IMasterChef)7628"
      },
      {
        "astId": 1652,
        "contract": "contracts/farm/Crycle.sol:Crycle",
        "label": "pair",
        "offset": 0,
        "slot": "11",
        "type": "t_contract(IKeplerPair)7248"
      },
      {
        "astId": 1654,
        "contract": "contracts/farm/Crycle.sol:Crycle",
        "label": "busd",
        "offset": 0,
        "slot": "12",
        "type": "t_contract(IERC20)1045"
      },
      {
        "astId": 1656,
        "contract": "contracts/farm/Crycle.sol:Crycle",
        "label": "sds",
        "offset": 0,
        "slot": "13",
        "type": "t_contract(IERC20)1045"
      },
      {
        "astId": 1658,
        "contract": "contracts/farm/Crycle.sol:Crycle",
        "label": "factory",
        "offset": 0,
        "slot": "14",
        "type": "t_contract(IKeplerFactory)7008"
      }
    ],
    "types": {
      "t_address": {
        "encoding": "inplace",
        "label": "address",
        "numberOfBytes": "20"
      },
      "t_array(t_struct(CrycleInfo)1601_storage)dyn_storage": {
        "base": "t_struct(CrycleInfo)1601_storage",
        "encoding": "dynamic_array",
        "label": "struct Crycle.CrycleInfo[]",
        "numberOfBytes": "32"
      },
      "t_array(t_struct(VoteInfo)1610_storage)dyn_storage": {
        "base": "t_struct(VoteInfo)1610_storage",
        "encoding": "dynamic_array",
        "label": "struct Crycle.VoteInfo[]",
        "numberOfBytes": "32"
      },
      "t_contract(IERC20)1045": {
        "encoding": "inplace",
        "label": "contract IERC20",
        "numberOfBytes": "20"
      },
      "t_contract(IKeplerFactory)7008": {
        "encoding": "inplace",
        "label": "contract IKeplerFactory",
        "numberOfBytes": "20"
      },
      "t_contract(IKeplerPair)7248": {
        "encoding": "inplace",
        "label": "contract IKeplerPair",
        "numberOfBytes": "20"
      },
      "t_contract(IMasterChef)7628": {
        "encoding": "inplace",
        "label": "contract IMasterChef",
        "numberOfBytes": "20"
      },
      "t_contract(IUser)7662": {
        "encoding": "inplace",
        "label": "contract IUser",
        "numberOfBytes": "20"
      },
      "t_mapping(t_address,t_uint256)": {
        "encoding": "mapping",
        "key": "t_address",
        "label": "mapping(address => uint256)",
        "numberOfBytes": "32",
        "value": "t_uint256"
      },
      "t_mapping(t_uint256,t_mapping(t_address,t_uint256))": {
        "encoding": "mapping",
        "key": "t_uint256",
        "label": "mapping(uint256 => mapping(address => uint256))",
        "numberOfBytes": "32",
        "value": "t_mapping(t_address,t_uint256)"
      },
      "t_mapping(t_uint256,t_mapping(t_uint256,t_uint256))": {
        "encoding": "mapping",
        "key": "t_uint256",
        "label": "mapping(uint256 => mapping(uint256 => uint256))",
        "numberOfBytes": "32",
        "value": "t_mapping(t_uint256,t_uint256)"
      },
      "t_mapping(t_uint256,t_uint256)": {
        "encoding": "mapping",
        "key": "t_uint256",
        "label": "mapping(uint256 => uint256)",
        "numberOfBytes": "32",
        "value": "t_uint256"
      },
      "t_string_storage": {
        "encoding": "bytes",
        "label": "string",
        "numberOfBytes": "32"
      },
      "t_struct(CrycleInfo)1601_storage": {
        "encoding": "inplace",
        "label": "struct Crycle.CrycleInfo",
        "members": [
          {
            "astId": 1594,
            "contract": "contracts/farm/Crycle.sol:Crycle",
            "label": "creator",
            "offset": 0,
            "slot": "0",
            "type": "t_address"
          },
          {
            "astId": 1596,
            "contract": "contracts/farm/Crycle.sol:Crycle",
            "label": "title",
            "offset": 0,
            "slot": "1",
            "type": "t_string_storage"
          },
          {
            "astId": 1598,
            "contract": "contracts/farm/Crycle.sol:Crycle",
            "label": "mainfest",
            "offset": 0,
            "slot": "2",
            "type": "t_string_storage"
          },
          {
            "astId": 1600,
            "contract": "contracts/farm/Crycle.sol:Crycle",
            "label": "userNum",
            "offset": 0,
            "slot": "3",
            "type": "t_uint256"
          }
        ],
        "numberOfBytes": "128"
      },
      "t_struct(VoteInfo)1610_storage": {
        "encoding": "inplace",
        "label": "struct Crycle.VoteInfo",
        "members": [
          {
            "astId": 1603,
            "contract": "contracts/farm/Crycle.sol:Crycle",
            "label": "voteId",
            "offset": 0,
            "slot": "0",
            "type": "t_uint256"
          },
          {
            "astId": 1605,
            "contract": "contracts/farm/Crycle.sol:Crycle",
            "label": "beginAt",
            "offset": 0,
            "slot": "1",
            "type": "t_uint256"
          },
          {
            "astId": 1607,
            "contract": "contracts/farm/Crycle.sol:Crycle",
            "label": "countAt",
            "offset": 0,
            "slot": "2",
            "type": "t_uint256"
          },
          {
            "astId": 1609,
            "contract": "contracts/farm/Crycle.sol:Crycle",
            "label": "finishAt",
            "offset": 0,
            "slot": "3",
            "type": "t_uint256"
          }
        ],
        "numberOfBytes": "128"
      },
      "t_uint256": {
        "encoding": "inplace",
        "label": "uint256",
        "numberOfBytes": "32"
      }
    }
  }
}