{
  "address": "0x7dAf910F970e2673EB78A76A8377bfE4e6cC50Fe",
  "abi": [
    {
      "anonymous": false,
      "inputs": [
        {
          "indexed": true,
          "internalType": "address",
          "name": "previousOwner",
          "type": "address"
        },
        {
          "indexed": true,
          "internalType": "address",
          "name": "newOwner",
          "type": "address"
        }
      ],
      "name": "OwnershipTransferred",
      "type": "event"
    },
    {
      "inputs": [
        {
          "internalType": "address",
          "name": "_destination",
          "type": "address"
        },
        {
          "internalType": "uint256",
          "name": "_percent",
          "type": "uint256"
        },
        {
          "internalType": "uint256",
          "name": "_farmType",
          "type": "uint256"
        }
      ],
      "name": "addDefaultDestination",
      "outputs": [],
      "stateMutability": "nonpayable",
      "type": "function"
    },
    {
      "inputs": [
        {
          "internalType": "address",
          "name": "_token",
          "type": "address"
        },
        {
          "internalType": "address",
          "name": "_destination",
          "type": "address"
        },
        {
          "internalType": "uint256",
          "name": "_percent",
          "type": "uint256"
        },
        {
          "internalType": "uint256",
          "name": "_farmType",
          "type": "uint256"
        }
      ],
      "name": "addRelateDestination",
      "outputs": [],
      "stateMutability": "nonpayable",
      "type": "function"
    },
    {
      "inputs": [
        {
          "internalType": "address",
          "name": "_token",
          "type": "address"
        },
        {
          "internalType": "address",
          "name": "_destination",
          "type": "address"
        },
        {
          "internalType": "uint256",
          "name": "_percent",
          "type": "uint256"
        },
        {
          "internalType": "uint256",
          "name": "_farmType",
          "type": "uint256"
        }
      ],
      "name": "addTokenDestination",
      "outputs": [],
      "stateMutability": "nonpayable",
      "type": "function"
    },
    {
      "inputs": [
        {
          "internalType": "uint256",
          "name": "",
          "type": "uint256"
        }
      ],
      "name": "defaultDestination",
      "outputs": [
        {
          "internalType": "address",
          "name": "destination",
          "type": "address"
        },
        {
          "internalType": "uint256",
          "name": "percent",
          "type": "uint256"
        },
        {
          "internalType": "bool",
          "name": "avaliable",
          "type": "bool"
        },
        {
          "internalType": "enum FeeDispatcher.FarmType",
          "name": "farmType",
          "type": "uint8"
        }
      ],
      "stateMutability": "view",
      "type": "function"
    },
    {
      "inputs": [],
      "name": "defaultDestinationLength",
      "outputs": [
        {
          "internalType": "uint256",
          "name": "",
          "type": "uint256"
        }
      ],
      "stateMutability": "view",
      "type": "function"
    },
    {
      "inputs": [
        {
          "internalType": "uint256",
          "name": "id",
          "type": "uint256"
        }
      ],
      "name": "delDefaultDestination",
      "outputs": [],
      "stateMutability": "nonpayable",
      "type": "function"
    },
    {
      "inputs": [
        {
          "internalType": "address",
          "name": "token",
          "type": "address"
        },
        {
          "internalType": "uint256",
          "name": "id",
          "type": "uint256"
        }
      ],
      "name": "delRelateDestination",
      "outputs": [],
      "stateMutability": "nonpayable",
      "type": "function"
    },
    {
      "inputs": [
        {
          "internalType": "address",
          "name": "token",
          "type": "address"
        },
        {
          "internalType": "uint256",
          "name": "id",
          "type": "uint256"
        }
      ],
      "name": "delTokenDestination",
      "outputs": [],
      "stateMutability": "nonpayable",
      "type": "function"
    },
    {
      "inputs": [
        {
          "internalType": "address",
          "name": "pair",
          "type": "address"
        },
        {
          "internalType": "address",
          "name": "token",
          "type": "address"
        },
        {
          "internalType": "address",
          "name": "user",
          "type": "address"
        },
        {
          "internalType": "uint256",
          "name": "amount",
          "type": "uint256"
        }
      ],
      "name": "doHardWork",
      "outputs": [],
      "stateMutability": "nonpayable",
      "type": "function"
    },
    {
      "inputs": [],
      "name": "owner",
      "outputs": [
        {
          "internalType": "address",
          "name": "",
          "type": "address"
        }
      ],
      "stateMutability": "view",
      "type": "function"
    },
    {
      "inputs": [
        {
          "internalType": "address",
          "name": "token",
          "type": "address"
        }
      ],
      "name": "relateDestinationLength",
      "outputs": [
        {
          "internalType": "uint256",
          "name": "",
          "type": "uint256"
        }
      ],
      "stateMutability": "view",
      "type": "function"
    },
    {
      "inputs": [],
      "name": "renounceOwnership",
      "outputs": [],
      "stateMutability": "nonpayable",
      "type": "function"
    },
    {
      "inputs": [
        {
          "internalType": "address",
          "name": "token",
          "type": "address"
        }
      ],
      "name": "tokenDestinationLength",
      "outputs": [
        {
          "internalType": "uint256",
          "name": "",
          "type": "uint256"
        }
      ],
      "stateMutability": "view",
      "type": "function"
    },
    {
      "inputs": [
        {
          "internalType": "address",
          "name": "newOwner",
          "type": "address"
        }
      ],
      "name": "transferOwnership",
      "outputs": [],
      "stateMutability": "nonpayable",
      "type": "function"
    }
  ],
  "transactionHash": "0x73f5e9216d89df68a1a17430c828d22f3384444589c028f9242cbd3278ab000d",
  "args": [],
  "solcInputHash": "40ec0bdbea7300671a5565b441469db5",
  "bytecode": "0x608060405234801561001057600080fd5b50600061001b61006a565b600080546001600160a01b0319166001600160a01b0383169081178255604051929350917f8be0079c531659141344cd1fd0a4f28419497f9722a3daafe3b4186f6b6457e0908290a35061006e565b3390565b6120d48061007d6000396000f3fe608060405234801561001057600080fd5b50600436106100ea5760003560e01c8063715018a61161008c578063a25ef79d11610066578063a25ef79d146102d6578063ae19ad561461030e578063dcd80a0014610316578063f2fde38b1461033c576100ea565b8063715018a61461026e57806374af8c3c146102765780638da5cb5b146102b2576100ea565b806332b08d79116100c857806332b08d791461017c5780633b2447f9146101a85780636b6a588f146102065780636e85b0ab14610232576100ea565b8063148d0619146100ef57806316d561961461012d5780632a417c141461015f575b600080fd5b61012b6004803603608081101561010557600080fd5b506001600160a01b03813581169160208101359091169060408101359060600135610362565b005b61012b6004803603606081101561014357600080fd5b506001600160a01b0381351690602081013590604001356104bc565b61012b6004803603602081101561017557600080fd5b50356105f1565b61012b6004803603604081101561019257600080fd5b506001600160a01b0381351690602001356107ff565b6101c5600480360360208110156101be57600080fd5b5035610a7d565b60405180856001600160a01b0316815260200184815260200183151581526020018260058111156101f257fe5b815260200194505050505060405180910390f35b61012b6004803603604081101561021c57600080fd5b506001600160a01b038135169060200135610ac3565b61012b6004803603608081101561024857600080fd5b506001600160a01b03813581169160208101359091169060408101359060600135610d04565b61012b610e58565b61012b6004803603608081101561028c57600080fd5b506001600160a01b03813581169160208101358216916040820135169060600135610f04565b6102ba61184f565b604080516001600160a01b039092168252519081900360200190f35b6102fc600480360360208110156102ec57600080fd5b50356001600160a01b031661185e565b60408051918252519081900360200190f35b6102fc611879565b6102fc6004803603602081101561032c57600080fd5b50356001600160a01b031661187f565b61012b6004803603602081101561035257600080fd5b50356001600160a01b031661189a565b61036a61199c565b6001600160a01b031661037b61184f565b6001600160a01b0316146103c4576040805162461bcd60e51b81526020600482018190526024820152600080516020612055833981519152604482015290519081900360640190fd5b60036000856001600160a01b03166001600160a01b031681526020019081526020016000206040518060800160405280856001600160a01b0316815260200184815260200160011515815260200183600581111561041e57fe5b600581111561042957fe5b90528154600180820184556000938452602093849020835160039093020180546001600160a01b0319166001600160a01b039093169290921782559282015192810192909255604081015160028301805460ff1916911515919091178082556060830151929392919061ff0019166101008360058111156104a657fe5b021790555050506104b6846119a0565b50505050565b6104c461199c565b6001600160a01b03166104d561184f565b6001600160a01b03161461051e576040805162461bcd60e51b81526020600482018190526024820152600080516020612055833981519152604482015290519081900360640190fd5b60016040518060800160405280856001600160a01b0316815260200184815260200160011515815260200183600581111561055557fe5b600581111561056057fe5b90528154600180820184556000938452602093849020835160039093020180546001600160a01b0319166001600160a01b039093169290921782559282015192810192909255604081015160028301805460ff1916911515919091178082556060830151929392919061ff0019166101008360058111156105dd57fe5b021790555050506105ec611a4c565b505050565b6105f961199c565b6001600160a01b031661060a61184f565b6001600160a01b031614610653576040805162461bcd60e51b81526020600482018190526024820152600080516020612055833981519152604482015290519081900360640190fd5b6001548110610696576040805162461bcd60e51b815260206004820152600a6024820152691a5b1b1959d85b081a5960b21b604482015290519081900360640190fd5b600154600019018110156107b8576106ac611fc2565b6001805460001981019081106106be57fe5b600091825260209182902060408051608081018252600390930290910180546001600160a01b03168352600181015493830193909352600283015460ff808216151592840192909252919291606084019161010090910416600581111561072157fe5b600581111561072c57fe5b81525050905060006001838154811061074157fe5b600091825260209182902084516003929092020180546001600160a01b0319166001600160a01b03909216919091178155908301516001820155604083015160028201805460ff191691151591909117808255606085015192935061ff0019166101008360058111156107b057fe5b021790555050505b60018054806107c357fe5b60008281526020812060036000199093019283020180546001600160a01b03191681556001810191909155600201805461ffff19169055905550565b61080761199c565b6001600160a01b031661081861184f565b6001600160a01b031614610861576040805162461bcd60e51b81526020600482018190526024820152600080516020612055833981519152604482015290519081900360640190fd5b6001600160a01b03821660009081526002602052604090205481106108ba576040805162461bcd60e51b815260206004820152600a6024820152691a5b1b1959d85b081a5960b21b604482015290519081900360640190fd5b6001600160a01b03821660009081526002602052604090205460001901811015610a1f576108e6611fc2565b6001600160a01b03831660009081526002602052604090208054600019810190811061090e57fe5b600091825260209182902060408051608081018252600390930290910180546001600160a01b03168352600181015493830193909352600283015460ff808216151592840192909252919291606084019161010090910416600581111561097157fe5b600581111561097c57fe5b9052506001600160a01b038416600090815260026020526040812080549293509091849081106109a857fe5b600091825260209182902084516003929092020180546001600160a01b0319166001600160a01b03909216919091178155908301516001820155604083015160028201805460ff191691151591909117808255606085015192935061ff001916610100836005811115610a1757fe5b021790555050505b6001600160a01b0382166000908152600260205260409020805480610a4057fe5b60008281526020812060036000199093019283020180546001600160a01b03191681556001810191909155600201805461ffff1916905590555050565b60018181548110610a8a57fe5b60009182526020909120600390910201805460018201546002909201546001600160a01b03909116925060ff8082169161010090041684565b610acb61199c565b6001600160a01b0316610adc61184f565b6001600160a01b031614610b25576040805162461bcd60e51b81526020600482018190526024820152600080516020612055833981519152604482015290519081900360640190fd5b6001600160a01b0382166000908152600360205260409020548110610b7e576040805162461bcd60e51b815260206004820152600a6024820152691a5b1b1959d85b081a5960b21b604482015290519081900360640190fd5b6001600160a01b03821660009081526003602052604090205460001901811015610ce357610baa611fc2565b6001600160a01b038316600090815260036020526040902080546000198101908110610bd257fe5b600091825260209182902060408051608081018252600390930290910180546001600160a01b03168352600181015493830193909352600283015460ff8082161515928401929092529192916060840191610100909104166005811115610c3557fe5b6005811115610c4057fe5b9052506001600160a01b03841660009081526003602052604081208054929350909184908110610c6c57fe5b600091825260209182902084516003929092020180546001600160a01b0319166001600160a01b03909216919091178155908301516001820155604083015160028201805460ff191691151591909117808255606085015192935061ff001916610100836005811115610cdb57fe5b021790555050505b6001600160a01b0382166000908152600360205260409020805480610a4057fe5b610d0c61199c565b6001600160a01b0316610d1d61184f565b6001600160a01b031614610d66576040805162461bcd60e51b81526020600482018190526024820152600080516020612055833981519152604482015290519081900360640190fd5b60026000856001600160a01b03166001600160a01b031681526020019081526020016000206040518060800160405280856001600160a01b03168152602001848152602001600115158152602001836005811115610dc057fe5b6005811115610dcb57fe5b90528154600180820184556000938452602093849020835160039093020180546001600160a01b0319166001600160a01b039093169290921782559282015192810192909255604081015160028301805460ff1916911515919091178082556060830151929392919061ff001916610100836005811115610e4857fe5b021790555050506104b684611ae7565b610e6061199c565b6001600160a01b0316610e7161184f565b6001600160a01b031614610eba576040805162461bcd60e51b81526020600482018190526024820152600080516020612055833981519152604482015290519081900360640190fd5b600080546040516001600160a01b03909116907f8be0079c531659141344cd1fd0a4f28419497f9722a3daafe3b4186f6b6457e0908390a3600080546001600160a01b0319169055565b610f1083333084611b23565b6001600160a01b03831660009081526002602052604090205460609015610ff7576001600160a01b038416600090815260026020908152604080832080548251818502810185019093528083529193909284015b82821015610fec576000848152602090819020604080516080810182526003860290920180546001600160a01b03168352600181015493830193909352600283015460ff8082161515928401929092529192916060840191610100909104166005811115610fce57fe5b6005811115610fd957fe5b8152505081526020019060010190610f64565b50505050905061139e565b6001600160a01b038516156112ed576000856001600160a01b0316630dfe16816040518163ffffffff1660e01b815260040160206040518083038186803b15801561104157600080fd5b505afa158015611055573d6000803e3d6000fd5b505050506040513d602081101561106b57600080fd5b50516001600160a01b038681169116146110e957856001600160a01b0316630dfe16816040518163ffffffff1660e01b815260040160206040518083038186803b1580156110b857600080fd5b505afa1580156110cc573d6000803e3d6000fd5b505050506040513d60208110156110e257600080fd5b505161114f565b856001600160a01b031663d21220a76040518163ffffffff1660e01b815260040160206040518083038186803b15801561112257600080fd5b505afa158015611136573d6000803e3d6000fd5b505050506040513d602081101561114c57600080fd5b50515b6001600160a01b03811660009081526003602052604090205490915015611236576001600160a01b038116600090815260036020908152604080832080548251818502810185019093528083529193909284015b8282101561122b576000848152602090819020604080516080810182526003860290920180546001600160a01b03168352600181015493830193909352600283015460ff808216151592840192909252919291606084019161010090910416600581111561120d57fe5b600581111561121857fe5b81525050815260200190600101906111a3565b5050505091506112e7565b6001805480602002602001604051908101604052809291908181526020016000905b828210156112e0576000848152602090819020604080516080810182526003860290920180546001600160a01b03168352600181015493830193909352600283015460ff80821615159284019290925291929160608401916101009091041660058111156112c257fe5b60058111156112cd57fe5b8152505081526020019060010190611258565b5050505091505b5061139e565b6001805480602002602001604051908101604052809291908181526020016000905b82821015611397576000848152602090819020604080516080810182526003860290920180546001600160a01b03168352600181015493830193909352600283015460ff808216151592840192909252919291606084019161010090910416600581111561137957fe5b600581111561138457fe5b815250508152602001906001019061130f565b5050505090505b60005b81518110156118475760006113e26127106113dc8585815181106113c157fe5b60200260200101516020015187611b7d90919063ffffffff16565b90611bdf565b905060008383815181106113f257fe5b602002602001015160600151600581111561140957fe5b1415611436576114318684848151811061141f57fe5b60200260200101516000015183611c46565b61183e565b600183838151811061144457fe5b602002602001015160600151600581111561145b57fe5b141561159957856001600160a01b031663095ea7b384848151811061147c57fe5b602002602001015160000151836040518363ffffffff1660e01b815260040180836001600160a01b0316815260200182815260200192505050602060405180830381600087803b1580156114cf57600080fd5b505af11580156114e3573d6000803e3d6000fd5b505050506040513d60208110156114f957600080fd5b5050825183908390811061150957fe5b6020026020010151600001516001600160a01b03166329aaf8738888846040518463ffffffff1660e01b815260040180846001600160a01b03168152602001836001600160a01b031681526020018281526020019350505050600060405180830381600087803b15801561157c57600080fd5b505af1158015611590573d6000803e3d6000fd5b5050505061183e565b60028383815181106115a757fe5b60200260200101516060015160058111156115be57fe5b14156116df57856001600160a01b031663095ea7b38484815181106115df57fe5b602002602001015160000151836040518363ffffffff1660e01b815260040180836001600160a01b0316815260200182815260200192505050602060405180830381600087803b15801561163257600080fd5b505af1158015611646573d6000803e3d6000fd5b505050506040513d602081101561165c57600080fd5b5050825183908390811061166c57fe5b6020026020010151600001516001600160a01b0316633cb79e648888846040518463ffffffff1660e01b815260040180846001600160a01b03168152602001836001600160a01b031681526020018281526020019350505050600060405180830381600087803b15801561157c57600080fd5b60058383815181106116ed57fe5b602002602001015160600151600581111561170457fe5b141561183e57856001600160a01b031663095ea7b384848151811061172557fe5b602002602001015160000151836040518363ffffffff1660e01b815260040180836001600160a01b0316815260200182815260200192505050602060405180830381600087803b15801561177857600080fd5b505af115801561178c573d6000803e3d6000fd5b505050506040513d60208110156117a257600080fd5b505082518390839081106117b257fe5b6020026020010151600001516001600160a01b03166388fee43b8688846040518463ffffffff1660e01b815260040180846001600160a01b03168152602001836001600160a01b031681526020018281526020019350505050600060405180830381600087803b15801561182557600080fd5b505af1158015611839573d6000803e3d6000fd5b505050505b506001016113a1565b505050505050565b6000546001600160a01b031690565b6001600160a01b031660009081526003602052604090205490565b60015490565b6001600160a01b031660009081526002602052604090205490565b6118a261199c565b6001600160a01b03166118b361184f565b6001600160a01b0316146118fc576040805162461bcd60e51b81526020600482018190526024820152600080516020612055833981519152604482015290519081900360640190fd5b6001600160a01b0381166119415760405162461bcd60e51b8152600401808060200182810382526026815260200180611fe86026913960400191505060405180910390fd5b600080546040516001600160a01b03808516939216917f8be0079c531659141344cd1fd0a4f28419497f9722a3daafe3b4186f6b6457e091a3600080546001600160a01b0319166001600160a01b0392909216919091179055565b3390565b6001600160a01b0381166000908152600360205260408120815b81548110156119fd576119f38282815481106119d257fe5b90600052602060002090600302016001015484611c9890919063ffffffff16565b92506001016119ba565b506127108211156105ec576040805162461bcd60e51b81526020600482015260146024820152731a5b1b1959d85b081d1bdd185b14195c98d95b9d60621b604482015290519081900360640190fd5b6000805b600154811015611a9557611a8b60018281548110611a6a57fe5b90600052602060002090600302016001015483611c9890919063ffffffff16565b9150600101611a50565b50612710811115611ae4576040805162461bcd60e51b81526020600482015260146024820152731a5b1b1959d85b081d1bdd185b14195c98d95b9d60621b604482015290519081900360640190fd5b50565b6001600160a01b0381166000908152600260205260408120815b81548110156119fd57611b198282815481106119d257fe5b9250600101611b01565b604080516001600160a01b0380861660248301528416604482015260648082018490528251808303909101815260849091019091526020810180516001600160e01b03166323b872dd60e01b1790526104b6908590611cf2565b600082611b8c57506000611bd9565b82820282848281611b9957fe5b0414611bd65760405162461bcd60e51b81526004018080602001828103825260218152602001806120346021913960400191505060405180910390fd5b90505b92915050565b6000808211611c35576040805162461bcd60e51b815260206004820152601a60248201527f536166654d6174683a206469766973696f6e206279207a65726f000000000000604482015290519081900360640190fd5b818381611c3e57fe5b049392505050565b604080516001600160a01b038416602482015260448082018490528251808303909101815260649091019091526020810180516001600160e01b031663a9059cbb60e01b1790526105ec908490611cf2565b600082820183811015611bd6576040805162461bcd60e51b815260206004820152601b60248201527f536166654d6174683a206164646974696f6e206f766572666c6f770000000000604482015290519081900360640190fd5b6060611d47826040518060400160405280602081526020017f5361666545524332303a206c6f772d6c6576656c2063616c6c206661696c6564815250856001600160a01b0316611da39092919063ffffffff16565b8051909150156105ec57808060200190516020811015611d6657600080fd5b50516105ec5760405162461bcd60e51b815260040180806020018281038252602a815260200180612075602a913960400191505060405180910390fd5b6060611db28484600085611dbc565b90505b9392505050565b606082471015611dfd5760405162461bcd60e51b815260040180806020018281038252602681526020018061200e6026913960400191505060405180910390fd5b611e0685611f18565b611e57576040805162461bcd60e51b815260206004820152601d60248201527f416464726573733a2063616c6c20746f206e6f6e2d636f6e7472616374000000604482015290519081900360640190fd5b60006060866001600160a01b031685876040518082805190602001908083835b60208310611e965780518252601f199092019160209182019101611e77565b6001836020036101000a03801982511681845116808217855250505050505090500191505060006040518083038185875af1925050503d8060008114611ef8576040519150601f19603f3d011682016040523d82523d6000602084013e611efd565b606091505b5091509150611f0d828286611f1e565b979650505050505050565b3b151590565b60608315611f2d575081611db5565b825115611f3d5782518084602001fd5b8160405162461bcd60e51b81526004018080602001828103825283818151815260200191508051906020019080838360005b83811015611f87578181015183820152602001611f6f565b50505050905090810190601f168015611fb45780820380516001836020036101000a031916815260200191505b509250505060405180910390fd5b604080516080810182526000808252602082018190529181018290529060608201529056fe4f776e61626c653a206e6577206f776e657220697320746865207a65726f2061646472657373416464726573733a20696e73756666696369656e742062616c616e636520666f722063616c6c536166654d6174683a206d756c7469706c69636174696f6e206f766572666c6f774f776e61626c653a2063616c6c6572206973206e6f7420746865206f776e65725361666545524332303a204552433230206f7065726174696f6e20646964206e6f742073756363656564a26469706673582212206517031c9dfd3fd8f526893f4c15afbea3227e538f831dda10adf9e38a2dd2ec64736f6c63430007020033",
  "devdoc": {
    "kind": "dev",
    "methods": {
      "owner()": {
        "details": "Returns the address of the current owner."
      },
      "renounceOwnership()": {
        "details": "Leaves the contract without owner. It will not be possible to call `onlyOwner` functions anymore. Can only be called by the current owner. NOTE: Renouncing ownership will leave the contract without an owner, thereby removing any functionality that is only available to the owner."
      },
      "transferOwnership(address)": {
        "details": "Transfers ownership of the contract to a new account (`newOwner`). Can only be called by the current owner."
      }
    },
    "version": 1
  },
  "userdoc": {
    "kind": "user",
    "methods": {},
    "version": 1
  },
  "storageLayout": {
    "storage": [
      {
        "astId": 7,
        "contract": "contracts/farm/FeeDispatcher.sol:FeeDispatcher",
        "label": "_owner",
        "offset": 0,
        "slot": "0",
        "type": "t_address"
      },
      {
        "astId": 2327,
        "contract": "contracts/farm/FeeDispatcher.sol:FeeDispatcher",
        "label": "defaultDestination",
        "offset": 0,
        "slot": "1",
        "type": "t_array(t_struct(Destination)2324_storage)dyn_storage"
      },
      {
        "astId": 2487,
        "contract": "contracts/farm/FeeDispatcher.sol:FeeDispatcher",
        "label": "tokenDestination",
        "offset": 0,
        "slot": "2",
        "type": "t_mapping(t_address,t_array(t_struct(Destination)2324_storage)dyn_storage)"
      },
      {
        "astId": 2678,
        "contract": "contracts/farm/FeeDispatcher.sol:FeeDispatcher",
        "label": "relateDestination",
        "offset": 0,
        "slot": "3",
        "type": "t_mapping(t_address,t_array(t_struct(Destination)2324_storage)dyn_storage)"
      }
    ],
    "types": {
      "t_address": {
        "encoding": "inplace",
        "label": "address",
        "numberOfBytes": "20"
      },
      "t_array(t_struct(Destination)2324_storage)dyn_storage": {
        "base": "t_struct(Destination)2324_storage",
        "encoding": "dynamic_array",
        "label": "struct FeeDispatcher.Destination[]",
        "numberOfBytes": "32"
      },
      "t_bool": {
        "encoding": "inplace",
        "label": "bool",
        "numberOfBytes": "1"
      },
      "t_enum(FarmType)2315": {
        "encoding": "inplace",
        "label": "enum FeeDispatcher.FarmType",
        "numberOfBytes": "1"
      },
      "t_mapping(t_address,t_array(t_struct(Destination)2324_storage)dyn_storage)": {
        "encoding": "mapping",
        "key": "t_address",
        "label": "mapping(address => struct FeeDispatcher.Destination[])",
        "numberOfBytes": "32",
        "value": "t_array(t_struct(Destination)2324_storage)dyn_storage"
      },
      "t_struct(Destination)2324_storage": {
        "encoding": "inplace",
        "label": "struct FeeDispatcher.Destination",
        "members": [
          {
            "astId": 2317,
            "contract": "contracts/farm/FeeDispatcher.sol:FeeDispatcher",
            "label": "destination",
            "offset": 0,
            "slot": "0",
            "type": "t_address"
          },
          {
            "astId": 2319,
            "contract": "contracts/farm/FeeDispatcher.sol:FeeDispatcher",
            "label": "percent",
            "offset": 0,
            "slot": "1",
            "type": "t_uint256"
          },
          {
            "astId": 2321,
            "contract": "contracts/farm/FeeDispatcher.sol:FeeDispatcher",
            "label": "avaliable",
            "offset": 0,
            "slot": "2",
            "type": "t_bool"
          },
          {
            "astId": 2323,
            "contract": "contracts/farm/FeeDispatcher.sol:FeeDispatcher",
            "label": "farmType",
            "offset": 1,
            "slot": "2",
            "type": "t_enum(FarmType)2315"
          }
        ],
        "numberOfBytes": "96"
      },
      "t_uint256": {
        "encoding": "inplace",
        "label": "uint256",
        "numberOfBytes": "32"
      }
    }
  }
}