{
  "address": "0x3C7ae076AaC1B83d7b03A9c6148925cF70059Ea8",
  "abi": [
    {
      "inputs": [
        {
          "internalType": "contract IUser",
          "name": "_user",
          "type": "address"
        }
      ],
      "stateMutability": "nonpayable",
      "type": "constructor"
    },
    {
      "inputs": [
        {
          "internalType": "address",
          "name": "_token",
          "type": "address"
        }
      ],
      "name": "claim",
      "outputs": [],
      "stateMutability": "nonpayable",
      "type": "function"
    },
    {
      "inputs": [
        {
          "internalType": "address",
          "name": "_user",
          "type": "address"
        },
        {
          "internalType": "address",
          "name": "_token",
          "type": "address"
        },
        {
          "internalType": "uint256",
          "name": "_amount",
          "type": "uint256"
        }
      ],
      "name": "doHardWork",
      "outputs": [],
      "stateMutability": "nonpayable",
      "type": "function"
    },
    {
      "inputs": [
        {
          "internalType": "address",
          "name": "",
          "type": "address"
        },
        {
          "internalType": "address",
          "name": "",
          "type": "address"
        }
      ],
      "name": "profits",
      "outputs": [
        {
          "internalType": "uint256",
          "name": "",
          "type": "uint256"
        }
      ],
      "stateMutability": "view",
      "type": "function"
    }
  ],
  "transactionHash": "0xa54140a8ad3f38b36e113fa93a7f49fc77b5a457f6fba6eadccac18cc4fdbe17",
  "args": [
    "0x790C8012539F5f245e26BCEe14e47A53703e3f97"
  ],
  "solcInputHash": "b23861fd4cc5066e011dd2d307c05e17",
  "bytecode": "0x608060405234801561001057600080fd5b506040516107133803806107138339818101604052602081101561003357600080fd5b5051600080546001600160a01b039092166001600160a01b03199092169190911790556106ae806100656000396000f3fe608060405234801561001057600080fd5b50600436106100415760003560e01c80631e83409a1461004657806367dd2f7d1461006e57806388fee43b146100ae575b600080fd5b61006c6004803603602081101561005c57600080fd5b50356001600160a01b03166100e4565b005b61009c6004803603604081101561008457600080fd5b506001600160a01b038135811691602001351661013c565b60408051918252519081900360200190f35b61006c600480360360608110156100c457600080fd5b506001600160a01b03813581169160208101359091169060400135610159565b3360008181526001602090815260408083206001600160a01b0386168452909152902054610113918391610242565b3360009081526001602090815260408083206001600160a01b0394909416835292905290812055565b600160209081526000928352604080842090915290825290205481565b61016582333084610299565b600080546040805163774785bd60e11b81526001600160a01b0387811660048301529151919092169163ee8f0b7a916024808301926020929190829003018186803b1580156101b357600080fd5b505afa1580156101c7573d6000803e3d6000fd5b505050506040513d60208110156101dd57600080fd5b50516001600160a01b0380861660009081526001602090815260408083209388168352929052205490915061021290836102f9565b6001600160a01b039182166000908152600160209081526040808320969094168252949094529220919091555050565b604080516001600160a01b038416602482015260448082018490528251808303909101815260649091019091526020810180516001600160e01b031663a9059cbb60e01b17905261029490849061035a565b505050565b604080516001600160a01b0380861660248301528416604482015260648082018490528251808303909101815260849091019091526020810180516001600160e01b03166323b872dd60e01b1790526102f390859061035a565b50505050565b600082820183811015610353576040805162461bcd60e51b815260206004820152601b60248201527f536166654d6174683a206164646974696f6e206f766572666c6f770000000000604482015290519081900360640190fd5b9392505050565b60606103af826040518060400160405280602081526020017f5361666545524332303a206c6f772d6c6576656c2063616c6c206661696c6564815250856001600160a01b031661040b9092919063ffffffff16565b805190915015610294578080602001905160208110156103ce57600080fd5b50516102945760405162461bcd60e51b815260040180806020018281038252602a81526020018061064f602a913960400191505060405180910390fd5b606061041a8484600085610422565b949350505050565b6060824710156104635760405162461bcd60e51b81526004018080602001828103825260268152602001806106296026913960400191505060405180910390fd5b61046c8561057e565b6104bd576040805162461bcd60e51b815260206004820152601d60248201527f416464726573733a2063616c6c20746f206e6f6e2d636f6e7472616374000000604482015290519081900360640190fd5b60006060866001600160a01b031685876040518082805190602001908083835b602083106104fc5780518252601f1990920191602091820191016104dd565b6001836020036101000a03801982511681845116808217855250505050505090500191505060006040518083038185875af1925050503d806000811461055e576040519150601f19603f3d011682016040523d82523d6000602084013e610563565b606091505b5091509150610573828286610584565b979650505050505050565b3b151590565b60608315610593575081610353565b8251156105a35782518084602001fd5b8160405162461bcd60e51b81526004018080602001828103825283818151815260200191508051906020019080838360005b838110156105ed5781810151838201526020016105d5565b50505050905090810190601f16801561061a5780820380516001836020036101000a031916815260200191505b509250505060405180910390fdfe416464726573733a20696e73756666696369656e742062616c616e636520666f722063616c6c5361666545524332303a204552433230206f7065726174696f6e20646964206e6f742073756363656564a2646970667358221220efc57f013353366e2f1be7b3d8d649c26c63a17c480bc030664c82240e4348c764736f6c63430007020033",
  "devdoc": {
    "kind": "dev",
    "methods": {},
    "version": 1
  },
  "userdoc": {
    "kind": "user",
    "methods": {},
    "version": 1
  },
  "storageLayout": {
    "storage": [
      {
        "astId": 3127,
        "contract": "contracts/farm/Inviter.sol:Inviter",
        "label": "user",
        "offset": 0,
        "slot": "0",
        "type": "t_contract(IUser)7464"
      },
      {
        "astId": 3133,
        "contract": "contracts/farm/Inviter.sol:Inviter",
        "label": "profits",
        "offset": 0,
        "slot": "1",
        "type": "t_mapping(t_address,t_mapping(t_address,t_uint256))"
      }
    ],
    "types": {
      "t_address": {
        "encoding": "inplace",
        "label": "address",
        "numberOfBytes": "20"
      },
      "t_contract(IUser)7464": {
        "encoding": "inplace",
        "label": "contract IUser",
        "numberOfBytes": "20"
      },
      "t_mapping(t_address,t_mapping(t_address,t_uint256))": {
        "encoding": "mapping",
        "key": "t_address",
        "label": "mapping(address => mapping(address => uint256))",
        "numberOfBytes": "32",
        "value": "t_mapping(t_address,t_uint256)"
      },
      "t_mapping(t_address,t_uint256)": {
        "encoding": "mapping",
        "key": "t_address",
        "label": "mapping(address => uint256)",
        "numberOfBytes": "32",
        "value": "t_uint256"
      },
      "t_uint256": {
        "encoding": "inplace",
        "label": "uint256",
        "numberOfBytes": "32"
      }
    }
  }
}