{
  "address": "0xaE96322E36ee5e4D3B056aDc02c99af52D3E0660",
  "abi": [
    {
      "inputs": [
        {
          "internalType": "address",
          "name": "_factory",
          "type": "address"
        },
        {
          "internalType": "address",
          "name": "_WETH",
          "type": "address"
        },
        {
          "internalType": "contract IMasterChef",
          "name": "_masterChef",
          "type": "address"
        }
      ],
      "stateMutability": "nonpayable",
      "type": "constructor"
    },
    {
      "inputs": [],
      "name": "WETH",
      "outputs": [
        {
          "internalType": "address",
          "name": "",
          "type": "address"
        }
      ],
      "stateMutability": "view",
      "type": "function"
    },
    {
      "inputs": [
        {
          "internalType": "address",
          "name": "tokenA",
          "type": "address"
        },
        {
          "internalType": "address",
          "name": "tokenB",
          "type": "address"
        },
        {
          "internalType": "uint256",
          "name": "amountADesired",
          "type": "uint256"
        },
        {
          "internalType": "uint256",
          "name": "amountBDesired",
          "type": "uint256"
        },
        {
          "internalType": "uint256",
          "name": "amountAMin",
          "type": "uint256"
        },
        {
          "internalType": "uint256",
          "name": "amountBMin",
          "type": "uint256"
        },
        {
          "internalType": "address",
          "name": "to",
          "type": "address"
        },
        {
          "internalType": "uint256",
          "name": "deadline",
          "type": "uint256"
        },
        {
          "internalType": "uint256",
          "name": "lockType",
          "type": "uint256"
        }
      ],
      "name": "addLiquidity",
      "outputs": [
        {
          "internalType": "uint256",
          "name": "amountA",
          "type": "uint256"
        },
        {
          "internalType": "uint256",
          "name": "amountB",
          "type": "uint256"
        },
        {
          "internalType": "uint256",
          "name": "liquidity",
          "type": "uint256"
        }
      ],
      "stateMutability": "nonpayable",
      "type": "function"
    },
    {
      "inputs": [
        {
          "internalType": "address",
          "name": "token",
          "type": "address"
        },
        {
          "internalType": "uint256",
          "name": "amountTokenDesired",
          "type": "uint256"
        },
        {
          "internalType": "uint256",
          "name": "amountTokenMin",
          "type": "uint256"
        },
        {
          "internalType": "uint256",
          "name": "amountETHMin",
          "type": "uint256"
        },
        {
          "internalType": "address",
          "name": "to",
          "type": "address"
        },
        {
          "internalType": "uint256",
          "name": "deadline",
          "type": "uint256"
        },
        {
          "internalType": "uint256",
          "name": "lockType",
          "type": "uint256"
        }
      ],
      "name": "addLiquidityETH",
      "outputs": [
        {
          "internalType": "uint256",
          "name": "amountToken",
          "type": "uint256"
        },
        {
          "internalType": "uint256",
          "name": "amountETH",
          "type": "uint256"
        },
        {
          "internalType": "uint256",
          "name": "liquidity",
          "type": "uint256"
        }
      ],
      "stateMutability": "payable",
      "type": "function"
    },
    {
      "inputs": [],
      "name": "factory",
      "outputs": [
        {
          "internalType": "address",
          "name": "",
          "type": "address"
        }
      ],
      "stateMutability": "view",
      "type": "function"
    },
    {
      "inputs": [],
      "name": "masterChef",
      "outputs": [
        {
          "internalType": "contract IMasterChef",
          "name": "",
          "type": "address"
        }
      ],
      "stateMutability": "view",
      "type": "function"
    },
    {
      "inputs": [
        {
          "internalType": "address",
          "name": "tokenA",
          "type": "address"
        },
        {
          "internalType": "address",
          "name": "tokenB",
          "type": "address"
        },
        {
          "internalType": "uint256",
          "name": "liquidity",
          "type": "uint256"
        },
        {
          "internalType": "uint256",
          "name": "amountAMin",
          "type": "uint256"
        },
        {
          "internalType": "uint256",
          "name": "amountBMin",
          "type": "uint256"
        },
        {
          "internalType": "address",
          "name": "to",
          "type": "address"
        },
        {
          "internalType": "uint256",
          "name": "deadline",
          "type": "uint256"
        }
      ],
      "name": "removeLiquidity",
      "outputs": [
        {
          "internalType": "uint256",
          "name": "amountA",
          "type": "uint256"
        },
        {
          "internalType": "uint256",
          "name": "amountB",
          "type": "uint256"
        }
      ],
      "stateMutability": "nonpayable",
      "type": "function"
    },
    {
      "inputs": [
        {
          "internalType": "address",
          "name": "token",
          "type": "address"
        },
        {
          "internalType": "uint256",
          "name": "liquidity",
          "type": "uint256"
        },
        {
          "internalType": "uint256",
          "name": "amountTokenMin",
          "type": "uint256"
        },
        {
          "internalType": "uint256",
          "name": "amountETHMin",
          "type": "uint256"
        },
        {
          "internalType": "address",
          "name": "to",
          "type": "address"
        },
        {
          "internalType": "uint256",
          "name": "deadline",
          "type": "uint256"
        }
      ],
      "name": "removeLiquidityETH",
      "outputs": [
        {
          "internalType": "uint256",
          "name": "amountToken",
          "type": "uint256"
        },
        {
          "internalType": "uint256",
          "name": "amountETH",
          "type": "uint256"
        }
      ],
      "stateMutability": "nonpayable",
      "type": "function"
    },
    {
      "inputs": [
        {
          "internalType": "uint256",
          "name": "amountOut",
          "type": "uint256"
        },
        {
          "internalType": "address[]",
          "name": "path",
          "type": "address[]"
        },
        {
          "internalType": "address",
          "name": "to",
          "type": "address"
        },
        {
          "internalType": "uint256",
          "name": "deadline",
          "type": "uint256"
        }
      ],
      "name": "swapETHForExactTokens",
      "outputs": [
        {
          "internalType": "uint256[]",
          "name": "amounts",
          "type": "uint256[]"
        }
      ],
      "stateMutability": "payable",
      "type": "function"
    },
    {
      "inputs": [
        {
          "internalType": "uint256",
          "name": "amountOutMin",
          "type": "uint256"
        },
        {
          "internalType": "address[]",
          "name": "path",
          "type": "address[]"
        },
        {
          "internalType": "address",
          "name": "to",
          "type": "address"
        },
        {
          "internalType": "uint256",
          "name": "deadline",
          "type": "uint256"
        }
      ],
      "name": "swapExactETHForTokens",
      "outputs": [
        {
          "internalType": "uint256[]",
          "name": "amounts",
          "type": "uint256[]"
        }
      ],
      "stateMutability": "payable",
      "type": "function"
    },
    {
      "inputs": [
        {
          "internalType": "uint256",
          "name": "amountIn",
          "type": "uint256"
        },
        {
          "internalType": "uint256",
          "name": "amountOutMin",
          "type": "uint256"
        },
        {
          "internalType": "address[]",
          "name": "path",
          "type": "address[]"
        },
        {
          "internalType": "address",
          "name": "to",
          "type": "address"
        },
        {
          "internalType": "uint256",
          "name": "deadline",
          "type": "uint256"
        }
      ],
      "name": "swapExactTokensForETH",
      "outputs": [
        {
          "internalType": "uint256[]",
          "name": "amounts",
          "type": "uint256[]"
        }
      ],
      "stateMutability": "nonpayable",
      "type": "function"
    },
    {
      "inputs": [
        {
          "internalType": "uint256",
          "name": "amountIn",
          "type": "uint256"
        },
        {
          "internalType": "uint256",
          "name": "amountOutMin",
          "type": "uint256"
        },
        {
          "internalType": "address[]",
          "name": "path",
          "type": "address[]"
        },
        {
          "internalType": "address",
          "name": "to",
          "type": "address"
        },
        {
          "internalType": "uint256",
          "name": "deadline",
          "type": "uint256"
        }
      ],
      "name": "swapExactTokensForTokens",
      "outputs": [
        {
          "internalType": "uint256[]",
          "name": "amounts",
          "type": "uint256[]"
        }
      ],
      "stateMutability": "nonpayable",
      "type": "function"
    },
    {
      "inputs": [
        {
          "internalType": "uint256",
          "name": "amountOut",
          "type": "uint256"
        },
        {
          "internalType": "uint256",
          "name": "amountInMax",
          "type": "uint256"
        },
        {
          "internalType": "address[]",
          "name": "path",
          "type": "address[]"
        },
        {
          "internalType": "address",
          "name": "to",
          "type": "address"
        },
        {
          "internalType": "uint256",
          "name": "deadline",
          "type": "uint256"
        }
      ],
      "name": "swapTokensForExactETH",
      "outputs": [
        {
          "internalType": "uint256[]",
          "name": "amounts",
          "type": "uint256[]"
        }
      ],
      "stateMutability": "nonpayable",
      "type": "function"
    },
    {
      "inputs": [
        {
          "internalType": "uint256",
          "name": "amountOut",
          "type": "uint256"
        },
        {
          "internalType": "uint256",
          "name": "amountInMax",
          "type": "uint256"
        },
        {
          "internalType": "address[]",
          "name": "path",
          "type": "address[]"
        },
        {
          "internalType": "address",
          "name": "to",
          "type": "address"
        },
        {
          "internalType": "uint256",
          "name": "deadline",
          "type": "uint256"
        }
      ],
      "name": "swapTokensForExactTokens",
      "outputs": [
        {
          "internalType": "uint256[]",
          "name": "amounts",
          "type": "uint256[]"
        }
      ],
      "stateMutability": "nonpayable",
      "type": "function"
    },
    {
      "stateMutability": "payable",
      "type": "receive"
    }
  ],
  "transactionHash": "0x709956a8be69212aa050dda94e47c994878d3fc3abd5b174e1b663d174f7ffa3",
  "args": [
    "0xdC569F7e64699Df55420724E53db3bb9f733E7eE",
    "0x9C03457b5b565F57898e4d0353601978c3f7fa15",
    "0xc9a3A7efDaa9DaebBe7413d5dA091C60CC15dDE4"
  ],
  "solcInputHash": "40ec0bdbea7300671a5565b441469db5",
  "bytecode": "0x60c060405234801561001057600080fd5b5060405162004edc38038062004edc8339818101604052606081101561003557600080fd5b5080516020820151604090920151606082811b6001600160601b03199081166080529084901b1660a052600080546001600160a01b0319166001600160a01b03928316178155918116921690614d3f906200019d90398060d652806106f8528061073352806108155280610e51528061152f5280611d5d5280611db35280611de75280611e5b52806121f3528061270e52806127965280612daa528061307c5280613594528061361c5250806108b15280610a105280610a715280610bca5280610dad5280610f5c52806110bb528061111c528061132152806115ce528061172d528061178e52806118e75280611aa65280611d91528061229452806123f3528061245452806125ad52806127c852806129335280612a925280612af35280612c4c5280612e1a5280613012528061311d528061327c52806132dd5280613436528061364e5280613f155280613f58528061432552806143de52806144915250614d3f6000f3fe6080604052600436106100c65760003560e01c80636bb6a6f61161007f578063ad5c464811610059578063ad5c4648146105a0578063baa2abde146105b5578063c45a015514610612578063fb3bdb4114610627576100ff565b80636bb6a6f61461043a5780637ff36ab5146104865780638803dbee1461050a576100ff565b806302751cec1461010457806318cbafe51461017057806338ed1739146102565780634a25d94a146102ec57806357528cca14610382578063575a86b214610409576100ff565b366100ff57336001600160a01b037f000000000000000000000000000000000000000000000000000000000000000016146100fd57fe5b005b600080fd5b34801561011057600080fd5b50610157600480360360c081101561012757600080fd5b506001600160a01b0381358116916020810135916040820135916060810135916080820135169060a001356106ab565b6040805192835260208301919091528051918290030190f35b34801561017c57600080fd5b50610206600480360360a081101561019357600080fd5b813591602081013591810190606081016040820135600160201b8111156101b957600080fd5b8201836020820111156101cb57600080fd5b803590602001918460208302840111600160201b831117156101ec57600080fd5b91935091506001600160a01b0381351690602001356107c5565b60408051602080825283518183015283519192839290830191858101910280838360005b8381101561024257818101518382015260200161022a565b505050509050019250505060405180910390f35b34801561026257600080fd5b50610206600480360360a081101561027957600080fd5b813591602081013591810190606081016040820135600160201b81111561029f57600080fd5b8201836020820111156102b157600080fd5b803590602001918460208302840111600160201b831117156102d257600080fd5b91935091506001600160a01b038135169060200135610f12565b3480156102f857600080fd5b50610206600480360360a081101561030f57600080fd5b813591602081013591810190606081016040820135600160201b81111561033557600080fd5b82018360208201111561034757600080fd5b803590602001918460208302840111600160201b8311171561036857600080fd5b91935091506001600160a01b0381351690602001356114df565b34801561038e57600080fd5b506103eb60048036036101208110156103a657600080fd5b506001600160a01b038135811691602081013582169160408201359160608101359160808201359160a08101359160c0820135169060e0810135906101000135611a43565b60408051938452602084019290925282820152519081900360600190f35b34801561041557600080fd5b5061041e611cff565b604080516001600160a01b039092168252519081900360200190f35b6103eb600480360360e081101561045057600080fd5b506001600160a01b0381358116916020810135916040820135916060810135916080820135169060a08101359060c00135611d0e565b6102066004803603608081101561049c57600080fd5b81359190810190604081016020820135600160201b8111156104bd57600080fd5b8201836020820111156104cf57600080fd5b803590602001918460208302840111600160201b831117156104f057600080fd5b91935091506001600160a01b0381351690602001356121ab565b34801561051657600080fd5b50610206600480360360a081101561052d57600080fd5b813591602081013591810190606081016040820135600160201b81111561055357600080fd5b82018360208201111561056557600080fd5b803590602001918460208302840111600160201b8311171561058657600080fd5b91935091506001600160a01b0381351690602001356128e9565b3480156105ac57600080fd5b5061041e612da8565b3480156105c157600080fd5b50610157600480360360e08110156105d857600080fd5b506001600160a01b038135811691602081013582169160408201359160608101359160808201359160a08101359091169060c00135612dcc565b34801561061e57600080fd5b5061041e613010565b6102066004803603608081101561063d57600080fd5b81359190810190604081016020820135600160201b81111561065e57600080fd5b82018360208201111561067057600080fd5b803590602001918460208302840111600160201b8311171561069157600080fd5b91935091506001600160a01b038135169060200135613034565b60008082428110156106f2576040805162461bcd60e51b81526020600482015260136024820152600080516020614b61833981519152604482015290519081900360640190fd5b610721897f00000000000000000000000000000000000000000000000000000000000000008a8a8a308a612dcc565b9093509150610731898685613782565b7f00000000000000000000000000000000000000000000000000000000000000006001600160a01b0316632e1a7d4d836040518263ffffffff1660e01b815260040180828152602001915050600060405180830381600087803b15801561079757600080fd5b505af11580156107ab573d6000803e3d6000fd5b505050506107b985836138ec565b50965096945050505050565b6060814281101561080b576040805162461bcd60e51b81526020600482015260136024820152600080516020614b61833981519152604482015290519081900360640190fd5b6001600160a01b037f0000000000000000000000000000000000000000000000000000000000000000168686600019810181811061084557fe5b905060200201356001600160a01b03166001600160a01b0316146108ad576040805162461bcd60e51b815260206004820152601a602482015279096cae0d8cae4a4deeae8cae47440929cac82989288bea082a8960331b604482015290519081900360640190fd5b60607f00000000000000000000000000000000000000000000000000000000000000006001600160a01b031663dcb6b48488886040518363ffffffff1660e01b815260040180806020018281038252848482818152602001925060200280828437600081840152601f19601f820116905080830192505050935050505060006040518083038186803b15801561094257600080fd5b505afa158015610956573d6000803e3d6000fd5b505050506040513d6000823e601f3d908101601f19168201604052602081101561097f57600080fd5b8101908080516040519392919084600160201b82111561099e57600080fd5b9083019060208201858111156109b357600080fd5b82518660208202830111600160201b821117156109cf57600080fd5b82525081516020918201928201910280838360005b838110156109fc5781810151838201526020016109e4565b505050509050016040525050509050610a6b7f00000000000000000000000000000000000000000000000000000000000000008a8989808060200260200160405190810160405280939291908181526020018383602002808284376000920191909152508792506139e4915050565b925060007f00000000000000000000000000000000000000000000000000000000000000006001600160a01b031663017e7e586040518163ffffffff1660e01b815260040160206040518083038186803b158015610ac857600080fd5b505afa158015610adc573d6000803e3d6000fd5b505050506040513d6020811015610af257600080fd5b5051905060005b6001835103811015610d3057888882818110610b1157fe5b905060200201356001600160a01b03166001600160a01b031663095ea7b383858481518110610b3c57fe5b60200260200101516040518363ffffffff1660e01b815260040180836001600160a01b0316815260200182815260200192505050602060405180830381600087803b158015610b8a57600080fd5b505af1158015610b9e573d6000803e3d6000fd5b505050506040513d6020811015610bb457600080fd5b50506001600160a01b0382166374af8c3c610c297f00000000000000000000000000000000000000000000000000000000000000008c8c86818110610bf557fe5b905060200201356001600160a01b03168d8d87600101818110610c1457fe5b905060200201356001600160a01b0316613b85565b8b8b85818110610c3557fe5b905060200201356001600160a01b031633878681518110610c5257fe5b60200260200101516040518563ffffffff1660e01b815260040180856001600160a01b03168152602001846001600160a01b03168152602001836001600160a01b03168152602001828152602001945050505050600060405180830381600087803b158015610cc057600080fd5b505af1158015610cd4573d6000803e3d6000fd5b50505050610d11838281518110610ce757fe5b6020026020010151868381518110610cfb57fe5b6020026020010151613ca790919063ffffffff16565b858281518110610d1d57fe5b6020908102919091010152600101610af9565b508884600186510381518110610d4257fe5b60200260200101511015610d875760405162461bcd60e51b8152600401808060200182810382526028815260200180614aea6028913960400191505060405180910390fd5b610e1088886000818110610d9757fe5b905060200201356001600160a01b031633610df67f00000000000000000000000000000000000000000000000000000000000000008c8c6000818110610dd957fe5b905060200201356001600160a01b03168d8d6001818110610c1457fe5b87600081518110610e0357fe5b6020026020010151613d09565b610e4f84898980806020026020016040519081016040528093929190818152602001838360200280828437600092019190915250309250613e66915050565b7f00000000000000000000000000000000000000000000000000000000000000006001600160a01b0316632e1a7d4d85600187510381518110610e8e57fe5b60200260200101516040518263ffffffff1660e01b815260040180828152602001915050600060405180830381600087803b158015610ecc57600080fd5b505af1158015610ee0573d6000803e3d6000fd5b50505050610f058685600187510381518110610ef857fe5b60200260200101516138ec565b5050509695505050505050565b60608142811015610f58576040805162461bcd60e51b81526020600482015260136024820152600080516020614b61833981519152604482015290519081900360640190fd5b60607f00000000000000000000000000000000000000000000000000000000000000006001600160a01b031663dcb6b48488886040518363ffffffff1660e01b815260040180806020018281038252848482818152602001925060200280828437600081840152601f19601f820116905080830192505050935050505060006040518083038186803b158015610fed57600080fd5b505afa158015611001573d6000803e3d6000fd5b505050506040513d6000823e601f3d908101601f19168201604052602081101561102a57600080fd5b8101908080516040519392919084600160201b82111561104957600080fd5b90830190602082018581111561105e57600080fd5b82518660208202830111600160201b8211171561107a57600080fd5b82525081516020918201928201910280838360005b838110156110a757818101518382015260200161108f565b5050505090500160405250505090506111167f00000000000000000000000000000000000000000000000000000000000000008a8989808060200260200160405190810160405280939291908181526020018383602002808284376000920191909152508792506139e4915050565b925060007f00000000000000000000000000000000000000000000000000000000000000006001600160a01b031663017e7e586040518163ffffffff1660e01b815260040160206040518083038186803b15801561117357600080fd5b505afa158015611187573d6000803e3d6000fd5b505050506040513d602081101561119d57600080fd5b5051905060005b6001835103811015611439578281815181106111bc57fe5b6020026020010151600014156111d157611431565b60006112186103e86112128685815181106111e857fe5b60200260200101518986815181106111fc57fe5b602002602001015161400d90919063ffffffff16565b9061406d565b90506112486040518060400160405280600c81526020016b03332b29030b6b7bab73a1d160a51b815250826140d4565b61126f8a8a8481811061125757fe5b905060200201356001600160a01b0316333084613d09565b89898381811061127b57fe5b905060200201356001600160a01b03166001600160a01b031663095ea7b384836040518363ffffffff1660e01b815260040180836001600160a01b0316815260200182815260200192505050602060405180830381600087803b1580156112e157600080fd5b505af11580156112f5573d6000803e3d6000fd5b505050506040513d602081101561130b57600080fd5b50506001600160a01b0383166374af8c3c61136b7f00000000000000000000000000000000000000000000000000000000000000008d8d8781811061134c57fe5b905060200201356001600160a01b03168e8e88600101818110610c1457fe5b8c8c8681811061137757fe5b905060200201356001600160a01b031633856040518563ffffffff1660e01b815260040180856001600160a01b03168152602001846001600160a01b03168152602001836001600160a01b03168152602001828152602001945050505050600060405180830381600087803b1580156113ef57600080fd5b505af1158015611403573d6000803e3d6000fd5b5050505061141781878481518110610cfb57fe5b86838151811061142357fe5b602002602001018181525050505b6001016111a4565b50888460018651038151811061144b57fe5b602002602001015110156114905760405162461bcd60e51b8152600401808060200182810382526028815260200180614aea6028913960400191505060405180910390fd5b6114a088886000818110610d9757fe5b610f05848989808060200260200160405190810160405280939291908181526020018383602002808284376000920191909152508b9250613e66915050565b60608142811015611525576040805162461bcd60e51b81526020600482015260136024820152600080516020614b61833981519152604482015290519081900360640190fd5b6001600160a01b037f0000000000000000000000000000000000000000000000000000000000000000168686600019810181811061155f57fe5b905060200201356001600160a01b03166001600160a01b0316146115ca576040805162461bcd60e51b815260206004820152601860248201527f42616279526f757465723a20494e56414c49445f504154480000000000000000604482015290519081900360640190fd5b60607f00000000000000000000000000000000000000000000000000000000000000006001600160a01b031663dcb6b48488886040518363ffffffff1660e01b815260040180806020018281038252848482818152602001925060200280828437600081840152601f19601f820116905080830192505050935050505060006040518083038186803b15801561165f57600080fd5b505afa158015611673573d6000803e3d6000fd5b505050506040513d6000823e601f3d908101601f19168201604052602081101561169c57600080fd5b8101908080516040519392919084600160201b8211156116bb57600080fd5b9083019060208201858111156116d057600080fd5b82518660208202830111600160201b821117156116ec57600080fd5b82525081516020918201928201910280838360005b83811015611719578181015183820152602001611701565b5050505090500160405250505090506117887f00000000000000000000000000000000000000000000000000000000000000008a898980806020026020016040519081016040528093929190818152602001838360200280828437600092019190915250879250614186915050565b925060007f00000000000000000000000000000000000000000000000000000000000000006001600160a01b031663017e7e586040518163ffffffff1660e01b815260040160206040518083038186803b1580156117e557600080fd5b505afa1580156117f9573d6000803e3d6000fd5b505050506040513d602081101561180f57600080fd5b5051905060005b60018351038110156119ef5788888281811061182e57fe5b905060200201356001600160a01b03166001600160a01b031663095ea7b38385848151811061185957fe5b60200260200101516040518363ffffffff1660e01b815260040180836001600160a01b0316815260200182815260200192505050602060405180830381600087803b1580156118a757600080fd5b505af11580156118bb573d6000803e3d6000fd5b505050506040513d60208110156118d157600080fd5b50506001600160a01b0382166374af8c3c6119127f00000000000000000000000000000000000000000000000000000000000000008c8c86818110610bf557fe5b8b8b8581811061191e57fe5b905060200201356001600160a01b03163387868151811061193b57fe5b60200260200101516040518563ffffffff1660e01b815260040180856001600160a01b03168152602001846001600160a01b03168152602001836001600160a01b03168152602001828152602001945050505050600060405180830381600087803b1580156119a957600080fd5b505af11580156119bd573d6000803e3d6000fd5b505050506119d0838281518110610ce757fe5b8582815181106119dc57fe5b6020908102919091010152600101611816565b5088846000815181106119fe57fe5b60200260200101511115610d875760405162461bcd60e51b8152600401808060200182810382526024815260200180614ba46024913960400191505060405180910390fd5b60008060008442811015611a8c576040805162461bcd60e51b81526020600482015260136024820152600080516020614b61833981519152604482015290519081900360640190fd5b611a9a8d8d8d8d8d8d614315565b90945092506000611acc7f00000000000000000000000000000000000000000000000000000000000000008f8f613b85565b9050611ada8e338388613d09565b611ae68d338387613d09565b6000546001600160a01b031615611c7057604080516335313c2160e11b815230600482015290516001600160a01b03831691636a6278429160248083019260209291908290030181600087803b158015611b3f57600080fd5b505af1158015611b53573d6000803e3d6000fd5b505050506040513d6020811015611b6957600080fd5b5051600080546040805163095ea7b360e01b81526001600160a01b0392831660048201526024810185905290519396509084169263095ea7b392604480840193602093929083900390910190829087803b158015611bc657600080fd5b505af1158015611bda573d6000803e3d6000fd5b505050506040513d6020811015611bf057600080fd5b50506000805460408051633bce885d60e21b81526001600160a01b03858116600483015260248201889052604482018b90528c811660648301529151919092169263ef3a2174926084808201939182900301818387803b158015611c5357600080fd5b505af1158015611c67573d6000803e3d6000fd5b50505050611cee565b806001600160a01b0316636a627842896040518263ffffffff1660e01b815260040180826001600160a01b03168152602001915050602060405180830381600087803b158015611cbf57600080fd5b505af1158015611cd3573d6000803e3d6000fd5b505050506040513d6020811015611ce957600080fd5b505192505b505099509950999650505050505050565b6000546001600160a01b031681565b60008060008442811015611d57576040805162461bcd60e51b81526020600482015260136024820152600080516020614b61833981519152604482015290519081900360640190fd5b611d858b7f00000000000000000000000000000000000000000000000000000000000000008c348d8d614315565b90945092506000611dd77f00000000000000000000000000000000000000000000000000000000000000008d7f0000000000000000000000000000000000000000000000000000000000000000613b85565b9050611de58c338388613d09565b7f00000000000000000000000000000000000000000000000000000000000000006001600160a01b031663d0e30db0856040518263ffffffff1660e01b81526004016000604051808303818588803b158015611e4057600080fd5b505af1158015611e54573d6000803e3d6000fd5b50505050507f00000000000000000000000000000000000000000000000000000000000000006001600160a01b031663a9059cbb82866040518363ffffffff1660e01b815260040180836001600160a01b0316815260200182815260200192505050602060405180830381600087803b158015611ed057600080fd5b505af1158015611ee4573d6000803e3d6000fd5b505050506040513d6020811015611efa57600080fd5b5051611f0257fe5b806001600160a01b0316636a627842896040518263ffffffff1660e01b815260040180826001600160a01b03168152602001915050602060405180830381600087803b158015611f5157600080fd5b505af1158015611f65573d6000803e3d6000fd5b505050506040513d6020811015611f7b57600080fd5b50516000549093506001600160a01b03161561210a57604080516335313c2160e11b815230600482015290516001600160a01b03831691636a6278429160248083019260209291908290030181600087803b158015611fd957600080fd5b505af1158015611fed573d6000803e3d6000fd5b505050506040513d602081101561200357600080fd5b5051600080546040805163095ea7b360e01b81526001600160a01b0392831660048201526024810185905290519396509084169263095ea7b392604480840193602093929083900390910190829087803b15801561206057600080fd5b505af1158015612074573d6000803e3d6000fd5b505050506040513d602081101561208a57600080fd5b50506000805460408051633bce885d60e21b81526001600160a01b03858116600483015260248201889052604482018b90528c811660648301529151919092169263ef3a2174926084808201939182900301818387803b1580156120ed57600080fd5b505af1158015612101573d6000803e3d6000fd5b50505050612188565b806001600160a01b0316636a627842896040518263ffffffff1660e01b815260040180826001600160a01b03168152602001915050602060405180830381600087803b15801561215957600080fd5b505af115801561216d573d6000803e3d6000fd5b505050506040513d602081101561218357600080fd5b505192505b8334111561219c5761219c338534036138ec565b50509750975097945050505050565b606081428110156121f1576040805162461bcd60e51b81526020600482015260136024820152600080516020614b61833981519152604482015290519081900360640190fd5b7f00000000000000000000000000000000000000000000000000000000000000006001600160a01b03168686600081811061222857fe5b905060200201356001600160a01b03166001600160a01b031614612290576040805162461bcd60e51b815260206004820152601a602482015279096cae0d8cae4a4deeae8cae47440929cac82989288bea082a8960331b604482015290519081900360640190fd5b60607f00000000000000000000000000000000000000000000000000000000000000006001600160a01b031663dcb6b48488886040518363ffffffff1660e01b815260040180806020018281038252848482818152602001925060200280828437600081840152601f19601f820116905080830192505050935050505060006040518083038186803b15801561232557600080fd5b505afa158015612339573d6000803e3d6000fd5b505050506040513d6000823e601f3d908101601f19168201604052602081101561236257600080fd5b8101908080516040519392919084600160201b82111561238157600080fd5b90830190602082018581111561239657600080fd5b82518660208202830111600160201b821117156123b257600080fd5b82525081516020918201928201910280838360005b838110156123df5781810151838201526020016123c7565b50505050905001604052505050905061244e7f0000000000000000000000000000000000000000000000000000000000000000348989808060200260200160405190810160405280939291908181526020018383602002808284376000920191909152508792506139e4915050565b925060007f00000000000000000000000000000000000000000000000000000000000000006001600160a01b031663017e7e586040518163ffffffff1660e01b815260040160206040518083038186803b1580156124ab57600080fd5b505afa1580156124bf573d6000803e3d6000fd5b505050506040513d60208110156124d557600080fd5b5051905060005b60018351038110156126b5578888828181106124f457fe5b905060200201356001600160a01b03166001600160a01b031663095ea7b38385848151811061251f57fe5b60200260200101516040518363ffffffff1660e01b815260040180836001600160a01b0316815260200182815260200192505050602060405180830381600087803b15801561256d57600080fd5b505af1158015612581573d6000803e3d6000fd5b505050506040513d602081101561259757600080fd5b50506001600160a01b0382166374af8c3c6125d87f00000000000000000000000000000000000000000000000000000000000000008c8c86818110610bf557fe5b8b8b858181106125e457fe5b905060200201356001600160a01b03163387868151811061260157fe5b60200260200101516040518563ffffffff1660e01b815260040180856001600160a01b03168152602001846001600160a01b03168152602001836001600160a01b03168152602001828152602001945050505050600060405180830381600087803b15801561266f57600080fd5b505af1158015612683573d6000803e3d6000fd5b50505050612696838281518110610ce757fe5b8582815181106126a257fe5b60209081029190910101526001016124dc565b5088846001865103815181106126c757fe5b6020026020010151101561270c5760405162461bcd60e51b8152600401808060200182810382526028815260200180614aea6028913960400191505060405180910390fd5b7f00000000000000000000000000000000000000000000000000000000000000006001600160a01b031663d0e30db08560008151811061274857fe5b60200260200101516040518263ffffffff1660e01b81526004016000604051808303818588803b15801561277b57600080fd5b505af115801561278f573d6000803e3d6000fd5b50505050507f00000000000000000000000000000000000000000000000000000000000000006001600160a01b031663a9059cbb6128117f00000000000000000000000000000000000000000000000000000000000000008b8b60008181106127f457fe5b905060200201356001600160a01b03168c8c6001818110610c1457fe5b8660008151811061281e57fe5b60200260200101516040518363ffffffff1660e01b815260040180836001600160a01b0316815260200182815260200192505050602060405180830381600087803b15801561286c57600080fd5b505af1158015612880573d6000803e3d6000fd5b505050506040513d602081101561289657600080fd5b505161289e57fe5b6128dd848989808060200260200160405190810160405280939291908181526020018383602002808284376000920191909152508b9250613e66915050565b50505095945050505050565b6060814281101561292f576040805162461bcd60e51b81526020600482015260136024820152600080516020614b61833981519152604482015290519081900360640190fd5b60607f00000000000000000000000000000000000000000000000000000000000000006001600160a01b031663dcb6b48488886040518363ffffffff1660e01b815260040180806020018281038252848482818152602001925060200280828437600081840152601f19601f820116905080830192505050935050505060006040518083038186803b1580156129c457600080fd5b505afa1580156129d8573d6000803e3d6000fd5b505050506040513d6000823e601f3d908101601f191682016040526020811015612a0157600080fd5b8101908080516040519392919084600160201b821115612a2057600080fd5b908301906020820185811115612a3557600080fd5b82518660208202830111600160201b82111715612a5157600080fd5b82525081516020918201928201910280838360005b83811015612a7e578181015183820152602001612a66565b505050509050016040525050509050612aed7f00000000000000000000000000000000000000000000000000000000000000008a898980806020026020016040519081016040528093929190818152602001838360200280828437600092019190915250879250614186915050565b925060007f00000000000000000000000000000000000000000000000000000000000000006001600160a01b031663017e7e586040518163ffffffff1660e01b815260040160206040518083038186803b158015612b4a57600080fd5b505afa158015612b5e573d6000803e3d6000fd5b505050506040513d6020811015612b7457600080fd5b5051905060005b6001835103811015612d5457888882818110612b9357fe5b905060200201356001600160a01b03166001600160a01b031663095ea7b383858481518110612bbe57fe5b60200260200101516040518363ffffffff1660e01b815260040180836001600160a01b0316815260200182815260200192505050602060405180830381600087803b158015612c0c57600080fd5b505af1158015612c20573d6000803e3d6000fd5b505050506040513d6020811015612c3657600080fd5b50506001600160a01b0382166374af8c3c612c777f00000000000000000000000000000000000000000000000000000000000000008c8c86818110610bf557fe5b8b8b85818110612c8357fe5b905060200201356001600160a01b031633878681518110612ca057fe5b60200260200101516040518563ffffffff1660e01b815260040180856001600160a01b03168152602001846001600160a01b03168152602001836001600160a01b03168152602001828152602001945050505050600060405180830381600087803b158015612d0e57600080fd5b505af1158015612d22573d6000803e3d6000fd5b50505050612d35838281518110610ce757fe5b858281518110612d4157fe5b6020908102919091010152600101612b7b565b508884600081518110612d6357fe5b602002602001015111156114905760405162461bcd60e51b8152600401808060200182810382526024815260200180614ba46024913960400191505060405180910390fd5b7f000000000000000000000000000000000000000000000000000000000000000081565b6000808242811015612e13576040805162461bcd60e51b81526020600482015260136024820152600080516020614b61833981519152604482015290519081900360640190fd5b6000612e407f00000000000000000000000000000000000000000000000000000000000000008c8c613b85565b604080516323b872dd60e01b81523360048201526001600160a01b03831660248201819052604482018d9052915192935090916323b872dd916064808201926020929091908290030181600087803b158015612e9b57600080fd5b505af1158015612eaf573d6000803e3d6000fd5b505050506040513d6020811015612ec557600080fd5b50506040805163226bf2d160e21b81526001600160a01b03888116600483015282516000938493928616926389afcb44926024808301939282900301818787803b158015612f1257600080fd5b505af1158015612f26573d6000803e3d6000fd5b505050506040513d6040811015612f3c57600080fd5b50805160209091015190925090506000612f568e8e6145a6565b509050806001600160a01b03168e6001600160a01b031614612f79578183612f7c565b82825b90975095508a871015612fc05760405162461bcd60e51b8152600401808060200182810382526023815260200180614c0c6023913960400191505060405180910390fd5b89861015612fff5760405162461bcd60e51b8152600401808060200182810382526023815260200180614b816023913960400191505060405180910390fd5b505050505097509795505050505050565b7f000000000000000000000000000000000000000000000000000000000000000081565b6060814281101561307a576040805162461bcd60e51b81526020600482015260136024820152600080516020614b61833981519152604482015290519081900360640190fd5b7f00000000000000000000000000000000000000000000000000000000000000006001600160a01b0316868660008181106130b157fe5b905060200201356001600160a01b03166001600160a01b031614613119576040805162461bcd60e51b815260206004820152601a602482015279096cae0d8cae4a4deeae8cae47440929cac82989288bea082a8960331b604482015290519081900360640190fd5b60607f00000000000000000000000000000000000000000000000000000000000000006001600160a01b031663dcb6b48488886040518363ffffffff1660e01b815260040180806020018281038252848482818152602001925060200280828437600081840152601f19601f820116905080830192505050935050505060006040518083038186803b1580156131ae57600080fd5b505afa1580156131c2573d6000803e3d6000fd5b505050506040513d6000823e601f3d908101601f1916820160405260208110156131eb57600080fd5b8101908080516040519392919084600160201b82111561320a57600080fd5b90830190602082018581111561321f57600080fd5b82518660208202830111600160201b8211171561323b57600080fd5b82525081516020918201928201910280838360005b83811015613268578181015183820152602001613250565b5050505090500160405250505090506132d77f000000000000000000000000000000000000000000000000000000000000000089898980806020026020016040519081016040528093929190818152602001838360200280828437600092019190915250879250614186915050565b925060007f00000000000000000000000000000000000000000000000000000000000000006001600160a01b031663017e7e586040518163ffffffff1660e01b815260040160206040518083038186803b15801561333457600080fd5b505afa158015613348573d6000803e3d6000fd5b505050506040513d602081101561335e57600080fd5b5051905060005b600183510381101561353e5788888281811061337d57fe5b905060200201356001600160a01b03166001600160a01b031663095ea7b3838584815181106133a857fe5b60200260200101516040518363ffffffff1660e01b815260040180836001600160a01b0316815260200182815260200192505050602060405180830381600087803b1580156133f657600080fd5b505af115801561340a573d6000803e3d6000fd5b505050506040513d602081101561342057600080fd5b50506001600160a01b0382166374af8c3c6134617f00000000000000000000000000000000000000000000000000000000000000008c8c86818110610bf557fe5b8b8b8581811061346d57fe5b905060200201356001600160a01b03163387868151811061348a57fe5b60200260200101516040518563ffffffff1660e01b815260040180856001600160a01b03168152602001846001600160a01b03168152602001836001600160a01b03168152602001828152602001945050505050600060405180830381600087803b1580156134f857600080fd5b505af115801561350c573d6000803e3d6000fd5b5050505061351f838281518110610ce757fe5b85828151811061352b57fe5b6020908102919091010152600101613365565b50348460008151811061354d57fe5b602002602001015111156135925760405162461bcd60e51b8152600401808060200182810382526024815260200180614ba46024913960400191505060405180910390fd5b7f00000000000000000000000000000000000000000000000000000000000000006001600160a01b031663d0e30db0856000815181106135ce57fe5b60200260200101516040518263ffffffff1660e01b81526004016000604051808303818588803b15801561360157600080fd5b505af1158015613615573d6000803e3d6000fd5b50505050507f00000000000000000000000000000000000000000000000000000000000000006001600160a01b031663a9059cbb61367a7f00000000000000000000000000000000000000000000000000000000000000008b8b60008181106127f457fe5b8660008151811061368757fe5b60200260200101516040518363ffffffff1660e01b815260040180836001600160a01b0316815260200182815260200192505050602060405180830381600087803b1580156136d557600080fd5b505af11580156136e9573d6000803e3d6000fd5b505050506040513d60208110156136ff57600080fd5b505161370757fe5b613746848989808060200260200160405190810160405280939291908181526020018383602002808284376000920191909152508b9250613e66915050565b8360008151811061375357fe5b60200260200101513411156128dd576128dd338560008151811061377357fe5b602002602001015134036138ec565b604080516001600160a01b038481166024830152604480830185905283518084039091018152606490920183526020820180516001600160e01b031663a9059cbb60e01b178152925182516000946060949389169392918291908083835b602083106137ff5780518252601f1990920191602091820191016137e0565b6001836020036101000a0380198251168184511680821785525050505050509050019150506000604051808303816000865af19150503d8060008114613861576040519150601f19603f3d011682016040523d82523d6000602084013e613866565b606091505b5091509150818015613894575080511580613894575080806020019051602081101561389157600080fd5b50515b6138e5576040805162461bcd60e51b815260206004820152601f60248201527f5472616e7366657248656c7065723a205452414e534645525f4641494c454400604482015290519081900360640190fd5b5050505050565b604080516000808252602082019092526001600160a01b0384169083906040518082805190602001908083835b602083106139385780518252601f199092019160209182019101613919565b6001836020036101000a03801982511681845116808217855250505050505090500191505060006040518083038185875af1925050503d806000811461399a576040519150601f19603f3d011682016040523d82523d6000602084013e61399f565b606091505b50509050806139df5760405162461bcd60e51b8152600401808060200182810382526023815260200180614c756023913960400191505060405180910390fd5b505050565b6060600283511015613a3d576040805162461bcd60e51b815260206004820152601b60248201527f4b65706c65724c6962726172793a20494e56414c49445f504154480000000000604482015290519081900360640190fd5b8151835114613a7d5760405162461bcd60e51b8152600401808060200182810382526021815260200180614ac96021913960400191505060405180910390fd5b825167ffffffffffffffff81118015613a9557600080fd5b50604051908082528060200260200182016040528015613abf578160200160208202803683370190505b5090508381600081518110613ad057fe5b60200260200101818152505060005b6001845103811015613b7c57600080613b2288878581518110613afe57fe5b6020026020010151888660010181518110613b1557fe5b6020026020010151614684565b91509150613b58848481518110613b3557fe5b60200260200101518383888781518110613b4b57fe5b602002602001015161475e565b848460010181518110613b6757fe5b60209081029190910101525050600101613adf565b50949350505050565b6000806000613b9485856145a6565b9150915085828260405160200180836001600160a01b031660601b8152601401826001600160a01b031660601b81526014019250505060405160208183030381529060405280519060200120876001600160a01b0316635855a25a6040518163ffffffff1660e01b815260040160206040518083038186803b158015613c1957600080fd5b505afa158015613c2d573d6000803e3d6000fd5b505050506040513d6020811015613c4357600080fd5b5051604080516001600160f81b031960208083019190915260609590951b6bffffffffffffffffffffffff19166021820152603581019390935260558084019290925280518084039092018252607590920190915280519101209695505050505050565b600082821115613cfe576040805162461bcd60e51b815260206004820152601e60248201527f536166654d6174683a207375627472616374696f6e206f766572666c6f770000604482015290519081900360640190fd5b508082035b92915050565b604080516001600160a01b0385811660248301528481166044830152606480830185905283518084039091018152608490920183526020820180516001600160e01b03166323b872dd60e01b17815292518251600094606094938a169392918291908083835b60208310613d8e5780518252601f199092019160209182019101613d6f565b6001836020036101000a0380198251168184511680821785525050505050509050019150506000604051808303816000865af19150503d8060008114613df0576040519150601f19603f3d011682016040523d82523d6000602084013e613df5565b606091505b5091509150818015613e23575080511580613e235750808060200190516020811015613e2057600080fd5b50515b613e5e5760405162461bcd60e51b8152600401808060200182810382526024815260200180614cbe6024913960400191505060405180910390fd5b505050505050565b60005b600183510381101561400757600080848381518110613e8457fe5b6020026020010151858460010181518110613e9b57fe5b6020026020010151915091506000613eb383836145a6565b5090506000878560010181518110613ec757fe5b60200260200101519050600080836001600160a01b0316866001600160a01b031614613ef557826000613ef9565b6000835b91509150600060028a51038810613f105788613f51565b613f517f0000000000000000000000000000000000000000000000000000000000000000878c8b60020181518110613f4457fe5b6020026020010151613b85565b9050613f7e7f00000000000000000000000000000000000000000000000000000000000000008888613b85565b6001600160a01b0316636d9a640a8484846040518463ffffffff1660e01b815260040180848152602001838152602001826001600160a01b031681526020019350505050600060405180830381600087803b158015613fdc57600080fd5b505af1158015613ff0573d6000803e3d6000fd5b505060019099019850613e69975050505050505050565b50505050565b60008261401c57506000613d03565b8282028284828161402957fe5b04146140665760405162461bcd60e51b8152600401808060200182810382526021815260200180614beb6021913960400191505060405180910390fd5b9392505050565b60008082116140c3576040805162461bcd60e51b815260206004820152601a60248201527f536166654d6174683a206469766973696f6e206279207a65726f000000000000604482015290519081900360640190fd5b8183816140cc57fe5b049392505050565b61418282826040516024018080602001838152602001828103825284818151815260200191508051906020019080838360005b8381101561411f578181015183820152602001614107565b50505050905090810190601f16801561414c5780820380516001836020036101000a031916815260200191505b5060408051601f198184030181529190526020810180516001600160e01b03166309710a9d60e41b179052935061488392505050565b5050565b60606002835110156141df576040805162461bcd60e51b815260206004820152601b60248201527f4b65706c65724c6962726172793a20494e56414c49445f504154480000000000604482015290519081900360640190fd5b815183511461421f5760405162461bcd60e51b8152600401808060200182810382526021815260200180614ac96021913960400191505060405180910390fd5b825167ffffffffffffffff8111801561423757600080fd5b50604051908082528060200260200182016040528015614261578160200160208202803683370190505b509050838160018351038151811061427557fe5b60209081029190910101528251600019015b8015613b7c576000806142b7888760018603815181106142a357fe5b6020026020010151888681518110613b1557fe5b915091506142f08484815181106142ca57fe5b602002602001015183838860018803815181106142e357fe5b60200260200101516148a4565b8460018503815181106142ff57fe5b6020908102919091010152505060001901614287565b60008060006001600160a01b03167f00000000000000000000000000000000000000000000000000000000000000006001600160a01b031663e6a439058a8a6040518363ffffffff1660e01b815260040180836001600160a01b03168152602001826001600160a01b031681526020019250505060206040518083038186803b1580156143a157600080fd5b505afa1580156143b5573d6000803e3d6000fd5b505050506040513d60208110156143cb57600080fd5b50516001600160a01b03161415614489577f00000000000000000000000000000000000000000000000000000000000000006001600160a01b031663c9c6539689896040518363ffffffff1660e01b815260040180836001600160a01b03168152602001826001600160a01b0316815260200192505050602060405180830381600087803b15801561445c57600080fd5b505af1158015614470573d6000803e3d6000fd5b505050506040513d602081101561448657600080fd5b50505b6000806144b77f00000000000000000000000000000000000000000000000000000000000000008b8b614684565b915091508160001480156144c9575080155b156144d957879350869250614599565b60006144e68984846149c8565b9050878111614539578581101561452e5760405162461bcd60e51b8152600401808060200182810382526023815260200180614b816023913960400191505060405180910390fd5b889450925082614597565b60006145468984866149c8565b90508981111561455257fe5b878110156145915760405162461bcd60e51b8152600401808060200182810382526023815260200180614c0c6023913960400191505060405180910390fd5b94508793505b505b5050965096945050505050565b600080826001600160a01b0316846001600160a01b031614156145fa5760405162461bcd60e51b8152600401808060200182810382526023815260200180614bc86023913960400191505060405180910390fd5b826001600160a01b0316846001600160a01b03161061461a57828461461d565b83835b90925090506001600160a01b03821661467d576040805162461bcd60e51b815260206004820152601c60248201527f50616e63616b654c6962726172793a205a45524f5f4144445245535300000000604482015290519081900360640190fd5b9250929050565b600080600061469385856145a6565b5090506146a1868686613b85565b506000806146b0888888613b85565b6001600160a01b0316630902f1ac6040518163ffffffff1660e01b815260040160606040518083038186803b1580156146e857600080fd5b505afa1580156146fc573d6000803e3d6000fd5b505050506040513d606081101561471257600080fd5b5080516020909101516dffffffffffffffffffffffffffff91821693501690506001600160a01b038781169084161461474c57808261474f565b81815b90999098509650505050505050565b60006103e88211156147a15760405162461bcd60e51b8152600401808060200182810382526023815260200180614c2f6023913960400191505060405180910390fd5b600085116147e05760405162461bcd60e51b8152600401808060200182810382526028815260200180614ce26028913960400191505060405180910390fd5b6000841180156147f05750600083115b61482b5760405162461bcd60e51b8152600401808060200182810382526025815260200180614b126025913960400191505060405180910390fd5b600061484361483c6103e885613ca7565b879061400d565b90506000614851828661400d565b9050600061486b83614865896103e861400d565b90614a6e565b905080828161487657fe5b0498975050505050505050565b80516a636f6e736f6c652e6c6f67602083016000808483855afa5050505050565b60006103e88211156148e75760405162461bcd60e51b8152600401808060200182810382526023815260200180614c2f6023913960400191505060405180910390fd5b600085116149265760405162461bcd60e51b815260040180806020018281038252602a815260200180614b37602a913960400191505060405180910390fd5b6000841180156149365750600083115b6149715760405162461bcd60e51b8152600401808060200182810382526026815260200180614c986026913960400191505060405180910390fd5b60006149896103e8614983878961400d565b9061400d565b905060006149a661499c6103e886613ca7565b614983878a613ca7565b90506149bd60018284816149b657fe5b0490614a6e565b979650505050505050565b6000808411614a085760405162461bcd60e51b8152600401808060200182810382526023815260200180614c526023913960400191505060405180910390fd5b600083118015614a185750600082115b614a535760405162461bcd60e51b8152600401808060200182810382526026815260200180614c986026913960400191505060405180910390fd5b82614a5e858461400d565b81614a6557fe5b04949350505050565b600082820183811015614066576040805162461bcd60e51b815260206004820152601b60248201527f536166654d6174683a206164646974696f6e206f766572666c6f770000000000604482015290519081900360640190fdfe4b65706c65724c6962726172793a20494e56414c49445f4645455f4c454e4754484b65706c6572526f757465723a20494e53554646494349454e545f4f55545055545f414d4f554e544b65706c65724c6962726172793a20494e53554646494349454e545f4c495155494449545950616e63616b654c6962726172793a20494e53554646494349454e545f4f55545055545f414d4f554e5442616279526f757465723a2045585049524544000000000000000000000000004b65706c6572526f757465723a20494e53554646494349454e545f425f414d4f554e544b65706c6572526f757465723a204558434553534956455f494e5055545f414d4f554e5450616e63616b654c6962726172793a204944454e544943414c5f414444524553534553536166654d6174683a206d756c7469706c69636174696f6e206f766572666c6f774b65706c6572526f757465723a20494e53554646494349454e545f415f414d4f554e544b65706c65724c6962726172793a20494c4c4547414c5f5452414e534645525f46454550616e63616b654c6962726172793a20494e53554646494349454e545f414d4f554e545472616e7366657248656c7065723a204554485f5452414e534645525f4641494c454450616e63616b654c6962726172793a20494e53554646494349454e545f4c49515549444954595472616e7366657248656c7065723a205452414e534645525f46524f4d5f4641494c45444b65706c65724c6962726172793a20494e53554646494349454e545f494e5055545f414d4f554e54a2646970667358221220fb938848fe24aa32a7a9c06e3828ae78d743868d247c8a49555f27e9e43df49764736f6c63430007020033",
  "devdoc": {
    "kind": "dev",
    "methods": {},
    "version": 1
  },
  "userdoc": {
    "kind": "user",
    "methods": {},
    "version": 1
  },
  "storageLayout": {
    "storage": [
      {
        "astId": 10813,
        "contract": "contracts/swap/KeplerRouter.sol:KeplerRouter",
        "label": "masterChef",
        "offset": 0,
        "slot": "0",
        "type": "t_contract(IMasterChef)7647"
      }
    ],
    "types": {
      "t_contract(IMasterChef)7647": {
        "encoding": "inplace",
        "label": "contract IMasterChef",
        "numberOfBytes": "20"
      }
    }
  }
}