{
  "address": "0xDCc73f0C00c11092373fA361a77f5a4aa824D747",
  "abi": [
    {
      "inputs": [],
      "stateMutability": "nonpayable",
      "type": "constructor"
    },
    {
      "anonymous": false,
      "inputs": [
        {
          "indexed": true,
          "internalType": "address",
          "name": "previousOwner",
          "type": "address"
        },
        {
          "indexed": true,
          "internalType": "address",
          "name": "newOwner",
          "type": "address"
        }
      ],
      "name": "OwnershipTransferred",
      "type": "event"
    },
    {
      "anonymous": false,
      "inputs": [
        {
          "indexed": true,
          "internalType": "address",
          "name": "token0",
          "type": "address"
        },
        {
          "indexed": true,
          "internalType": "address",
          "name": "token1",
          "type": "address"
        },
        {
          "indexed": false,
          "internalType": "address",
          "name": "pair",
          "type": "address"
        },
        {
          "indexed": false,
          "internalType": "uint256",
          "name": "",
          "type": "uint256"
        }
      ],
      "name": "PairCreated",
      "type": "event"
    },
    {
      "inputs": [],
      "name": "INIT_CODE_PAIR_HASH",
      "outputs": [
        {
          "internalType": "bytes32",
          "name": "",
          "type": "bytes32"
        }
      ],
      "stateMutability": "view",
      "type": "function"
    },
    {
      "inputs": [
        {
          "internalType": "address",
          "name": "token0",
          "type": "address"
        },
        {
          "internalType": "address",
          "name": "token1",
          "type": "address"
        },
        {
          "internalType": "address",
          "name": "from",
          "type": "address"
        },
        {
          "internalType": "address",
          "name": "to",
          "type": "address"
        },
        {
          "internalType": "uint256",
          "name": "amount",
          "type": "uint256"
        }
      ],
      "name": "_beforeTokenTransfer",
      "outputs": [],
      "stateMutability": "nonpayable",
      "type": "function"
    },
    {
      "inputs": [],
      "name": "allPairsLength",
      "outputs": [
        {
          "internalType": "uint256",
          "name": "",
          "type": "uint256"
        }
      ],
      "stateMutability": "view",
      "type": "function"
    },
    {
      "inputs": [
        {
          "internalType": "address",
          "name": "tokenA",
          "type": "address"
        },
        {
          "internalType": "address",
          "name": "tokenB",
          "type": "address"
        }
      ],
      "name": "createPair",
      "outputs": [
        {
          "internalType": "address",
          "name": "pair",
          "type": "address"
        }
      ],
      "stateMutability": "nonpayable",
      "type": "function"
    },
    {
      "inputs": [
        {
          "internalType": "address",
          "name": "pair",
          "type": "address"
        },
        {
          "internalType": "uint256",
          "name": "id",
          "type": "uint256"
        }
      ],
      "name": "createSnapshot",
      "outputs": [],
      "stateMutability": "nonpayable",
      "type": "function"
    },
    {
      "inputs": [],
      "name": "currentSnapshotId",
      "outputs": [
        {
          "internalType": "uint256",
          "name": "",
          "type": "uint256"
        }
      ],
      "stateMutability": "view",
      "type": "function"
    },
    {
      "inputs": [
        {
          "internalType": "address",
          "name": "token0",
          "type": "address"
        },
        {
          "internalType": "address",
          "name": "token1",
          "type": "address"
        }
      ],
      "name": "expectPairFor",
      "outputs": [
        {
          "internalType": "address",
          "name": "",
          "type": "address"
        }
      ],
      "stateMutability": "view",
      "type": "function"
    },
    {
      "inputs": [],
      "name": "feeTo",
      "outputs": [
        {
          "internalType": "address",
          "name": "",
          "type": "address"
        }
      ],
      "stateMutability": "view",
      "type": "function"
    },
    {
      "inputs": [
        {
          "internalType": "address",
          "name": "",
          "type": "address"
        },
        {
          "internalType": "address",
          "name": "",
          "type": "address"
        }
      ],
      "name": "getPair",
      "outputs": [
        {
          "internalType": "address",
          "name": "",
          "type": "address"
        }
      ],
      "stateMutability": "view",
      "type": "function"
    },
    {
      "inputs": [
        {
          "internalType": "contract IKeplerPair",
          "name": "pair",
          "type": "address"
        },
        {
          "internalType": "address",
          "name": "user",
          "type": "address"
        }
      ],
      "name": "getSnapshotBalance",
      "outputs": [
        {
          "internalType": "uint256",
          "name": "",
          "type": "uint256"
        }
      ],
      "stateMutability": "view",
      "type": "function"
    },
    {
      "inputs": [
        {
          "internalType": "contract IKeplerPair",
          "name": "pair",
          "type": "address"
        }
      ],
      "name": "getSnapshotPrice",
      "outputs": [
        {
          "internalType": "uint256",
          "name": "price0",
          "type": "uint256"
        },
        {
          "internalType": "uint256",
          "name": "price1",
          "type": "uint256"
        }
      ],
      "stateMutability": "view",
      "type": "function"
    },
    {
      "inputs": [
        {
          "internalType": "address[]",
          "name": "tokens",
          "type": "address[]"
        }
      ],
      "name": "getTransferFee",
      "outputs": [
        {
          "internalType": "uint256[]",
          "name": "",
          "type": "uint256[]"
        }
      ],
      "stateMutability": "view",
      "type": "function"
    },
    {
      "inputs": [
        {
          "internalType": "address",
          "name": "pair",
          "type": "address"
        },
        {
          "internalType": "address",
          "name": "user",
          "type": "address"
        }
      ],
      "name": "getUserSnapshot",
      "outputs": [
        {
          "internalType": "uint256",
          "name": "",
          "type": "uint256"
        },
        {
          "internalType": "uint256",
          "name": "",
          "type": "uint256"
        }
      ],
      "stateMutability": "view",
      "type": "function"
    },
    {
      "inputs": [
        {
          "internalType": "address",
          "name": "token0",
          "type": "address"
        },
        {
          "internalType": "address",
          "name": "token1",
          "type": "address"
        }
      ],
      "name": "isWhiteList",
      "outputs": [
        {
          "internalType": "bool",
          "name": "",
          "type": "bool"
        }
      ],
      "stateMutability": "view",
      "type": "function"
    },
    {
      "inputs": [],
      "name": "owner",
      "outputs": [
        {
          "internalType": "address",
          "name": "",
          "type": "address"
        }
      ],
      "stateMutability": "view",
      "type": "function"
    },
    {
      "inputs": [],
      "name": "renounceOwnership",
      "outputs": [],
      "stateMutability": "nonpayable",
      "type": "function"
    },
    {
      "inputs": [
        {
          "internalType": "uint256",
          "name": "_defaultTransferFee",
          "type": "uint256"
        }
      ],
      "name": "setDefaultTransferFee",
      "outputs": [],
      "stateMutability": "nonpayable",
      "type": "function"
    },
    {
      "inputs": [
        {
          "internalType": "address",
          "name": "_feeTo",
          "type": "address"
        }
      ],
      "name": "setFeeTo",
      "outputs": [],
      "stateMutability": "nonpayable",
      "type": "function"
    },
    {
      "inputs": [
        {
          "internalType": "address",
          "name": "token",
          "type": "address"
        },
        {
          "internalType": "uint256",
          "name": "fee",
          "type": "uint256"
        }
      ],
      "name": "setRelateTransferFee",
      "outputs": [],
      "stateMutability": "nonpayable",
      "type": "function"
    },
    {
      "inputs": [
        {
          "internalType": "address",
          "name": "_snapshotCreateCaller",
          "type": "address"
        }
      ],
      "name": "setSnapshotCreateCaller",
      "outputs": [],
      "stateMutability": "nonpayable",
      "type": "function"
    },
    {
      "inputs": [
        {
          "internalType": "address",
          "name": "token",
          "type": "address"
        },
        {
          "internalType": "uint256",
          "name": "fee",
          "type": "uint256"
        }
      ],
      "name": "setTokenTransferFee",
      "outputs": [],
      "stateMutability": "nonpayable",
      "type": "function"
    },
    {
      "inputs": [
        {
          "internalType": "address",
          "name": "newOwner",
          "type": "address"
        }
      ],
      "name": "transferOwnership",
      "outputs": [],
      "stateMutability": "nonpayable",
      "type": "function"
    },
    {
      "inputs": [],
      "name": "whiteListAvaliable",
      "outputs": [
        {
          "internalType": "bool",
          "name": "",
          "type": "bool"
        }
      ],
      "stateMutability": "view",
      "type": "function"
    }
  ],
  "transactionHash": "0x42005b454c7b5f49d2800b225da63e9f945bd4d6b135ef51ed042efe6fd2691a",
  "args": [],
  "solcInputHash": "b23861fd4cc5066e011dd2d307c05e17",
  "bytecode": "0x608060405234801561001057600080fd5b50600061001b61006a565b600080546001600160a01b0319166001600160a01b0383169081178255604051929350917f8be0079c531659141344cd1fd0a4f28419497f9722a3daafe3b4186f6b6457e0908290a35061006e565b3390565b61434f8061007d6000396000f3fe60806040523480156200001157600080fd5b50600436106200016c5760003560e01c80638da5cb5b11620000d5578063dcb6b4841162000087578063dcb6b48414620003f7578063e6a4390514620004f2578063f2fde38b1462000523578063f3711a08146200054c578063f46901ed1462000575578063fa80ccd7146200059e576200016c565b80638da5cb5b146200030f5780638f2a1e511462000319578063970875ce1462000342578063a24090b1146200034c578063a7a788851462000395578063c9c6539614620003c6576200016c565b80635d9e3a6b116200012f5780635d9e3a6b146200023857806368942ce41462000256578063715018a6146200028757806371a2b76814620002915780638861fea414620002b15780638c0f73d814620002e0576200016c565b8063017e7e5814620001715780632d2d55eb14620001975780633ed3bd5214620001e1578063574f2ba314620002125780635855a25a146200022e575b600080fd5b6200017b620005cf565b604080516001600160a01b039092168252519081900360200190f35b620001c860048036036040811015620001af57600080fd5b506001600160a01b0381358116916020013516620005de565b6040805192835260208301919091528051918290030190f35b6200021060048036036040811015620001f957600080fd5b506001600160a01b0381351690602001356200064c565b005b6200021c620006d0565b60408051918252519081900360200190f35b6200021c620006d6565b620002426200076d565b604080519115158252519081900360200190f35b6200017b600480360360408110156200026e57600080fd5b506001600160a01b038135811691602001351662000776565b620002106200078e565b6200021060048036036020811015620002a957600080fd5b503562000840565b6200021060048036036040811015620002c957600080fd5b506001600160a01b038135169060200135620008ad565b6200021060048036036040811015620002f857600080fd5b506001600160a01b03813516906020013562000931565b6200017b62000c63565b62000210600480360360208110156200033157600080fd5b50356001600160a01b031662000c72565b6200021c62000cfc565b62000210600480360360a08110156200036457600080fd5b506001600160a01b038135811691602081013582169160408201358116916060810135909116906080013562000d02565b6200024260048036036040811015620003ad57600080fd5b506001600160a01b038135811691602001351662000f84565b6200017b60048036036040811015620003de57600080fd5b506001600160a01b038135811691602001351662000fa9565b620004a0600480360360208110156200040f57600080fd5b8101906020810181356401000000008111156200042b57600080fd5b8201836020820111156200043e57600080fd5b803590602001918460208302840111640100000000831117156200046157600080fd5b919080806020026020016040519081016040528093929190818152602001838360200280828437600092019190915250929550620012f7945050505050565b60408051602080825283518183015283519192839290830191858101910280838360005b83811015620004de578181015183820152602001620004c4565b505050509050019250505060405180910390f35b6200017b600480360360408110156200050a57600080fd5b506001600160a01b038135811691602001351662001474565b62000210600480360360208110156200053b57600080fd5b50356001600160a01b03166200149a565b620001c8600480360360208110156200056457600080fd5b50356001600160a01b0316620015a4565b62000210600480360360208110156200058d57600080fd5b50356001600160a01b03166200182c565b6200021c60048036036040811015620005b657600080fd5b506001600160a01b0381358116916020013516620018b6565b6001546001600160a01b031681565b6000806000620005ef8585620018b6565b9050600080620005ff87620015a4565b909250905062000624670de0b6b3a76400006200061d8585620019d8565b9062001a36565b6200063d670de0b6b3a76400006200061d8685620019d8565b945094505050505b9250929050565b6200065662001a9f565b6001600160a01b03166200066962000c63565b6001600160a01b031614620006b4576040805162461bcd60e51b81526020600482018190526024820152600080516020620042fa833981519152604482015290519081900360640190fd5b6001600160a01b03909116600090815260076020526040902055565b60035481565b604051620006e76020820162001ce1565b6020820181038252601f19601f820116604052506040516020018082805190602001908083835b602083106200072f5780518252601f1990920191602091820191016200070e565b6001836020036101000a0380198251168184511680821785525050505050509050019150506040516020818303038152906040528051906020012081565b60045460ff1681565b60006200078530848462001aa3565b90505b92915050565b6200079862001a9f565b6001600160a01b0316620007ab62000c63565b6001600160a01b031614620007f6576040805162461bcd60e51b81526020600482018190526024820152600080516020620042fa833981519152604482015290519081900360640190fd5b600080546040516001600160a01b03909116907f8be0079c531659141344cd1fd0a4f28419497f9722a3daafe3b4186f6b6457e0908390a3600080546001600160a01b0319169055565b6200084a62001a9f565b6001600160a01b03166200085d62000c63565b6001600160a01b031614620008a8576040805162461bcd60e51b81526020600482018190526024820152600080516020620042fa833981519152604482015290519081900360640190fd5b600655565b620008b762001a9f565b6001600160a01b0316620008ca62000c63565b6001600160a01b03161462000915576040805162461bcd60e51b81526020600482018190526024820152600080516020620042fa833981519152604482015290519081900360640190fd5b6001600160a01b03909116600090815260086020526040902055565b600d546001600160a01b031633146200097c5760405162461bcd60e51b8152600401808060200182810382526025815260200180620042b46025913960400191505060405180910390fd5b806009819055506000826001600160a01b0316630dfe16816040518163ffffffff1660e01b815260040160206040518083038186803b158015620009bf57600080fd5b505afa158015620009d4573d6000803e3d6000fd5b505050506040513d6020811015620009eb57600080fd5b50516040805163d21220a760e01b815290519192506000916001600160a01b0386169163d21220a7916004808301926020929190829003018186803b15801562000a3457600080fd5b505afa15801562000a49573d6000803e3d6000fd5b505050506040513d602081101562000a6057600080fd5b505160408051630240bc6b60e21b8152905191925060009182916001600160a01b03881691630902f1ac91600480820192606092909190829003018186803b15801562000aac57600080fd5b505afa15801562000ac1573d6000803e3d6000fd5b505050506040513d606081101562000ad857600080fd5b50805160209091015190925090506001600160701b0382161562000bbb5762000b94826001600160701b03166200061d670de0b6b3a7640000876001600160a01b03166370a082318b6040518263ffffffff1660e01b815260040180826001600160a01b0316815260200191505060206040518083038186803b15801562000b5f57600080fd5b505afa15801562000b74573d6000803e3d6000fd5b505050506040513d602081101562000b8b57600080fd5b505190620019d8565b6001600160a01b038088166000908152600c60209081526040808320938916835292905220555b6001600160701b0381161562000c5b5762000c34816001600160701b03166200061d670de0b6b3a7640000866001600160a01b03166370a082318b6040518263ffffffff1660e01b815260040180826001600160a01b0316815260200191505060206040518083038186803b15801562000b5f57600080fd5b6001600160a01b038088166000908152600c60209081526040808320938816835292905220555b505050505050565b6000546001600160a01b031690565b62000c7c62001a9f565b6001600160a01b031662000c8f62000c63565b6001600160a01b03161462000cda576040805162461bcd60e51b81526020600482018190526024820152600080516020620042fa833981519152604482015290519081900360640190fd5b600d80546001600160a01b0319166001600160a01b0392909216919091179055565b60095481565b6001600160a01b0380861660009081526002602090815260408083208885168452909152902054168062000d37575062000f7d565b336001600160a01b0382161462000d8d576040805162461bcd60e51b81526020600482015260156024820152746f6e6c7920706169722063616e20646f207468697360581b604482015290519081900360640190fd5b60095462000d9c575062000f7d565b6009546001600160a01b038083166000908152600a6020908152604080832093891683529290522054101562000e8d57806001600160a01b03166370a08231856040518263ffffffff1660e01b815260040180826001600160a01b0316815260200191505060206040518083038186803b15801562000e1a57600080fd5b505afa15801562000e2f573d6000803e3d6000fd5b505050506040513d602081101562000e4657600080fd5b50516001600160a01b038083166000818152600b60209081526040808320948a1680845294825280832095909555600954928252600a815284822093825292909252919020555b6009546001600160a01b038083166000908152600a6020908152604080832093881683529290522054101562000c5b57806001600160a01b03166370a08231846040518263ffffffff1660e01b815260040180826001600160a01b0316815260200191505060206040518083038186803b15801562000f0b57600080fd5b505afa15801562000f20573d6000803e3d6000fd5b505050506040513d602081101562000f3757600080fd5b50516001600160a01b039182166000818152600b6020908152604080832095881680845295825280832094909455600954928252600a8152838220948252939093529120555b5050505050565b60008062000f9430858562001aa3565b905062000fa18162001bca565b949350505050565b6000816001600160a01b0316836001600160a01b0316141562001013576040805162461bcd60e51b815260206004820152601b60248201527f4b65706c65723a204944454e544943414c5f4144445245535345530000000000604482015290519081900360640190fd5b600080836001600160a01b0316856001600160a01b031610620010385783856200103b565b84845b90925090506001600160a01b03821662001093576040805162461bcd60e51b81526020600482015260146024820152734b65706c65723a205a45524f5f4144445245535360601b604482015290519081900360640190fd5b6001600160a01b0382811660009081526002602090815260408083208585168452909152902054161562001104576040805162461bcd60e51b81526020600482015260136024820152724b65706c65723a20504149525f45584953545360681b604482015290519081900360640190fd5b606060405180602001620011189062001ce1565b6020820181038252601f19601f8201166040525090506000838360405160200180836001600160a01b031660601b8152601401826001600160a01b031660601b815260140192505050604051602081830303815290604052805190602001209050808251602084016000f59450620011908562001bca565b620011da576040805162461bcd60e51b815260206004820152601560248201527412d95c1b195c8e881393d50815d2125511531254d5605a1b604482015290519081900360640190fd5b846001600160a01b031663485cc95585856040518363ffffffff1660e01b815260040180836001600160a01b03168152602001826001600160a01b0316815260200192505050600060405180830381600087803b1580156200123b57600080fd5b505af115801562001250573d6000803e3d6000fd5b5050506001600160a01b0380861660008181526002602081815260408084208a87168086529083528185208054978e166001600160a01b03199889168117909155938352818520868652835293819020805490961683179095556003805460010190819055855192835290820152835191945091927f0d3648bd0f6ba80134a33ba9275ac585d9d315f0ad8355cddefde31afa28d0e9928290030190a35050505092915050565b606080825167ffffffffffffffff811180156200131357600080fd5b506040519080825280602002602001820160405280156200133e578160200160208202803683370190505b50905060005b60018451038110156200146b57600760008583815181106200136257fe5b60200260200101516001600160a01b03166001600160a01b0316815260200190815260200160002054600014620013ec5760076000858381518110620013a457fe5b60200260200101516001600160a01b03166001600160a01b0316815260200190815260200160002054828281518110620013da57fe5b60200260200101818152505062001462565b600860008583600101815181106200140057fe5b60200260200101516001600160a01b03166001600160a01b0316815260200190815260200160002054600014620014455760086000858360010181518110620013a457fe5b6006548282815181106200145557fe5b6020026020010181815250505b60010162001344565b5090505b919050565b60026020908152600092835260408084209091529082529020546001600160a01b031681565b620014a462001a9f565b6001600160a01b0316620014b762000c63565b6001600160a01b03161462001502576040805162461bcd60e51b81526020600482018190526024820152600080516020620042fa833981519152604482015290519081900360640190fd5b6001600160a01b038116620015495760405162461bcd60e51b81526004018080602001828103825260268152602001806200426b6026913960400191505060405180910390fd5b600080546040516001600160a01b03808516939216917f8be0079c531659141344cd1fd0a4f28419497f9722a3daafe3b4186f6b6457e091a3600080546001600160a01b0319166001600160a01b0392909216919091179055565b6000806000836001600160a01b0316630dfe16816040518163ffffffff1660e01b815260040160206040518083038186803b158015620015e357600080fd5b505afa158015620015f8573d6000803e3d6000fd5b505050506040513d60208110156200160f57600080fd5b50516040805163d21220a760e01b815290519192506000916001600160a01b0387169163d21220a7916004808301926020929190829003018186803b1580156200165857600080fd5b505afa1580156200166d573d6000803e3d6000fd5b505050506040513d60208110156200168457600080fd5b5051600954909150620017ef57600080866001600160a01b0316630902f1ac6040518163ffffffff1660e01b815260040160606040518083038186803b158015620016ce57600080fd5b505afa158015620016e3573d6000803e3d6000fd5b505050506040513d6060811015620016fa57600080fd5b5080516020909101516001600160701b03918216935016905081156200177d576200177a826200061d670de0b6b3a7640000876001600160a01b03166370a082318c6040518263ffffffff1660e01b815260040180826001600160a01b0316815260200191505060206040518083038186803b15801562000b5f57600080fd5b95505b8015620017e757620017e4816200061d670de0b6b3a7640000866001600160a01b03166370a082318c6040518263ffffffff1660e01b815260040180826001600160a01b0316815260200191505060206040518083038186803b15801562000b5f57600080fd5b94505b505062001825565b6001600160a01b038581166000908152600c60209081526040808320868516845290915280822054928416825290205490945092505b5050915091565b6200183662001a9f565b6001600160a01b03166200184962000c63565b6001600160a01b03161462001894576040805162461bcd60e51b81526020600482018190526024820152600080516020620042fa833981519152604482015290519081900360640190fd5b600180546001600160a01b0319166001600160a01b0392909216919091179055565b600060095460001480620018f157506009546001600160a01b038085166000908152600a602090815260408083209387168352929052205414155b156200197b57826001600160a01b03166370a08231836040518263ffffffff1660e01b815260040180826001600160a01b0316815260200191505060206040518083038186803b1580156200194557600080fd5b505afa1580156200195a573d6000803e3d6000fd5b505050506040513d60208110156200197157600080fd5b5051905062000788565b6009546001600160a01b038085166000908152600a602090815260408083209387168352929052205414156200078857506001600160a01b038083166000908152600b602090815260408083209385168352929052205462000788565b600082620019e95750600062000788565b82820282848281620019f757fe5b0414620007855760405162461bcd60e51b8152600401808060200182810382526021815260200180620042d96021913960400191505060405180910390fd5b600080821162001a8d576040805162461bcd60e51b815260206004820152601a60248201527f536166654d6174683a206469766973696f6e206279207a65726f000000000000604482015290519081900360640190fd5b81838162001a9757fe5b049392505050565b3390565b600080600062001ab4858562001c05565b9150915085828260405160200180836001600160a01b031660601b8152601401826001600160a01b031660601b81526014019250505060405160208183030381529060405280519060200120876001600160a01b0316635855a25a6040518163ffffffff1660e01b815260040160206040518083038186803b15801562001b3a57600080fd5b505afa15801562001b4f573d6000803e3d6000fd5b505050506040513d602081101562001b6657600080fd5b5051604080516001600160f81b031960208083019190915260609590951b6bffffffffffffffffffffffff19166021820152603581019390935260558084019290925280518084039092018252607590920190915280519101209695505050505050565b60045460009060ff161562001bfc57506001600160a01b03811660009081526005602052604090205460ff166200146f565b5060016200146f565b600080826001600160a01b0316846001600160a01b0316141562001c5b5760405162461bcd60e51b8152600401808060200182810382526023815260200180620042916023913960400191505060405180910390fd5b826001600160a01b0316846001600160a01b03161062001c7d57828462001c80565b83835b90925090506001600160a01b03821662000645576040805162461bcd60e51b815260206004820152601c60248201527f50616e63616b654c6962726172793a205a45524f5f4144445245535300000000604482015290519081900360640190fd5b61257b8062001cf08339019056fe60806040526001600c553480156200001657600080fd5b50604080518082018252600b81526a25b2b83632b9102830b4b960a91b60208083019182528351808501909452600a84526925a2a82622a92830b4b960b11b9084015281519192916200006c91600391620000ab565b50805162000082906004906020840190620000ab565b505060058054601260ff1990911617610100600160a81b03191661010033021790555062000147565b828054600181600116156101000203166002900490600052602060002090601f016020900481019282601f10620000ee57805160ff19168380011785556200011e565b828001600101855582156200011e579182015b828111156200011e57825182559160200191906001019062000101565b506200012c92915062000130565b5090565b5b808211156200012c576000815560010162000131565b61242480620001576000396000f3fe608060405234801561001057600080fd5b50600436106101735760003560e01c80636d9a640a116100de578063a9059cbb11610097578063c45a015511610071578063c45a0155146104be578063d21220a7146104c6578063dd62ed3e146104ce578063fff6cae9146104fc57610173565b8063a9059cbb14610464578063ba9a7a5614610490578063bc25cf771461049857610173565b80636d9a640a1461039157806370a08231146103c35780637464fc3d146103e957806389afcb44146103f157806395d89b4114610430578063a457c2d71461043857610173565b8063313ce56711610130578063313ce567146102e157806339509351146102ff578063485cc9551461032b5780635909c0d51461035b5780635a3d5493146103635780636a6278421461036b57610173565b806306fdde03146101785780630902f1ac146101f5578063095ea7b31461022d5780630dfe16811461026d57806318160ddd1461029157806323b872dd146102ab575b600080fd5b610180610504565b6040805160208082528351818301528351919283929083019185019080838360005b838110156101ba5781810151838201526020016101a2565b50505050905090810190601f1680156101e75780820380516001836020036101000a031916815260200191505b509250505060405180910390f35b6101fd61059a565b604080516001600160701b03948516815292909316602083015263ffffffff168183015290519081900360600190f35b6102596004803603604081101561024357600080fd5b506001600160a01b0381351690602001356105c4565b604080519115158252519081900360200190f35b6102756105e2565b604080516001600160a01b039092168252519081900360200190f35b6102996105f1565b60408051918252519081900360200190f35b610259600480360360608110156102c157600080fd5b506001600160a01b038135811691602081013590911690604001356105f7565b6102e961067e565b6040805160ff9092168252519081900360200190f35b6102596004803603604081101561031557600080fd5b506001600160a01b038135169060200135610687565b6103596004803603604081101561034157600080fd5b506001600160a01b03813581169160200135166106d5565b005b610299610759565b61029961075f565b6102996004803603602081101561038157600080fd5b50356001600160a01b0316610765565b610359600480360360608110156103a757600080fd5b50803590602081013590604001356001600160a01b03166109f8565b610299600480360360208110156103d957600080fd5b50356001600160a01b0316610fef565b61029961100e565b6104176004803603602081101561040757600080fd5b50356001600160a01b0316611014565b6040805192835260208301919091528051918290030190f35b6101806113b6565b6102596004803603604081101561044e57600080fd5b506001600160a01b038135169060200135611417565b6102596004803603604081101561047a57600080fd5b506001600160a01b03813516906020013561147f565b610299611493565b610359600480360360208110156104ae57600080fd5b50356001600160a01b0316611499565b610275611606565b61027561161a565b610299600480360360408110156104e457600080fd5b506001600160a01b0381358116916020013516611629565b610359611654565b60038054604080516020601f60026000196101006001881615020190951694909404938401819004810282018101909252828152606093909290918301828280156105905780601f1061056557610100808354040283529160200191610590565b820191906000526020600020905b81548152906001019060200180831161057357829003601f168201915b5050505050905090565b6008546001600160701b0380821692600160701b830490911691600160e01b900463ffffffff1690565b60006105d86105d16117b1565b84846117b5565b5060015b92915050565b6006546001600160a01b031681565b60025490565b60006106048484846118a1565b610674846106106117b1565b61066f856040518060600160405280602881526020016122ce602891396001600160a01b038a1660009081526001602052604081209061064e6117b1565b6001600160a01b0316815260208101919091526040016000205491906119fc565b6117b5565b5060019392505050565b60055460ff1690565b60006105d86106946117b1565b8461066f85600160006106a56117b1565b6001600160a01b03908116825260208083019390935260409182016000908120918c168152925290205490611a93565b60055461010090046001600160a01b0316331461072b576040805162461bcd60e51b815260206004820152600f60248201526e2130b13c9d102327a92124a22222a760891b604482015290519081900360640190fd5b600680546001600160a01b039384166001600160a01b03199182161790915560078054929093169116179055565b60095481565b600a5481565b6000600c546001146107ad576040805162461bcd60e51b815260206004820152600c60248201526b1098589e4e881313d0d2d15160a21b604482015290519081900360640190fd5b6000600c819055806107bd61059a565b50600654604080516370a0823160e01b815230600482015290519395509193506000926001600160a01b03909116916370a08231916024808301926020929190829003018186803b15801561081157600080fd5b505afa158015610825573d6000803e3d6000fd5b505050506040513d602081101561083b57600080fd5b5051600754604080516370a0823160e01b815230600482015290519293506000926001600160a01b03909216916370a0823191602480820192602092909190829003018186803b15801561088e57600080fd5b505afa1580156108a2573d6000803e3d6000fd5b505050506040513d60208110156108b857600080fd5b5051905060006108d1836001600160701b038716611af4565b905060006108e8836001600160701b038716611af4565b905060006108f46105f1565b9050806109145761090d6109088484611b51565b611baa565b9750610957565b6109546001600160701b03881661092b8584611b51565b8161093257fe5b046001600160701b0388166109478585611b51565b8161094e57fe5b04611bfb565b97505b600088116109965760405162461bcd60e51b81526004018080602001828103825260238152602001806123a76023913960400191505060405180910390fd5b6109a08989611c11565b6109ac85858989611d01565b6040805184815260208101849052815133927f4c209b5fc8ad50758f13e2e1088ba56a560dff690a1c6fef26394f4c03821c4f928290030190a250506001600c55509395945050505050565b600c54600114610a3e576040805162461bcd60e51b815260206004820152600c60248201526b1098589e4e881313d0d2d15160a21b604482015290519081900360640190fd5b6000600c5582151580610a515750600082115b610a8c5760405162461bcd60e51b815260040180806020018281038252602281526020018061233c6022913960400191505060405180910390fd5b600080610a9761059a565b5091509150816001600160701b031685108015610abc5750806001600160701b031684105b610b0d576040805162461bcd60e51b815260206004820152601e60248201527f4b65706c65723a20494e53554646494349454e545f4c49515549444954590000604482015290519081900360640190fd5b60065460075460009182916060916001600160a01b039081169181169088168214801590610b4d5750806001600160a01b0316886001600160a01b031614155b610b93576040805162461bcd60e51b81526020600482015260126024820152714b65706c65723a20494e56414c49445f544f60701b604482015290519081900360640190fd5b8915610ba457610ba482898c611ebd565b8815610bb557610bb581898b611ebd565b604080516370a0823160e01b815230600482015290516001600160a01b038416916370a08231916024808301926020929190829003018186803b158015610bfb57600080fd5b505afa158015610c0f573d6000803e3d6000fd5b505050506040513d6020811015610c2557600080fd5b5051604080516370a0823160e01b815230600482015290519196506001600160a01b038316916370a0823191602480820192602092909190829003018186803b158015610c7157600080fd5b505afa158015610c85573d6000803e3d6000fd5b505050506040513d6020811015610c9b57600080fd5b50516040805160028082526060808301845293975090916020830190803683370190505090508281600081518110610ccf57fe5b60200260200101906001600160a01b031690816001600160a01b0316815250508181600181518110610cfd57fe5b6001600160a01b0392831660209182029290920181019190915260055460405163372dad2160e21b8152600481018381528551602483015285516101009093049094169363dcb6b48493869391928392604490910191858101910280838360005b83811015610d76578181015183820152602001610d5e565b505050509050019250505060006040518083038186803b158015610d9957600080fd5b505afa158015610dad573d6000803e3d6000fd5b505050506040513d6000823e601f3d908101601f191682016040526020811015610dd657600080fd5b8101908080516040519392919084640100000000821115610df657600080fd5b908301906020820185811115610e0b57600080fd5b8251866020820283011164010000000082111715610e2857600080fd5b82525081516020918201928201910280838360005b83811015610e55578181015183820152602001610e3d565b505050509050016040525050509350505050600088866001600160701b0316038411610e82576000610e91565b88866001600160701b03160384035b9050600088866001600160701b0316038411610eae576000610ebd565b88866001600160701b03160384035b90506000821180610ece5750600081115b610f1f576040805162461bcd60e51b815260206004820152601f60248201527f426162793a20494e53554646494349454e545f494e5055545f414d4f554e5400604482015290519081900360640190fd5b610f356001600160701b03888116908816611b51565b610f3f8686611b51565b1015610f7e576040805162461bcd60e51b81526020600482015260096024820152684b65706c65723a204b60b81b604482015290519081900360640190fd5b610f8a85858989611d01565b60408051838152602081018390528082018c9052606081018b905290516001600160a01b038a169133917fd78ad95fa46c994b6551d0da85fc275fe613ce37657fb8d5e3d130840159d8229181900360800190a350506001600c555050505050505050565b6001600160a01b0381166000908152602081905260409020545b919050565b600b5481565b600080600c5460011461105d576040805162461bcd60e51b815260206004820152600c60248201526b1098589e4e881313d0d2d15160a21b604482015290519081900360640190fd5b6000600c8190558061106d61059a565b50600654600754604080516370a0823160e01b815230600482015290519496509294506001600160a01b039182169391169160009184916370a08231916024808301926020929190829003018186803b1580156110c957600080fd5b505afa1580156110dd573d6000803e3d6000fd5b505050506040513d60208110156110f357600080fd5b5051604080516370a0823160e01b815230600482015290519192506000916001600160a01b038516916370a08231916024808301926020929190829003018186803b15801561114157600080fd5b505afa158015611155573d6000803e3d6000fd5b505050506040513d602081101561116b57600080fd5b50519050600061117a30610fef565b905060006111866105f1565b9050806111ce576040805162461bcd60e51b8152602060048201526011602482015270696e666c75656e63652062616c616e636560781b604482015290519081900360640190fd5b806111d98386611b51565b816111e057fe5b049950806111ee8385611b51565b816111f557fe5b04985060008a1180156112085750600089115b6112435760405162461bcd60e51b81526004018080602001828103825260258152602001806123826025913960400191505060405180910390fd5b61124d3083612057565b611258868c8c611ebd565b611263858c8b611ebd565b604080516370a0823160e01b815230600482015290516001600160a01b038816916370a08231916024808301926020929190829003018186803b1580156112a957600080fd5b505afa1580156112bd573d6000803e3d6000fd5b505050506040513d60208110156112d357600080fd5b5051604080516370a0823160e01b815230600482015290519195506001600160a01b038716916370a0823191602480820192602092909190829003018186803b15801561131f57600080fd5b505afa158015611333573d6000803e3d6000fd5b505050506040513d602081101561134957600080fd5b5051925061135984848a8a611d01565b604080518b8152602081018b905281516001600160a01b038e169233927fdccd412f0b1252819cb1fd330b93224ca42612892bb3f4f789976e6d81936496929081900390910190a350505050505050506001600c81905550915091565b60048054604080516020601f60026000196101006001881615020190951694909404938401819004810282018101909252828152606093909290918301828280156105905780601f1061056557610100808354040283529160200191610590565b60006105d86114246117b1565b8461066f856040518060600160405280602581526020016123ca602591396001600061144e6117b1565b6001600160a01b03908116825260208083019390935260409182016000908120918d168152925290205491906119fc565b60006105d861148c6117b1565b84846118a1565b6103e881565b600c546001146114df576040805162461bcd60e51b815260206004820152600c60248201526b1098589e4e881313d0d2d15160a21b604482015290519081900360640190fd5b6000600c55600654600754600854604080516370a0823160e01b815230600482015290516001600160a01b0394851694909316926115889285928792611583926001600160701b03169185916370a0823191602480820192602092909190829003018186803b15801561155157600080fd5b505afa158015611565573d6000803e3d6000fd5b505050506040513d602081101561157b57600080fd5b505190611af4565b611ebd565b6115fc81846115836008600e9054906101000a90046001600160701b03166001600160701b0316856001600160a01b03166370a08231306040518263ffffffff1660e01b815260040180826001600160a01b0316815260200191505060206040518083038186803b15801561155157600080fd5b50506001600c5550565b60055461010090046001600160a01b031681565b6007546001600160a01b031681565b6001600160a01b03918216600090815260016020908152604080832093909416825291909152205490565b600c5460011461169a576040805162461bcd60e51b815260206004820152600c60248201526b1098589e4e881313d0d2d15160a21b604482015290519081900360640190fd5b6000600c55600654604080516370a0823160e01b815230600482015290516117aa926001600160a01b0316916370a08231916024808301926020929190829003018186803b1580156116eb57600080fd5b505afa1580156116ff573d6000803e3d6000fd5b505050506040513d602081101561171557600080fd5b5051600754604080516370a0823160e01b815230600482015290516001600160a01b03909216916370a0823191602480820192602092909190829003018186803b15801561176257600080fd5b505afa158015611776573d6000803e3d6000fd5b505050506040513d602081101561178c57600080fd5b50516008546001600160701b0380821691600160701b900416611d01565b6001600c55565b3390565b6001600160a01b0383166117fa5760405162461bcd60e51b815260040180806020018281038252602481526020018061235e6024913960400191505060405180910390fd5b6001600160a01b03821661183f5760405162461bcd60e51b81526004018080602001828103825260228152602001806122656022913960400191505060405180910390fd5b6001600160a01b03808416600081815260016020908152604080832094871680845294825291829020859055815185815291517f8c5be1e5ebec7d5bd14f71427d1e84f3dd0314c0f7b2291e5b200ac8c7c3b9259281900390910190a3505050565b6001600160a01b0383166118e65760405162461bcd60e51b81526004018080602001828103825260258152602001806123176025913960400191505060405180910390fd5b6001600160a01b03821661192b5760405162461bcd60e51b81526004018080602001828103825260238152602001806122206023913960400191505060405180910390fd5b611936838383612153565b61197381604051806060016040528060268152602001612287602691396001600160a01b03861660009081526020819052604090205491906119fc565b6001600160a01b0380851660009081526020819052604080822093909355908416815220546119a29082611a93565b6001600160a01b038084166000818152602081815260409182902094909455805185815290519193928716927fddf252ad1be2c89b69c2b068fc378daa952ba7f163c4a11628f55a4df523b3ef92918290030190a3505050565b60008184841115611a8b5760405162461bcd60e51b81526004018080602001828103825283818151815260200191508051906020019080838360005b83811015611a50578181015183820152602001611a38565b50505050905090810190601f168015611a7d5780820380516001836020036101000a031916815260200191505b509250505060405180910390fd5b505050900390565b600082820183811015611aed576040805162461bcd60e51b815260206004820152601b60248201527f536166654d6174683a206164646974696f6e206f766572666c6f770000000000604482015290519081900360640190fd5b9392505050565b600082821115611b4b576040805162461bcd60e51b815260206004820152601e60248201527f536166654d6174683a207375627472616374696f6e206f766572666c6f770000604482015290519081900360640190fd5b50900390565b600082611b60575060006105dc565b82820282848281611b6d57fe5b0414611aed5760405162461bcd60e51b81526004018080602001828103825260218152602001806122ad6021913960400191505060405180910390fd5b60006003821115611bed575080600160028204015b81811015611be757809150600281828581611bd657fe5b040181611bdf57fe5b049050611bbf565b50611009565b811561100957506001919050565b6000818310611c0a5781611aed565b5090919050565b6001600160a01b038216611c6c576040805162461bcd60e51b815260206004820152601f60248201527f45524332303a206d696e7420746f20746865207a65726f206164647265737300604482015290519081900360640190fd5b611c7860008383612153565b600254611c859082611a93565b6002556001600160a01b038216600090815260208190526040902054611cab9082611a93565b6001600160a01b0383166000818152602081815260408083209490945583518581529351929391927fddf252ad1be2c89b69c2b068fc378daa952ba7f163c4a11628f55a4df523b3ef9281900390910190a35050565b6001600160701b038411801590611d1f57506001600160701b038311155b611d63576040805162461bcd60e51b815260206004820152601060248201526f4b65706c65723a204f564552464c4f5760801b604482015290519081900360640190fd5b60085463ffffffff42811691600160e01b90048116820390811615801590611d9357506001600160701b03841615155b8015611da757506001600160701b03831615155b15611e12578063ffffffff16611dcf85611dc0866121e8565b6001600160e01b0316906121fa565b600980546001600160e01b03929092169290920201905563ffffffff8116611dfa84611dc0876121e8565b600a80546001600160e01b0392909216929092020190555b600880546dffffffffffffffffffffffffffff19166001600160701b03888116919091176dffffffffffffffffffffffffffff60701b1916600160701b8883168102919091176001600160e01b0316600160e01b63ffffffff871602179283905560408051848416815291909304909116602082015281517f1c411e9a96e071241c2f21f7726b17ae89e3cab4c78be50e062b03a9fffbbad1929181900390910190a1505050505050565b604080518082018252601981527f7472616e7366657228616464726573732c75696e74323536290000000000000060209182015281516001600160a01b0385811660248301526044808301869052845180840390910181526064909201845291810180516001600160e01b031663a9059cbb60e01b1781529251815160009460609489169392918291908083835b60208310611f6a5780518252601f199092019160209182019101611f4b565b6001836020036101000a0380198251168184511680821785525050505050509050019150506000604051808303816000865af19150503d8060008114611fcc576040519150601f19603f3d011682016040523d82523d6000602084013e611fd1565b606091505b5091509150818015611fff575080511580611fff5750808060200190516020811015611ffc57600080fd5b50515b612050576040805162461bcd60e51b815260206004820152601760248201527f4b65706c65723a205452414e534645525f4641494c4544000000000000000000604482015290519081900360640190fd5b5050505050565b6001600160a01b03821661209c5760405162461bcd60e51b81526004018080602001828103825260218152602001806122f66021913960400191505060405180910390fd5b6120a882600083612153565b6120e581604051806060016040528060228152602001612243602291396001600160a01b03851660009081526020819052604090205491906119fc565b6001600160a01b03831660009081526020819052604090205560025461210b9082611af4565b6002556040805182815290516000916001600160a01b038516917fddf252ad1be2c89b69c2b068fc378daa952ba7f163c4a11628f55a4df523b3ef9181900360200190a35050565b6005546006546007546040805163a24090b160e01b81526001600160a01b03938416600482015291831660248301528683166044830152858316606483015260848201859052516101009093049091169163a24090b19160a48082019260009290919082900301818387803b1580156121cb57600080fd5b505af11580156121df573d6000803e3d6000fd5b50505050505050565b6001600160701b0316600160701b0290565b60006001600160701b0382166001600160e01b0384168161221757fe5b04939250505056fe45524332303a207472616e7366657220746f20746865207a65726f206164647265737345524332303a206275726e20616d6f756e7420657863656564732062616c616e636545524332303a20617070726f766520746f20746865207a65726f206164647265737345524332303a207472616e7366657220616d6f756e7420657863656564732062616c616e6365536166654d6174683a206d756c7469706c69636174696f6e206f766572666c6f7745524332303a207472616e7366657220616d6f756e74206578636565647320616c6c6f77616e636545524332303a206275726e2066726f6d20746865207a65726f206164647265737345524332303a207472616e736665722066726f6d20746865207a65726f20616464726573734b65706c65723a20494e53554646494349454e545f4f55545055545f414d4f554e5445524332303a20617070726f76652066726f6d20746865207a65726f20616464726573734b65706c65723a20494e53554646494349454e545f4c49515549444954595f4255524e4544426162793a20494e53554646494349454e545f4c49515549444954595f4d494e54454445524332303a2064656372656173656420616c6c6f77616e63652062656c6f77207a65726fa26469706673582212207eebb5ab00dd606cdc224bded9b9fe9f007879eb05783a5f557b6a438659f05d64736f6c634300070200334f776e61626c653a206e6577206f776e657220697320746865207a65726f206164647265737350616e63616b654c6962726172793a204944454e544943414c5f4144445245535345536f6e6c7920736e617073686f7443726561746543616c6c65722063616e20646f2074686973536166654d6174683a206d756c7469706c69636174696f6e206f766572666c6f774f776e61626c653a2063616c6c6572206973206e6f7420746865206f776e6572a2646970667358221220c94d536c17a32646007541d575950df7b919f7a8269c408a1c7ddc16f3e532ed64736f6c63430007020033",
  "devdoc": {
    "kind": "dev",
    "methods": {
      "owner()": {
        "details": "Returns the address of the current owner."
      },
      "renounceOwnership()": {
        "details": "Leaves the contract without owner. It will not be possible to call `onlyOwner` functions anymore. Can only be called by the current owner. NOTE: Renouncing ownership will leave the contract without an owner, thereby removing any functionality that is only available to the owner."
      },
      "transferOwnership(address)": {
        "details": "Transfers ownership of the contract to a new account (`newOwner`). Can only be called by the current owner."
      }
    },
    "version": 1
  },
  "userdoc": {
    "kind": "user",
    "methods": {},
    "version": 1
  },
  "storageLayout": {
    "storage": [
      {
        "astId": 7,
        "contract": "contracts/swap/KeplerFactory.sol:KeplerFactory",
        "label": "_owner",
        "offset": 0,
        "slot": "0",
        "type": "t_address"
      },
      {
        "astId": 8602,
        "contract": "contracts/swap/KeplerFactory.sol:KeplerFactory",
        "label": "feeTo",
        "offset": 0,
        "slot": "1",
        "type": "t_address"
      },
      {
        "astId": 8608,
        "contract": "contracts/swap/KeplerFactory.sol:KeplerFactory",
        "label": "getPair",
        "offset": 0,
        "slot": "2",
        "type": "t_mapping(t_address,t_mapping(t_address,t_address))"
      },
      {
        "astId": 8610,
        "contract": "contracts/swap/KeplerFactory.sol:KeplerFactory",
        "label": "allPairsLength",
        "offset": 0,
        "slot": "3",
        "type": "t_uint256"
      },
      {
        "astId": 8612,
        "contract": "contracts/swap/KeplerFactory.sol:KeplerFactory",
        "label": "whiteListAvaliable",
        "offset": 0,
        "slot": "4",
        "type": "t_bool"
      },
      {
        "astId": 8616,
        "contract": "contracts/swap/KeplerFactory.sol:KeplerFactory",
        "label": "whiteList",
        "offset": 0,
        "slot": "5",
        "type": "t_mapping(t_address,t_bool)"
      },
      {
        "astId": 8618,
        "contract": "contracts/swap/KeplerFactory.sol:KeplerFactory",
        "label": "defaultTransferFee",
        "offset": 0,
        "slot": "6",
        "type": "t_uint256"
      },
      {
        "astId": 8622,
        "contract": "contracts/swap/KeplerFactory.sol:KeplerFactory",
        "label": "tokenTransferFee",
        "offset": 0,
        "slot": "7",
        "type": "t_mapping(t_address,t_uint256)"
      },
      {
        "astId": 8626,
        "contract": "contracts/swap/KeplerFactory.sol:KeplerFactory",
        "label": "relateTransferFee",
        "offset": 0,
        "slot": "8",
        "type": "t_mapping(t_address,t_uint256)"
      },
      {
        "astId": 8628,
        "contract": "contracts/swap/KeplerFactory.sol:KeplerFactory",
        "label": "currentSnapshotId",
        "offset": 0,
        "slot": "9",
        "type": "t_uint256"
      },
      {
        "astId": 8634,
        "contract": "contracts/swap/KeplerFactory.sol:KeplerFactory",
        "label": "userSnapshotId",
        "offset": 0,
        "slot": "10",
        "type": "t_mapping(t_address,t_mapping(t_address,t_uint256))"
      },
      {
        "astId": 8640,
        "contract": "contracts/swap/KeplerFactory.sol:KeplerFactory",
        "label": "userSnapshotAmount",
        "offset": 0,
        "slot": "11",
        "type": "t_mapping(t_address,t_mapping(t_address,t_uint256))"
      },
      {
        "astId": 8646,
        "contract": "contracts/swap/KeplerFactory.sol:KeplerFactory",
        "label": "pairSnapshotPrice",
        "offset": 0,
        "slot": "12",
        "type": "t_mapping(t_address,t_mapping(t_address,t_uint256))"
      },
      {
        "astId": 8648,
        "contract": "contracts/swap/KeplerFactory.sol:KeplerFactory",
        "label": "snapshotCreateCaller",
        "offset": 0,
        "slot": "13",
        "type": "t_address"
      }
    ],
    "types": {
      "t_address": {
        "encoding": "inplace",
        "label": "address",
        "numberOfBytes": "20"
      },
      "t_bool": {
        "encoding": "inplace",
        "label": "bool",
        "numberOfBytes": "1"
      },
      "t_mapping(t_address,t_address)": {
        "encoding": "mapping",
        "key": "t_address",
        "label": "mapping(address => address)",
        "numberOfBytes": "32",
        "value": "t_address"
      },
      "t_mapping(t_address,t_bool)": {
        "encoding": "mapping",
        "key": "t_address",
        "label": "mapping(address => bool)",
        "numberOfBytes": "32",
        "value": "t_bool"
      },
      "t_mapping(t_address,t_mapping(t_address,t_address))": {
        "encoding": "mapping",
        "key": "t_address",
        "label": "mapping(address => mapping(address => address))",
        "numberOfBytes": "32",
        "value": "t_mapping(t_address,t_address)"
      },
      "t_mapping(t_address,t_mapping(t_address,t_uint256))": {
        "encoding": "mapping",
        "key": "t_address",
        "label": "mapping(address => mapping(address => uint256))",
        "numberOfBytes": "32",
        "value": "t_mapping(t_address,t_uint256)"
      },
      "t_mapping(t_address,t_uint256)": {
        "encoding": "mapping",
        "key": "t_address",
        "label": "mapping(address => uint256)",
        "numberOfBytes": "32",
        "value": "t_uint256"
      },
      "t_uint256": {
        "encoding": "inplace",
        "label": "uint256",
        "numberOfBytes": "32"
      }
    }
  }
}