{
  "address": "0x6e45E80ED4cCBA22Ca9b6560d4cb8da6A9aC2466",
  "abi": [
    {
      "inputs": [
        {
          "internalType": "address",
          "name": "_factory",
          "type": "address"
        },
        {
          "internalType": "address",
          "name": "_WETH",
          "type": "address"
        }
      ],
      "stateMutability": "nonpayable",
      "type": "constructor"
    },
    {
      "inputs": [],
      "name": "WETH",
      "outputs": [
        {
          "internalType": "address",
          "name": "",
          "type": "address"
        }
      ],
      "stateMutability": "view",
      "type": "function"
    },
    {
      "inputs": [
        {
          "internalType": "address",
          "name": "tokenA",
          "type": "address"
        },
        {
          "internalType": "address",
          "name": "tokenB",
          "type": "address"
        },
        {
          "internalType": "uint256",
          "name": "amountADesired",
          "type": "uint256"
        },
        {
          "internalType": "uint256",
          "name": "amountBDesired",
          "type": "uint256"
        },
        {
          "internalType": "uint256",
          "name": "amountAMin",
          "type": "uint256"
        },
        {
          "internalType": "uint256",
          "name": "amountBMin",
          "type": "uint256"
        },
        {
          "internalType": "address",
          "name": "to",
          "type": "address"
        },
        {
          "internalType": "uint256",
          "name": "deadline",
          "type": "uint256"
        }
      ],
      "name": "addLiquidity",
      "outputs": [
        {
          "internalType": "uint256",
          "name": "amountA",
          "type": "uint256"
        },
        {
          "internalType": "uint256",
          "name": "amountB",
          "type": "uint256"
        },
        {
          "internalType": "uint256",
          "name": "liquidity",
          "type": "uint256"
        }
      ],
      "stateMutability": "nonpayable",
      "type": "function"
    },
    {
      "inputs": [
        {
          "internalType": "address",
          "name": "token",
          "type": "address"
        },
        {
          "internalType": "uint256",
          "name": "amountTokenDesired",
          "type": "uint256"
        },
        {
          "internalType": "uint256",
          "name": "amountTokenMin",
          "type": "uint256"
        },
        {
          "internalType": "uint256",
          "name": "amountETHMin",
          "type": "uint256"
        },
        {
          "internalType": "address",
          "name": "to",
          "type": "address"
        },
        {
          "internalType": "uint256",
          "name": "deadline",
          "type": "uint256"
        }
      ],
      "name": "addLiquidityETH",
      "outputs": [
        {
          "internalType": "uint256",
          "name": "amountToken",
          "type": "uint256"
        },
        {
          "internalType": "uint256",
          "name": "amountETH",
          "type": "uint256"
        },
        {
          "internalType": "uint256",
          "name": "liquidity",
          "type": "uint256"
        }
      ],
      "stateMutability": "payable",
      "type": "function"
    },
    {
      "inputs": [],
      "name": "factory",
      "outputs": [
        {
          "internalType": "address",
          "name": "",
          "type": "address"
        }
      ],
      "stateMutability": "view",
      "type": "function"
    },
    {
      "inputs": [
        {
          "internalType": "address",
          "name": "tokenA",
          "type": "address"
        },
        {
          "internalType": "address",
          "name": "tokenB",
          "type": "address"
        },
        {
          "internalType": "uint256",
          "name": "liquidity",
          "type": "uint256"
        },
        {
          "internalType": "uint256",
          "name": "amountAMin",
          "type": "uint256"
        },
        {
          "internalType": "uint256",
          "name": "amountBMin",
          "type": "uint256"
        },
        {
          "internalType": "address",
          "name": "to",
          "type": "address"
        },
        {
          "internalType": "uint256",
          "name": "deadline",
          "type": "uint256"
        }
      ],
      "name": "removeLiquidity",
      "outputs": [
        {
          "internalType": "uint256",
          "name": "amountA",
          "type": "uint256"
        },
        {
          "internalType": "uint256",
          "name": "amountB",
          "type": "uint256"
        }
      ],
      "stateMutability": "nonpayable",
      "type": "function"
    },
    {
      "inputs": [
        {
          "internalType": "address",
          "name": "token",
          "type": "address"
        },
        {
          "internalType": "uint256",
          "name": "liquidity",
          "type": "uint256"
        },
        {
          "internalType": "uint256",
          "name": "amountTokenMin",
          "type": "uint256"
        },
        {
          "internalType": "uint256",
          "name": "amountETHMin",
          "type": "uint256"
        },
        {
          "internalType": "address",
          "name": "to",
          "type": "address"
        },
        {
          "internalType": "uint256",
          "name": "deadline",
          "type": "uint256"
        }
      ],
      "name": "removeLiquidityETH",
      "outputs": [
        {
          "internalType": "uint256",
          "name": "amountToken",
          "type": "uint256"
        },
        {
          "internalType": "uint256",
          "name": "amountETH",
          "type": "uint256"
        }
      ],
      "stateMutability": "nonpayable",
      "type": "function"
    },
    {
      "inputs": [
        {
          "internalType": "uint256",
          "name": "amountOut",
          "type": "uint256"
        },
        {
          "internalType": "address[]",
          "name": "path",
          "type": "address[]"
        },
        {
          "internalType": "address",
          "name": "to",
          "type": "address"
        },
        {
          "internalType": "uint256",
          "name": "deadline",
          "type": "uint256"
        }
      ],
      "name": "swapETHForExactTokens",
      "outputs": [
        {
          "internalType": "uint256[]",
          "name": "amounts",
          "type": "uint256[]"
        }
      ],
      "stateMutability": "payable",
      "type": "function"
    },
    {
      "inputs": [
        {
          "internalType": "uint256",
          "name": "amountOutMin",
          "type": "uint256"
        },
        {
          "internalType": "address[]",
          "name": "path",
          "type": "address[]"
        },
        {
          "internalType": "address",
          "name": "to",
          "type": "address"
        },
        {
          "internalType": "uint256",
          "name": "deadline",
          "type": "uint256"
        }
      ],
      "name": "swapExactETHForTokens",
      "outputs": [
        {
          "internalType": "uint256[]",
          "name": "amounts",
          "type": "uint256[]"
        }
      ],
      "stateMutability": "payable",
      "type": "function"
    },
    {
      "inputs": [
        {
          "internalType": "uint256",
          "name": "amountIn",
          "type": "uint256"
        },
        {
          "internalType": "uint256",
          "name": "amountOutMin",
          "type": "uint256"
        },
        {
          "internalType": "address[]",
          "name": "path",
          "type": "address[]"
        },
        {
          "internalType": "address",
          "name": "to",
          "type": "address"
        },
        {
          "internalType": "uint256",
          "name": "deadline",
          "type": "uint256"
        }
      ],
      "name": "swapExactTokensForETH",
      "outputs": [
        {
          "internalType": "uint256[]",
          "name": "amounts",
          "type": "uint256[]"
        }
      ],
      "stateMutability": "nonpayable",
      "type": "function"
    },
    {
      "inputs": [
        {
          "internalType": "uint256",
          "name": "amountIn",
          "type": "uint256"
        },
        {
          "internalType": "uint256",
          "name": "amountOutMin",
          "type": "uint256"
        },
        {
          "internalType": "address[]",
          "name": "path",
          "type": "address[]"
        },
        {
          "internalType": "address",
          "name": "to",
          "type": "address"
        },
        {
          "internalType": "uint256",
          "name": "deadline",
          "type": "uint256"
        }
      ],
      "name": "swapExactTokensForTokens",
      "outputs": [
        {
          "internalType": "uint256[]",
          "name": "amounts",
          "type": "uint256[]"
        }
      ],
      "stateMutability": "nonpayable",
      "type": "function"
    },
    {
      "inputs": [
        {
          "internalType": "uint256",
          "name": "amountOut",
          "type": "uint256"
        },
        {
          "internalType": "uint256",
          "name": "amountInMax",
          "type": "uint256"
        },
        {
          "internalType": "address[]",
          "name": "path",
          "type": "address[]"
        },
        {
          "internalType": "address",
          "name": "to",
          "type": "address"
        },
        {
          "internalType": "uint256",
          "name": "deadline",
          "type": "uint256"
        }
      ],
      "name": "swapTokensForExactETH",
      "outputs": [
        {
          "internalType": "uint256[]",
          "name": "amounts",
          "type": "uint256[]"
        }
      ],
      "stateMutability": "nonpayable",
      "type": "function"
    },
    {
      "inputs": [
        {
          "internalType": "uint256",
          "name": "amountOut",
          "type": "uint256"
        },
        {
          "internalType": "uint256",
          "name": "amountInMax",
          "type": "uint256"
        },
        {
          "internalType": "address[]",
          "name": "path",
          "type": "address[]"
        },
        {
          "internalType": "address",
          "name": "to",
          "type": "address"
        },
        {
          "internalType": "uint256",
          "name": "deadline",
          "type": "uint256"
        }
      ],
      "name": "swapTokensForExactTokens",
      "outputs": [
        {
          "internalType": "uint256[]",
          "name": "amounts",
          "type": "uint256[]"
        }
      ],
      "stateMutability": "nonpayable",
      "type": "function"
    },
    {
      "stateMutability": "payable",
      "type": "receive"
    }
  ],
  "transactionHash": "0xa55e48aea4789d4a01db96e106e78bd97d906ddca62e12da7e9b9f3bbadd7eb8",
  "args": [
    "0xDCc73f0C00c11092373fA361a77f5a4aa824D747",
    "0x69B8b1fAD2F456C156De598338DaeF56c4918493"
  ],
  "solcInputHash": "b23861fd4cc5066e011dd2d307c05e17",
  "bytecode": "0x60c060405234801561001057600080fd5b5060405162004adf38038062004adf8339818101604052604081101561003557600080fd5b5080516020909101516001600160601b0319606092831b8116608052911b1660a05260805160601c60a05160601c6149606200017f6000398060bb52806106bb52806106f652806107d85280610e1452806114f25280611a4e5280611f695280611ff152806126055280612a115280612a675280612a9b5280612b0f5280612c9d52806131b5528061323d52508061087452806109d35280610a345280610b8d5280610d705280610f1f528061107e52806110df52806112e4528061159152806116f0528061175152806118aa5280611aef5280611c4e5280611caf5280611e085280612023528061218e52806122ed528061234e52806124a75280612675528061286d52806128f25280612a455280612d3e5280612e9d5280612efe5280613057528061326f5280613b365280613b79528061402452806140dd528061419052506149606000f3fe6080604052600436106100ab5760003560e01c8063ad5c464811610064578063ad5c464814610481578063baa2abde146104b2578063c45a01551461050f578063e8e3370014610524578063f305d719146105a4578063fb3bdb41146105ea576100e4565b806302751cec146100e957806318cbafe51461015557806338ed17391461023b5780634a25d94a146102d15780637ff36ab5146103675780638803dbee146103eb576100e4565b366100e457336001600160a01b037f000000000000000000000000000000000000000000000000000000000000000016146100e257fe5b005b600080fd5b3480156100f557600080fd5b5061013c600480360360c081101561010c57600080fd5b506001600160a01b0381358116916020810135916040820135916060810135916080820135169060a0013561066e565b6040805192835260208301919091528051918290030190f35b34801561016157600080fd5b506101eb600480360360a081101561017857600080fd5b813591602081013591810190606081016040820135600160201b81111561019e57600080fd5b8201836020820111156101b057600080fd5b803590602001918460208302840111600160201b831117156101d157600080fd5b91935091506001600160a01b038135169060200135610788565b60408051602080825283518183015283519192839290830191858101910280838360005b8381101561022757818101518382015260200161020f565b505050509050019250505060405180910390f35b34801561024757600080fd5b506101eb600480360360a081101561025e57600080fd5b813591602081013591810190606081016040820135600160201b81111561028457600080fd5b82018360208201111561029657600080fd5b803590602001918460208302840111600160201b831117156102b757600080fd5b91935091506001600160a01b038135169060200135610ed5565b3480156102dd57600080fd5b506101eb600480360360a08110156102f457600080fd5b813591602081013591810190606081016040820135600160201b81111561031a57600080fd5b82018360208201111561032c57600080fd5b803590602001918460208302840111600160201b8311171561034d57600080fd5b91935091506001600160a01b0381351690602001356114a2565b6101eb6004803603608081101561037d57600080fd5b81359190810190604081016020820135600160201b81111561039e57600080fd5b8201836020820111156103b057600080fd5b803590602001918460208302840111600160201b831117156103d157600080fd5b91935091506001600160a01b038135169060200135611a06565b3480156103f757600080fd5b506101eb600480360360a081101561040e57600080fd5b813591602081013591810190606081016040820135600160201b81111561043457600080fd5b82018360208201111561044657600080fd5b803590602001918460208302840111600160201b8311171561046757600080fd5b91935091506001600160a01b038135169060200135612144565b34801561048d57600080fd5b50610496612603565b604080516001600160a01b039092168252519081900360200190f35b3480156104be57600080fd5b5061013c600480360360e08110156104d557600080fd5b506001600160a01b038135811691602081013582169160408201359160608101359160808201359160a08101359091169060c00135612627565b34801561051b57600080fd5b5061049661286b565b34801561053057600080fd5b50610586600480360361010081101561054857600080fd5b506001600160a01b038135811691602081013582169160408201359160608101359160808201359160a08101359160c0820135169060e0013561288f565b60408051938452602084019290925282820152519081900360600190f35b610586600480360360c08110156105ba57600080fd5b506001600160a01b0381358116916020810135916040820135916060810135916080820135169060a001356129c2565b6101eb6004803603608081101561060057600080fd5b81359190810190604081016020820135600160201b81111561062157600080fd5b82018360208201111561063357600080fd5b803590602001918460208302840111600160201b8311171561065457600080fd5b91935091506001600160a01b038135169060200135612c55565b60008082428110156106b5576040805162461bcd60e51b81526020600482015260136024820152600080516020614782833981519152604482015290519081900360640190fd5b6106e4897f00000000000000000000000000000000000000000000000000000000000000008a8a8a308a612627565b90935091506106f48986856133a3565b7f00000000000000000000000000000000000000000000000000000000000000006001600160a01b0316632e1a7d4d836040518263ffffffff1660e01b815260040180828152602001915050600060405180830381600087803b15801561075a57600080fd5b505af115801561076e573d6000803e3d6000fd5b5050505061077c858361350d565b50965096945050505050565b606081428110156107ce576040805162461bcd60e51b81526020600482015260136024820152600080516020614782833981519152604482015290519081900360640190fd5b6001600160a01b037f0000000000000000000000000000000000000000000000000000000000000000168686600019810181811061080857fe5b905060200201356001600160a01b03166001600160a01b031614610870576040805162461bcd60e51b815260206004820152601a602482015279096cae0d8cae4a4deeae8cae47440929cac82989288bea082a8960331b604482015290519081900360640190fd5b60607f00000000000000000000000000000000000000000000000000000000000000006001600160a01b031663dcb6b48488886040518363ffffffff1660e01b815260040180806020018281038252848482818152602001925060200280828437600081840152601f19601f820116905080830192505050935050505060006040518083038186803b15801561090557600080fd5b505afa158015610919573d6000803e3d6000fd5b505050506040513d6000823e601f3d908101601f19168201604052602081101561094257600080fd5b8101908080516040519392919084600160201b82111561096157600080fd5b90830190602082018581111561097657600080fd5b82518660208202830111600160201b8211171561099257600080fd5b82525081516020918201928201910280838360005b838110156109bf5781810151838201526020016109a7565b505050509050016040525050509050610a2e7f00000000000000000000000000000000000000000000000000000000000000008a898980806020026020016040519081016040528093929190818152602001838360200280828437600092019190915250879250613605915050565b925060007f00000000000000000000000000000000000000000000000000000000000000006001600160a01b031663017e7e586040518163ffffffff1660e01b815260040160206040518083038186803b158015610a8b57600080fd5b505afa158015610a9f573d6000803e3d6000fd5b505050506040513d6020811015610ab557600080fd5b5051905060005b6001835103811015610cf357888882818110610ad457fe5b905060200201356001600160a01b03166001600160a01b031663095ea7b383858481518110610aff57fe5b60200260200101516040518363ffffffff1660e01b815260040180836001600160a01b0316815260200182815260200192505050602060405180830381600087803b158015610b4d57600080fd5b505af1158015610b61573d6000803e3d6000fd5b505050506040513d6020811015610b7757600080fd5b50506001600160a01b0382166374af8c3c610bec7f00000000000000000000000000000000000000000000000000000000000000008c8c86818110610bb857fe5b905060200201356001600160a01b03168d8d87600101818110610bd757fe5b905060200201356001600160a01b03166137a6565b8b8b85818110610bf857fe5b905060200201356001600160a01b031633878681518110610c1557fe5b60200260200101516040518563ffffffff1660e01b815260040180856001600160a01b03168152602001846001600160a01b03168152602001836001600160a01b03168152602001828152602001945050505050600060405180830381600087803b158015610c8357600080fd5b505af1158015610c97573d6000803e3d6000fd5b50505050610cd4838281518110610caa57fe5b6020026020010151868381518110610cbe57fe5b60200260200101516138c890919063ffffffff16565b858281518110610ce057fe5b6020908102919091010152600101610abc565b508884600186510381518110610d0557fe5b60200260200101511015610d4a5760405162461bcd60e51b815260040180806020018281038252602881526020018061470b6028913960400191505060405180910390fd5b610dd388886000818110610d5a57fe5b905060200201356001600160a01b031633610db97f00000000000000000000000000000000000000000000000000000000000000008c8c6000818110610d9c57fe5b905060200201356001600160a01b03168d8d6001818110610bd757fe5b87600081518110610dc657fe5b602002602001015161392a565b610e1284898980806020026020016040519081016040528093929190818152602001838360200280828437600092019190915250309250613a87915050565b7f00000000000000000000000000000000000000000000000000000000000000006001600160a01b0316632e1a7d4d85600187510381518110610e5157fe5b60200260200101516040518263ffffffff1660e01b815260040180828152602001915050600060405180830381600087803b158015610e8f57600080fd5b505af1158015610ea3573d6000803e3d6000fd5b50505050610ec88685600187510381518110610ebb57fe5b602002602001015161350d565b5050509695505050505050565b60608142811015610f1b576040805162461bcd60e51b81526020600482015260136024820152600080516020614782833981519152604482015290519081900360640190fd5b60607f00000000000000000000000000000000000000000000000000000000000000006001600160a01b031663dcb6b48488886040518363ffffffff1660e01b815260040180806020018281038252848482818152602001925060200280828437600081840152601f19601f820116905080830192505050935050505060006040518083038186803b158015610fb057600080fd5b505afa158015610fc4573d6000803e3d6000fd5b505050506040513d6000823e601f3d908101601f191682016040526020811015610fed57600080fd5b8101908080516040519392919084600160201b82111561100c57600080fd5b90830190602082018581111561102157600080fd5b82518660208202830111600160201b8211171561103d57600080fd5b82525081516020918201928201910280838360005b8381101561106a578181015183820152602001611052565b5050505090500160405250505090506110d97f00000000000000000000000000000000000000000000000000000000000000008a898980806020026020016040519081016040528093929190818152602001838360200280828437600092019190915250879250613605915050565b925060007f00000000000000000000000000000000000000000000000000000000000000006001600160a01b031663017e7e586040518163ffffffff1660e01b815260040160206040518083038186803b15801561113657600080fd5b505afa15801561114a573d6000803e3d6000fd5b505050506040513d602081101561116057600080fd5b5051905060005b60018351038110156113fc5782818151811061117f57fe5b602002602001015160001415611194576113f4565b60006111db6103e86111d58685815181106111ab57fe5b60200260200101518986815181106111bf57fe5b6020026020010151613c2e90919063ffffffff16565b90613c8e565b905061120b6040518060400160405280600c81526020016b03332b29030b6b7bab73a1d160a51b81525082613cf5565b6112328a8a8481811061121a57fe5b905060200201356001600160a01b031633308461392a565b89898381811061123e57fe5b905060200201356001600160a01b03166001600160a01b031663095ea7b384836040518363ffffffff1660e01b815260040180836001600160a01b0316815260200182815260200192505050602060405180830381600087803b1580156112a457600080fd5b505af11580156112b8573d6000803e3d6000fd5b505050506040513d60208110156112ce57600080fd5b50506001600160a01b0383166374af8c3c61132e7f00000000000000000000000000000000000000000000000000000000000000008d8d8781811061130f57fe5b905060200201356001600160a01b03168e8e88600101818110610bd757fe5b8c8c8681811061133a57fe5b905060200201356001600160a01b031633856040518563ffffffff1660e01b815260040180856001600160a01b03168152602001846001600160a01b03168152602001836001600160a01b03168152602001828152602001945050505050600060405180830381600087803b1580156113b257600080fd5b505af11580156113c6573d6000803e3d6000fd5b505050506113da81878481518110610cbe57fe5b8683815181106113e657fe5b602002602001018181525050505b600101611167565b50888460018651038151811061140e57fe5b602002602001015110156114535760405162461bcd60e51b815260040180806020018281038252602881526020018061470b6028913960400191505060405180910390fd5b61146388886000818110610d5a57fe5b610ec8848989808060200260200160405190810160405280939291908181526020018383602002808284376000920191909152508b9250613a87915050565b606081428110156114e8576040805162461bcd60e51b81526020600482015260136024820152600080516020614782833981519152604482015290519081900360640190fd5b6001600160a01b037f0000000000000000000000000000000000000000000000000000000000000000168686600019810181811061152257fe5b905060200201356001600160a01b03166001600160a01b03161461158d576040805162461bcd60e51b815260206004820152601860248201527f42616279526f757465723a20494e56414c49445f504154480000000000000000604482015290519081900360640190fd5b60607f00000000000000000000000000000000000000000000000000000000000000006001600160a01b031663dcb6b48488886040518363ffffffff1660e01b815260040180806020018281038252848482818152602001925060200280828437600081840152601f19601f820116905080830192505050935050505060006040518083038186803b15801561162257600080fd5b505afa158015611636573d6000803e3d6000fd5b505050506040513d6000823e601f3d908101601f19168201604052602081101561165f57600080fd5b8101908080516040519392919084600160201b82111561167e57600080fd5b90830190602082018581111561169357600080fd5b82518660208202830111600160201b821117156116af57600080fd5b82525081516020918201928201910280838360005b838110156116dc5781810151838201526020016116c4565b50505050905001604052505050905061174b7f00000000000000000000000000000000000000000000000000000000000000008a898980806020026020016040519081016040528093929190818152602001838360200280828437600092019190915250879250613da7915050565b925060007f00000000000000000000000000000000000000000000000000000000000000006001600160a01b031663017e7e586040518163ffffffff1660e01b815260040160206040518083038186803b1580156117a857600080fd5b505afa1580156117bc573d6000803e3d6000fd5b505050506040513d60208110156117d257600080fd5b5051905060005b60018351038110156119b2578888828181106117f157fe5b905060200201356001600160a01b03166001600160a01b031663095ea7b38385848151811061181c57fe5b60200260200101516040518363ffffffff1660e01b815260040180836001600160a01b0316815260200182815260200192505050602060405180830381600087803b15801561186a57600080fd5b505af115801561187e573d6000803e3d6000fd5b505050506040513d602081101561189457600080fd5b50506001600160a01b0382166374af8c3c6118d57f00000000000000000000000000000000000000000000000000000000000000008c8c86818110610bb857fe5b8b8b858181106118e157fe5b905060200201356001600160a01b0316338786815181106118fe57fe5b60200260200101516040518563ffffffff1660e01b815260040180856001600160a01b03168152602001846001600160a01b03168152602001836001600160a01b03168152602001828152602001945050505050600060405180830381600087803b15801561196c57600080fd5b505af1158015611980573d6000803e3d6000fd5b50505050611993838281518110610caa57fe5b85828151811061199f57fe5b60209081029190910101526001016117d9565b5088846000815181106119c157fe5b60200260200101511115610d4a5760405162461bcd60e51b81526004018080602001828103825260248152602001806147c56024913960400191505060405180910390fd5b60608142811015611a4c576040805162461bcd60e51b81526020600482015260136024820152600080516020614782833981519152604482015290519081900360640190fd5b7f00000000000000000000000000000000000000000000000000000000000000006001600160a01b031686866000818110611a8357fe5b905060200201356001600160a01b03166001600160a01b031614611aeb576040805162461bcd60e51b815260206004820152601a602482015279096cae0d8cae4a4deeae8cae47440929cac82989288bea082a8960331b604482015290519081900360640190fd5b60607f00000000000000000000000000000000000000000000000000000000000000006001600160a01b031663dcb6b48488886040518363ffffffff1660e01b815260040180806020018281038252848482818152602001925060200280828437600081840152601f19601f820116905080830192505050935050505060006040518083038186803b158015611b8057600080fd5b505afa158015611b94573d6000803e3d6000fd5b505050506040513d6000823e601f3d908101601f191682016040526020811015611bbd57600080fd5b8101908080516040519392919084600160201b821115611bdc57600080fd5b908301906020820185811115611bf157600080fd5b82518660208202830111600160201b82111715611c0d57600080fd5b82525081516020918201928201910280838360005b83811015611c3a578181015183820152602001611c22565b505050509050016040525050509050611ca97f000000000000000000000000000000000000000000000000000000000000000034898980806020026020016040519081016040528093929190818152602001838360200280828437600092019190915250879250613605915050565b925060007f00000000000000000000000000000000000000000000000000000000000000006001600160a01b031663017e7e586040518163ffffffff1660e01b815260040160206040518083038186803b158015611d0657600080fd5b505afa158015611d1a573d6000803e3d6000fd5b505050506040513d6020811015611d3057600080fd5b5051905060005b6001835103811015611f1057888882818110611d4f57fe5b905060200201356001600160a01b03166001600160a01b031663095ea7b383858481518110611d7a57fe5b60200260200101516040518363ffffffff1660e01b815260040180836001600160a01b0316815260200182815260200192505050602060405180830381600087803b158015611dc857600080fd5b505af1158015611ddc573d6000803e3d6000fd5b505050506040513d6020811015611df257600080fd5b50506001600160a01b0382166374af8c3c611e337f00000000000000000000000000000000000000000000000000000000000000008c8c86818110610bb857fe5b8b8b85818110611e3f57fe5b905060200201356001600160a01b031633878681518110611e5c57fe5b60200260200101516040518563ffffffff1660e01b815260040180856001600160a01b03168152602001846001600160a01b03168152602001836001600160a01b03168152602001828152602001945050505050600060405180830381600087803b158015611eca57600080fd5b505af1158015611ede573d6000803e3d6000fd5b50505050611ef1838281518110610caa57fe5b858281518110611efd57fe5b6020908102919091010152600101611d37565b508884600186510381518110611f2257fe5b60200260200101511015611f675760405162461bcd60e51b815260040180806020018281038252602881526020018061470b6028913960400191505060405180910390fd5b7f00000000000000000000000000000000000000000000000000000000000000006001600160a01b031663d0e30db085600081518110611fa357fe5b60200260200101516040518263ffffffff1660e01b81526004016000604051808303818588803b158015611fd657600080fd5b505af1158015611fea573d6000803e3d6000fd5b50505050507f00000000000000000000000000000000000000000000000000000000000000006001600160a01b031663a9059cbb61206c7f00000000000000000000000000000000000000000000000000000000000000008b8b600081811061204f57fe5b905060200201356001600160a01b03168c8c6001818110610bd757fe5b8660008151811061207957fe5b60200260200101516040518363ffffffff1660e01b815260040180836001600160a01b0316815260200182815260200192505050602060405180830381600087803b1580156120c757600080fd5b505af11580156120db573d6000803e3d6000fd5b505050506040513d60208110156120f157600080fd5b50516120f957fe5b612138848989808060200260200160405190810160405280939291908181526020018383602002808284376000920191909152508b9250613a87915050565b50505095945050505050565b6060814281101561218a576040805162461bcd60e51b81526020600482015260136024820152600080516020614782833981519152604482015290519081900360640190fd5b60607f00000000000000000000000000000000000000000000000000000000000000006001600160a01b031663dcb6b48488886040518363ffffffff1660e01b815260040180806020018281038252848482818152602001925060200280828437600081840152601f19601f820116905080830192505050935050505060006040518083038186803b15801561221f57600080fd5b505afa158015612233573d6000803e3d6000fd5b505050506040513d6000823e601f3d908101601f19168201604052602081101561225c57600080fd5b8101908080516040519392919084600160201b82111561227b57600080fd5b90830190602082018581111561229057600080fd5b82518660208202830111600160201b821117156122ac57600080fd5b82525081516020918201928201910280838360005b838110156122d95781810151838201526020016122c1565b5050505090500160405250505090506123487f00000000000000000000000000000000000000000000000000000000000000008a898980806020026020016040519081016040528093929190818152602001838360200280828437600092019190915250879250613da7915050565b925060007f00000000000000000000000000000000000000000000000000000000000000006001600160a01b031663017e7e586040518163ffffffff1660e01b815260040160206040518083038186803b1580156123a557600080fd5b505afa1580156123b9573d6000803e3d6000fd5b505050506040513d60208110156123cf57600080fd5b5051905060005b60018351038110156125af578888828181106123ee57fe5b905060200201356001600160a01b03166001600160a01b031663095ea7b38385848151811061241957fe5b60200260200101516040518363ffffffff1660e01b815260040180836001600160a01b0316815260200182815260200192505050602060405180830381600087803b15801561246757600080fd5b505af115801561247b573d6000803e3d6000fd5b505050506040513d602081101561249157600080fd5b50506001600160a01b0382166374af8c3c6124d27f00000000000000000000000000000000000000000000000000000000000000008c8c86818110610bb857fe5b8b8b858181106124de57fe5b905060200201356001600160a01b0316338786815181106124fb57fe5b60200260200101516040518563ffffffff1660e01b815260040180856001600160a01b03168152602001846001600160a01b03168152602001836001600160a01b03168152602001828152602001945050505050600060405180830381600087803b15801561256957600080fd5b505af115801561257d573d6000803e3d6000fd5b50505050612590838281518110610caa57fe5b85828151811061259c57fe5b60209081029190910101526001016123d6565b5088846000815181106125be57fe5b602002602001015111156114535760405162461bcd60e51b81526004018080602001828103825260248152602001806147c56024913960400191505060405180910390fd5b7f000000000000000000000000000000000000000000000000000000000000000081565b600080824281101561266e576040805162461bcd60e51b81526020600482015260136024820152600080516020614782833981519152604482015290519081900360640190fd5b600061269b7f00000000000000000000000000000000000000000000000000000000000000008c8c6137a6565b604080516323b872dd60e01b81523360048201526001600160a01b03831660248201819052604482018d9052915192935090916323b872dd916064808201926020929091908290030181600087803b1580156126f657600080fd5b505af115801561270a573d6000803e3d6000fd5b505050506040513d602081101561272057600080fd5b50506040805163226bf2d160e21b81526001600160a01b03888116600483015282516000938493928616926389afcb44926024808301939282900301818787803b15801561276d57600080fd5b505af1158015612781573d6000803e3d6000fd5b505050506040513d604081101561279757600080fd5b508051602090910151909250905060006127b18e8e613f36565b509050806001600160a01b03168e6001600160a01b0316146127d45781836127d7565b82825b90975095508a87101561281b5760405162461bcd60e51b815260040180806020018281038252602381526020018061482d6023913960400191505060405180910390fd5b8986101561285a5760405162461bcd60e51b81526004018080602001828103825260238152602001806147a26023913960400191505060405180910390fd5b505050505097509795505050505050565b7f000000000000000000000000000000000000000000000000000000000000000081565b600080600083428110156128d8576040805162461bcd60e51b81526020600482015260136024820152600080516020614782833981519152604482015290519081900360640190fd5b6128e68c8c8c8c8c8c614014565b909450925060006129187f00000000000000000000000000000000000000000000000000000000000000008e8e6137a6565b90506129268d33838861392a565b6129328c33838761392a565b806001600160a01b0316636a627842886040518263ffffffff1660e01b815260040180826001600160a01b03168152602001915050602060405180830381600087803b15801561298157600080fd5b505af1158015612995573d6000803e3d6000fd5b505050506040513d60208110156129ab57600080fd5b5051949d939c50939a509198505050505050505050565b60008060008342811015612a0b576040805162461bcd60e51b81526020600482015260136024820152600080516020614782833981519152604482015290519081900360640190fd5b612a398a7f00000000000000000000000000000000000000000000000000000000000000008b348c8c614014565b90945092506000612a8b7f00000000000000000000000000000000000000000000000000000000000000008c7f00000000000000000000000000000000000000000000000000000000000000006137a6565b9050612a998b33838861392a565b7f00000000000000000000000000000000000000000000000000000000000000006001600160a01b031663d0e30db0856040518263ffffffff1660e01b81526004016000604051808303818588803b158015612af457600080fd5b505af1158015612b08573d6000803e3d6000fd5b50505050507f00000000000000000000000000000000000000000000000000000000000000006001600160a01b031663a9059cbb82866040518363ffffffff1660e01b815260040180836001600160a01b0316815260200182815260200192505050602060405180830381600087803b158015612b8457600080fd5b505af1158015612b98573d6000803e3d6000fd5b505050506040513d6020811015612bae57600080fd5b5051612bb657fe5b806001600160a01b0316636a627842886040518263ffffffff1660e01b815260040180826001600160a01b03168152602001915050602060405180830381600087803b158015612c0557600080fd5b505af1158015612c19573d6000803e3d6000fd5b505050506040513d6020811015612c2f57600080fd5b5051925034841015612c4757612c473385340361350d565b505096509650969350505050565b60608142811015612c9b576040805162461bcd60e51b81526020600482015260136024820152600080516020614782833981519152604482015290519081900360640190fd5b7f00000000000000000000000000000000000000000000000000000000000000006001600160a01b031686866000818110612cd257fe5b905060200201356001600160a01b03166001600160a01b031614612d3a576040805162461bcd60e51b815260206004820152601a602482015279096cae0d8cae4a4deeae8cae47440929cac82989288bea082a8960331b604482015290519081900360640190fd5b60607f00000000000000000000000000000000000000000000000000000000000000006001600160a01b031663dcb6b48488886040518363ffffffff1660e01b815260040180806020018281038252848482818152602001925060200280828437600081840152601f19601f820116905080830192505050935050505060006040518083038186803b158015612dcf57600080fd5b505afa158015612de3573d6000803e3d6000fd5b505050506040513d6000823e601f3d908101601f191682016040526020811015612e0c57600080fd5b8101908080516040519392919084600160201b821115612e2b57600080fd5b908301906020820185811115612e4057600080fd5b82518660208202830111600160201b82111715612e5c57600080fd5b82525081516020918201928201910280838360005b83811015612e89578181015183820152602001612e71565b505050509050016040525050509050612ef87f000000000000000000000000000000000000000000000000000000000000000089898980806020026020016040519081016040528093929190818152602001838360200280828437600092019190915250879250613da7915050565b925060007f00000000000000000000000000000000000000000000000000000000000000006001600160a01b031663017e7e586040518163ffffffff1660e01b815260040160206040518083038186803b158015612f5557600080fd5b505afa158015612f69573d6000803e3d6000fd5b505050506040513d6020811015612f7f57600080fd5b5051905060005b600183510381101561315f57888882818110612f9e57fe5b905060200201356001600160a01b03166001600160a01b031663095ea7b383858481518110612fc957fe5b60200260200101516040518363ffffffff1660e01b815260040180836001600160a01b0316815260200182815260200192505050602060405180830381600087803b15801561301757600080fd5b505af115801561302b573d6000803e3d6000fd5b505050506040513d602081101561304157600080fd5b50506001600160a01b0382166374af8c3c6130827f00000000000000000000000000000000000000000000000000000000000000008c8c86818110610bb857fe5b8b8b8581811061308e57fe5b905060200201356001600160a01b0316338786815181106130ab57fe5b60200260200101516040518563ffffffff1660e01b815260040180856001600160a01b03168152602001846001600160a01b03168152602001836001600160a01b03168152602001828152602001945050505050600060405180830381600087803b15801561311957600080fd5b505af115801561312d573d6000803e3d6000fd5b50505050613140838281518110610caa57fe5b85828151811061314c57fe5b6020908102919091010152600101612f86565b50348460008151811061316e57fe5b602002602001015111156131b35760405162461bcd60e51b81526004018080602001828103825260248152602001806147c56024913960400191505060405180910390fd5b7f00000000000000000000000000000000000000000000000000000000000000006001600160a01b031663d0e30db0856000815181106131ef57fe5b60200260200101516040518263ffffffff1660e01b81526004016000604051808303818588803b15801561322257600080fd5b505af1158015613236573d6000803e3d6000fd5b50505050507f00000000000000000000000000000000000000000000000000000000000000006001600160a01b031663a9059cbb61329b7f00000000000000000000000000000000000000000000000000000000000000008b8b600081811061204f57fe5b866000815181106132a857fe5b60200260200101516040518363ffffffff1660e01b815260040180836001600160a01b0316815260200182815260200192505050602060405180830381600087803b1580156132f657600080fd5b505af115801561330a573d6000803e3d6000fd5b505050506040513d602081101561332057600080fd5b505161332857fe5b613367848989808060200260200160405190810160405280939291908181526020018383602002808284376000920191909152508b9250613a87915050565b8360008151811061337457fe5b602002602001015134111561213857612138338560008151811061339457fe5b6020026020010151340361350d565b604080516001600160a01b038481166024830152604480830185905283518084039091018152606490920183526020820180516001600160e01b031663a9059cbb60e01b178152925182516000946060949389169392918291908083835b602083106134205780518252601f199092019160209182019101613401565b6001836020036101000a0380198251168184511680821785525050505050509050019150506000604051808303816000865af19150503d8060008114613482576040519150601f19603f3d011682016040523d82523d6000602084013e613487565b606091505b50915091508180156134b55750805115806134b557508080602001905160208110156134b257600080fd5b50515b613506576040805162461bcd60e51b815260206004820152601f60248201527f5472616e7366657248656c7065723a205452414e534645525f4641494c454400604482015290519081900360640190fd5b5050505050565b604080516000808252602082019092526001600160a01b0384169083906040518082805190602001908083835b602083106135595780518252601f19909201916020918201910161353a565b6001836020036101000a03801982511681845116808217855250505050505090500191505060006040518083038185875af1925050503d80600081146135bb576040519150601f19603f3d011682016040523d82523d6000602084013e6135c0565b606091505b50509050806136005760405162461bcd60e51b81526004018080602001828103825260238152602001806148966023913960400191505060405180910390fd5b505050565b606060028351101561365e576040805162461bcd60e51b815260206004820152601b60248201527f4b65706c65724c6962726172793a20494e56414c49445f504154480000000000604482015290519081900360640190fd5b815183511461369e5760405162461bcd60e51b81526004018080602001828103825260218152602001806146ea6021913960400191505060405180910390fd5b825167ffffffffffffffff811180156136b657600080fd5b506040519080825280602002602001820160405280156136e0578160200160208202803683370190505b50905083816000815181106136f157fe5b60200260200101818152505060005b600184510381101561379d576000806137438887858151811061371f57fe5b602002602001015188866001018151811061373657fe5b60200260200101516142a5565b9150915061377984848151811061375657fe5b6020026020010151838388878151811061376c57fe5b602002602001015161437f565b84846001018151811061378857fe5b60209081029190910101525050600101613700565b50949350505050565b60008060006137b58585613f36565b9150915085828260405160200180836001600160a01b031660601b8152601401826001600160a01b031660601b81526014019250505060405160208183030381529060405280519060200120876001600160a01b0316635855a25a6040518163ffffffff1660e01b815260040160206040518083038186803b15801561383a57600080fd5b505afa15801561384e573d6000803e3d6000fd5b505050506040513d602081101561386457600080fd5b5051604080516001600160f81b031960208083019190915260609590951b6bffffffffffffffffffffffff19166021820152603581019390935260558084019290925280518084039092018252607590920190915280519101209695505050505050565b60008282111561391f576040805162461bcd60e51b815260206004820152601e60248201527f536166654d6174683a207375627472616374696f6e206f766572666c6f770000604482015290519081900360640190fd5b508082035b92915050565b604080516001600160a01b0385811660248301528481166044830152606480830185905283518084039091018152608490920183526020820180516001600160e01b03166323b872dd60e01b17815292518251600094606094938a169392918291908083835b602083106139af5780518252601f199092019160209182019101613990565b6001836020036101000a0380198251168184511680821785525050505050509050019150506000604051808303816000865af19150503d8060008114613a11576040519150601f19603f3d011682016040523d82523d6000602084013e613a16565b606091505b5091509150818015613a44575080511580613a445750808060200190516020811015613a4157600080fd5b50515b613a7f5760405162461bcd60e51b81526004018080602001828103825260248152602001806148df6024913960400191505060405180910390fd5b505050505050565b60005b6001835103811015613c2857600080848381518110613aa557fe5b6020026020010151858460010181518110613abc57fe5b6020026020010151915091506000613ad48383613f36565b5090506000878560010181518110613ae857fe5b60200260200101519050600080836001600160a01b0316866001600160a01b031614613b1657826000613b1a565b6000835b91509150600060028a51038810613b315788613b72565b613b727f0000000000000000000000000000000000000000000000000000000000000000878c8b60020181518110613b6557fe5b60200260200101516137a6565b9050613b9f7f000000000000000000000000000000000000000000000000000000000000000088886137a6565b6001600160a01b0316636d9a640a8484846040518463ffffffff1660e01b815260040180848152602001838152602001826001600160a01b031681526020019350505050600060405180830381600087803b158015613bfd57600080fd5b505af1158015613c11573d6000803e3d6000fd5b505060019099019850613a8a975050505050505050565b50505050565b600082613c3d57506000613924565b82820282848281613c4a57fe5b0414613c875760405162461bcd60e51b815260040180806020018281038252602181526020018061480c6021913960400191505060405180910390fd5b9392505050565b6000808211613ce4576040805162461bcd60e51b815260206004820152601a60248201527f536166654d6174683a206469766973696f6e206279207a65726f000000000000604482015290519081900360640190fd5b818381613ced57fe5b049392505050565b613da382826040516024018080602001838152602001828103825284818151815260200191508051906020019080838360005b83811015613d40578181015183820152602001613d28565b50505050905090810190601f168015613d6d5780820380516001836020036101000a031916815260200191505b5060408051601f198184030181529190526020810180516001600160e01b03166309710a9d60e41b17905293506144a492505050565b5050565b6060600283511015613e00576040805162461bcd60e51b815260206004820152601b60248201527f4b65706c65724c6962726172793a20494e56414c49445f504154480000000000604482015290519081900360640190fd5b8151835114613e405760405162461bcd60e51b81526004018080602001828103825260218152602001806146ea6021913960400191505060405180910390fd5b825167ffffffffffffffff81118015613e5857600080fd5b50604051908082528060200260200182016040528015613e82578160200160208202803683370190505b5090508381600183510381518110613e9657fe5b60209081029190910101528251600019015b801561379d57600080613ed888876001860381518110613ec457fe5b602002602001015188868151811061373657fe5b91509150613f11848481518110613eeb57fe5b60200260200101518383886001880381518110613f0457fe5b60200260200101516144c5565b846001850381518110613f2057fe5b6020908102919091010152505060001901613ea8565b600080826001600160a01b0316846001600160a01b03161415613f8a5760405162461bcd60e51b81526004018080602001828103825260238152602001806147e96023913960400191505060405180910390fd5b826001600160a01b0316846001600160a01b031610613faa578284613fad565b83835b90925090506001600160a01b03821661400d576040805162461bcd60e51b815260206004820152601c60248201527f50616e63616b654c6962726172793a205a45524f5f4144445245535300000000604482015290519081900360640190fd5b9250929050565b60008060006001600160a01b03167f00000000000000000000000000000000000000000000000000000000000000006001600160a01b031663e6a439058a8a6040518363ffffffff1660e01b815260040180836001600160a01b03168152602001826001600160a01b031681526020019250505060206040518083038186803b1580156140a057600080fd5b505afa1580156140b4573d6000803e3d6000fd5b505050506040513d60208110156140ca57600080fd5b50516001600160a01b03161415614188577f00000000000000000000000000000000000000000000000000000000000000006001600160a01b031663c9c6539689896040518363ffffffff1660e01b815260040180836001600160a01b03168152602001826001600160a01b0316815260200192505050602060405180830381600087803b15801561415b57600080fd5b505af115801561416f573d6000803e3d6000fd5b505050506040513d602081101561418557600080fd5b50505b6000806141b67f00000000000000000000000000000000000000000000000000000000000000008b8b6142a5565b915091508160001480156141c8575080155b156141d857879350869250614298565b60006141e58984846145e9565b9050878111614238578581101561422d5760405162461bcd60e51b81526004018080602001828103825260238152602001806147a26023913960400191505060405180910390fd5b889450925082614296565b60006142458984866145e9565b90508981111561425157fe5b878110156142905760405162461bcd60e51b815260040180806020018281038252602381526020018061482d6023913960400191505060405180910390fd5b94508793505b505b5050965096945050505050565b60008060006142b48585613f36565b5090506142c28686866137a6565b506000806142d18888886137a6565b6001600160a01b0316630902f1ac6040518163ffffffff1660e01b815260040160606040518083038186803b15801561430957600080fd5b505afa15801561431d573d6000803e3d6000fd5b505050506040513d606081101561433357600080fd5b5080516020909101516dffffffffffffffffffffffffffff91821693501690506001600160a01b038781169084161461436d578082614370565b81815b90999098509650505050505050565b60006103e88211156143c25760405162461bcd60e51b81526004018080602001828103825260238152602001806148506023913960400191505060405180910390fd5b600085116144015760405162461bcd60e51b81526004018080602001828103825260288152602001806149036028913960400191505060405180910390fd5b6000841180156144115750600083115b61444c5760405162461bcd60e51b81526004018080602001828103825260258152602001806147336025913960400191505060405180910390fd5b600061446461445d6103e8856138c8565b8790613c2e565b905060006144728286613c2e565b9050600061448c83614486896103e8613c2e565b9061468f565b905080828161449757fe5b0498975050505050505050565b80516a636f6e736f6c652e6c6f67602083016000808483855afa5050505050565b60006103e88211156145085760405162461bcd60e51b81526004018080602001828103825260238152602001806148506023913960400191505060405180910390fd5b600085116145475760405162461bcd60e51b815260040180806020018281038252602a815260200180614758602a913960400191505060405180910390fd5b6000841180156145575750600083115b6145925760405162461bcd60e51b81526004018080602001828103825260268152602001806148b96026913960400191505060405180910390fd5b60006145aa6103e86145a48789613c2e565b90613c2e565b905060006145c76145bd6103e8866138c8565b6145a4878a6138c8565b90506145de60018284816145d757fe5b049061468f565b979650505050505050565b60008084116146295760405162461bcd60e51b81526004018080602001828103825260238152602001806148736023913960400191505060405180910390fd5b6000831180156146395750600082115b6146745760405162461bcd60e51b81526004018080602001828103825260268152602001806148b96026913960400191505060405180910390fd5b8261467f8584613c2e565b8161468657fe5b04949350505050565b600082820183811015613c87576040805162461bcd60e51b815260206004820152601b60248201527f536166654d6174683a206164646974696f6e206f766572666c6f770000000000604482015290519081900360640190fdfe4b65706c65724c6962726172793a20494e56414c49445f4645455f4c454e4754484b65706c6572526f757465723a20494e53554646494349454e545f4f55545055545f414d4f554e544b65706c65724c6962726172793a20494e53554646494349454e545f4c495155494449545950616e63616b654c6962726172793a20494e53554646494349454e545f4f55545055545f414d4f554e5442616279526f757465723a2045585049524544000000000000000000000000004b65706c6572526f757465723a20494e53554646494349454e545f425f414d4f554e544b65706c6572526f757465723a204558434553534956455f494e5055545f414d4f554e5450616e63616b654c6962726172793a204944454e544943414c5f414444524553534553536166654d6174683a206d756c7469706c69636174696f6e206f766572666c6f774b65706c6572526f757465723a20494e53554646494349454e545f415f414d4f554e544b65706c65724c6962726172793a20494c4c4547414c5f5452414e534645525f46454550616e63616b654c6962726172793a20494e53554646494349454e545f414d4f554e545472616e7366657248656c7065723a204554485f5452414e534645525f4641494c454450616e63616b654c6962726172793a20494e53554646494349454e545f4c49515549444954595472616e7366657248656c7065723a205452414e534645525f46524f4d5f4641494c45444b65706c65724c6962726172793a20494e53554646494349454e545f494e5055545f414d4f554e54a26469706673582212204436665d52c13154a082d92804679cbb6635ff6abb8aceebc53b87d978cb052464736f6c63430007020033",
  "devdoc": {
    "kind": "dev",
    "methods": {},
    "version": 1
  },
  "userdoc": {
    "kind": "user",
    "methods": {},
    "version": 1
  },
  "storageLayout": {
    "storage": [],
    "types": null
  }
}