{
  "address": "0x78Fd272515Db9ECb534419a7D76f0956Df1f6f7D",
  "abi": [
    {
      "anonymous": false,
      "inputs": [
        {
          "indexed": true,
          "internalType": "address",
          "name": "previousOwner",
          "type": "address"
        },
        {
          "indexed": true,
          "internalType": "address",
          "name": "newOwner",
          "type": "address"
        }
      ],
      "name": "OwnershipTransferred",
      "type": "event"
    },
    {
      "inputs": [],
      "name": "owner",
      "outputs": [
        {
          "internalType": "address",
          "name": "",
          "type": "address"
        }
      ],
      "stateMutability": "view",
      "type": "function"
    },
    {
      "inputs": [
        {
          "internalType": "contract IInviter",
          "name": "_inviter",
          "type": "address"
        },
        {
          "internalType": "address",
          "name": "_token",
          "type": "address"
        },
        {
          "internalType": "address",
          "name": "_user",
          "type": "address"
        }
      ],
      "name": "pendingInvite",
      "outputs": [
        {
          "internalType": "uint256",
          "name": "",
          "type": "uint256"
        }
      ],
      "stateMutability": "view",
      "type": "function"
    },
    {
      "inputs": [
        {
          "internalType": "contract IMasterChef",
          "name": "_masterChef",
          "type": "address"
        },
        {
          "internalType": "contract IKeplerPair",
          "name": "_pair",
          "type": "address"
        },
        {
          "internalType": "address",
          "name": "_token",
          "type": "address"
        },
        {
          "internalType": "address",
          "name": "_user",
          "type": "address"
        }
      ],
      "name": "pendingInviteMine",
      "outputs": [
        {
          "internalType": "uint256",
          "name": "",
          "type": "uint256"
        }
      ],
      "stateMutability": "view",
      "type": "function"
    },
    {
      "inputs": [
        {
          "internalType": "contract IMasterChef",
          "name": "_masterChef",
          "type": "address"
        },
        {
          "internalType": "contract IKeplerPair",
          "name": "_pair",
          "type": "address"
        },
        {
          "internalType": "address",
          "name": "_token",
          "type": "address"
        },
        {
          "internalType": "address",
          "name": "_user",
          "type": "address"
        }
      ],
      "name": "pendingMine",
      "outputs": [
        {
          "internalType": "uint256",
          "name": "",
          "type": "uint256"
        }
      ],
      "stateMutability": "view",
      "type": "function"
    },
    {
      "inputs": [],
      "name": "renounceOwnership",
      "outputs": [],
      "stateMutability": "nonpayable",
      "type": "function"
    },
    {
      "inputs": [
        {
          "internalType": "address",
          "name": "newOwner",
          "type": "address"
        }
      ],
      "name": "transferOwnership",
      "outputs": [],
      "stateMutability": "nonpayable",
      "type": "function"
    }
  ],
  "transactionHash": "0xa587b51bf1900bc1e28db6a3d46e058a22b62dacf61383744cb6eb79dbb6aaf8",
  "args": [],
  "solcInputHash": "b23861fd4cc5066e011dd2d307c05e17",
  "bytecode": "0x608060405234801561001057600080fd5b50600061001b61006a565b600080546001600160a01b0319166001600160a01b0383169081178255604051929350917f8be0079c531659141344cd1fd0a4f28419497f9722a3daafe3b4186f6b6457e0908290a35061006e565b3390565b610e028061007d6000396000f3fe608060405234801561001057600080fd5b50600436106100625760003560e01c8063715018a6146100675780638727b45c146100715780638da5cb5b146100bb578063f2914890146100df578063f2fde38b1461011d578063f682753914610143575b600080fd5b61006f610181565b005b6100a96004803603606081101561008757600080fd5b506001600160a01b03813581169160208101358216916040909101351661023f565b60408051918252519081900360200190f35b6100c36102d3565b604080516001600160a01b039092168252519081900360200190f35b6100a9600480360360808110156100f557600080fd5b506001600160a01b0381358116916020810135821691604082013581169160600135166102e2565b61006f6004803603602081101561013357600080fd5b50356001600160a01b03166106c5565b6100a96004803603608081101561015957600080fd5b506001600160a01b0381358116916020810135821691604082013581169160600135166107d9565b610189610c01565b6001600160a01b031661019a6102d3565b6001600160a01b0316146101f5576040805162461bcd60e51b815260206004820181905260248201527f4f776e61626c653a2063616c6c6572206973206e6f7420746865206f776e6572604482015290519081900360640190fd5b600080546040516001600160a01b03909116907f8be0079c531659141344cd1fd0a4f28419497f9722a3daafe3b4186f6b6457e0908390a3600080546001600160a01b0319169055565b6000836001600160a01b03166367dd2f7d83856040518363ffffffff1660e01b815260040180836001600160a01b03168152602001826001600160a01b031681526020019250505060206040518083038186803b15801561029f57600080fd5b505afa1580156102b3573d6000803e3d6000fd5b505050506040513d60208110156102c957600080fd5b5051949350505050565b6000546001600160a01b031690565b600080846001600160a01b0316630dfe16816040518163ffffffff1660e01b815260040160206040518083038186803b15801561031e57600080fd5b505afa158015610332573d6000803e3d6000fd5b505050506040513d602081101561034857600080fd5b50516040805163d21220a760e01b815290519192506000916001600160a01b0388169163d21220a7916004808301926020929190829003018186803b15801561039057600080fd5b505afa1580156103a4573d6000803e3d6000fd5b505050506040513d60208110156103ba57600080fd5b505190506001600160a01b03858116908316141561052c576000876001600160a01b03166306bfa938886040518263ffffffff1660e01b815260040180826001600160a01b0316815260200191505060606040518083038186803b15801561042157600080fd5b505afa158015610435573d6000803e3d6000fd5b505050506040513d606081101561044b57600080fd5b50602001516040805163f2801fe760e01b81526001600160a01b038a811660048301528881166024830152915192935060009283928392908d169163f2801fe79160448082019260c092909190829003018186803b1580156104ac57600080fd5b505afa1580156104c0573d6000803e3d6000fd5b505050506040513d60c08110156104d657600080fd5b5060208101516040820151608090920151909450909250905061051f8161051984610513670de0b6b3a764000061050d8a8a610c05565b90610c67565b90610cce565b90610d2b565b96505050505050506106bd565b806001600160a01b0316856001600160a01b03161415610680576000876001600160a01b03166306bfa938886040518263ffffffff1660e01b815260040180826001600160a01b0316815260200191505060606040518083038186803b15801561059557600080fd5b505afa1580156105a9573d6000803e3d6000fd5b505050506040513d60608110156105bf57600080fd5b50604090810151815163f2801fe760e01b81526001600160a01b038a811660048301528881166024830152925191935060009283928392918d169163f2801fe79160448083019260c0929190829003018186803b15801561061f57600080fd5b505afa158015610633573d6000803e3d6000fd5b505050506040513d60c081101561064957600080fd5b506020810151606082015160a090920151909450909250905061051f8161051984610513670de0b6b3a764000061050d8a8a610c05565b6040805162461bcd60e51b815260206004820152600d60248201526c34b63632b3b0b6103a37b5b2b760991b604482015290519081900360640190fd5b949350505050565b6106cd610c01565b6001600160a01b03166106de6102d3565b6001600160a01b031614610739576040805162461bcd60e51b815260206004820181905260248201527f4f776e61626c653a2063616c6c6572206973206e6f7420746865206f776e6572604482015290519081900360640190fd5b6001600160a01b03811661077e5760405162461bcd60e51b8152600401808060200182810382526026815260200180610d866026913960400191505060405180910390fd5b600080546040516001600160a01b03808516939216917f8be0079c531659141344cd1fd0a4f28419497f9722a3daafe3b4186f6b6457e091a3600080546001600160a01b0319166001600160a01b0392909216919091179055565b600080846001600160a01b0316630dfe16816040518163ffffffff1660e01b815260040160206040518083038186803b15801561081557600080fd5b505afa158015610829573d6000803e3d6000fd5b505050506040513d602081101561083f57600080fd5b50516040805163d21220a760e01b815290519192506000916001600160a01b0388169163d21220a7916004808301926020929190829003018186803b15801561088757600080fd5b505afa15801561089b573d6000803e3d6000fd5b505050506040513d60208110156108b157600080fd5b50516040805163f2801fe760e01b81526001600160a01b03898116600483015287811660248301529151929350600092918a169163f2801fe79160448082019260c092909190829003018186803b15801561090b57600080fd5b505afa15801561091f573d6000803e3d6000fd5b505050506040513d60c081101561093557600080fd5b505190508061094a57600093505050506106bd565b826001600160a01b0316866001600160a01b03161415610aad576000886001600160a01b031663cefbc496896040518263ffffffff1660e01b815260040180826001600160a01b0316815260200191505060606040518083038186803b1580156109b357600080fd5b505afa1580156109c7573d6000803e3d6000fd5b505050506040513d60608110156109dd57600080fd5b50602001516040805163f741198f60e01b81526001600160a01b038b811660048301528981166024830152915192935060009283928392908e169163f741198f9160448082019260c092909190829003018186803b158015610a3e57600080fd5b505afa158015610a52573d6000803e3d6000fd5b505050506040513d60c0811015610a6857600080fd5b50602081015160408201516080909201519094509092509050610a9f8161051984610513670de0b6b3a764000061050d8a8a610c05565b9750505050505050506106bd565b816001600160a01b0316866001600160a01b03161415610680576000886001600160a01b031663cefbc496896040518263ffffffff1660e01b815260040180826001600160a01b0316815260200191505060606040518083038186803b158015610b1657600080fd5b505afa158015610b2a573d6000803e3d6000fd5b505050506040513d6060811015610b4057600080fd5b50604090810151815163f741198f60e01b81526001600160a01b038b811660048301528981166024830152925191935060009283928392918e169163f741198f9160448083019260c0929190829003018186803b158015610ba057600080fd5b505afa158015610bb4573d6000803e3d6000fd5b505050506040513d60c0811015610bca57600080fd5b506020810151606082015160a0909201519094509092509050610a9f8161051984610513670de0b6b3a764000061050d8a8a610c05565b3390565b600082610c1457506000610c61565b82820282848281610c2157fe5b0414610c5e5760405162461bcd60e51b8152600401808060200182810382526021815260200180610dac6021913960400191505060405180910390fd5b90505b92915050565b6000808211610cbd576040805162461bcd60e51b815260206004820152601a60248201527f536166654d6174683a206469766973696f6e206279207a65726f000000000000604482015290519081900360640190fd5b818381610cc657fe5b049392505050565b600082821115610d25576040805162461bcd60e51b815260206004820152601e60248201527f536166654d6174683a207375627472616374696f6e206f766572666c6f770000604482015290519081900360640190fd5b50900390565b600082820183811015610c5e576040805162461bcd60e51b815260206004820152601b60248201527f536166654d6174683a206164646974696f6e206f766572666c6f770000000000604482015290519081900360640190fdfe4f776e61626c653a206e6577206f776e657220697320746865207a65726f2061646472657373536166654d6174683a206d756c7469706c69636174696f6e206f766572666c6f77a2646970667358221220f1896630f792c9a30a78c6c0c176f4f7dc21e00e206a6020b9283dcaff01b0db64736f6c63430007020033",
  "devdoc": {
    "kind": "dev",
    "methods": {
      "owner()": {
        "details": "Returns the address of the current owner."
      },
      "renounceOwnership()": {
        "details": "Leaves the contract without owner. It will not be possible to call `onlyOwner` functions anymore. Can only be called by the current owner. NOTE: Renouncing ownership will leave the contract without an owner, thereby removing any functionality that is only available to the owner."
      },
      "transferOwnership(address)": {
        "details": "Transfers ownership of the contract to a new account (`newOwner`). Can only be called by the current owner."
      }
    },
    "version": 1
  },
  "userdoc": {
    "kind": "user",
    "methods": {},
    "version": 1
  },
  "storageLayout": {
    "storage": [
      {
        "astId": 7,
        "contract": "contracts/lens/Lens.sol:Lens",
        "label": "_owner",
        "offset": 0,
        "slot": "0",
        "type": "t_address"
      }
    ],
    "types": {
      "t_address": {
        "encoding": "inplace",
        "label": "address",
        "numberOfBytes": "20"
      }
    }
  }
}