{
  "address": "0x9EB09eF27949CbDfeA50416b7FA51b08f94c9c12",
  "abi": [
    {
      "anonymous": false,
      "inputs": [
        {
          "indexed": true,
          "internalType": "address",
          "name": "previousOwner",
          "type": "address"
        },
        {
          "indexed": true,
          "internalType": "address",
          "name": "newOwner",
          "type": "address"
        }
      ],
      "name": "OwnershipTransferred",
      "type": "event"
    },
    {
      "inputs": [
        {
          "internalType": "contract IMasterChef",
          "name": "_masterChef",
          "type": "address"
        },
        {
          "internalType": "contract IKeplerPair",
          "name": "_pair",
          "type": "address"
        },
        {
          "internalType": "address",
          "name": "user",
          "type": "address"
        },
        {
          "internalType": "uint256",
          "name": "from",
          "type": "uint256"
        },
        {
          "internalType": "uint256",
          "name": "size",
          "type": "uint256"
        }
      ],
      "name": "getLockInfo",
      "outputs": [
        {
          "components": [
            {
              "internalType": "uint256",
              "name": "amount",
              "type": "uint256"
            },
            {
              "internalType": "string",
              "name": "symbol0",
              "type": "string"
            },
            {
              "internalType": "string",
              "name": "symbol1",
              "type": "string"
            },
            {
              "internalType": "uint256",
              "name": "amount0",
              "type": "uint256"
            },
            {
              "internalType": "uint256",
              "name": "amount1",
              "type": "uint256"
            },
            {
              "internalType": "uint256",
              "name": "shares",
              "type": "uint256"
            },
            {
              "internalType": "uint256",
              "name": "lockType",
              "type": "uint256"
            },
            {
              "internalType": "uint256",
              "name": "depositAt",
              "type": "uint256"
            },
            {
              "internalType": "uint256",
              "name": "expireAt",
              "type": "uint256"
            }
          ],
          "internalType": "struct Lens.UserLockInfo[]",
          "name": "",
          "type": "tuple[]"
        }
      ],
      "stateMutability": "view",
      "type": "function"
    },
    {
      "inputs": [],
      "name": "owner",
      "outputs": [
        {
          "internalType": "address",
          "name": "",
          "type": "address"
        }
      ],
      "stateMutability": "view",
      "type": "function"
    },
    {
      "inputs": [
        {
          "internalType": "contract IInviter",
          "name": "_inviter",
          "type": "address"
        },
        {
          "internalType": "address",
          "name": "_token",
          "type": "address"
        },
        {
          "internalType": "address",
          "name": "_user",
          "type": "address"
        }
      ],
      "name": "pendingInvite",
      "outputs": [
        {
          "internalType": "uint256",
          "name": "",
          "type": "uint256"
        }
      ],
      "stateMutability": "view",
      "type": "function"
    },
    {
      "inputs": [
        {
          "internalType": "contract IMasterChef",
          "name": "_masterChef",
          "type": "address"
        },
        {
          "internalType": "contract IKeplerPair",
          "name": "_pair",
          "type": "address"
        },
        {
          "internalType": "address",
          "name": "_token",
          "type": "address"
        },
        {
          "internalType": "address",
          "name": "_user",
          "type": "address"
        }
      ],
      "name": "pendingInviteMine",
      "outputs": [
        {
          "internalType": "uint256",
          "name": "",
          "type": "uint256"
        }
      ],
      "stateMutability": "view",
      "type": "function"
    },
    {
      "inputs": [
        {
          "internalType": "contract IMasterChef",
          "name": "_masterChef",
          "type": "address"
        },
        {
          "internalType": "contract IKeplerPair",
          "name": "_pair",
          "type": "address"
        },
        {
          "internalType": "address",
          "name": "_token",
          "type": "address"
        },
        {
          "internalType": "address",
          "name": "_user",
          "type": "address"
        }
      ],
      "name": "pendingMine",
      "outputs": [
        {
          "internalType": "uint256",
          "name": "",
          "type": "uint256"
        }
      ],
      "stateMutability": "view",
      "type": "function"
    },
    {
      "inputs": [],
      "name": "renounceOwnership",
      "outputs": [],
      "stateMutability": "nonpayable",
      "type": "function"
    },
    {
      "inputs": [
        {
          "internalType": "address",
          "name": "newOwner",
          "type": "address"
        }
      ],
      "name": "transferOwnership",
      "outputs": [],
      "stateMutability": "nonpayable",
      "type": "function"
    }
  ],
  "transactionHash": "0x94ce7abea37a0c0f8ffee2dff45b2b2fc1e6459bf2313974254ac85f71d856b0",
  "args": [],
  "solcInputHash": "40ec0bdbea7300671a5565b441469db5",
  "bytecode": "0x608060405234801561001057600080fd5b50600061001b61006a565b600080546001600160a01b0319166001600160a01b0383169081178255604051929350917f8be0079c531659141344cd1fd0a4f28419497f9722a3daafe3b4186f6b6457e0908290a35061006e565b3390565b6119278061007d6000396000f3fe608060405234801561001057600080fd5b506004361061007d5760003560e01c8063af3d1ba81161005b578063af3d1ba8146100ca578063f2914890146100ea578063f2fde38b146100fd578063f6827539146101105761007d565b8063715018a6146100825780638727b45c1461008c5780638da5cb5b146100b5575b600080fd5b61008a610123565b005b61009f61009a36600461136b565b6101b5565b6040516100ac91906118a0565b60405180910390f35b6100bd61023e565b6040516100ac91906115fa565b6100dd6100d8366004611410565b61024d565b6040516100ac9190611628565b61009f6100f83660046113b5565b61096f565b61008a61010b366004611333565b610d29565b61009f61011e3660046113b5565b610de9565b61012b61121e565b6001600160a01b031661013c61023e565b6001600160a01b03161461016b5760405162461bcd60e51b81526004016101629061186b565b60405180910390fd5b600080546040516001600160a01b03909116907f8be0079c531659141344cd1fd0a4f28419497f9722a3daafe3b4186f6b6457e0908390a3600080546001600160a01b0319169055565b6040516367dd2f7d60e01b81526000906001600160a01b038516906367dd2f7d906101e6908590879060040161160e565b60206040518083038186803b1580156101fe57600080fd5b505afa158015610212573d6000803e3d6000fd5b505050506040513d601f19601f820116820180604052508101906102369190611501565b949350505050565b6000546001600160a01b031690565b606080856001600160a01b0316630dfe16816040518163ffffffff1660e01b815260040160206040518083038186803b15801561028957600080fd5b505afa15801561029d573d6000803e3d6000fd5b505050506040513d601f19601f820116820180604052508101906102c1919061134f565b6001600160a01b03166395d89b416040518163ffffffff1660e01b815260040160006040518083038186803b1580156102f957600080fd5b505afa15801561030d573d6000803e3d6000fd5b505050506040513d6000823e601f3d908101601f19168201604052610335919081019061146a565b90506060866001600160a01b031663d21220a76040518163ffffffff1660e01b815260040160206040518083038186803b15801561037257600080fd5b505afa158015610386573d6000803e3d6000fd5b505050506040513d601f19601f820116820180604052508101906103aa919061134f565b6001600160a01b03166395d89b416040518163ffffffff1660e01b815260040160006040518083038186803b1580156103e257600080fd5b505afa1580156103f6573d6000803e3d6000fd5b505050506040513d6000823e601f3d908101601f1916820160405261041e919081019061146a565b90506000876001600160a01b0316630dfe16816040518163ffffffff1660e01b815260040160206040518083038186803b15801561045b57600080fd5b505afa15801561046f573d6000803e3d6000fd5b505050506040513d601f19601f82011682018060405250810190610493919061134f565b6001600160a01b03166370a08231896040518263ffffffff1660e01b81526004016104be91906115fa565b60206040518083038186803b1580156104d657600080fd5b505afa1580156104ea573d6000803e3d6000fd5b505050506040513d601f19601f8201168201806040525081019061050e9190611501565b90506000886001600160a01b031663d21220a76040518163ffffffff1660e01b815260040160206040518083038186803b15801561054b57600080fd5b505afa15801561055f573d6000803e3d6000fd5b505050506040513d601f19601f82011682018060405250810190610583919061134f565b6001600160a01b03166370a082318a6040518263ffffffff1660e01b81526004016105ae91906115fa565b60206040518083038186803b1580156105c657600080fd5b505afa1580156105da573d6000803e3d6000fd5b505050506040513d601f19601f820116820180604052508101906105fe9190611501565b90506000896001600160a01b03166318160ddd6040518163ffffffff1660e01b815260040160206040518083038186803b15801561063b57600080fd5b505afa15801561064f573d6000803e3d6000fd5b505050506040513d601f19601f820116820180604052508101906106739190611501565b905060008b6001600160a01b031663658e43d88c8c6040518363ffffffff1660e01b81526004016106a592919061160e565b60206040518083038186803b1580156106bd57600080fd5b505afa1580156106d1573d6000803e3d6000fd5b505050506040513d601f19601f820116820180604052508101906106f59190611501565b905087610702828b611222565b1161071657610711818a611222565b610718565b875b975060608867ffffffffffffffff8111801561073357600080fd5b5060405190808252806020026020018201604052801561076d57816020015b61075a6112e7565b8152602001906001900390816107525790505b50905060008a5b61077e8c8c61124f565b81101561095c578e6001600160a01b03166308cc72d88f8f846040518463ffffffff1660e01b81526004016107b5939291906116f4565b60a06040518083038186803b1580156107cd57600080fd5b505afa1580156107e1573d6000803e3d6000fd5b505050506040513d601f19601f820116820180604052508101906108059190611546565b87878151811061081157fe5b602002602001015160000188888151811061082857fe5b602002602001015160a00189898151811061083f57fe5b602002602001015160c0018a8a8151811061085657fe5b602002602001015160e0018b8b8151811061086d57fe5b60209081029190910101516101000194909452939092529290915291909152528251899084908490811061089d57fe5b602002602001015160200181905250878383815181106108b957fe5b6020026020010151604001819052506108fc856108f6898686815181106108dc57fe5b60200260200101516000015161127b90919063ffffffff16565b906112b5565b83838151811061090857fe5b6020026020010151606001818152505061092c856108f6888686815181106108dc57fe5b83838151811061093857fe5b60209081029190910101516080015261095282600161124f565b9150600101610774565b50909d9c50505050505050505050505050565b600080846001600160a01b0316630dfe16816040518163ffffffff1660e01b815260040160206040518083038186803b1580156109ab57600080fd5b505afa1580156109bf573d6000803e3d6000fd5b505050506040513d601f19601f820116820180604052508101906109e3919061134f565b90506000856001600160a01b031663d21220a76040518163ffffffff1660e01b815260040160206040518083038186803b158015610a2057600080fd5b505afa158015610a34573d6000803e3d6000fd5b505050506040513d601f19601f82011682018060405250810190610a58919061134f565b9050816001600160a01b0316856001600160a01b03161415610bc25760405162d7f52760e31b81526000906001600160a01b038916906306bfa93890610aa2908a906004016115fa565b60606040518083038186803b158015610aba57600080fd5b505afa158015610ace573d6000803e3d6000fd5b505050506040513d601f19601f82011682018060405250810190610af29190611519565b5091505060008060008a6001600160a01b031663f2801fe78b8a6040518363ffffffff1660e01b8152600401610b2992919061160e565b60c06040518083038186803b158015610b4157600080fd5b505afa158015610b55573d6000803e3d6000fd5b505050506040513d601f19601f82011682018060405250810190610b799190611585565b509450509350935050610bb581610baf84610ba9670de0b6b3a76400006108f6898b61127b90919063ffffffff16565b90611222565b9061124f565b9650505050505050610236565b806001600160a01b0316856001600160a01b03161415610d115760405162d7f52760e31b81526000906001600160a01b038916906306bfa93890610c0a908a906004016115fa565b60606040518083038186803b158015610c2257600080fd5b505afa158015610c36573d6000803e3d6000fd5b505050506040513d601f19601f82011682018060405250810190610c5a9190611519565b9250505060008060008a6001600160a01b031663f2801fe78b8a6040518363ffffffff1660e01b8152600401610c9192919061160e565b60c06040518083038186803b158015610ca957600080fd5b505afa158015610cbd573d6000803e3d6000fd5b505050506040513d601f19601f82011682018060405250810190610ce19190611585565b955050945050935050610bb581610baf84610ba9670de0b6b3a76400006108f6898b61127b90919063ffffffff16565b60405162461bcd60e51b815260040161016290611795565b610d3161121e565b6001600160a01b0316610d4261023e565b6001600160a01b031614610d685760405162461bcd60e51b81526004016101629061186b565b6001600160a01b038116610d8e5760405162461bcd60e51b815260040161016290611718565b600080546040516001600160a01b03808516939216917f8be0079c531659141344cd1fd0a4f28419497f9722a3daafe3b4186f6b6457e091a3600080546001600160a01b0319166001600160a01b0392909216919091179055565b600080846001600160a01b0316630dfe16816040518163ffffffff1660e01b815260040160206040518083038186803b158015610e2557600080fd5b505afa158015610e39573d6000803e3d6000fd5b505050506040513d601f19601f82011682018060405250810190610e5d919061134f565b90506000856001600160a01b031663d21220a76040518163ffffffff1660e01b815260040160206040518083038186803b158015610e9a57600080fd5b505afa158015610eae573d6000803e3d6000fd5b505050506040513d601f19601f82011682018060405250810190610ed2919061134f565b90506000876001600160a01b031663f2801fe788876040518363ffffffff1660e01b8152600401610f0492919061160e565b60c06040518083038186803b158015610f1c57600080fd5b505afa158015610f30573d6000803e3d6000fd5b505050506040513d601f19601f82011682018060405250810190610f549190611585565b505050505090508060001415610f705760009350505050610236565b826001600160a01b0316866001600160a01b031614156110ce5760405163677de24b60e11b81526000906001600160a01b038a169063cefbc49690610fb9908b906004016115fa565b60606040518083038186803b158015610fd157600080fd5b505afa158015610fe5573d6000803e3d6000fd5b505050506040513d601f19601f820116820180604052508101906110099190611519565b5091505060008060008b6001600160a01b031663f741198f8c8b6040518363ffffffff1660e01b815260040161104092919061160e565b60c06040518083038186803b15801561105857600080fd5b505afa15801561106c573d6000803e3d6000fd5b505050506040513d601f19601f820116820180604052508101906110909190611585565b5094505093509350506110c081610baf84610ba9670de0b6b3a76400006108f6898b61127b90919063ffffffff16565b975050505050505050610236565b816001600160a01b0316866001600160a01b03161415610d115760405163677de24b60e11b81526000906001600160a01b038a169063cefbc49690611117908b906004016115fa565b60606040518083038186803b15801561112f57600080fd5b505afa158015611143573d6000803e3d6000fd5b505050506040513d601f19601f820116820180604052508101906111679190611519565b9250505060008060008b6001600160a01b031663f741198f8c8b6040518363ffffffff1660e01b815260040161119e92919061160e565b60c06040518083038186803b1580156111b657600080fd5b505afa1580156111ca573d6000803e3d6000fd5b505050506040513d601f19601f820116820180604052508101906111ee9190611585565b9550509450509350506110c081610baf84610ba9670de0b6b3a76400006108f6898b61127b90919063ffffffff16565b3390565b6000828211156112445760405162461bcd60e51b8152600401610162906117bc565b508082035b92915050565b6000828201838110156112745760405162461bcd60e51b81526004016101629061175e565b9392505050565b60008261128a57506000611249565b8282028284828161129757fe5b04146112745760405162461bcd60e51b81526004016101629061182a565b60008082116112d65760405162461bcd60e51b8152600401610162906117f3565b8183816112df57fe5b049392505050565b6040518061012001604052806000815260200160608152602001606081526020016000815260200160008152602001600081526020016000815260200160008152602001600081525090565b600060208284031215611344578081fd5b8135611274816118d9565b600060208284031215611360578081fd5b8151611274816118d9565b60008060006060848603121561137f578182fd5b833561138a816118d9565b9250602084013561139a816118d9565b915060408401356113aa816118d9565b809150509250925092565b600080600080608085870312156113ca578081fd5b84356113d5816118d9565b935060208501356113e5816118d9565b925060408501356113f5816118d9565b91506060850135611405816118d9565b939692955090935050565b600080600080600060a08688031215611427578081fd5b8535611432816118d9565b94506020860135611442816118d9565b93506040860135611452816118d9565b94979396509394606081013594506080013592915050565b60006020828403121561147b578081fd5b815167ffffffffffffffff80821115611492578283fd5b818401915084601f8301126114a5578283fd5b8151818111156114b157fe5b604051601f8201601f1916810160200183811182821017156114cf57fe5b6040528181528382016020018710156114e6578485fd5b6114f78260208301602087016118a9565b9695505050505050565b600060208284031215611512578081fd5b5051919050565b60008060006060848603121561152d578283fd5b8351925060208401519150604084015190509250925092565b600080600080600060a0868803121561155d578081fd5b5050835160208501516040860151606087015160809097015192989197509594509092509050565b60008060008060008060c0878903121561159d578081fd5b865195506020870151945060408701519350606087015192506080870151915060a087015190509295509295509295565b600081518084526115e68160208601602086016118a9565b601f01601f19169290920160200192915050565b6001600160a01b0391909116815260200190565b6001600160a01b0392831681529116602082015260400190565b60208082528251828201819052600091906040908185019080840286018301878501865b838110156116e657603f1989840301855281516101208151855288820151818a87015261167b828701826115ce565b915050878201518582038987015261169382826115ce565b606084810151908801526080808501519088015260a0808501519088015260c0808501519088015260e080850151908801526101009384015193909601929092525050938601939086019060010161164c565b509098975050505050505050565b6001600160a01b039384168152919092166020820152604081019190915260600190565b60208082526026908201527f4f776e61626c653a206e6577206f776e657220697320746865207a65726f206160408201526564647265737360d01b606082015260800190565b6020808252601b908201527f536166654d6174683a206164646974696f6e206f766572666c6f770000000000604082015260600190565b6020808252600d908201526c34b63632b3b0b6103a37b5b2b760991b604082015260600190565b6020808252601e908201527f536166654d6174683a207375627472616374696f6e206f766572666c6f770000604082015260600190565b6020808252601a908201527f536166654d6174683a206469766973696f6e206279207a65726f000000000000604082015260600190565b60208082526021908201527f536166654d6174683a206d756c7469706c69636174696f6e206f766572666c6f6040820152607760f81b606082015260800190565b6020808252818101527f4f776e61626c653a2063616c6c6572206973206e6f7420746865206f776e6572604082015260600190565b90815260200190565b60005b838110156118c45781810151838201526020016118ac565b838111156118d3576000848401525b50505050565b6001600160a01b03811681146118ee57600080fd5b5056fea26469706673582212205b7475a3cdf7791d8368aeccd2b09f4f8072ccb3f30f87cd9124ce86e10f32a264736f6c63430007020033",
  "devdoc": {
    "kind": "dev",
    "methods": {
      "owner()": {
        "details": "Returns the address of the current owner."
      },
      "renounceOwnership()": {
        "details": "Leaves the contract without owner. It will not be possible to call `onlyOwner` functions anymore. Can only be called by the current owner. NOTE: Renouncing ownership will leave the contract without an owner, thereby removing any functionality that is only available to the owner."
      },
      "transferOwnership(address)": {
        "details": "Transfers ownership of the contract to a new account (`newOwner`). Can only be called by the current owner."
      }
    },
    "version": 1
  },
  "userdoc": {
    "kind": "user",
    "methods": {},
    "version": 1
  },
  "storageLayout": {
    "storage": [
      {
        "astId": 7,
        "contract": "contracts/lens/Lens.sol:Lens",
        "label": "_owner",
        "offset": 0,
        "slot": "0",
        "type": "t_address"
      }
    ],
    "types": {
      "t_address": {
        "encoding": "inplace",
        "label": "address",
        "numberOfBytes": "20"
      }
    }
  }
}