{
  "address": "0x7A9dBe978d2f3Cc35DED41F1976432b43842807C",
  "abi": [
    {
      "anonymous": false,
      "inputs": [
        {
          "indexed": true,
          "internalType": "address",
          "name": "previousOwner",
          "type": "address"
        },
        {
          "indexed": true,
          "internalType": "address",
          "name": "newOwner",
          "type": "address"
        }
      ],
      "name": "OwnershipTransferred",
      "type": "event"
    },
    {
      "inputs": [
        {
          "internalType": "contract IMasterChef",
          "name": "_masterChef",
          "type": "address"
        },
        {
          "internalType": "contract IKeplerPair",
          "name": "_pair",
          "type": "address"
        },
        {
          "internalType": "address",
          "name": "user",
          "type": "address"
        },
        {
          "internalType": "uint256",
          "name": "from",
          "type": "uint256"
        },
        {
          "internalType": "uint256",
          "name": "size",
          "type": "uint256"
        }
      ],
      "name": "getLockInfo",
      "outputs": [
        {
          "components": [
            {
              "internalType": "uint256",
              "name": "amount",
              "type": "uint256"
            },
            {
              "internalType": "string",
              "name": "symbol0",
              "type": "string"
            },
            {
              "internalType": "string",
              "name": "symbol1",
              "type": "string"
            },
            {
              "internalType": "uint256",
              "name": "amount0",
              "type": "uint256"
            },
            {
              "internalType": "uint256",
              "name": "amount1",
              "type": "uint256"
            },
            {
              "internalType": "uint256",
              "name": "shares",
              "type": "uint256"
            },
            {
              "internalType": "uint256",
              "name": "lockType",
              "type": "uint256"
            },
            {
              "internalType": "uint256",
              "name": "depositAt",
              "type": "uint256"
            },
            {
              "internalType": "uint256",
              "name": "expireAt",
              "type": "uint256"
            }
          ],
          "internalType": "struct Lens.UserLockInfo[]",
          "name": "",
          "type": "tuple[]"
        }
      ],
      "stateMutability": "view",
      "type": "function"
    },
    {
      "inputs": [
        {
          "internalType": "contract IMasterChef",
          "name": "_masterChef",
          "type": "address"
        },
        {
          "internalType": "contract IKeplerPair",
          "name": "_pair",
          "type": "address"
        },
        {
          "internalType": "address",
          "name": "user",
          "type": "address"
        }
      ],
      "name": "getLockInfoLength",
      "outputs": [
        {
          "internalType": "uint256",
          "name": "",
          "type": "uint256"
        }
      ],
      "stateMutability": "view",
      "type": "function"
    },
    {
      "inputs": [
        {
          "internalType": "contract IKeplerFactory",
          "name": "_factory",
          "type": "address"
        },
        {
          "internalType": "address[]",
          "name": "_path",
          "type": "address[]"
        },
        {
          "internalType": "uint256",
          "name": "amountIn",
          "type": "uint256"
        }
      ],
      "name": "getSwapInfoIn",
      "outputs": [
        {
          "components": [
            {
              "internalType": "uint256",
              "name": "amountIn",
              "type": "uint256"
            },
            {
              "internalType": "uint256",
              "name": "amountOut",
              "type": "uint256"
            },
            {
              "internalType": "uint256",
              "name": "fee",
              "type": "uint256"
            },
            {
              "internalType": "uint256",
              "name": "affect",
              "type": "uint256"
            }
          ],
          "internalType": "struct Lens.SwapInfo",
          "name": "swapInfo",
          "type": "tuple"
        }
      ],
      "stateMutability": "view",
      "type": "function"
    },
    {
      "inputs": [],
      "name": "owner",
      "outputs": [
        {
          "internalType": "address",
          "name": "",
          "type": "address"
        }
      ],
      "stateMutability": "view",
      "type": "function"
    },
    {
      "inputs": [
        {
          "internalType": "contract IInviter",
          "name": "_inviter",
          "type": "address"
        },
        {
          "internalType": "address",
          "name": "_token",
          "type": "address"
        },
        {
          "internalType": "address",
          "name": "_user",
          "type": "address"
        }
      ],
      "name": "pendingInvite",
      "outputs": [
        {
          "internalType": "uint256",
          "name": "",
          "type": "uint256"
        }
      ],
      "stateMutability": "view",
      "type": "function"
    },
    {
      "inputs": [
        {
          "internalType": "contract IMasterChef",
          "name": "_masterChef",
          "type": "address"
        },
        {
          "internalType": "contract IKeplerPair",
          "name": "_pair",
          "type": "address"
        },
        {
          "internalType": "address",
          "name": "_token",
          "type": "address"
        },
        {
          "internalType": "address",
          "name": "_user",
          "type": "address"
        }
      ],
      "name": "pendingInviteMine",
      "outputs": [
        {
          "internalType": "uint256",
          "name": "",
          "type": "uint256"
        }
      ],
      "stateMutability": "view",
      "type": "function"
    },
    {
      "inputs": [
        {
          "internalType": "contract IMasterChef",
          "name": "_masterChef",
          "type": "address"
        },
        {
          "internalType": "contract IKeplerPair",
          "name": "_pair",
          "type": "address"
        },
        {
          "internalType": "address",
          "name": "_token",
          "type": "address"
        },
        {
          "internalType": "address",
          "name": "_user",
          "type": "address"
        }
      ],
      "name": "pendingMine",
      "outputs": [
        {
          "internalType": "uint256",
          "name": "",
          "type": "uint256"
        }
      ],
      "stateMutability": "view",
      "type": "function"
    },
    {
      "inputs": [],
      "name": "renounceOwnership",
      "outputs": [],
      "stateMutability": "nonpayable",
      "type": "function"
    },
    {
      "inputs": [
        {
          "internalType": "address",
          "name": "newOwner",
          "type": "address"
        }
      ],
      "name": "transferOwnership",
      "outputs": [],
      "stateMutability": "nonpayable",
      "type": "function"
    }
  ],
  "transactionHash": "0x64e28cceb8e74fc4b0c2c82c66eb0b93b4dad8172e3666bc38fb69496e30ab5b",
  "args": [],
  "solcInputHash": "104e6ab2244511cc96832c8f8ffbaa1e",
  "bytecode": "0x608060405234801561001057600080fd5b50600061001b61006a565b600080546001600160a01b0319166001600160a01b0383169081178255604051929350917f8be0079c531659141344cd1fd0a4f28419497f9722a3daafe3b4186f6b6457e0908290a35061006e565b3390565b6126a88061007d6000396000f3fe608060405234801561001057600080fd5b50600436106100935760003560e01c80639485a210116100665780639485a210146100f3578063af3d1ba814610113578063f291489014610133578063f2fde38b14610146578063f68275391461015957610093565b80636828d33014610098578063715018a6146100c15780638727b45c146100cb5780638da5cb5b146100de575b600080fd5b6100ab6100a6366004611e32565b61016c565b6040516100b891906125df565b60405180910390f35b6100c96101f5565b005b6100ab6100d9366004611d32565b610287565b6100e66102b8565b6040516100b891906120ff565b610106610101366004611d7c565b6102c7565b6040516100b891906125b4565b610126610121366004611ea1565b6106cc565b6040516100b8919061217a565b6100ab610141366004611e46565b610de8565b6100c9610154366004611c4d565b6111a2565b6100ab610167366004611e46565b611262565b604051630cb1c87b60e31b81526000906001600160a01b0385169063658e43d89061019d9086908690600401612113565b60206040518083038186803b1580156101b557600080fd5b505afa1580156101c9573d6000803e3d6000fd5b505050506040513d601f19601f820116820180604052508101906101ed9190611d1a565b949350505050565b6101fd611697565b6001600160a01b031661020e6102b8565b6001600160a01b03161461023d5760405162461bcd60e51b815260040161023490612486565b60405180910390fd5b600080546040516001600160a01b03909116907f8be0079c531659141344cd1fd0a4f28419497f9722a3daafe3b4186f6b6457e0908390a3600080546001600160a01b0319169055565b6040516367dd2f7d60e01b81526000906001600160a01b038516906367dd2f7d9061019d9085908790600401612113565b6000546001600160a01b031690565b6102cf611bbd565b81815260405163372dad2160e21b81526060906001600160a01b0386169063dcb6b4849061030190879060040161212d565b60006040518083038186803b15801561031957600080fd5b505afa15801561032d573d6000803e3d6000fd5b505050506040513d6000823e601f3d908101601f191682016040526103559190810190611c85565b905061038a6103e8610384858460008151811061036e57fe5b602002602001015161169b90919063ffffffff16565b906116de565b6040830152606061039d86858785611710565b9050806000815181106103ac57fe5b6020026020010151836020018181525050600080876001600160a01b031663e6a43905886000815181106103dc57fe5b6020026020010151896001815181106103f157fe5b60200260200101516040518363ffffffff1660e01b8152600401610416929190612113565b60206040518083038186803b15801561042e57600080fd5b505afa158015610442573d6000803e3d6000fd5b505050506040513d601f19601f820116820180604052508101906104669190611c69565b6001600160a01b0316630902f1ac6040518163ffffffff1660e01b815260040160606040518083038186803b15801561049e57600080fd5b505afa1580156104b2573d6000803e3d6000fd5b505050506040513d601f19601f820116820180604052508101906104d69190611f7c565b506001600160701b031691506001600160701b031691506000886001600160a01b031663e6a439058960008151811061050b57fe5b60200260200101518a60018151811061052057fe5b60200260200101516040518363ffffffff1660e01b8152600401610545929190612113565b60206040518083038186803b15801561055d57600080fd5b505afa158015610571573d6000803e3d6000fd5b505050506040513d601f19601f820116820180604052508101906105959190611c69565b6001600160a01b0316630dfe16816040518163ffffffff1660e01b815260040160206040518083038186803b1580156105cd57600080fd5b505afa1580156105e1573d6000803e3d6000fd5b505050506040513d601f19601f820116820180604052508101906106059190611c69565b6001600160a01b03168860008151811061061b57fe5b60200260200101516001600160a01b0316146106375781610639565b825b90506106ba61068361067c8760008151811061065157fe5b60200260200101518760008151811061066657fe5b602002602001015161185d90919063ffffffff16565b8390611885565b610384670de0b6b3a76400006106b48960008151811061069f57fe5b60200260200101518960008151811061066657fe5b9061169b565b60608701525093979650505050505050565b606080856001600160a01b0316630dfe16816040518163ffffffff1660e01b815260040160206040518083038186803b15801561070857600080fd5b505afa15801561071c573d6000803e3d6000fd5b505050506040513d601f19601f820116820180604052508101906107409190611c69565b6001600160a01b03166395d89b416040518163ffffffff1660e01b815260040160006040518083038186803b15801561077857600080fd5b505afa15801561078c573d6000803e3d6000fd5b505050506040513d6000823e601f3d908101601f191682016040526107b49190810190611efb565b90506060866001600160a01b031663d21220a76040518163ffffffff1660e01b815260040160206040518083038186803b1580156107f157600080fd5b505afa158015610805573d6000803e3d6000fd5b505050506040513d601f19601f820116820180604052508101906108299190611c69565b6001600160a01b03166395d89b416040518163ffffffff1660e01b815260040160006040518083038186803b15801561086157600080fd5b505afa158015610875573d6000803e3d6000fd5b505050506040513d6000823e601f3d908101601f1916820160405261089d9190810190611efb565b90506000876001600160a01b0316630dfe16816040518163ffffffff1660e01b815260040160206040518083038186803b1580156108da57600080fd5b505afa1580156108ee573d6000803e3d6000fd5b505050506040513d601f19601f820116820180604052508101906109129190611c69565b6001600160a01b03166370a08231896040518263ffffffff1660e01b815260040161093d91906120ff565b60206040518083038186803b15801561095557600080fd5b505afa158015610969573d6000803e3d6000fd5b505050506040513d601f19601f8201168201806040525081019061098d9190611d1a565b90506000886001600160a01b031663d21220a76040518163ffffffff1660e01b815260040160206040518083038186803b1580156109ca57600080fd5b505afa1580156109de573d6000803e3d6000fd5b505050506040513d601f19601f82011682018060405250810190610a029190611c69565b6001600160a01b03166370a082318a6040518263ffffffff1660e01b8152600401610a2d91906120ff565b60206040518083038186803b158015610a4557600080fd5b505afa158015610a59573d6000803e3d6000fd5b505050506040513d601f19601f82011682018060405250810190610a7d9190611d1a565b90506000896001600160a01b03166318160ddd6040518163ffffffff1660e01b815260040160206040518083038186803b158015610aba57600080fd5b505afa158015610ace573d6000803e3d6000fd5b505050506040513d601f19601f82011682018060405250810190610af29190611d1a565b905060008b6001600160a01b031663658e43d88c8c6040518363ffffffff1660e01b8152600401610b24929190612113565b60206040518083038186803b158015610b3c57600080fd5b505afa158015610b50573d6000803e3d6000fd5b505050506040513d601f19601f82011682018060405250810190610b749190611d1a565b905087610b81828b61185d565b11610b9557610b90818a61185d565b610b97565b875b975060608867ffffffffffffffff81118015610bb257600080fd5b50604051908082528060200260200182016040528015610bec57816020015b610bd9611be5565b815260200190600190039081610bd15790505b50905060008a5b610bfd8c8c611885565b811015610dd5578e6001600160a01b03166308cc72d88f8f846040518463ffffffff1660e01b8152600401610c3493929190612246565b60a06040518083038186803b158015610c4c57600080fd5b505afa158015610c60573d6000803e3d6000fd5b505050506040513d601f19601f82011682018060405250810190610c849190611fec565b878781518110610c9057fe5b6020026020010151600001888881518110610ca757fe5b602002602001015160a001898981518110610cbe57fe5b602002602001015160c0018a8a81518110610cd557fe5b602002602001015160e0018b8b81518110610cec57fe5b602090810291909101015161010001949094529390925292909152919091525282518990849084908110610d1c57fe5b60200260200101516020018190525087838381518110610d3857fe5b602002602001015160400181905250610d758561038489868681518110610d5b57fe5b60200260200101516000015161169b90919063ffffffff16565b838381518110610d8157fe5b60200260200101516060018181525050610da58561038488868681518110610d5b57fe5b838381518110610db157fe5b602090810291909101015160800152610dcb826001611885565b9150600101610bf3565b50909d9c50505050505050505050505050565b600080846001600160a01b0316630dfe16816040518163ffffffff1660e01b815260040160206040518083038186803b158015610e2457600080fd5b505afa158015610e38573d6000803e3d6000fd5b505050506040513d601f19601f82011682018060405250810190610e5c9190611c69565b90506000856001600160a01b031663d21220a76040518163ffffffff1660e01b815260040160206040518083038186803b158015610e9957600080fd5b505afa158015610ead573d6000803e3d6000fd5b505050506040513d601f19601f82011682018060405250810190610ed19190611c69565b9050816001600160a01b0316856001600160a01b0316141561103b5760405162d7f52760e31b81526000906001600160a01b038916906306bfa93890610f1b908a906004016120ff565b60606040518083038186803b158015610f3357600080fd5b505afa158015610f47573d6000803e3d6000fd5b505050506040513d601f19601f82011682018060405250810190610f6b9190611fbf565b5091505060008060008a6001600160a01b031663f2801fe78b8a6040518363ffffffff1660e01b8152600401610fa2929190612113565b60c06040518083038186803b158015610fba57600080fd5b505afa158015610fce573d6000803e3d6000fd5b505050506040513d601f19601f82011682018060405250810190610ff2919061202b565b50945050935093505061102e8161102884611022670de0b6b3a7640000610384898b61169b90919063ffffffff16565b9061185d565b90611885565b96505050505050506101ed565b806001600160a01b0316856001600160a01b0316141561118a5760405162d7f52760e31b81526000906001600160a01b038916906306bfa93890611083908a906004016120ff565b60606040518083038186803b15801561109b57600080fd5b505afa1580156110af573d6000803e3d6000fd5b505050506040513d601f19601f820116820180604052508101906110d39190611fbf565b9250505060008060008a6001600160a01b031663f2801fe78b8a6040518363ffffffff1660e01b815260040161110a929190612113565b60c06040518083038186803b15801561112257600080fd5b505afa158015611136573d6000803e3d6000fd5b505050506040513d601f19601f8201168201806040525081019061115a919061202b565b95505094505093505061102e8161102884611022670de0b6b3a7640000610384898b61169b90919063ffffffff16565b60405162461bcd60e51b81526004016102349061236d565b6111aa611697565b6001600160a01b03166111bb6102b8565b6001600160a01b0316146111e15760405162461bcd60e51b815260040161023490612486565b6001600160a01b0381166112075760405162461bcd60e51b8152600401610234906122f0565b600080546040516001600160a01b03808516939216917f8be0079c531659141344cd1fd0a4f28419497f9722a3daafe3b4186f6b6457e091a3600080546001600160a01b0319166001600160a01b0392909216919091179055565b600080846001600160a01b0316630dfe16816040518163ffffffff1660e01b815260040160206040518083038186803b15801561129e57600080fd5b505afa1580156112b2573d6000803e3d6000fd5b505050506040513d601f19601f820116820180604052508101906112d69190611c69565b90506000856001600160a01b031663d21220a76040518163ffffffff1660e01b815260040160206040518083038186803b15801561131357600080fd5b505afa158015611327573d6000803e3d6000fd5b505050506040513d601f19601f8201168201806040525081019061134b9190611c69565b90506000876001600160a01b031663f2801fe788876040518363ffffffff1660e01b815260040161137d929190612113565b60c06040518083038186803b15801561139557600080fd5b505afa1580156113a9573d6000803e3d6000fd5b505050506040513d601f19601f820116820180604052508101906113cd919061202b565b5050505050905080600014156113e957600093505050506101ed565b826001600160a01b0316866001600160a01b031614156115475760405163677de24b60e11b81526000906001600160a01b038a169063cefbc49690611432908b906004016120ff565b60606040518083038186803b15801561144a57600080fd5b505afa15801561145e573d6000803e3d6000fd5b505050506040513d601f19601f820116820180604052508101906114829190611fbf565b5091505060008060008b6001600160a01b031663f741198f8c8b6040518363ffffffff1660e01b81526004016114b9929190612113565b60c06040518083038186803b1580156114d157600080fd5b505afa1580156114e5573d6000803e3d6000fd5b505050506040513d601f19601f82011682018060405250810190611509919061202b565b5094505093509350506115398161102884611022670de0b6b3a7640000610384898b61169b90919063ffffffff16565b9750505050505050506101ed565b816001600160a01b0316866001600160a01b0316141561118a5760405163677de24b60e11b81526000906001600160a01b038a169063cefbc49690611590908b906004016120ff565b60606040518083038186803b1580156115a857600080fd5b505afa1580156115bc573d6000803e3d6000fd5b505050506040513d601f19601f820116820180604052508101906115e09190611fbf565b9250505060008060008b6001600160a01b031663f741198f8c8b6040518363ffffffff1660e01b8152600401611617929190612113565b60c06040518083038186803b15801561162f57600080fd5b505afa158015611643573d6000803e3d6000fd5b505050506040513d601f19601f82011682018060405250810190611667919061202b565b9550509450509350506115398161102884611022670de0b6b3a7640000610384898b61169b90919063ffffffff16565b3390565b6000826116aa575060006116d8565b828202828482816116b757fe5b04146116d55760405162461bcd60e51b815260040161023490612445565b90505b92915050565b60008082116116ff5760405162461bcd60e51b8152600401610234906123cb565b81838161170857fe5b049392505050565b60606002835110156117345760405162461bcd60e51b8152600401610234906124bb565b81518351146117555760405162461bcd60e51b81526004016102349061226a565b825167ffffffffffffffff8111801561176d57600080fd5b50604051908082528060200260200182016040528015611797578160200160208202803683370190505b50905083816000815181106117a857fe5b60200260200101818152505060005b6001845103811015611854576000806117fa888785815181106117d657fe5b60200260200101518886600101815181106117ed57fe5b60200260200101516118aa565b9150915061183084848151811061180d57fe5b6020026020010151838388878151811061182357fe5b602002602001015161198f565b84846001018151811061183f57fe5b602090810291909101015250506001016117b7565b50949350505050565b60008282111561187f5760405162461bcd60e51b815260040161023490612394565b50900390565b6000828201838110156116d55760405162461bcd60e51b815260040161023490612336565b60008060006118b98585611a51565b5090506118c7868686611adb565b506000806118d6888888611adb565b6001600160a01b0316630902f1ac6040518163ffffffff1660e01b815260040160606040518083038186803b15801561190e57600080fd5b505afa158015611922573d6000803e3d6000fd5b505050506040513d601f19601f820116820180604052508101906119469190611f7c565b506001600160701b031691506001600160701b03169150826001600160a01b0316876001600160a01b03161461197d578082611980565b81815b90999098509650505050505050565b60006103e88211156119b35760405162461bcd60e51b8152600401610234906124f2565b600085116119d35760405162461bcd60e51b81526004016102349061256c565b6000841180156119e35750600083115b6119ff5760405162461bcd60e51b8152600401610234906122ab565b6000611a17611a106103e88561185d565b879061169b565b90506000611a25828661169b565b90506000611a3983611028896103e861169b565b9050808281611a4457fe5b0498975050505050505050565b600080826001600160a01b0316846001600160a01b03161415611a865760405162461bcd60e51b815260040161023490612402565b826001600160a01b0316846001600160a01b031610611aa6578284611aa9565b83835b90925090506001600160a01b038216611ad45760405162461bcd60e51b815260040161023490612535565b9250929050565b6000806000611aea8585611a51565b91509150858282604051602001611b029291906120a0565b60405160208183030381529060405280519060200120876001600160a01b0316635855a25a6040518163ffffffff1660e01b815260040160206040518083038186803b158015611b5157600080fd5b505afa158015611b65573d6000803e3d6000fd5b505050506040513d601f19601f82011682018060405250810190611b899190611d1a565b604051602001611b9b939291906120c7565b60408051601f1981840301815291905280516020909101209695505050505050565b6040518060800160405280600081526020016000815260200160008152602001600081525090565b6040518061012001604052806000815260200160608152602001606081526020016000815260200160008152602001600081526020016000815260200160008152602001600081525090565b80516001600160701b0381168114611c4857600080fd5b919050565b600060208284031215611c5e578081fd5b81356116d58161265a565b600060208284031215611c7a578081fd5b81516116d58161265a565b60006020808385031215611c97578182fd5b825167ffffffffffffffff811115611cad578283fd5b8301601f81018513611cbd578283fd5b8051611cd0611ccb8261260c565b6125e8565b8181528381019083850185840285018601891015611cec578687fd5b8694505b83851015611d0e578051835260019490940193918501918501611cf0565b50979650505050505050565b600060208284031215611d2b578081fd5b5051919050565b600080600060608486031215611d46578182fd5b8335611d518161265a565b92506020840135611d618161265a565b91506040840135611d718161265a565b809150509250925092565b600080600060608486031215611d90578283fd5b8335611d9b8161265a565b925060208481013567ffffffffffffffff811115611db7578384fd5b8501601f81018713611dc7578384fd5b8035611dd5611ccb8261260c565b81815283810190838501858402850186018b1015611df1578788fd5b8794505b83851015611e1c578035611e088161265a565b835260019490940193918501918501611df5565b5096999698505050506040949094013593505050565b600080600060608486031215611d46578283fd5b60008060008060808587031215611e5b578081fd5b8435611e668161265a565b93506020850135611e768161265a565b92506040850135611e868161265a565b91506060850135611e968161265a565b939692955090935050565b600080600080600060a08688031215611eb8578081fd5b8535611ec38161265a565b94506020860135611ed38161265a565b93506040860135611ee38161265a565b94979396509394606081013594506080013592915050565b600060208284031215611f0c578081fd5b815167ffffffffffffffff80821115611f23578283fd5b818401915084601f830112611f36578283fd5b815181811115611f4257fe5b611f55601f8201601f19166020016125e8565b9150808252856020828501011115611f6b578384fd5b61185481602084016020860161262a565b600080600060608486031215611f90578081fd5b611f9984611c31565b9250611fa760208501611c31565b9150604084015163ffffffff81168114611d71578182fd5b600080600060608486031215611fd3578081fd5b8351925060208401519150604084015190509250925092565b600080600080600060a08688031215612003578283fd5b5050835160208501516040860151606087015160809097015192989197509594509092509050565b60008060008060008060c08789031215612043578384fd5b865195506020870151945060408701519350606087015192506080870151915060a087015190509295509295509295565b6000815180845261208c81602086016020860161262a565b601f01601f19169290920160200192915050565b6bffffffffffffffffffffffff19606093841b811682529190921b16601482015260280190565b6001600160f81b0319815260609390931b6bffffffffffffffffffffffff191660018401526015830191909152603582015260550190565b6001600160a01b0391909116815260200190565b6001600160a01b0392831681529116602082015260400190565b6020808252825182820181905260009190848201906040850190845b8181101561216e5783516001600160a01b031683529284019291840191600101612149565b50909695505050505050565b60208082528251828201819052600091906040908185019080840286018301878501865b8381101561223857603f1989840301855281516101208151855288820151818a8701526121cd82870182612074565b91505087820151858203898701526121e58282612074565b606084810151908801526080808501519088015260a0808501519088015260c0808501519088015260e080850151908801526101009384015193909601929092525050938601939086019060010161219e565b509098975050505050505050565b6001600160a01b039384168152919092166020820152604081019190915260600190565b60208082526021908201527f4b65706c65724c6962726172793a20494e56414c49445f4645455f4c454e47546040820152600960fb1b606082015260800190565b60208082526025908201527f4b65706c65724c6962726172793a20494e53554646494349454e545f4c495155604082015264494449545960d81b606082015260800190565b60208082526026908201527f4f776e61626c653a206e6577206f776e657220697320746865207a65726f206160408201526564647265737360d01b606082015260800190565b6020808252601b908201527f536166654d6174683a206164646974696f6e206f766572666c6f770000000000604082015260600190565b6020808252600d908201526c34b63632b3b0b6103a37b5b2b760991b604082015260600190565b6020808252601e908201527f536166654d6174683a207375627472616374696f6e206f766572666c6f770000604082015260600190565b6020808252601a908201527f536166654d6174683a206469766973696f6e206279207a65726f000000000000604082015260600190565b60208082526023908201527f50616e63616b654c6962726172793a204944454e544943414c5f41444452455360408201526253455360e81b606082015260800190565b60208082526021908201527f536166654d6174683a206d756c7469706c69636174696f6e206f766572666c6f6040820152607760f81b606082015260800190565b6020808252818101527f4f776e61626c653a2063616c6c6572206973206e6f7420746865206f776e6572604082015260600190565b6020808252601b908201527f4b65706c65724c6962726172793a20494e56414c49445f504154480000000000604082015260600190565b60208082526023908201527f4b65706c65724c6962726172793a20494c4c4547414c5f5452414e534645525f60408201526246454560e81b606082015260800190565b6020808252601c908201527f50616e63616b654c6962726172793a205a45524f5f4144445245535300000000604082015260600190565b60208082526028908201527f4b65706c65724c6962726172793a20494e53554646494349454e545f494e50556040820152671517d05353d5539560c21b606082015260800190565b8151815260208083015190820152604080830151908201526060918201519181019190915260800190565b90815260200190565b60405181810167ffffffffffffffff8111828210171561260457fe5b604052919050565b600067ffffffffffffffff82111561262057fe5b5060209081020190565b60005b8381101561264557818101518382015260200161262d565b83811115612654576000848401525b50505050565b6001600160a01b038116811461266f57600080fd5b5056fea2646970667358221220de30bf0e05eaa3f2ae0b092bb2f07a4d579183efc71506d44df93f6e4d14ac3664736f6c63430007020033",
  "devdoc": {
    "kind": "dev",
    "methods": {
      "owner()": {
        "details": "Returns the address of the current owner."
      },
      "renounceOwnership()": {
        "details": "Leaves the contract without owner. It will not be possible to call `onlyOwner` functions anymore. Can only be called by the current owner. NOTE: Renouncing ownership will leave the contract without an owner, thereby removing any functionality that is only available to the owner."
      },
      "transferOwnership(address)": {
        "details": "Transfers ownership of the contract to a new account (`newOwner`). Can only be called by the current owner."
      }
    },
    "version": 1
  },
  "userdoc": {
    "kind": "user",
    "methods": {},
    "version": 1
  },
  "storageLayout": {
    "storage": [
      {
        "astId": 7,
        "contract": "contracts/lens/Lens.sol:Lens",
        "label": "_owner",
        "offset": 0,
        "slot": "0",
        "type": "t_address"
      }
    ],
    "types": {
      "t_address": {
        "encoding": "inplace",
        "label": "address",
        "numberOfBytes": "20"
      }
    }
  }
}