{
  "address": "0x4FbdcAE62E5378CcF4d505E36ccD8b35e18be4eB",
  "abi": [
    {
      "anonymous": false,
      "inputs": [
        {
          "indexed": true,
          "internalType": "address",
          "name": "previousOwner",
          "type": "address"
        },
        {
          "indexed": true,
          "internalType": "address",
          "name": "newOwner",
          "type": "address"
        }
      ],
      "name": "OwnershipTransferred",
      "type": "event"
    },
    {
      "inputs": [
        {
          "internalType": "contract IMasterChef",
          "name": "_masterChef",
          "type": "address"
        },
        {
          "internalType": "contract IKeplerPair",
          "name": "_pair",
          "type": "address"
        },
        {
          "internalType": "address",
          "name": "user",
          "type": "address"
        },
        {
          "internalType": "uint256",
          "name": "from",
          "type": "uint256"
        },
        {
          "internalType": "uint256",
          "name": "size",
          "type": "uint256"
        }
      ],
      "name": "getLockInfo",
      "outputs": [
        {
          "components": [
            {
              "internalType": "uint256",
              "name": "amount",
              "type": "uint256"
            },
            {
              "internalType": "string",
              "name": "symbol0",
              "type": "string"
            },
            {
              "internalType": "string",
              "name": "symbol1",
              "type": "string"
            },
            {
              "internalType": "uint256",
              "name": "amount0",
              "type": "uint256"
            },
            {
              "internalType": "uint256",
              "name": "amount1",
              "type": "uint256"
            },
            {
              "internalType": "uint256",
              "name": "shares",
              "type": "uint256"
            },
            {
              "internalType": "uint256",
              "name": "lockType",
              "type": "uint256"
            },
            {
              "internalType": "uint256",
              "name": "depositAt",
              "type": "uint256"
            },
            {
              "internalType": "uint256",
              "name": "expireAt",
              "type": "uint256"
            }
          ],
          "internalType": "struct Lens.UserLockInfo[]",
          "name": "",
          "type": "tuple[]"
        }
      ],
      "stateMutability": "view",
      "type": "function"
    },
    {
      "inputs": [
        {
          "internalType": "contract IMasterChef",
          "name": "_masterChef",
          "type": "address"
        },
        {
          "internalType": "contract IKeplerPair",
          "name": "_pair",
          "type": "address"
        },
        {
          "internalType": "address",
          "name": "user",
          "type": "address"
        }
      ],
      "name": "getLockInfoLength",
      "outputs": [
        {
          "internalType": "uint256",
          "name": "",
          "type": "uint256"
        }
      ],
      "stateMutability": "view",
      "type": "function"
    },
    {
      "inputs": [
        {
          "internalType": "contract IKeplerFactory",
          "name": "_factory",
          "type": "address"
        },
        {
          "internalType": "address[]",
          "name": "_path",
          "type": "address[]"
        },
        {
          "internalType": "uint256",
          "name": "amountOut",
          "type": "uint256"
        }
      ],
      "name": "getSwapInfoIn",
      "outputs": [
        {
          "components": [
            {
              "internalType": "uint256",
              "name": "amountIn",
              "type": "uint256"
            },
            {
              "internalType": "uint256",
              "name": "amountOut",
              "type": "uint256"
            },
            {
              "internalType": "uint256",
              "name": "fee",
              "type": "uint256"
            },
            {
              "internalType": "uint256",
              "name": "affect",
              "type": "uint256"
            }
          ],
          "internalType": "struct Lens.SwapInfo",
          "name": "swapInfo",
          "type": "tuple"
        }
      ],
      "stateMutability": "view",
      "type": "function"
    },
    {
      "inputs": [
        {
          "internalType": "contract IKeplerFactory",
          "name": "_factory",
          "type": "address"
        },
        {
          "internalType": "address[]",
          "name": "_path",
          "type": "address[]"
        },
        {
          "internalType": "uint256",
          "name": "amountIn",
          "type": "uint256"
        }
      ],
      "name": "getSwapInfoOut",
      "outputs": [
        {
          "components": [
            {
              "internalType": "uint256",
              "name": "amountIn",
              "type": "uint256"
            },
            {
              "internalType": "uint256",
              "name": "amountOut",
              "type": "uint256"
            },
            {
              "internalType": "uint256",
              "name": "fee",
              "type": "uint256"
            },
            {
              "internalType": "uint256",
              "name": "affect",
              "type": "uint256"
            }
          ],
          "internalType": "struct Lens.SwapInfo",
          "name": "swapInfo",
          "type": "tuple"
        }
      ],
      "stateMutability": "view",
      "type": "function"
    },
    {
      "inputs": [],
      "name": "owner",
      "outputs": [
        {
          "internalType": "address",
          "name": "",
          "type": "address"
        }
      ],
      "stateMutability": "view",
      "type": "function"
    },
    {
      "inputs": [
        {
          "internalType": "contract IInviter",
          "name": "_inviter",
          "type": "address"
        },
        {
          "internalType": "address",
          "name": "_token",
          "type": "address"
        },
        {
          "internalType": "address",
          "name": "_user",
          "type": "address"
        }
      ],
      "name": "pendingInvite",
      "outputs": [
        {
          "internalType": "uint256",
          "name": "",
          "type": "uint256"
        }
      ],
      "stateMutability": "view",
      "type": "function"
    },
    {
      "inputs": [
        {
          "internalType": "contract IMasterChef",
          "name": "_masterChef",
          "type": "address"
        },
        {
          "internalType": "contract IKeplerPair",
          "name": "_pair",
          "type": "address"
        },
        {
          "internalType": "address",
          "name": "_token",
          "type": "address"
        },
        {
          "internalType": "address",
          "name": "_user",
          "type": "address"
        }
      ],
      "name": "pendingInviteMine",
      "outputs": [
        {
          "internalType": "uint256",
          "name": "",
          "type": "uint256"
        }
      ],
      "stateMutability": "view",
      "type": "function"
    },
    {
      "inputs": [
        {
          "internalType": "contract IMasterChef",
          "name": "_masterChef",
          "type": "address"
        },
        {
          "internalType": "contract IKeplerPair",
          "name": "_pair",
          "type": "address"
        },
        {
          "internalType": "address",
          "name": "_token",
          "type": "address"
        },
        {
          "internalType": "address",
          "name": "_user",
          "type": "address"
        }
      ],
      "name": "pendingMine",
      "outputs": [
        {
          "internalType": "uint256",
          "name": "",
          "type": "uint256"
        }
      ],
      "stateMutability": "view",
      "type": "function"
    },
    {
      "inputs": [],
      "name": "renounceOwnership",
      "outputs": [],
      "stateMutability": "nonpayable",
      "type": "function"
    },
    {
      "inputs": [
        {
          "internalType": "address",
          "name": "newOwner",
          "type": "address"
        }
      ],
      "name": "transferOwnership",
      "outputs": [],
      "stateMutability": "nonpayable",
      "type": "function"
    }
  ],
  "transactionHash": "0x17e5091d959d494589db8dddd3e5051da10e2e4534acfc3e3aa5959e880099a6",
  "args": [],
  "solcInputHash": "ac26021690246ac3d5b5188c5e620066",
  "bytecode": "0x608060405234801561001057600080fd5b50600061001b61006a565b600080546001600160a01b0319166001600160a01b0383169081178255604051929350917f8be0079c531659141344cd1fd0a4f28419497f9722a3daafe3b4186f6b6457e0908290a35061006e565b3390565b612a668061007d6000396000f3fe608060405234801561001057600080fd5b506004361061009e5760003560e01c80639485a210116100665780639485a2101461011e578063af3d1ba814610131578063f291489014610151578063f2fde38b14610164578063f6827539146101775761009e565b80636828d330146100a3578063715018a6146100cc5780638727b45c146100d65780638da5cb5b146100e95780638eb3a82e146100fe575b600080fd5b6100b66100b1366004612160565b61018a565b6040516100c3919061299d565b60405180910390f35b6100d4610213565b005b6100b66100e4366004612060565b6102a5565b6100f16102d6565b6040516100c3919061242d565b61011161010c3660046120aa565b6102e5565b6040516100c39190612972565b61011161012c3660046120aa565b6106ed565b61014461013f3660046121cf565b6107fe565b6040516100c391906124a8565b6100b661015f366004612174565b610f1a565b6100d4610172366004611f7b565b6112d4565b6100b6610185366004612174565b611394565b604051630cb1c87b60e31b81526000906001600160a01b0385169063658e43d8906101bb9086908690600401612441565b60206040518083038186803b1580156101d357600080fd5b505afa1580156101e7573d6000803e3d6000fd5b505050506040513d601f19601f8201168201806040525081019061020b9190612048565b949350505050565b61021b6117c9565b6001600160a01b031661022c6102d6565b6001600160a01b03161461025b5760405162461bcd60e51b8152600401610252906127fe565b60405180910390fd5b600080546040516001600160a01b03909116907f8be0079c531659141344cd1fd0a4f28419497f9722a3daafe3b4186f6b6457e0908390a3600080546001600160a01b0319169055565b6040516367dd2f7d60e01b81526000906001600160a01b038516906367dd2f7d906101bb9085908790600401612441565b6000546001600160a01b031690565b6102ed611eeb565b81815260405163372dad2160e21b81526060906001600160a01b0386169063dcb6b4849061031f90879060040161245b565b60006040518083038186803b15801561033757600080fd5b505afa15801561034b573d6000803e3d6000fd5b505050506040513d6000823e601f3d908101601f191682016040526103739190810190611fb3565b90506103a86103e86103a2858460008151811061038c57fe5b60200260200101516117cd90919063ffffffff16565b90611810565b604083015260606103bb86858785611842565b9050806001825103815181106103cd57fe5b6020026020010151836020018181525050600080876001600160a01b031663e6a43905886000815181106103fd57fe5b60200260200101518960018151811061041257fe5b60200260200101516040518363ffffffff1660e01b8152600401610437929190612441565b60206040518083038186803b15801561044f57600080fd5b505afa158015610463573d6000803e3d6000fd5b505050506040513d601f19601f820116820180604052508101906104879190611f97565b6001600160a01b0316630902f1ac6040518163ffffffff1660e01b815260040160606040518083038186803b1580156104bf57600080fd5b505afa1580156104d3573d6000803e3d6000fd5b505050506040513d601f19601f820116820180604052508101906104f791906122aa565b506001600160701b031691506001600160701b031691506000886001600160a01b031663e6a439058960008151811061052c57fe5b60200260200101518a60018151811061054157fe5b60200260200101516040518363ffffffff1660e01b8152600401610566929190612441565b60206040518083038186803b15801561057e57600080fd5b505afa158015610592573d6000803e3d6000fd5b505050506040513d601f19601f820116820180604052508101906105b69190611f97565b6001600160a01b0316630dfe16816040518163ffffffff1660e01b815260040160206040518083038186803b1580156105ee57600080fd5b505afa158015610602573d6000803e3d6000fd5b505050506040513d601f19601f820116820180604052508101906106269190611f97565b6001600160a01b03168860008151811061063c57fe5b60200260200101516001600160a01b031614610658578161065a565b825b90506106db6106a461069d8760008151811061067257fe5b60200260200101518760008151811061068757fe5b602002602001015161198f90919063ffffffff16565b83906119b7565b6103a2670de0b6b3a76400006106d5896000815181106106c057fe5b60200260200101518960008151811061068757fe5b906117cd565b60608701525093979650505050505050565b6106f5611eeb565b6020810182905260405163372dad2160e21b81526060906001600160a01b0386169063dcb6b4849061072b90879060040161245b565b60006040518083038186803b15801561074357600080fd5b505afa158015610757573d6000803e3d6000fd5b505050506040513d6000823e601f3d908101601f1916820160405261077f9190810190611fb3565b9050606061078f868587856119dc565b90506107bc6103e86103a2836000815181106107a757fe5b60200260200101518560008151811061038c57fe5b6040840152805181906000906107ce57fe5b6020026020010151836000018181525050600080876001600160a01b031663e6a43905886000815181106103fd57fe5b606080856001600160a01b0316630dfe16816040518163ffffffff1660e01b815260040160206040518083038186803b15801561083a57600080fd5b505afa15801561084e573d6000803e3d6000fd5b505050506040513d601f19601f820116820180604052508101906108729190611f97565b6001600160a01b03166395d89b416040518163ffffffff1660e01b815260040160006040518083038186803b1580156108aa57600080fd5b505afa1580156108be573d6000803e3d6000fd5b505050506040513d6000823e601f3d908101601f191682016040526108e69190810190612229565b90506060866001600160a01b031663d21220a76040518163ffffffff1660e01b815260040160206040518083038186803b15801561092357600080fd5b505afa158015610937573d6000803e3d6000fd5b505050506040513d601f19601f8201168201806040525081019061095b9190611f97565b6001600160a01b03166395d89b416040518163ffffffff1660e01b815260040160006040518083038186803b15801561099357600080fd5b505afa1580156109a7573d6000803e3d6000fd5b505050506040513d6000823e601f3d908101601f191682016040526109cf9190810190612229565b90506000876001600160a01b0316630dfe16816040518163ffffffff1660e01b815260040160206040518083038186803b158015610a0c57600080fd5b505afa158015610a20573d6000803e3d6000fd5b505050506040513d601f19601f82011682018060405250810190610a449190611f97565b6001600160a01b03166370a08231896040518263ffffffff1660e01b8152600401610a6f919061242d565b60206040518083038186803b158015610a8757600080fd5b505afa158015610a9b573d6000803e3d6000fd5b505050506040513d601f19601f82011682018060405250810190610abf9190612048565b90506000886001600160a01b031663d21220a76040518163ffffffff1660e01b815260040160206040518083038186803b158015610afc57600080fd5b505afa158015610b10573d6000803e3d6000fd5b505050506040513d601f19601f82011682018060405250810190610b349190611f97565b6001600160a01b03166370a082318a6040518263ffffffff1660e01b8152600401610b5f919061242d565b60206040518083038186803b158015610b7757600080fd5b505afa158015610b8b573d6000803e3d6000fd5b505050506040513d601f19601f82011682018060405250810190610baf9190612048565b90506000896001600160a01b03166318160ddd6040518163ffffffff1660e01b815260040160206040518083038186803b158015610bec57600080fd5b505afa158015610c00573d6000803e3d6000fd5b505050506040513d601f19601f82011682018060405250810190610c249190612048565b905060008b6001600160a01b031663658e43d88c8c6040518363ffffffff1660e01b8152600401610c56929190612441565b60206040518083038186803b158015610c6e57600080fd5b505afa158015610c82573d6000803e3d6000fd5b505050506040513d601f19601f82011682018060405250810190610ca69190612048565b905087610cb3828b61198f565b11610cc757610cc2818a61198f565b610cc9565b875b975060608867ffffffffffffffff81118015610ce457600080fd5b50604051908082528060200260200182016040528015610d1e57816020015b610d0b611f13565b815260200190600190039081610d035790505b50905060008a5b610d2f8c8c6119b7565b811015610f07578e6001600160a01b03166308cc72d88f8f846040518463ffffffff1660e01b8152600401610d6693929190612574565b60a06040518083038186803b158015610d7e57600080fd5b505afa158015610d92573d6000803e3d6000fd5b505050506040513d601f19601f82011682018060405250810190610db6919061231a565b878781518110610dc257fe5b6020026020010151600001888881518110610dd957fe5b602002602001015160a001898981518110610df057fe5b602002602001015160c0018a8a81518110610e0757fe5b602002602001015160e0018b8b81518110610e1e57fe5b602090810291909101015161010001949094529390925292909152919091525282518990849084908110610e4e57fe5b60200260200101516020018190525087838381518110610e6a57fe5b602002602001015160400181905250610ea7856103a289868681518110610e8d57fe5b6020026020010151600001516117cd90919063ffffffff16565b838381518110610eb357fe5b60200260200101516060018181525050610ed7856103a288868681518110610e8d57fe5b838381518110610ee357fe5b602090810291909101015160800152610efd8260016119b7565b9150600101610d25565b50909d9c50505050505050505050505050565b600080846001600160a01b0316630dfe16816040518163ffffffff1660e01b815260040160206040518083038186803b158015610f5657600080fd5b505afa158015610f6a573d6000803e3d6000fd5b505050506040513d601f19601f82011682018060405250810190610f8e9190611f97565b90506000856001600160a01b031663d21220a76040518163ffffffff1660e01b815260040160206040518083038186803b158015610fcb57600080fd5b505afa158015610fdf573d6000803e3d6000fd5b505050506040513d601f19601f820116820180604052508101906110039190611f97565b9050816001600160a01b0316856001600160a01b0316141561116d5760405162d7f52760e31b81526000906001600160a01b038916906306bfa9389061104d908a9060040161242d565b60606040518083038186803b15801561106557600080fd5b505afa158015611079573d6000803e3d6000fd5b505050506040513d601f19601f8201168201806040525081019061109d91906122ed565b5091505060008060008a6001600160a01b031663f2801fe78b8a6040518363ffffffff1660e01b81526004016110d4929190612441565b60c06040518083038186803b1580156110ec57600080fd5b505afa158015611100573d6000803e3d6000fd5b505050506040513d601f19601f820116820180604052508101906111249190612359565b5094505093509350506111608161115a84611154670de0b6b3a76400006103a2898b6117cd90919063ffffffff16565b9061198f565b906119b7565b965050505050505061020b565b806001600160a01b0316856001600160a01b031614156112bc5760405162d7f52760e31b81526000906001600160a01b038916906306bfa938906111b5908a9060040161242d565b60606040518083038186803b1580156111cd57600080fd5b505afa1580156111e1573d6000803e3d6000fd5b505050506040513d601f19601f8201168201806040525081019061120591906122ed565b9250505060008060008a6001600160a01b031663f2801fe78b8a6040518363ffffffff1660e01b815260040161123c929190612441565b60c06040518083038186803b15801561125457600080fd5b505afa158015611268573d6000803e3d6000fd5b505050506040513d601f19601f8201168201806040525081019061128c9190612359565b9550509450509350506111608161115a84611154670de0b6b3a76400006103a2898b6117cd90919063ffffffff16565b60405162461bcd60e51b8152600401610252906126e5565b6112dc6117c9565b6001600160a01b03166112ed6102d6565b6001600160a01b0316146113135760405162461bcd60e51b8152600401610252906127fe565b6001600160a01b0381166113395760405162461bcd60e51b81526004016102529061261e565b600080546040516001600160a01b03808516939216917f8be0079c531659141344cd1fd0a4f28419497f9722a3daafe3b4186f6b6457e091a3600080546001600160a01b0319166001600160a01b0392909216919091179055565b600080846001600160a01b0316630dfe16816040518163ffffffff1660e01b815260040160206040518083038186803b1580156113d057600080fd5b505afa1580156113e4573d6000803e3d6000fd5b505050506040513d601f19601f820116820180604052508101906114089190611f97565b90506000856001600160a01b031663d21220a76040518163ffffffff1660e01b815260040160206040518083038186803b15801561144557600080fd5b505afa158015611459573d6000803e3d6000fd5b505050506040513d601f19601f8201168201806040525081019061147d9190611f97565b90506000876001600160a01b031663f2801fe788876040518363ffffffff1660e01b81526004016114af929190612441565b60c06040518083038186803b1580156114c757600080fd5b505afa1580156114db573d6000803e3d6000fd5b505050506040513d601f19601f820116820180604052508101906114ff9190612359565b50505050509050806000141561151b576000935050505061020b565b826001600160a01b0316866001600160a01b031614156116795760405163677de24b60e11b81526000906001600160a01b038a169063cefbc49690611564908b9060040161242d565b60606040518083038186803b15801561157c57600080fd5b505afa158015611590573d6000803e3d6000fd5b505050506040513d601f19601f820116820180604052508101906115b491906122ed565b5091505060008060008b6001600160a01b031663f741198f8c8b6040518363ffffffff1660e01b81526004016115eb929190612441565b60c06040518083038186803b15801561160357600080fd5b505afa158015611617573d6000803e3d6000fd5b505050506040513d601f19601f8201168201806040525081019061163b9190612359565b50945050935093505061166b8161115a84611154670de0b6b3a76400006103a2898b6117cd90919063ffffffff16565b97505050505050505061020b565b816001600160a01b0316866001600160a01b031614156112bc5760405163677de24b60e11b81526000906001600160a01b038a169063cefbc496906116c2908b9060040161242d565b60606040518083038186803b1580156116da57600080fd5b505afa1580156116ee573d6000803e3d6000fd5b505050506040513d601f19601f8201168201806040525081019061171291906122ed565b9250505060008060008b6001600160a01b031663f741198f8c8b6040518363ffffffff1660e01b8152600401611749929190612441565b60c06040518083038186803b15801561176157600080fd5b505afa158015611775573d6000803e3d6000fd5b505050506040513d601f19601f820116820180604052508101906117999190612359565b95505094505093505061166b8161115a84611154670de0b6b3a76400006103a2898b6117cd90919063ffffffff16565b3390565b6000826117dc5750600061180a565b828202828482816117e957fe5b04146118075760405162461bcd60e51b8152600401610252906127bd565b90505b92915050565b60008082116118315760405162461bcd60e51b815260040161025290612743565b81838161183a57fe5b049392505050565b60606002835110156118665760405162461bcd60e51b815260040161025290612833565b81518351146118875760405162461bcd60e51b815260040161025290612598565b825167ffffffffffffffff8111801561189f57600080fd5b506040519080825280602002602001820160405280156118c9578160200160208202803683370190505b50905083816000815181106118da57fe5b60200260200101818152505060005b60018451038110156119865760008061192c8887858151811061190857fe5b602002602001015188866001018151811061191f57fe5b6020026020010151611b17565b9150915061196284848151811061193f57fe5b6020026020010151838388878151811061195557fe5b6020026020010151611bfc565b84846001018151811061197157fe5b602090810291909101015250506001016118e9565b50949350505050565b6000828211156119b15760405162461bcd60e51b81526004016102529061270c565b50900390565b6000828201838110156118075760405162461bcd60e51b8152600401610252906126ae565b6060600283511015611a005760405162461bcd60e51b815260040161025290612833565b8151835114611a215760405162461bcd60e51b815260040161025290612598565b825167ffffffffffffffff81118015611a3957600080fd5b50604051908082528060200260200182016040528015611a63578160200160208202803683370190505b5090508381600183510381518110611a7757fe5b60209081029190910101528251600019015b801561198657600080611ab988876001860381518110611aa557fe5b602002602001015188868151811061191f57fe5b91509150611af2848481518110611acc57fe5b60200260200101518383886001880381518110611ae557fe5b6020026020010151611cbe565b846001850381518110611b0157fe5b6020908102919091010152505060001901611a89565b6000806000611b268585611d7f565b509050611b34868686611e09565b50600080611b43888888611e09565b6001600160a01b0316630902f1ac6040518163ffffffff1660e01b815260040160606040518083038186803b158015611b7b57600080fd5b505afa158015611b8f573d6000803e3d6000fd5b505050506040513d601f19601f82011682018060405250810190611bb391906122aa565b506001600160701b031691506001600160701b03169150826001600160a01b0316876001600160a01b031614611bea578082611bed565b81815b90999098509650505050505050565b60006103e8821115611c205760405162461bcd60e51b81526004016102529061286a565b60008511611c405760405162461bcd60e51b81526004016102529061292a565b600084118015611c505750600083115b611c6c5760405162461bcd60e51b8152600401610252906125d9565b6000611c84611c7d6103e88561198f565b87906117cd565b90506000611c9282866117cd565b90506000611ca68361115a896103e86117cd565b9050808281611cb157fe5b0498975050505050505050565b60006103e8821115611ce25760405162461bcd60e51b81526004016102529061286a565b60008511611d025760405162461bcd60e51b815260040161025290612664565b600084118015611d125750600083115b611d2e5760405162461bcd60e51b8152600401610252906128e4565b6000611d406103e86106d587896117cd565b90506000611d5d611d536103e88661198f565b6106d5878a61198f565b9050611d746001828481611d6d57fe5b04906119b7565b979650505050505050565b600080826001600160a01b0316846001600160a01b03161415611db45760405162461bcd60e51b81526004016102529061277a565b826001600160a01b0316846001600160a01b031610611dd4578284611dd7565b83835b90925090506001600160a01b038216611e025760405162461bcd60e51b8152600401610252906128ad565b9250929050565b6000806000611e188585611d7f565b91509150858282604051602001611e309291906123ce565b60405160208183030381529060405280519060200120876001600160a01b0316635855a25a6040518163ffffffff1660e01b815260040160206040518083038186803b158015611e7f57600080fd5b505afa158015611e93573d6000803e3d6000fd5b505050506040513d601f19601f82011682018060405250810190611eb79190612048565b604051602001611ec9939291906123f5565b60408051601f1981840301815291905280516020909101209695505050505050565b6040518060800160405280600081526020016000815260200160008152602001600081525090565b6040518061012001604052806000815260200160608152602001606081526020016000815260200160008152602001600081526020016000815260200160008152602001600081525090565b80516001600160701b0381168114611f7657600080fd5b919050565b600060208284031215611f8c578081fd5b813561180781612a18565b600060208284031215611fa8578081fd5b815161180781612a18565b60006020808385031215611fc5578182fd5b825167ffffffffffffffff811115611fdb578283fd5b8301601f81018513611feb578283fd5b8051611ffe611ff9826129ca565b6129a6565b818152838101908385018584028501860189101561201a578687fd5b8694505b8385101561203c57805183526001949094019391850191850161201e565b50979650505050505050565b600060208284031215612059578081fd5b5051919050565b600080600060608486031215612074578182fd5b833561207f81612a18565b9250602084013561208f81612a18565b9150604084013561209f81612a18565b809150509250925092565b6000806000606084860312156120be578283fd5b83356120c981612a18565b925060208481013567ffffffffffffffff8111156120e5578384fd5b8501601f810187136120f5578384fd5b8035612103611ff9826129ca565b81815283810190838501858402850186018b101561211f578788fd5b8794505b8385101561214a57803561213681612a18565b835260019490940193918501918501612123565b5096999698505050506040949094013593505050565b600080600060608486031215612074578283fd5b60008060008060808587031215612189578081fd5b843561219481612a18565b935060208501356121a481612a18565b925060408501356121b481612a18565b915060608501356121c481612a18565b939692955090935050565b600080600080600060a086880312156121e6578081fd5b85356121f181612a18565b9450602086013561220181612a18565b9350604086013561221181612a18565b94979396509394606081013594506080013592915050565b60006020828403121561223a578081fd5b815167ffffffffffffffff80821115612251578283fd5b818401915084601f830112612264578283fd5b81518181111561227057fe5b612283601f8201601f19166020016129a6565b9150808252856020828501011115612299578384fd5b6119868160208401602086016129e8565b6000806000606084860312156122be578081fd5b6122c784611f5f565b92506122d560208501611f5f565b9150604084015163ffffffff8116811461209f578182fd5b600080600060608486031215612301578081fd5b8351925060208401519150604084015190509250925092565b600080600080600060a08688031215612331578283fd5b5050835160208501516040860151606087015160809097015192989197509594509092509050565b60008060008060008060c08789031215612371578384fd5b865195506020870151945060408701519350606087015192506080870151915060a087015190509295509295509295565b600081518084526123ba8160208601602086016129e8565b601f01601f19169290920160200192915050565b6bffffffffffffffffffffffff19606093841b811682529190921b16601482015260280190565b6001600160f81b0319815260609390931b6bffffffffffffffffffffffff191660018401526015830191909152603582015260550190565b6001600160a01b0391909116815260200190565b6001600160a01b0392831681529116602082015260400190565b6020808252825182820181905260009190848201906040850190845b8181101561249c5783516001600160a01b031683529284019291840191600101612477565b50909695505050505050565b60208082528251828201819052600091906040908185019080840286018301878501865b8381101561256657603f1989840301855281516101208151855288820151818a8701526124fb828701826123a2565b915050878201518582038987015261251382826123a2565b606084810151908801526080808501519088015260a0808501519088015260c0808501519088015260e08085015190880152610100938401519390960192909252505093860193908601906001016124cc565b509098975050505050505050565b6001600160a01b039384168152919092166020820152604081019190915260600190565b60208082526021908201527f4b65706c65724c6962726172793a20494e56414c49445f4645455f4c454e47546040820152600960fb1b606082015260800190565b60208082526025908201527f4b65706c65724c6962726172793a20494e53554646494349454e545f4c495155604082015264494449545960d81b606082015260800190565b60208082526026908201527f4f776e61626c653a206e6577206f776e657220697320746865207a65726f206160408201526564647265737360d01b606082015260800190565b6020808252602a908201527f50616e63616b654c6962726172793a20494e53554646494349454e545f4f555460408201526914155517d05353d5539560b21b606082015260800190565b6020808252601b908201527f536166654d6174683a206164646974696f6e206f766572666c6f770000000000604082015260600190565b6020808252600d908201526c34b63632b3b0b6103a37b5b2b760991b604082015260600190565b6020808252601e908201527f536166654d6174683a207375627472616374696f6e206f766572666c6f770000604082015260600190565b6020808252601a908201527f536166654d6174683a206469766973696f6e206279207a65726f000000000000604082015260600190565b60208082526023908201527f50616e63616b654c6962726172793a204944454e544943414c5f41444452455360408201526253455360e81b606082015260800190565b60208082526021908201527f536166654d6174683a206d756c7469706c69636174696f6e206f766572666c6f6040820152607760f81b606082015260800190565b6020808252818101527f4f776e61626c653a2063616c6c6572206973206e6f7420746865206f776e6572604082015260600190565b6020808252601b908201527f4b65706c65724c6962726172793a20494e56414c49445f504154480000000000604082015260600190565b60208082526023908201527f4b65706c65724c6962726172793a20494c4c4547414c5f5452414e534645525f60408201526246454560e81b606082015260800190565b6020808252601c908201527f50616e63616b654c6962726172793a205a45524f5f4144445245535300000000604082015260600190565b60208082526026908201527f50616e63616b654c6962726172793a20494e53554646494349454e545f4c495160408201526555494449545960d01b606082015260800190565b60208082526028908201527f4b65706c65724c6962726172793a20494e53554646494349454e545f494e50556040820152671517d05353d5539560c21b606082015260800190565b8151815260208083015190820152604080830151908201526060918201519181019190915260800190565b90815260200190565b60405181810167ffffffffffffffff811182821017156129c257fe5b604052919050565b600067ffffffffffffffff8211156129de57fe5b5060209081020190565b60005b83811015612a035781810151838201526020016129eb565b83811115612a12576000848401525b50505050565b6001600160a01b0381168114612a2d57600080fd5b5056fea264697066735822122075476b9530239ff6683ef157dff1d1de19c9b2e215104ce42376ba5654f6425564736f6c63430007020033",
  "devdoc": {
    "kind": "dev",
    "methods": {
      "owner()": {
        "details": "Returns the address of the current owner."
      },
      "renounceOwnership()": {
        "details": "Leaves the contract without owner. It will not be possible to call `onlyOwner` functions anymore. Can only be called by the current owner. NOTE: Renouncing ownership will leave the contract without an owner, thereby removing any functionality that is only available to the owner."
      },
      "transferOwnership(address)": {
        "details": "Transfers ownership of the contract to a new account (`newOwner`). Can only be called by the current owner."
      }
    },
    "version": 1
  },
  "userdoc": {
    "kind": "user",
    "methods": {},
    "version": 1
  },
  "storageLayout": {
    "storage": [
      {
        "astId": 7,
        "contract": "contracts/lens/Lens.sol:Lens",
        "label": "_owner",
        "offset": 0,
        "slot": "0",
        "type": "t_address"
      }
    ],
    "types": {
      "t_address": {
        "encoding": "inplace",
        "label": "address",
        "numberOfBytes": "20"
      }
    }
  }
}