{
  "address": "0xAA91546a81332D6cA6b1cd6f2ccc4E7C4d9a0615",
  "abi": [
    {
      "anonymous": false,
      "inputs": [
        {
          "indexed": true,
          "internalType": "address",
          "name": "previousOwner",
          "type": "address"
        },
        {
          "indexed": true,
          "internalType": "address",
          "name": "newOwner",
          "type": "address"
        }
      ],
      "name": "OwnershipTransferred",
      "type": "event"
    },
    {
      "inputs": [
        {
          "internalType": "contract IMasterChef",
          "name": "_masterChef",
          "type": "address"
        },
        {
          "internalType": "contract IKeplerPair",
          "name": "_pair",
          "type": "address"
        },
        {
          "internalType": "address",
          "name": "user",
          "type": "address"
        },
        {
          "internalType": "uint256",
          "name": "from",
          "type": "uint256"
        },
        {
          "internalType": "uint256",
          "name": "size",
          "type": "uint256"
        }
      ],
      "name": "getLockInfo",
      "outputs": [
        {
          "components": [
            {
              "internalType": "uint256",
              "name": "amount",
              "type": "uint256"
            },
            {
              "internalType": "uint256",
              "name": "shares",
              "type": "uint256"
            },
            {
              "internalType": "uint256",
              "name": "lockType",
              "type": "uint256"
            },
            {
              "internalType": "uint256",
              "name": "expireAt",
              "type": "uint256"
            }
          ],
          "internalType": "struct Lens.UserLockInfo[]",
          "name": "",
          "type": "tuple[]"
        }
      ],
      "stateMutability": "view",
      "type": "function"
    },
    {
      "inputs": [],
      "name": "owner",
      "outputs": [
        {
          "internalType": "address",
          "name": "",
          "type": "address"
        }
      ],
      "stateMutability": "view",
      "type": "function"
    },
    {
      "inputs": [
        {
          "internalType": "contract IInviter",
          "name": "_inviter",
          "type": "address"
        },
        {
          "internalType": "address",
          "name": "_token",
          "type": "address"
        },
        {
          "internalType": "address",
          "name": "_user",
          "type": "address"
        }
      ],
      "name": "pendingInvite",
      "outputs": [
        {
          "internalType": "uint256",
          "name": "",
          "type": "uint256"
        }
      ],
      "stateMutability": "view",
      "type": "function"
    },
    {
      "inputs": [
        {
          "internalType": "contract IMasterChef",
          "name": "_masterChef",
          "type": "address"
        },
        {
          "internalType": "contract IKeplerPair",
          "name": "_pair",
          "type": "address"
        },
        {
          "internalType": "address",
          "name": "_token",
          "type": "address"
        },
        {
          "internalType": "address",
          "name": "_user",
          "type": "address"
        }
      ],
      "name": "pendingInviteMine",
      "outputs": [
        {
          "internalType": "uint256",
          "name": "",
          "type": "uint256"
        }
      ],
      "stateMutability": "view",
      "type": "function"
    },
    {
      "inputs": [
        {
          "internalType": "contract IMasterChef",
          "name": "_masterChef",
          "type": "address"
        },
        {
          "internalType": "contract IKeplerPair",
          "name": "_pair",
          "type": "address"
        },
        {
          "internalType": "address",
          "name": "_token",
          "type": "address"
        },
        {
          "internalType": "address",
          "name": "_user",
          "type": "address"
        }
      ],
      "name": "pendingMine",
      "outputs": [
        {
          "internalType": "uint256",
          "name": "",
          "type": "uint256"
        }
      ],
      "stateMutability": "view",
      "type": "function"
    },
    {
      "inputs": [],
      "name": "renounceOwnership",
      "outputs": [],
      "stateMutability": "nonpayable",
      "type": "function"
    },
    {
      "inputs": [
        {
          "internalType": "address",
          "name": "newOwner",
          "type": "address"
        }
      ],
      "name": "transferOwnership",
      "outputs": [],
      "stateMutability": "nonpayable",
      "type": "function"
    }
  ],
  "transactionHash": "0x94fe84060c93712142fd8612005552f5708f38b06ce65d0528fa5ad3d95879b6",
  "args": [],
  "solcInputHash": "df303fbcf552e45b0d65b88e14a74681",
  "bytecode": "0x608060405234801561001057600080fd5b50600061001b61006a565b600080546001600160a01b0319166001600160a01b0383169081178255604051929350917f8be0079c531659141344cd1fd0a4f28419497f9722a3daafe3b4186f6b6457e0908290a35061006e565b3390565b6112a88061007d6000396000f3fe608060405234801561001057600080fd5b506004361061007d5760003560e01c8063af3d1ba81161005b578063af3d1ba8146100ca578063f2914890146100ea578063f2fde38b146100fd578063f6827539146101105761007d565b8063715018a6146100825780638727b45c1461008c5780638da5cb5b146100b5575b600080fd5b61008a610123565b005b61009f61009a366004610e51565b6101b5565b6040516100ac9190611251565b60405180910390f35b6100bd61023e565b6040516100ac9190611013565b6100dd6100d8366004610ef6565b61024d565b6040516100ac9190611041565b61009f6100f8366004610e9b565b610473565b61008a61010b366004610e19565b610833565b61009f61011e366004610e9b565b6108f3565b61012b610d28565b6001600160a01b031661013c61023e565b6001600160a01b03161461016b5760405162461bcd60e51b81526004016101629061121c565b60405180910390fd5b600080546040516001600160a01b03909116907f8be0079c531659141344cd1fd0a4f28419497f9722a3daafe3b4186f6b6457e0908390a3600080546001600160a01b0319169055565b6040516367dd2f7d60e01b81526000906001600160a01b038516906367dd2f7d906101e69085908790600401611027565b60206040518083038186803b1580156101fe57600080fd5b505afa158015610212573d6000803e3d6000fd5b505050506040513d601f19601f820116820180604052508101906102369190610f50565b949350505050565b6000546001600160a01b031690565b60606000866001600160a01b031663658e43d887876040518363ffffffff1660e01b815260040161027f929190611027565b60206040518083038186803b15801561029757600080fd5b505afa1580156102ab573d6000803e3d6000fd5b505050506040513d601f19601f820116820180604052508101906102cf9190610f50565b9050826102dc8286610d2c565b116102f0576102eb8185610d2c565b6102f2565b825b925060608367ffffffffffffffff8111801561030d57600080fd5b5060405190808252806020026020018201604052801561034757816020015b610334610df1565b81526020019060019003908161032c5790505b50905060006103568686610d59565b90506000865b82811015610464576040516301198e5b60e31b81526001600160a01b038c16906308cc72d890610394908d908d9086906004016110a5565b60806040518083038186803b1580156103ac57600080fd5b505afa1580156103c0573d6000803e3d6000fd5b505050506040513d601f19601f820116820180604052508101906103e49190610f95565b8786815181106103f057fe5b602002602001015160000188878151811061040757fe5b602002602001015160200189888151811061041e57fe5b60200260200101516040018a898151811061043557fe5b602090810291909101015160600193909352929091529190525261045a826001610d59565b915060010161035c565b50919998505050505050505050565b600080846001600160a01b0316630dfe16816040518163ffffffff1660e01b815260040160206040518083038186803b1580156104af57600080fd5b505afa1580156104c3573d6000803e3d6000fd5b505050506040513d601f19601f820116820180604052508101906104e79190610e35565b90506000856001600160a01b031663d21220a76040518163ffffffff1660e01b815260040160206040518083038186803b15801561052457600080fd5b505afa158015610538573d6000803e3d6000fd5b505050506040513d601f19601f8201168201806040525081019061055c9190610e35565b9050816001600160a01b0316856001600160a01b031614156106cc5760405162d7f52760e31b81526000906001600160a01b038916906306bfa938906105a6908a90600401611013565b60606040518083038186803b1580156105be57600080fd5b505afa1580156105d2573d6000803e3d6000fd5b505050506040513d601f19601f820116820180604052508101906105f69190610f68565b5091505060008060008a6001600160a01b031663f2801fe78b8a6040518363ffffffff1660e01b815260040161062d929190611027565b60c06040518083038186803b15801561064557600080fd5b505afa158015610659573d6000803e3d6000fd5b505050506040513d601f19601f8201168201806040525081019061067d9190610fca565b5094505093509350506106bf816106b9846106b3670de0b6b3a76400006106ad898b610d8590919063ffffffff16565b90610dbf565b90610d2c565b90610d59565b9650505050505050610236565b806001600160a01b0316856001600160a01b0316141561081b5760405162d7f52760e31b81526000906001600160a01b038916906306bfa93890610714908a90600401611013565b60606040518083038186803b15801561072c57600080fd5b505afa158015610740573d6000803e3d6000fd5b505050506040513d601f19601f820116820180604052508101906107649190610f68565b9250505060008060008a6001600160a01b031663f2801fe78b8a6040518363ffffffff1660e01b815260040161079b929190611027565b60c06040518083038186803b1580156107b357600080fd5b505afa1580156107c7573d6000803e3d6000fd5b505050506040513d601f19601f820116820180604052508101906107eb9190610fca565b9550509450509350506106bf816106b9846106b3670de0b6b3a76400006106ad898b610d8590919063ffffffff16565b60405162461bcd60e51b815260040161016290611146565b61083b610d28565b6001600160a01b031661084c61023e565b6001600160a01b0316146108725760405162461bcd60e51b81526004016101629061121c565b6001600160a01b0381166108985760405162461bcd60e51b8152600401610162906110c9565b600080546040516001600160a01b03808516939216917f8be0079c531659141344cd1fd0a4f28419497f9722a3daafe3b4186f6b6457e091a3600080546001600160a01b0319166001600160a01b0392909216919091179055565b600080846001600160a01b0316630dfe16816040518163ffffffff1660e01b815260040160206040518083038186803b15801561092f57600080fd5b505afa158015610943573d6000803e3d6000fd5b505050506040513d601f19601f820116820180604052508101906109679190610e35565b90506000856001600160a01b031663d21220a76040518163ffffffff1660e01b815260040160206040518083038186803b1580156109a457600080fd5b505afa1580156109b8573d6000803e3d6000fd5b505050506040513d601f19601f820116820180604052508101906109dc9190610e35565b90506000876001600160a01b031663f2801fe788876040518363ffffffff1660e01b8152600401610a0e929190611027565b60c06040518083038186803b158015610a2657600080fd5b505afa158015610a3a573d6000803e3d6000fd5b505050506040513d601f19601f82011682018060405250810190610a5e9190610fca565b505050505090508060001415610a7a5760009350505050610236565b826001600160a01b0316866001600160a01b03161415610bd85760405163677de24b60e11b81526000906001600160a01b038a169063cefbc49690610ac3908b90600401611013565b60606040518083038186803b158015610adb57600080fd5b505afa158015610aef573d6000803e3d6000fd5b505050506040513d601f19601f82011682018060405250810190610b139190610f68565b5091505060008060008b6001600160a01b031663f741198f8c8b6040518363ffffffff1660e01b8152600401610b4a929190611027565b60c06040518083038186803b158015610b6257600080fd5b505afa158015610b76573d6000803e3d6000fd5b505050506040513d601f19601f82011682018060405250810190610b9a9190610fca565b509450509350935050610bca816106b9846106b3670de0b6b3a76400006106ad898b610d8590919063ffffffff16565b975050505050505050610236565b816001600160a01b0316866001600160a01b0316141561081b5760405163677de24b60e11b81526000906001600160a01b038a169063cefbc49690610c21908b90600401611013565b60606040518083038186803b158015610c3957600080fd5b505afa158015610c4d573d6000803e3d6000fd5b505050506040513d601f19601f82011682018060405250810190610c719190610f68565b9250505060008060008b6001600160a01b031663f741198f8c8b6040518363ffffffff1660e01b8152600401610ca8929190611027565b60c06040518083038186803b158015610cc057600080fd5b505afa158015610cd4573d6000803e3d6000fd5b505050506040513d601f19601f82011682018060405250810190610cf89190610fca565b955050945050935050610bca816106b9846106b3670de0b6b3a76400006106ad898b610d8590919063ffffffff16565b3390565b600082821115610d4e5760405162461bcd60e51b81526004016101629061116d565b508082035b92915050565b600082820183811015610d7e5760405162461bcd60e51b81526004016101629061110f565b9392505050565b600082610d9457506000610d53565b82820282848281610da157fe5b0414610d7e5760405162461bcd60e51b8152600401610162906111db565b6000808211610de05760405162461bcd60e51b8152600401610162906111a4565b818381610de957fe5b049392505050565b6040518060800160405280600081526020016000815260200160008152602001600081525090565b600060208284031215610e2a578081fd5b8135610d7e8161125a565b600060208284031215610e46578081fd5b8151610d7e8161125a565b600080600060608486031215610e65578182fd5b8335610e708161125a565b92506020840135610e808161125a565b91506040840135610e908161125a565b809150509250925092565b60008060008060808587031215610eb0578081fd5b8435610ebb8161125a565b93506020850135610ecb8161125a565b92506040850135610edb8161125a565b91506060850135610eeb8161125a565b939692955090935050565b600080600080600060a08688031215610f0d578081fd5b8535610f188161125a565b94506020860135610f288161125a565b93506040860135610f388161125a565b94979396509394606081013594506080013592915050565b600060208284031215610f61578081fd5b5051919050565b600080600060608486031215610f7c578283fd5b8351925060208401519150604084015190509250925092565b60008060008060808587031215610faa578384fd5b505082516020840151604085015160609095015191969095509092509050565b60008060008060008060c08789031215610fe2578081fd5b865195506020870151945060408701519350606087015192506080870151915060a087015190509295509295509295565b6001600160a01b0391909116815260200190565b6001600160a01b0392831681529116602082015260400190565b602080825282518282018190526000919060409081850190868401855b828110156110985781518051855286810151878601528581015186860152606090810151908501526080909301929085019060010161105e565b5091979650505050505050565b6001600160a01b039384168152919092166020820152604081019190915260600190565b60208082526026908201527f4f776e61626c653a206e6577206f776e657220697320746865207a65726f206160408201526564647265737360d01b606082015260800190565b6020808252601b908201527f536166654d6174683a206164646974696f6e206f766572666c6f770000000000604082015260600190565b6020808252600d908201526c34b63632b3b0b6103a37b5b2b760991b604082015260600190565b6020808252601e908201527f536166654d6174683a207375627472616374696f6e206f766572666c6f770000604082015260600190565b6020808252601a908201527f536166654d6174683a206469766973696f6e206279207a65726f000000000000604082015260600190565b60208082526021908201527f536166654d6174683a206d756c7469706c69636174696f6e206f766572666c6f6040820152607760f81b606082015260800190565b6020808252818101527f4f776e61626c653a2063616c6c6572206973206e6f7420746865206f776e6572604082015260600190565b90815260200190565b6001600160a01b038116811461126f57600080fd5b5056fea2646970667358221220326544a8dc00b45ee3e3fb523afcfbb03136efd14fd38409d8306aa3ae39dcdd64736f6c63430007020033",
  "devdoc": {
    "kind": "dev",
    "methods": {
      "owner()": {
        "details": "Returns the address of the current owner."
      },
      "renounceOwnership()": {
        "details": "Leaves the contract without owner. It will not be possible to call `onlyOwner` functions anymore. Can only be called by the current owner. NOTE: Renouncing ownership will leave the contract without an owner, thereby removing any functionality that is only available to the owner."
      },
      "transferOwnership(address)": {
        "details": "Transfers ownership of the contract to a new account (`newOwner`). Can only be called by the current owner."
      }
    },
    "version": 1
  },
  "userdoc": {
    "kind": "user",
    "methods": {},
    "version": 1
  },
  "storageLayout": {
    "storage": [
      {
        "astId": 7,
        "contract": "contracts/lens/Lens.sol:Lens",
        "label": "_owner",
        "offset": 0,
        "slot": "0",
        "type": "t_address"
      }
    ],
    "types": {
      "t_address": {
        "encoding": "inplace",
        "label": "address",
        "numberOfBytes": "20"
      }
    }
  }
}