{
  "address": "0x925369C49C59832C6f11EDfBE81C5E075f0dd547",
  "abi": [
    {
      "anonymous": false,
      "inputs": [
        {
          "indexed": true,
          "internalType": "address",
          "name": "previousOwner",
          "type": "address"
        },
        {
          "indexed": true,
          "internalType": "address",
          "name": "newOwner",
          "type": "address"
        }
      ],
      "name": "OwnershipTransferred",
      "type": "event"
    },
    {
      "inputs": [
        {
          "internalType": "contract IMasterChef",
          "name": "_masterChef",
          "type": "address"
        },
        {
          "internalType": "contract IKeplerPair",
          "name": "_pair",
          "type": "address"
        },
        {
          "internalType": "address",
          "name": "_user",
          "type": "address"
        }
      ],
      "name": "getInviteInfo",
      "outputs": [
        {
          "components": [
            {
              "internalType": "string",
              "name": "symbol0",
              "type": "string"
            },
            {
              "internalType": "string",
              "name": "symbol1",
              "type": "string"
            },
            {
              "internalType": "uint256",
              "name": "amount",
              "type": "uint256"
            },
            {
              "internalType": "uint256",
              "name": "shares",
              "type": "uint256"
            },
            {
              "internalType": "uint256",
              "name": "amount0",
              "type": "uint256"
            },
            {
              "internalType": "uint256",
              "name": "amount1",
              "type": "uint256"
            },
            {
              "internalType": "uint256",
              "name": "percent",
              "type": "uint256"
            }
          ],
          "internalType": "struct Lens.MineInfo",
          "name": "mineInfo",
          "type": "tuple"
        }
      ],
      "stateMutability": "view",
      "type": "function"
    },
    {
      "inputs": [
        {
          "internalType": "contract IMasterChef",
          "name": "_masterChef",
          "type": "address"
        },
        {
          "internalType": "contract IKeplerPair",
          "name": "_pair",
          "type": "address"
        },
        {
          "internalType": "address",
          "name": "user",
          "type": "address"
        },
        {
          "internalType": "uint256",
          "name": "from",
          "type": "uint256"
        },
        {
          "internalType": "uint256",
          "name": "size",
          "type": "uint256"
        }
      ],
      "name": "getLockInfo",
      "outputs": [
        {
          "components": [
            {
              "internalType": "uint256",
              "name": "amount",
              "type": "uint256"
            },
            {
              "internalType": "string",
              "name": "symbol0",
              "type": "string"
            },
            {
              "internalType": "string",
              "name": "symbol1",
              "type": "string"
            },
            {
              "internalType": "uint256",
              "name": "amount0",
              "type": "uint256"
            },
            {
              "internalType": "uint256",
              "name": "amount1",
              "type": "uint256"
            },
            {
              "internalType": "uint256",
              "name": "shares",
              "type": "uint256"
            },
            {
              "internalType": "uint256",
              "name": "lockType",
              "type": "uint256"
            },
            {
              "internalType": "uint256",
              "name": "depositAt",
              "type": "uint256"
            },
            {
              "internalType": "uint256",
              "name": "expireAt",
              "type": "uint256"
            }
          ],
          "internalType": "struct Lens.UserLockInfo[]",
          "name": "",
          "type": "tuple[]"
        }
      ],
      "stateMutability": "view",
      "type": "function"
    },
    {
      "inputs": [
        {
          "internalType": "contract IMasterChef",
          "name": "_masterChef",
          "type": "address"
        },
        {
          "internalType": "contract IKeplerPair",
          "name": "_pair",
          "type": "address"
        },
        {
          "internalType": "address",
          "name": "user",
          "type": "address"
        }
      ],
      "name": "getLockInfoLength",
      "outputs": [
        {
          "internalType": "uint256",
          "name": "",
          "type": "uint256"
        }
      ],
      "stateMutability": "view",
      "type": "function"
    },
    {
      "inputs": [
        {
          "internalType": "contract IMasterChef",
          "name": "_masterChef",
          "type": "address"
        },
        {
          "internalType": "contract IKeplerPair",
          "name": "_pair",
          "type": "address"
        },
        {
          "internalType": "address",
          "name": "_user",
          "type": "address"
        }
      ],
      "name": "getMineInfo",
      "outputs": [
        {
          "components": [
            {
              "internalType": "string",
              "name": "symbol0",
              "type": "string"
            },
            {
              "internalType": "string",
              "name": "symbol1",
              "type": "string"
            },
            {
              "internalType": "uint256",
              "name": "amount",
              "type": "uint256"
            },
            {
              "internalType": "uint256",
              "name": "shares",
              "type": "uint256"
            },
            {
              "internalType": "uint256",
              "name": "amount0",
              "type": "uint256"
            },
            {
              "internalType": "uint256",
              "name": "amount1",
              "type": "uint256"
            },
            {
              "internalType": "uint256",
              "name": "percent",
              "type": "uint256"
            }
          ],
          "internalType": "struct Lens.MineInfo",
          "name": "mineInfo",
          "type": "tuple"
        }
      ],
      "stateMutability": "view",
      "type": "function"
    },
    {
      "inputs": [
        {
          "internalType": "contract IKeplerFactory",
          "name": "_factory",
          "type": "address"
        },
        {
          "internalType": "address[]",
          "name": "_path",
          "type": "address[]"
        },
        {
          "internalType": "uint256",
          "name": "amountOut",
          "type": "uint256"
        }
      ],
      "name": "getSwapInfoIn",
      "outputs": [
        {
          "components": [
            {
              "internalType": "uint256",
              "name": "amountIn",
              "type": "uint256"
            },
            {
              "internalType": "uint256",
              "name": "amountOut",
              "type": "uint256"
            },
            {
              "internalType": "uint256",
              "name": "fee",
              "type": "uint256"
            },
            {
              "internalType": "uint256",
              "name": "affect",
              "type": "uint256"
            }
          ],
          "internalType": "struct Lens.SwapInfo",
          "name": "swapInfo",
          "type": "tuple"
        }
      ],
      "stateMutability": "view",
      "type": "function"
    },
    {
      "inputs": [
        {
          "internalType": "contract IKeplerFactory",
          "name": "_factory",
          "type": "address"
        },
        {
          "internalType": "address[]",
          "name": "_path",
          "type": "address[]"
        },
        {
          "internalType": "uint256",
          "name": "amountIn",
          "type": "uint256"
        }
      ],
      "name": "getSwapInfoOut",
      "outputs": [
        {
          "components": [
            {
              "internalType": "uint256",
              "name": "amountIn",
              "type": "uint256"
            },
            {
              "internalType": "uint256",
              "name": "amountOut",
              "type": "uint256"
            },
            {
              "internalType": "uint256",
              "name": "fee",
              "type": "uint256"
            },
            {
              "internalType": "uint256",
              "name": "affect",
              "type": "uint256"
            }
          ],
          "internalType": "struct Lens.SwapInfo",
          "name": "swapInfo",
          "type": "tuple"
        }
      ],
      "stateMutability": "view",
      "type": "function"
    },
    {
      "inputs": [],
      "name": "owner",
      "outputs": [
        {
          "internalType": "address",
          "name": "",
          "type": "address"
        }
      ],
      "stateMutability": "view",
      "type": "function"
    },
    {
      "inputs": [
        {
          "internalType": "contract IInviter",
          "name": "_inviter",
          "type": "address"
        },
        {
          "internalType": "address",
          "name": "_token",
          "type": "address"
        },
        {
          "internalType": "address",
          "name": "_user",
          "type": "address"
        }
      ],
      "name": "pendingInvite",
      "outputs": [
        {
          "internalType": "uint256",
          "name": "",
          "type": "uint256"
        }
      ],
      "stateMutability": "view",
      "type": "function"
    },
    {
      "inputs": [
        {
          "internalType": "contract IMasterChef",
          "name": "_masterChef",
          "type": "address"
        },
        {
          "internalType": "contract IKeplerPair",
          "name": "_pair",
          "type": "address"
        },
        {
          "internalType": "address",
          "name": "_token",
          "type": "address"
        },
        {
          "internalType": "address",
          "name": "_user",
          "type": "address"
        }
      ],
      "name": "pendingInviteMine",
      "outputs": [
        {
          "internalType": "uint256",
          "name": "",
          "type": "uint256"
        }
      ],
      "stateMutability": "view",
      "type": "function"
    },
    {
      "inputs": [
        {
          "internalType": "contract IMasterChef",
          "name": "_masterChef",
          "type": "address"
        },
        {
          "internalType": "contract IKeplerPair",
          "name": "_pair",
          "type": "address"
        },
        {
          "internalType": "address",
          "name": "_token",
          "type": "address"
        },
        {
          "internalType": "address",
          "name": "_user",
          "type": "address"
        }
      ],
      "name": "pendingMine",
      "outputs": [
        {
          "internalType": "uint256",
          "name": "",
          "type": "uint256"
        }
      ],
      "stateMutability": "view",
      "type": "function"
    },
    {
      "inputs": [],
      "name": "renounceOwnership",
      "outputs": [],
      "stateMutability": "nonpayable",
      "type": "function"
    },
    {
      "inputs": [
        {
          "internalType": "address",
          "name": "newOwner",
          "type": "address"
        }
      ],
      "name": "transferOwnership",
      "outputs": [],
      "stateMutability": "nonpayable",
      "type": "function"
    }
  ],
  "transactionHash": "0x346cae74356f8352d6aabe6cdca7c919b08f2c0cc1e6e8e7c79ce0ceaef5d66c",
  "args": [],
  "solcInputHash": "c3fa95800f0261391da7a1d1bbbfcd4d",
  "bytecode": "0x60806040523480156200001157600080fd5b5060006200001e6200006e565b600080546001600160a01b0319166001600160a01b0383169081178255604051929350917f8be0079c531659141344cd1fd0a4f28419497f9722a3daafe3b4186f6b6457e0908290a35062000072565b3390565b61366a80620000826000396000f3fe608060405234801561001057600080fd5b50600436106100b45760003560e01c80639485a210116100715780639485a21014610154578063af3d1ba814610167578063d209fb7b14610187578063f29148901461019a578063f2fde38b146101ad578063f6827539146101c0576100b4565b80631df027b7146100b95780636828d330146100e2578063715018a6146101025780638727b45c1461010c5780638da5cb5b1461011f5780638eb3a82e14610134575b600080fd5b6100cc6100c7366004612ceb565b6101d3565b6040516100d991906134fd565b60405180910390f35b6100f56100f0366004612ceb565b6107a1565b6040516100d991906135a1565b61010a61082a565b005b6100f561011a366004612beb565b6108bc565b6101276108ed565b6040516100d99190612fb8565b610147610142366004612c35565b6108fc565b6040516100d99190613576565b610147610162366004612c35565b610cfe565b61017a610175366004612d5a565b610e0f565b6040516100d99190613033565b6100cc610195366004612ceb565b61152b565b6100f56101a8366004612cff565b611a68565b61010a6101bb366004612b06565b611e22565b6100f56101ce366004612cff565b611ee2565b6101db612a39565b6000836001600160a01b0316630dfe16816040518163ffffffff1660e01b815260040160206040518083038186803b15801561021657600080fd5b505afa15801561022a573d6000803e3d6000fd5b505050506040513d601f19601f8201168201806040525081019061024e9190612b22565b90506000846001600160a01b031663d21220a76040518163ffffffff1660e01b815260040160206040518083038186803b15801561028b57600080fd5b505afa15801561029f573d6000803e3d6000fd5b505050506040513d601f19601f820116820180604052508101906102c39190612b22565b9050816001600160a01b03166395d89b416040518163ffffffff1660e01b815260040160006040518083038186803b1580156102fe57600080fd5b505afa158015610312573d6000803e3d6000fd5b505050506040513d6000823e601f3d908101601f1916820160405261033a9190810190612db4565b8360000181905250806001600160a01b03166395d89b416040518163ffffffff1660e01b815260040160006040518083038186803b15801561037b57600080fd5b505afa15801561038f573d6000803e3d6000fd5b505050506040513d6000823e601f3d908101601f191682016040526103b79190810190612db4565b602084015260405163f741198f60e01b81526001600160a01b0387169063f741198f906103ea9088908890600401612fcc565b60c06040518083038186803b15801561040257600080fd5b505afa158015610416573d6000803e3d6000fd5b505050506040513d601f19601f8201168201806040525081019061043a9190612ee4565b5050505060608501526040808501919091528051630dfe168160e01b815290516000916001600160a01b03881691630dfe168191600480820192602092909190829003018186803b15801561048e57600080fd5b505afa1580156104a2573d6000803e3d6000fd5b505050506040513d601f19601f820116820180604052508101906104c69190612b22565b6001600160a01b03166370a08231876040518263ffffffff1660e01b81526004016104f19190612fb8565b60206040518083038186803b15801561050957600080fd5b505afa15801561051d573d6000803e3d6000fd5b505050506040513d601f19601f820116820180604052508101906105419190612bd3565b90506000866001600160a01b031663d21220a76040518163ffffffff1660e01b815260040160206040518083038186803b15801561057e57600080fd5b505afa158015610592573d6000803e3d6000fd5b505050506040513d601f19601f820116820180604052508101906105b69190612b22565b6001600160a01b03166370a08231886040518263ffffffff1660e01b81526004016105e19190612fb8565b60206040518083038186803b1580156105f957600080fd5b505afa15801561060d573d6000803e3d6000fd5b505050506040513d601f19601f820116820180604052508101906106319190612bd3565b90506000876001600160a01b03166318160ddd6040518163ffffffff1660e01b815260040160206040518083038186803b15801561066e57600080fd5b505afa158015610682573d6000803e3d6000fd5b505050506040513d601f19601f820116820180604052508101906106a69190612bd3565b90506106c9816106c385896040015161231790919063ffffffff16565b9061235a565b608087015260408601516106e39082906106c39085612317565b60a087015260405163677de24b60e11b81526000906001600160a01b038b169063cefbc49690610717908c90600401612fb8565b60606040518083038186803b15801561072f57600080fd5b505afa158015610743573d6000803e3d6000fd5b505050506040513d601f19601f820116820180604052508101906107679190612e78565b5050905061078e816106c3670de0b6b3a76400008a6060015161231790919063ffffffff16565b60c0880152509498975050505050505050565b604051630cb1c87b60e31b81526000906001600160a01b0385169063658e43d8906107d29086908690600401612fcc565b60206040518083038186803b1580156107ea57600080fd5b505afa1580156107fe573d6000803e3d6000fd5b505050506040513d601f19601f820116820180604052508101906108229190612bd3565b949350505050565b61083261238c565b6001600160a01b03166108436108ed565b6001600160a01b0316146108725760405162461bcd60e51b815260040161086990613389565b60405180910390fd5b600080546040516001600160a01b03909116907f8be0079c531659141344cd1fd0a4f28419497f9722a3daafe3b4186f6b6457e0908390a3600080546001600160a01b0319169055565b6040516367dd2f7d60e01b81526000906001600160a01b038516906367dd2f7d906107d29085908790600401612fcc565b6000546001600160a01b031690565b610904612a76565b81815260405163372dad2160e21b81526060906001600160a01b0386169063dcb6b48490610936908790600401612fe6565b60006040518083038186803b15801561094e57600080fd5b505afa158015610962573d6000803e3d6000fd5b505050506040513d6000823e601f3d908101601f1916820160405261098a9190810190612b3e565b90506109b96103e86106c385846000815181106109a357fe5b602002602001015161231790919063ffffffff16565b604083015260606109cc86858785612390565b9050806001825103815181106109de57fe5b6020026020010151836020018181525050600080876001600160a01b031663e6a4390588600081518110610a0e57fe5b602002602001015189600181518110610a2357fe5b60200260200101516040518363ffffffff1660e01b8152600401610a48929190612fcc565b60206040518083038186803b158015610a6057600080fd5b505afa158015610a74573d6000803e3d6000fd5b505050506040513d601f19601f82011682018060405250810190610a989190612b22565b6001600160a01b0316630902f1ac6040518163ffffffff1660e01b815260040160606040518083038186803b158015610ad057600080fd5b505afa158015610ae4573d6000803e3d6000fd5b505050506040513d601f19601f82011682018060405250810190610b089190612e35565b506001600160701b031691506001600160701b031691506000886001600160a01b031663e6a4390589600081518110610b3d57fe5b60200260200101518a600181518110610b5257fe5b60200260200101516040518363ffffffff1660e01b8152600401610b77929190612fcc565b60206040518083038186803b158015610b8f57600080fd5b505afa158015610ba3573d6000803e3d6000fd5b505050506040513d601f19601f82011682018060405250810190610bc79190612b22565b6001600160a01b0316630dfe16816040518163ffffffff1660e01b815260040160206040518083038186803b158015610bff57600080fd5b505afa158015610c13573d6000803e3d6000fd5b505050506040513d601f19601f82011682018060405250810190610c379190612b22565b6001600160a01b031688600081518110610c4d57fe5b60200260200101516001600160a01b031614610c695781610c6b565b825b9050610cec610cb5610cae87600081518110610c8357fe5b602002602001015187600081518110610c9857fe5b60200260200101516124dd90919063ffffffff16565b8390612505565b6106c3670de0b6b3a7640000610ce689600081518110610cd157fe5b602002602001015189600081518110610c9857fe5b90612317565b60608701525093979650505050505050565b610d06612a76565b6020810182905260405163372dad2160e21b81526060906001600160a01b0386169063dcb6b48490610d3c908790600401612fe6565b60006040518083038186803b158015610d5457600080fd5b505afa158015610d68573d6000803e3d6000fd5b505050506040513d6000823e601f3d908101601f19168201604052610d909190810190612b3e565b90506060610da08685878561252a565b9050610dcd6103e86106c383600081518110610db857fe5b6020026020010151856000815181106109a357fe5b604084015280518190600090610ddf57fe5b6020026020010151836000018181525050600080876001600160a01b031663e6a4390588600081518110610a0e57fe5b606080856001600160a01b0316630dfe16816040518163ffffffff1660e01b815260040160206040518083038186803b158015610e4b57600080fd5b505afa158015610e5f573d6000803e3d6000fd5b505050506040513d601f19601f82011682018060405250810190610e839190612b22565b6001600160a01b03166395d89b416040518163ffffffff1660e01b815260040160006040518083038186803b158015610ebb57600080fd5b505afa158015610ecf573d6000803e3d6000fd5b505050506040513d6000823e601f3d908101601f19168201604052610ef79190810190612db4565b90506060866001600160a01b031663d21220a76040518163ffffffff1660e01b815260040160206040518083038186803b158015610f3457600080fd5b505afa158015610f48573d6000803e3d6000fd5b505050506040513d601f19601f82011682018060405250810190610f6c9190612b22565b6001600160a01b03166395d89b416040518163ffffffff1660e01b815260040160006040518083038186803b158015610fa457600080fd5b505afa158015610fb8573d6000803e3d6000fd5b505050506040513d6000823e601f3d908101601f19168201604052610fe09190810190612db4565b90506000876001600160a01b0316630dfe16816040518163ffffffff1660e01b815260040160206040518083038186803b15801561101d57600080fd5b505afa158015611031573d6000803e3d6000fd5b505050506040513d601f19601f820116820180604052508101906110559190612b22565b6001600160a01b03166370a08231896040518263ffffffff1660e01b81526004016110809190612fb8565b60206040518083038186803b15801561109857600080fd5b505afa1580156110ac573d6000803e3d6000fd5b505050506040513d601f19601f820116820180604052508101906110d09190612bd3565b90506000886001600160a01b031663d21220a76040518163ffffffff1660e01b815260040160206040518083038186803b15801561110d57600080fd5b505afa158015611121573d6000803e3d6000fd5b505050506040513d601f19601f820116820180604052508101906111459190612b22565b6001600160a01b03166370a082318a6040518263ffffffff1660e01b81526004016111709190612fb8565b60206040518083038186803b15801561118857600080fd5b505afa15801561119c573d6000803e3d6000fd5b505050506040513d601f19601f820116820180604052508101906111c09190612bd3565b90506000896001600160a01b03166318160ddd6040518163ffffffff1660e01b815260040160206040518083038186803b1580156111fd57600080fd5b505afa158015611211573d6000803e3d6000fd5b505050506040513d601f19601f820116820180604052508101906112359190612bd3565b905060008b6001600160a01b031663658e43d88c8c6040518363ffffffff1660e01b8152600401611267929190612fcc565b60206040518083038186803b15801561127f57600080fd5b505afa158015611293573d6000803e3d6000fd5b505050506040513d601f19601f820116820180604052508101906112b79190612bd3565b9050876112c4828b6124dd565b116112d8576112d3818a6124dd565b6112da565b875b975060608867ffffffffffffffff811180156112f557600080fd5b5060405190808252806020026020018201604052801561132f57816020015b61131c612a9e565b8152602001906001900390816113145790505b50905060008a5b6113408c8c612505565b811015611518578e6001600160a01b03166308cc72d88f8f846040518463ffffffff1660e01b8152600401611377939291906130ff565b60a06040518083038186803b15801561138f57600080fd5b505afa1580156113a3573d6000803e3d6000fd5b505050506040513d601f19601f820116820180604052508101906113c79190612ea5565b8787815181106113d357fe5b60200260200101516000018888815181106113ea57fe5b602002602001015160a00189898151811061140157fe5b602002602001015160c0018a8a8151811061141857fe5b602002602001015160e0018b8b8151811061142f57fe5b60209081029190910101516101000194909452939092529290915291909152528251899084908490811061145f57fe5b6020026020010151602001819052508783838151811061147b57fe5b6020026020010151604001819052506114b8856106c38986868151811061149e57fe5b60200260200101516000015161231790919063ffffffff16565b8383815181106114c457fe5b602002602001015160600181815250506114e8856106c38886868151811061149e57fe5b8383815181106114f457fe5b60209081029190910101516080015261150e826001612505565b9150600101611336565b50909d9c50505050505050505050505050565b611533612a39565b6000836001600160a01b0316630dfe16816040518163ffffffff1660e01b815260040160206040518083038186803b15801561156e57600080fd5b505afa158015611582573d6000803e3d6000fd5b505050506040513d601f19601f820116820180604052508101906115a69190612b22565b90506000846001600160a01b031663d21220a76040518163ffffffff1660e01b815260040160206040518083038186803b1580156115e357600080fd5b505afa1580156115f7573d6000803e3d6000fd5b505050506040513d601f19601f8201168201806040525081019061161b9190612b22565b9050816001600160a01b03166395d89b416040518163ffffffff1660e01b815260040160006040518083038186803b15801561165657600080fd5b505afa15801561166a573d6000803e3d6000fd5b505050506040513d6000823e601f3d908101601f191682016040526116929190810190612db4565b8360000181905250806001600160a01b03166395d89b416040518163ffffffff1660e01b815260040160006040518083038186803b1580156116d357600080fd5b505afa1580156116e7573d6000803e3d6000fd5b505050506040513d6000823e601f3d908101601f1916820160405261170f9190810190612db4565b602084015260405163f2801fe760e01b81526001600160a01b0387169063f2801fe7906117429088908890600401612fcc565b60c06040518083038186803b15801561175a57600080fd5b505afa15801561176e573d6000803e3d6000fd5b505050506040513d601f19601f820116820180604052508101906117929190612ee4565b5050505060608501526040808501919091528051630dfe168160e01b815290516000916001600160a01b03881691630dfe168191600480820192602092909190829003018186803b1580156117e657600080fd5b505afa1580156117fa573d6000803e3d6000fd5b505050506040513d601f19601f8201168201806040525081019061181e9190612b22565b6001600160a01b03166370a08231876040518263ffffffff1660e01b81526004016118499190612fb8565b60206040518083038186803b15801561186157600080fd5b505afa158015611875573d6000803e3d6000fd5b505050506040513d601f19601f820116820180604052508101906118999190612bd3565b90506000866001600160a01b031663d21220a76040518163ffffffff1660e01b815260040160206040518083038186803b1580156118d657600080fd5b505afa1580156118ea573d6000803e3d6000fd5b505050506040513d601f19601f8201168201806040525081019061190e9190612b22565b6001600160a01b03166370a08231886040518263ffffffff1660e01b81526004016119399190612fb8565b60206040518083038186803b15801561195157600080fd5b505afa158015611965573d6000803e3d6000fd5b505050506040513d601f19601f820116820180604052508101906119899190612bd3565b90506000876001600160a01b03166318160ddd6040518163ffffffff1660e01b815260040160206040518083038186803b1580156119c657600080fd5b505afa1580156119da573d6000803e3d6000fd5b505050506040513d601f19601f820116820180604052508101906119fe9190612bd3565b9050611a1b816106c385896040015161231790919063ffffffff16565b60808701526040860151611a359082906106c39085612317565b60a087015260405162d7f52760e31b81526000906001600160a01b038b16906306bfa93890610717908c90600401612fb8565b600080846001600160a01b0316630dfe16816040518163ffffffff1660e01b815260040160206040518083038186803b158015611aa457600080fd5b505afa158015611ab8573d6000803e3d6000fd5b505050506040513d601f19601f82011682018060405250810190611adc9190612b22565b90506000856001600160a01b031663d21220a76040518163ffffffff1660e01b815260040160206040518083038186803b158015611b1957600080fd5b505afa158015611b2d573d6000803e3d6000fd5b505050506040513d601f19601f82011682018060405250810190611b519190612b22565b9050816001600160a01b0316856001600160a01b03161415611cbb5760405162d7f52760e31b81526000906001600160a01b038916906306bfa93890611b9b908a90600401612fb8565b60606040518083038186803b158015611bb357600080fd5b505afa158015611bc7573d6000803e3d6000fd5b505050506040513d601f19601f82011682018060405250810190611beb9190612e78565b5091505060008060008a6001600160a01b031663f2801fe78b8a6040518363ffffffff1660e01b8152600401611c22929190612fcc565b60c06040518083038186803b158015611c3a57600080fd5b505afa158015611c4e573d6000803e3d6000fd5b505050506040513d601f19601f82011682018060405250810190611c729190612ee4565b509450509350935050611cae81611ca884611ca2670de0b6b3a76400006106c3898b61231790919063ffffffff16565b906124dd565b90612505565b9650505050505050610822565b806001600160a01b0316856001600160a01b03161415611e0a5760405162d7f52760e31b81526000906001600160a01b038916906306bfa93890611d03908a90600401612fb8565b60606040518083038186803b158015611d1b57600080fd5b505afa158015611d2f573d6000803e3d6000fd5b505050506040513d601f19601f82011682018060405250810190611d539190612e78565b9250505060008060008a6001600160a01b031663f2801fe78b8a6040518363ffffffff1660e01b8152600401611d8a929190612fcc565b60c06040518083038186803b158015611da257600080fd5b505afa158015611db6573d6000803e3d6000fd5b505050506040513d601f19601f82011682018060405250810190611dda9190612ee4565b955050945050935050611cae81611ca884611ca2670de0b6b3a76400006106c3898b61231790919063ffffffff16565b60405162461bcd60e51b815260040161086990613270565b611e2a61238c565b6001600160a01b0316611e3b6108ed565b6001600160a01b031614611e615760405162461bcd60e51b815260040161086990613389565b6001600160a01b038116611e875760405162461bcd60e51b8152600401610869906131a9565b600080546040516001600160a01b03808516939216917f8be0079c531659141344cd1fd0a4f28419497f9722a3daafe3b4186f6b6457e091a3600080546001600160a01b0319166001600160a01b0392909216919091179055565b600080846001600160a01b0316630dfe16816040518163ffffffff1660e01b815260040160206040518083038186803b158015611f1e57600080fd5b505afa158015611f32573d6000803e3d6000fd5b505050506040513d601f19601f82011682018060405250810190611f569190612b22565b90506000856001600160a01b031663d21220a76040518163ffffffff1660e01b815260040160206040518083038186803b158015611f9357600080fd5b505afa158015611fa7573d6000803e3d6000fd5b505050506040513d601f19601f82011682018060405250810190611fcb9190612b22565b90506000876001600160a01b031663f2801fe788876040518363ffffffff1660e01b8152600401611ffd929190612fcc565b60c06040518083038186803b15801561201557600080fd5b505afa158015612029573d6000803e3d6000fd5b505050506040513d601f19601f8201168201806040525081019061204d9190612ee4565b5050505050905080600014156120695760009350505050610822565b826001600160a01b0316866001600160a01b031614156121c75760405163677de24b60e11b81526000906001600160a01b038a169063cefbc496906120b2908b90600401612fb8565b60606040518083038186803b1580156120ca57600080fd5b505afa1580156120de573d6000803e3d6000fd5b505050506040513d601f19601f820116820180604052508101906121029190612e78565b5091505060008060008b6001600160a01b031663f741198f8c8b6040518363ffffffff1660e01b8152600401612139929190612fcc565b60c06040518083038186803b15801561215157600080fd5b505afa158015612165573d6000803e3d6000fd5b505050506040513d601f19601f820116820180604052508101906121899190612ee4565b5094505093509350506121b981611ca884611ca2670de0b6b3a76400006106c3898b61231790919063ffffffff16565b975050505050505050610822565b816001600160a01b0316866001600160a01b03161415611e0a5760405163677de24b60e11b81526000906001600160a01b038a169063cefbc49690612210908b90600401612fb8565b60606040518083038186803b15801561222857600080fd5b505afa15801561223c573d6000803e3d6000fd5b505050506040513d601f19601f820116820180604052508101906122609190612e78565b9250505060008060008b6001600160a01b031663f741198f8c8b6040518363ffffffff1660e01b8152600401612297929190612fcc565b60c06040518083038186803b1580156122af57600080fd5b505afa1580156122c3573d6000803e3d6000fd5b505050506040513d601f19601f820116820180604052508101906122e79190612ee4565b9550509450509350506121b981611ca884611ca2670de0b6b3a76400006106c3898b61231790919063ffffffff16565b60008261232657506000612354565b8282028284828161233357fe5b04146123515760405162461bcd60e51b815260040161086990613348565b90505b92915050565b600080821161237b5760405162461bcd60e51b8152600401610869906132ce565b81838161238457fe5b049392505050565b3390565b60606002835110156123b45760405162461bcd60e51b8152600401610869906133be565b81518351146123d55760405162461bcd60e51b815260040161086990613123565b825167ffffffffffffffff811180156123ed57600080fd5b50604051908082528060200260200182016040528015612417578160200160208202803683370190505b509050838160008151811061242857fe5b60200260200101818152505060005b60018451038110156124d45760008061247a8887858151811061245657fe5b602002602001015188866001018151811061246d57fe5b6020026020010151612665565b915091506124b084848151811061248d57fe5b602002602001015183838887815181106124a357fe5b602002602001015161274a565b8484600101815181106124bf57fe5b60209081029190910101525050600101612437565b50949350505050565b6000828211156124ff5760405162461bcd60e51b815260040161086990613297565b50900390565b6000828201838110156123515760405162461bcd60e51b815260040161086990613239565b606060028351101561254e5760405162461bcd60e51b8152600401610869906133be565b815183511461256f5760405162461bcd60e51b815260040161086990613123565b825167ffffffffffffffff8111801561258757600080fd5b506040519080825280602002602001820160405280156125b1578160200160208202803683370190505b50905083816001835103815181106125c557fe5b60209081029190910101528251600019015b80156124d457600080612607888760018603815181106125f357fe5b602002602001015188868151811061246d57fe5b9150915061264084848151811061261a57fe5b6020026020010151838388600188038151811061263357fe5b602002602001015161280c565b84600185038151811061264f57fe5b60209081029190910101525050600019016125d7565b600080600061267485856128cd565b509050612682868686612957565b50600080612691888888612957565b6001600160a01b0316630902f1ac6040518163ffffffff1660e01b815260040160606040518083038186803b1580156126c957600080fd5b505afa1580156126dd573d6000803e3d6000fd5b505050506040513d601f19601f820116820180604052508101906127019190612e35565b506001600160701b031691506001600160701b03169150826001600160a01b0316876001600160a01b03161461273857808261273b565b81815b90999098509650505050505050565b60006103e882111561276e5760405162461bcd60e51b8152600401610869906133f5565b6000851161278e5760405162461bcd60e51b8152600401610869906134b5565b60008411801561279e5750600083115b6127ba5760405162461bcd60e51b815260040161086990613164565b60006127d26127cb6103e8856124dd565b8790612317565b905060006127e08286612317565b905060006127f483611ca8896103e8612317565b90508082816127ff57fe5b0498975050505050505050565b60006103e88211156128305760405162461bcd60e51b8152600401610869906133f5565b600085116128505760405162461bcd60e51b8152600401610869906131ef565b6000841180156128605750600083115b61287c5760405162461bcd60e51b81526004016108699061346f565b600061288e6103e8610ce68789612317565b905060006128ab6128a16103e8866124dd565b610ce6878a6124dd565b90506128c260018284816128bb57fe5b0490612505565b979650505050505050565b600080826001600160a01b0316846001600160a01b031614156129025760405162461bcd60e51b815260040161086990613305565b826001600160a01b0316846001600160a01b031610612922578284612925565b83835b90925090506001600160a01b0382166129505760405162461bcd60e51b815260040161086990613438565b9250929050565b600080600061296685856128cd565b9150915085828260405160200161297e929190612f59565b60405160208183030381529060405280519060200120876001600160a01b0316635855a25a6040518163ffffffff1660e01b815260040160206040518083038186803b1580156129cd57600080fd5b505afa1580156129e1573d6000803e3d6000fd5b505050506040513d601f19601f82011682018060405250810190612a059190612bd3565b604051602001612a1793929190612f80565b60408051601f1981840301815291905280516020909101209695505050505050565b6040518060e00160405280606081526020016060815260200160008152602001600081526020016000815260200160008152602001600081525090565b6040518060800160405280600081526020016000815260200160008152602001600081525090565b6040518061012001604052806000815260200160608152602001606081526020016000815260200160008152602001600081526020016000815260200160008152602001600081525090565b80516001600160701b0381168114612b0157600080fd5b919050565b600060208284031215612b17578081fd5b81356123518161361c565b600060208284031215612b33578081fd5b81516123518161361c565b60006020808385031215612b50578182fd5b825167ffffffffffffffff811115612b66578283fd5b8301601f81018513612b76578283fd5b8051612b89612b84826135ce565b6135aa565b8181528381019083850185840285018601891015612ba5578687fd5b8694505b83851015612bc7578051835260019490940193918501918501612ba9565b50979650505050505050565b600060208284031215612be4578081fd5b5051919050565b600080600060608486031215612bff578182fd5b8335612c0a8161361c565b92506020840135612c1a8161361c565b91506040840135612c2a8161361c565b809150509250925092565b600080600060608486031215612c49578283fd5b8335612c548161361c565b925060208481013567ffffffffffffffff811115612c70578384fd5b8501601f81018713612c80578384fd5b8035612c8e612b84826135ce565b81815283810190838501858402850186018b1015612caa578788fd5b8794505b83851015612cd5578035612cc18161361c565b835260019490940193918501918501612cae565b5096999698505050506040949094013593505050565b600080600060608486031215612bff578283fd5b60008060008060808587031215612d14578081fd5b8435612d1f8161361c565b93506020850135612d2f8161361c565b92506040850135612d3f8161361c565b91506060850135612d4f8161361c565b939692955090935050565b600080600080600060a08688031215612d71578081fd5b8535612d7c8161361c565b94506020860135612d8c8161361c565b93506040860135612d9c8161361c565b94979396509394606081013594506080013592915050565b600060208284031215612dc5578081fd5b815167ffffffffffffffff80821115612ddc578283fd5b818401915084601f830112612def578283fd5b815181811115612dfb57fe5b612e0e601f8201601f19166020016135aa565b9150808252856020828501011115612e24578384fd5b6124d48160208401602086016135ec565b600080600060608486031215612e49578081fd5b612e5284612aea565b9250612e6060208501612aea565b9150604084015163ffffffff81168114612c2a578182fd5b600080600060608486031215612e8c578081fd5b8351925060208401519150604084015190509250925092565b600080600080600060a08688031215612ebc578283fd5b5050835160208501516040860151606087015160809097015192989197509594509092509050565b60008060008060008060c08789031215612efc578384fd5b865195506020870151945060408701519350606087015192506080870151915060a087015190509295509295509295565b60008151808452612f458160208601602086016135ec565b601f01601f19169290920160200192915050565b6bffffffffffffffffffffffff19606093841b811682529190921b16601482015260280190565b6001600160f81b0319815260609390931b6bffffffffffffffffffffffff191660018401526015830191909152603582015260550190565b6001600160a01b0391909116815260200190565b6001600160a01b0392831681529116602082015260400190565b6020808252825182820181905260009190848201906040850190845b818110156130275783516001600160a01b031683529284019291840191600101613002565b50909695505050505050565b60208082528251828201819052600091906040908185019080840286018301878501865b838110156130f157603f1989840301855281516101208151855288820151818a87015261308682870182612f2d565b915050878201518582038987015261309e8282612f2d565b606084810151908801526080808501519088015260a0808501519088015260c0808501519088015260e0808501519088015261010093840151939096019290925250509386019390860190600101613057565b509098975050505050505050565b6001600160a01b039384168152919092166020820152604081019190915260600190565b60208082526021908201527f4b65706c65724c6962726172793a20494e56414c49445f4645455f4c454e47546040820152600960fb1b606082015260800190565b60208082526025908201527f4b65706c65724c6962726172793a20494e53554646494349454e545f4c495155604082015264494449545960d81b606082015260800190565b60208082526026908201527f4f776e61626c653a206e6577206f776e657220697320746865207a65726f206160408201526564647265737360d01b606082015260800190565b6020808252602a908201527f50616e63616b654c6962726172793a20494e53554646494349454e545f4f555460408201526914155517d05353d5539560b21b606082015260800190565b6020808252601b908201527f536166654d6174683a206164646974696f6e206f766572666c6f770000000000604082015260600190565b6020808252600d908201526c34b63632b3b0b6103a37b5b2b760991b604082015260600190565b6020808252601e908201527f536166654d6174683a207375627472616374696f6e206f766572666c6f770000604082015260600190565b6020808252601a908201527f536166654d6174683a206469766973696f6e206279207a65726f000000000000604082015260600190565b60208082526023908201527f50616e63616b654c6962726172793a204944454e544943414c5f41444452455360408201526253455360e81b606082015260800190565b60208082526021908201527f536166654d6174683a206d756c7469706c69636174696f6e206f766572666c6f6040820152607760f81b606082015260800190565b6020808252818101527f4f776e61626c653a2063616c6c6572206973206e6f7420746865206f776e6572604082015260600190565b6020808252601b908201527f4b65706c65724c6962726172793a20494e56414c49445f504154480000000000604082015260600190565b60208082526023908201527f4b65706c65724c6962726172793a20494c4c4547414c5f5452414e534645525f60408201526246454560e81b606082015260800190565b6020808252601c908201527f50616e63616b654c6962726172793a205a45524f5f4144445245535300000000604082015260600190565b60208082526026908201527f50616e63616b654c6962726172793a20494e53554646494349454e545f4c495160408201526555494449545960d01b606082015260800190565b60208082526028908201527f4b65706c65724c6962726172793a20494e53554646494349454e545f494e50556040820152671517d05353d5539560c21b606082015260800190565b600060208252825160e0602084015261351a610100840182612f2d565b90506020840151601f198483030160408501526135378282612f2d565b9150506040840151606084015260608401516080840152608084015160a084015260a084015160c084015260c084015160e08401528091505092915050565b8151815260208083015190820152604080830151908201526060918201519181019190915260800190565b90815260200190565b60405181810167ffffffffffffffff811182821017156135c657fe5b604052919050565b600067ffffffffffffffff8211156135e257fe5b5060209081020190565b60005b838110156136075781810151838201526020016135ef565b83811115613616576000848401525b50505050565b6001600160a01b038116811461363157600080fd5b5056fea2646970667358221220010c4050ad3268ec9fe4a29ab4482ba205e82f088d23eba0293a37611c83887664736f6c63430007020033",
  "devdoc": {
    "kind": "dev",
    "methods": {
      "owner()": {
        "details": "Returns the address of the current owner."
      },
      "renounceOwnership()": {
        "details": "Leaves the contract without owner. It will not be possible to call `onlyOwner` functions anymore. Can only be called by the current owner. NOTE: Renouncing ownership will leave the contract without an owner, thereby removing any functionality that is only available to the owner."
      },
      "transferOwnership(address)": {
        "details": "Transfers ownership of the contract to a new account (`newOwner`). Can only be called by the current owner."
      }
    },
    "version": 1
  },
  "userdoc": {
    "kind": "user",
    "methods": {},
    "version": 1
  },
  "storageLayout": {
    "storage": [
      {
        "astId": 7,
        "contract": "contracts/lens/Lens.sol:Lens",
        "label": "_owner",
        "offset": 0,
        "slot": "0",
        "type": "t_address"
      }
    ],
    "types": {
      "t_address": {
        "encoding": "inplace",
        "label": "address",
        "numberOfBytes": "20"
      }
    }
  }
}