{
  "address": "0x6D28b19ee1C6e9731E5392b27484B4269075DC50",
  "abi": [
    {
      "anonymous": false,
      "inputs": [
        {
          "indexed": true,
          "internalType": "address",
          "name": "previousOwner",
          "type": "address"
        },
        {
          "indexed": true,
          "internalType": "address",
          "name": "newOwner",
          "type": "address"
        }
      ],
      "name": "OwnershipTransferred",
      "type": "event"
    },
    {
      "inputs": [
        {
          "internalType": "contract IMasterChef",
          "name": "_masterChef",
          "type": "address"
        },
        {
          "internalType": "contract IKeplerPair",
          "name": "_pair",
          "type": "address"
        },
        {
          "internalType": "address",
          "name": "user",
          "type": "address"
        },
        {
          "internalType": "uint256",
          "name": "from",
          "type": "uint256"
        },
        {
          "internalType": "uint256",
          "name": "size",
          "type": "uint256"
        }
      ],
      "name": "getLockInfo",
      "outputs": [
        {
          "components": [
            {
              "internalType": "uint256",
              "name": "amount",
              "type": "uint256"
            },
            {
              "internalType": "string",
              "name": "symbol0",
              "type": "string"
            },
            {
              "internalType": "string",
              "name": "symbol1",
              "type": "string"
            },
            {
              "internalType": "uint256",
              "name": "amount0",
              "type": "uint256"
            },
            {
              "internalType": "uint256",
              "name": "amount1",
              "type": "uint256"
            },
            {
              "internalType": "uint256",
              "name": "shares",
              "type": "uint256"
            },
            {
              "internalType": "uint256",
              "name": "lockType",
              "type": "uint256"
            },
            {
              "internalType": "uint256",
              "name": "depositAt",
              "type": "uint256"
            },
            {
              "internalType": "uint256",
              "name": "expireAt",
              "type": "uint256"
            }
          ],
          "internalType": "struct Lens.UserLockInfo[]",
          "name": "",
          "type": "tuple[]"
        }
      ],
      "stateMutability": "view",
      "type": "function"
    },
    {
      "inputs": [
        {
          "internalType": "contract IMasterChef",
          "name": "_masterChef",
          "type": "address"
        },
        {
          "internalType": "contract IKeplerPair",
          "name": "_pair",
          "type": "address"
        },
        {
          "internalType": "address",
          "name": "user",
          "type": "address"
        },
        {
          "internalType": "uint256",
          "name": "from",
          "type": "uint256"
        },
        {
          "internalType": "uint256",
          "name": "size",
          "type": "uint256"
        }
      ],
      "name": "getLockInfoLength",
      "outputs": [
        {
          "internalType": "uint256",
          "name": "",
          "type": "uint256"
        }
      ],
      "stateMutability": "view",
      "type": "function"
    },
    {
      "inputs": [],
      "name": "owner",
      "outputs": [
        {
          "internalType": "address",
          "name": "",
          "type": "address"
        }
      ],
      "stateMutability": "view",
      "type": "function"
    },
    {
      "inputs": [
        {
          "internalType": "contract IInviter",
          "name": "_inviter",
          "type": "address"
        },
        {
          "internalType": "address",
          "name": "_token",
          "type": "address"
        },
        {
          "internalType": "address",
          "name": "_user",
          "type": "address"
        }
      ],
      "name": "pendingInvite",
      "outputs": [
        {
          "internalType": "uint256",
          "name": "",
          "type": "uint256"
        }
      ],
      "stateMutability": "view",
      "type": "function"
    },
    {
      "inputs": [
        {
          "internalType": "contract IMasterChef",
          "name": "_masterChef",
          "type": "address"
        },
        {
          "internalType": "contract IKeplerPair",
          "name": "_pair",
          "type": "address"
        },
        {
          "internalType": "address",
          "name": "_token",
          "type": "address"
        },
        {
          "internalType": "address",
          "name": "_user",
          "type": "address"
        }
      ],
      "name": "pendingInviteMine",
      "outputs": [
        {
          "internalType": "uint256",
          "name": "",
          "type": "uint256"
        }
      ],
      "stateMutability": "view",
      "type": "function"
    },
    {
      "inputs": [
        {
          "internalType": "contract IMasterChef",
          "name": "_masterChef",
          "type": "address"
        },
        {
          "internalType": "contract IKeplerPair",
          "name": "_pair",
          "type": "address"
        },
        {
          "internalType": "address",
          "name": "_token",
          "type": "address"
        },
        {
          "internalType": "address",
          "name": "_user",
          "type": "address"
        }
      ],
      "name": "pendingMine",
      "outputs": [
        {
          "internalType": "uint256",
          "name": "",
          "type": "uint256"
        }
      ],
      "stateMutability": "view",
      "type": "function"
    },
    {
      "inputs": [],
      "name": "renounceOwnership",
      "outputs": [],
      "stateMutability": "nonpayable",
      "type": "function"
    },
    {
      "inputs": [
        {
          "internalType": "address",
          "name": "newOwner",
          "type": "address"
        }
      ],
      "name": "transferOwnership",
      "outputs": [],
      "stateMutability": "nonpayable",
      "type": "function"
    }
  ],
  "transactionHash": "0x22d874e0a4b46b3a3a6dd3d0edc553f7225781ba52655ba7f105175709f64e35",
  "args": [],
  "solcInputHash": "84e38f5b2453e204c4c0a80a2833b655",
  "bytecode": "0x608060405234801561001057600080fd5b50600061001b61006a565b600080546001600160a01b0319166001600160a01b0383169081178255604051929350917f8be0079c531659141344cd1fd0a4f28419497f9722a3daafe3b4186f6b6457e0908290a35061006e565b3390565b6119c68061007d6000396000f3fe608060405234801561001057600080fd5b50600436106100885760003560e01c8063af3d1ba81161005b578063af3d1ba8146100e8578063f291489014610108578063f2fde38b1461011b578063f68275391461012e57610088565b806359d2b6c61461008d578063715018a6146100b65780638727b45c146100c05780638da5cb5b146100d3575b600080fd5b6100a061009b3660046114b9565b610141565b6040516100ad919061193f565b60405180910390f35b6100be6101cc565b005b6100a06100ce366004611414565b61025e565b6100db6102e7565b6040516100ad9190611699565b6100fb6100f63660046114b9565b6102f6565b6040516100ad91906116c7565b6100a061011636600461145e565b610a18565b6100be6101293660046113dc565b610dd2565b6100a061013c36600461145e565b610e92565b604051630cb1c87b60e31b81526000906001600160a01b0387169063658e43d89061017290889088906004016116ad565b60206040518083038186803b15801561018a57600080fd5b505afa15801561019e573d6000803e3d6000fd5b505050506040513d601f19601f820116820180604052508101906101c291906115a0565b9695505050505050565b6101d46112c7565b6001600160a01b03166101e56102e7565b6001600160a01b0316146102145760405162461bcd60e51b815260040161020b9061190a565b60405180910390fd5b600080546040516001600160a01b03909116907f8be0079c531659141344cd1fd0a4f28419497f9722a3daafe3b4186f6b6457e0908390a3600080546001600160a01b0319169055565b6040516367dd2f7d60e01b81526000906001600160a01b038516906367dd2f7d9061028f90859087906004016116ad565b60206040518083038186803b1580156102a757600080fd5b505afa1580156102bb573d6000803e3d6000fd5b505050506040513d601f19601f820116820180604052508101906102df91906115a0565b949350505050565b6000546001600160a01b031690565b606080856001600160a01b0316630dfe16816040518163ffffffff1660e01b815260040160206040518083038186803b15801561033257600080fd5b505afa158015610346573d6000803e3d6000fd5b505050506040513d601f19601f8201168201806040525081019061036a91906113f8565b6001600160a01b03166395d89b416040518163ffffffff1660e01b815260040160006040518083038186803b1580156103a257600080fd5b505afa1580156103b6573d6000803e3d6000fd5b505050506040513d6000823e601f3d908101601f191682016040526103de9190810190611513565b90506060866001600160a01b031663d21220a76040518163ffffffff1660e01b815260040160206040518083038186803b15801561041b57600080fd5b505afa15801561042f573d6000803e3d6000fd5b505050506040513d601f19601f8201168201806040525081019061045391906113f8565b6001600160a01b03166395d89b416040518163ffffffff1660e01b815260040160006040518083038186803b15801561048b57600080fd5b505afa15801561049f573d6000803e3d6000fd5b505050506040513d6000823e601f3d908101601f191682016040526104c79190810190611513565b90506000876001600160a01b0316630dfe16816040518163ffffffff1660e01b815260040160206040518083038186803b15801561050457600080fd5b505afa158015610518573d6000803e3d6000fd5b505050506040513d601f19601f8201168201806040525081019061053c91906113f8565b6001600160a01b03166370a08231896040518263ffffffff1660e01b81526004016105679190611699565b60206040518083038186803b15801561057f57600080fd5b505afa158015610593573d6000803e3d6000fd5b505050506040513d601f19601f820116820180604052508101906105b791906115a0565b90506000886001600160a01b031663d21220a76040518163ffffffff1660e01b815260040160206040518083038186803b1580156105f457600080fd5b505afa158015610608573d6000803e3d6000fd5b505050506040513d601f19601f8201168201806040525081019061062c91906113f8565b6001600160a01b03166370a082318a6040518263ffffffff1660e01b81526004016106579190611699565b60206040518083038186803b15801561066f57600080fd5b505afa158015610683573d6000803e3d6000fd5b505050506040513d601f19601f820116820180604052508101906106a791906115a0565b90506000896001600160a01b03166318160ddd6040518163ffffffff1660e01b815260040160206040518083038186803b1580156106e457600080fd5b505afa1580156106f8573d6000803e3d6000fd5b505050506040513d601f19601f8201168201806040525081019061071c91906115a0565b905060008b6001600160a01b031663658e43d88c8c6040518363ffffffff1660e01b815260040161074e9291906116ad565b60206040518083038186803b15801561076657600080fd5b505afa15801561077a573d6000803e3d6000fd5b505050506040513d601f19601f8201168201806040525081019061079e91906115a0565b9050876107ab828b6112cb565b116107bf576107ba818a6112cb565b6107c1565b875b975060608867ffffffffffffffff811180156107dc57600080fd5b5060405190808252806020026020018201604052801561081657816020015b610803611390565b8152602001906001900390816107fb5790505b50905060008a5b6108278c8c6112f8565b811015610a05578e6001600160a01b03166308cc72d88f8f846040518463ffffffff1660e01b815260040161085e93929190611793565b60a06040518083038186803b15801561087657600080fd5b505afa15801561088a573d6000803e3d6000fd5b505050506040513d601f19601f820116820180604052508101906108ae91906115e5565b8787815181106108ba57fe5b60200260200101516000018888815181106108d157fe5b602002602001015160a0018989815181106108e857fe5b602002602001015160c0018a8a815181106108ff57fe5b602002602001015160e0018b8b8151811061091657fe5b60209081029190910101516101000194909452939092529290915291909152528251899084908490811061094657fe5b6020026020010151602001819052508783838151811061096257fe5b6020026020010151604001819052506109a58561099f8986868151811061098557fe5b60200260200101516000015161132490919063ffffffff16565b9061135e565b8383815181106109b157fe5b602002602001015160600181815250506109d58561099f8886868151811061098557fe5b8383815181106109e157fe5b6020908102919091010151608001526109fb8260016112f8565b915060010161081d565b50909d9c50505050505050505050505050565b600080846001600160a01b0316630dfe16816040518163ffffffff1660e01b815260040160206040518083038186803b158015610a5457600080fd5b505afa158015610a68573d6000803e3d6000fd5b505050506040513d601f19601f82011682018060405250810190610a8c91906113f8565b90506000856001600160a01b031663d21220a76040518163ffffffff1660e01b815260040160206040518083038186803b158015610ac957600080fd5b505afa158015610add573d6000803e3d6000fd5b505050506040513d601f19601f82011682018060405250810190610b0191906113f8565b9050816001600160a01b0316856001600160a01b03161415610c6b5760405162d7f52760e31b81526000906001600160a01b038916906306bfa93890610b4b908a90600401611699565b60606040518083038186803b158015610b6357600080fd5b505afa158015610b77573d6000803e3d6000fd5b505050506040513d601f19601f82011682018060405250810190610b9b91906115b8565b5091505060008060008a6001600160a01b031663f2801fe78b8a6040518363ffffffff1660e01b8152600401610bd29291906116ad565b60c06040518083038186803b158015610bea57600080fd5b505afa158015610bfe573d6000803e3d6000fd5b505050506040513d601f19601f82011682018060405250810190610c229190611624565b509450509350935050610c5e81610c5884610c52670de0b6b3a764000061099f898b61132490919063ffffffff16565b906112cb565b906112f8565b96505050505050506102df565b806001600160a01b0316856001600160a01b03161415610dba5760405162d7f52760e31b81526000906001600160a01b038916906306bfa93890610cb3908a90600401611699565b60606040518083038186803b158015610ccb57600080fd5b505afa158015610cdf573d6000803e3d6000fd5b505050506040513d601f19601f82011682018060405250810190610d0391906115b8565b9250505060008060008a6001600160a01b031663f2801fe78b8a6040518363ffffffff1660e01b8152600401610d3a9291906116ad565b60c06040518083038186803b158015610d5257600080fd5b505afa158015610d66573d6000803e3d6000fd5b505050506040513d601f19601f82011682018060405250810190610d8a9190611624565b955050945050935050610c5e81610c5884610c52670de0b6b3a764000061099f898b61132490919063ffffffff16565b60405162461bcd60e51b815260040161020b90611834565b610dda6112c7565b6001600160a01b0316610deb6102e7565b6001600160a01b031614610e115760405162461bcd60e51b815260040161020b9061190a565b6001600160a01b038116610e375760405162461bcd60e51b815260040161020b906117b7565b600080546040516001600160a01b03808516939216917f8be0079c531659141344cd1fd0a4f28419497f9722a3daafe3b4186f6b6457e091a3600080546001600160a01b0319166001600160a01b0392909216919091179055565b600080846001600160a01b0316630dfe16816040518163ffffffff1660e01b815260040160206040518083038186803b158015610ece57600080fd5b505afa158015610ee2573d6000803e3d6000fd5b505050506040513d601f19601f82011682018060405250810190610f0691906113f8565b90506000856001600160a01b031663d21220a76040518163ffffffff1660e01b815260040160206040518083038186803b158015610f4357600080fd5b505afa158015610f57573d6000803e3d6000fd5b505050506040513d601f19601f82011682018060405250810190610f7b91906113f8565b90506000876001600160a01b031663f2801fe788876040518363ffffffff1660e01b8152600401610fad9291906116ad565b60c06040518083038186803b158015610fc557600080fd5b505afa158015610fd9573d6000803e3d6000fd5b505050506040513d601f19601f82011682018060405250810190610ffd9190611624565b50505050509050806000141561101957600093505050506102df565b826001600160a01b0316866001600160a01b031614156111775760405163677de24b60e11b81526000906001600160a01b038a169063cefbc49690611062908b90600401611699565b60606040518083038186803b15801561107a57600080fd5b505afa15801561108e573d6000803e3d6000fd5b505050506040513d601f19601f820116820180604052508101906110b291906115b8565b5091505060008060008b6001600160a01b031663f741198f8c8b6040518363ffffffff1660e01b81526004016110e99291906116ad565b60c06040518083038186803b15801561110157600080fd5b505afa158015611115573d6000803e3d6000fd5b505050506040513d601f19601f820116820180604052508101906111399190611624565b50945050935093505061116981610c5884610c52670de0b6b3a764000061099f898b61132490919063ffffffff16565b9750505050505050506102df565b816001600160a01b0316866001600160a01b03161415610dba5760405163677de24b60e11b81526000906001600160a01b038a169063cefbc496906111c0908b90600401611699565b60606040518083038186803b1580156111d857600080fd5b505afa1580156111ec573d6000803e3d6000fd5b505050506040513d601f19601f8201168201806040525081019061121091906115b8565b9250505060008060008b6001600160a01b031663f741198f8c8b6040518363ffffffff1660e01b81526004016112479291906116ad565b60c06040518083038186803b15801561125f57600080fd5b505afa158015611273573d6000803e3d6000fd5b505050506040513d601f19601f820116820180604052508101906112979190611624565b95505094505093505061116981610c5884610c52670de0b6b3a764000061099f898b61132490919063ffffffff16565b3390565b6000828211156112ed5760405162461bcd60e51b815260040161020b9061185b565b508082035b92915050565b60008282018381101561131d5760405162461bcd60e51b815260040161020b906117fd565b9392505050565b600082611333575060006112f2565b8282028284828161134057fe5b041461131d5760405162461bcd60e51b815260040161020b906118c9565b600080821161137f5760405162461bcd60e51b815260040161020b90611892565b81838161138857fe5b049392505050565b6040518061012001604052806000815260200160608152602001606081526020016000815260200160008152602001600081526020016000815260200160008152602001600081525090565b6000602082840312156113ed578081fd5b813561131d81611978565b600060208284031215611409578081fd5b815161131d81611978565b600080600060608486031215611428578182fd5b833561143381611978565b9250602084013561144381611978565b9150604084013561145381611978565b809150509250925092565b60008060008060808587031215611473578081fd5b843561147e81611978565b9350602085013561148e81611978565b9250604085013561149e81611978565b915060608501356114ae81611978565b939692955090935050565b600080600080600060a086880312156114d0578081fd5b85356114db81611978565b945060208601356114eb81611978565b935060408601356114fb81611978565b94979396509394606081013594506080013592915050565b600060208284031215611524578081fd5b815167ffffffffffffffff8082111561153b578283fd5b818401915084601f83011261154e578283fd5b81518181111561155a57fe5b604051601f8201601f19168101602001838111828210171561157857fe5b60405281815283820160200187101561158f578485fd5b6101c2826020830160208701611948565b6000602082840312156115b1578081fd5b5051919050565b6000806000606084860312156115cc578283fd5b8351925060208401519150604084015190509250925092565b600080600080600060a086880312156115fc578081fd5b5050835160208501516040860151606087015160809097015192989197509594509092509050565b60008060008060008060c0878903121561163c578081fd5b865195506020870151945060408701519350606087015192506080870151915060a087015190509295509295509295565b60008151808452611685816020860160208601611948565b601f01601f19169290920160200192915050565b6001600160a01b0391909116815260200190565b6001600160a01b0392831681529116602082015260400190565b60208082528251828201819052600091906040908185019080840286018301878501865b8381101561178557603f1989840301855281516101208151855288820151818a87015261171a8287018261166d565b9150508782015185820389870152611732828261166d565b606084810151908801526080808501519088015260a0808501519088015260c0808501519088015260e08085015190880152610100938401519390960192909252505093860193908601906001016116eb565b509098975050505050505050565b6001600160a01b039384168152919092166020820152604081019190915260600190565b60208082526026908201527f4f776e61626c653a206e6577206f776e657220697320746865207a65726f206160408201526564647265737360d01b606082015260800190565b6020808252601b908201527f536166654d6174683a206164646974696f6e206f766572666c6f770000000000604082015260600190565b6020808252600d908201526c34b63632b3b0b6103a37b5b2b760991b604082015260600190565b6020808252601e908201527f536166654d6174683a207375627472616374696f6e206f766572666c6f770000604082015260600190565b6020808252601a908201527f536166654d6174683a206469766973696f6e206279207a65726f000000000000604082015260600190565b60208082526021908201527f536166654d6174683a206d756c7469706c69636174696f6e206f766572666c6f6040820152607760f81b606082015260800190565b6020808252818101527f4f776e61626c653a2063616c6c6572206973206e6f7420746865206f776e6572604082015260600190565b90815260200190565b60005b8381101561196357818101518382015260200161194b565b83811115611972576000848401525b50505050565b6001600160a01b038116811461198d57600080fd5b5056fea264697066735822122028ace654a23a585bebd278ba2b458cf9bcca8ef6ef0f3a4c50b83f7c560af3a764736f6c63430007020033",
  "devdoc": {
    "kind": "dev",
    "methods": {
      "owner()": {
        "details": "Returns the address of the current owner."
      },
      "renounceOwnership()": {
        "details": "Leaves the contract without owner. It will not be possible to call `onlyOwner` functions anymore. Can only be called by the current owner. NOTE: Renouncing ownership will leave the contract without an owner, thereby removing any functionality that is only available to the owner."
      },
      "transferOwnership(address)": {
        "details": "Transfers ownership of the contract to a new account (`newOwner`). Can only be called by the current owner."
      }
    },
    "version": 1
  },
  "userdoc": {
    "kind": "user",
    "methods": {},
    "version": 1
  },
  "storageLayout": {
    "storage": [
      {
        "astId": 7,
        "contract": "contracts/lens/Lens.sol:Lens",
        "label": "_owner",
        "offset": 0,
        "slot": "0",
        "type": "t_address"
      }
    ],
    "types": {
      "t_address": {
        "encoding": "inplace",
        "label": "address",
        "numberOfBytes": "20"
      }
    }
  }
}