{
  "address": "0x29Ff628b13284105347b430F35Ab6fBeE54480F3",
  "abi": [
    {
      "inputs": [
        {
          "internalType": "contract IUser",
          "name": "_user",
          "type": "address"
        }
      ],
      "stateMutability": "nonpayable",
      "type": "constructor"
    },
    {
      "anonymous": false,
      "inputs": [
        {
          "indexed": true,
          "internalType": "address",
          "name": "previousOwner",
          "type": "address"
        },
        {
          "indexed": true,
          "internalType": "address",
          "name": "newOwner",
          "type": "address"
        }
      ],
      "name": "OwnershipTransferred",
      "type": "event"
    },
    {
      "inputs": [],
      "name": "BEST_WINER_NUM",
      "outputs": [
        {
          "internalType": "uint256",
          "name": "",
          "type": "uint256"
        }
      ],
      "stateMutability": "view",
      "type": "function"
    },
    {
      "inputs": [],
      "name": "TOTAL_WINER_NUM",
      "outputs": [
        {
          "internalType": "uint256",
          "name": "",
          "type": "uint256"
        }
      ],
      "stateMutability": "view",
      "type": "function"
    },
    {
      "inputs": [],
      "name": "WINER_NUM",
      "outputs": [
        {
          "internalType": "uint256",
          "name": "",
          "type": "uint256"
        }
      ],
      "stateMutability": "view",
      "type": "function"
    },
    {
      "inputs": [
        {
          "internalType": "contract IERC20",
          "name": "_rewardToken",
          "type": "address"
        }
      ],
      "name": "addRewardToken",
      "outputs": [],
      "stateMutability": "nonpayable",
      "type": "function"
    },
    {
      "inputs": [
        {
          "internalType": "uint256",
          "name": "timestamp",
          "type": "uint256"
        }
      ],
      "name": "beginLuckyPool",
      "outputs": [],
      "stateMutability": "nonpayable",
      "type": "function"
    },
    {
      "inputs": [
        {
          "internalType": "string",
          "name": "r",
          "type": "string"
        }
      ],
      "name": "claim",
      "outputs": [],
      "stateMutability": "nonpayable",
      "type": "function"
    },
    {
      "inputs": [
        {
          "internalType": "address[]",
          "name": "_users",
          "type": "address[]"
        }
      ],
      "name": "countUser",
      "outputs": [],
      "stateMutability": "nonpayable",
      "type": "function"
    },
    {
      "inputs": [],
      "name": "currentLuckyId",
      "outputs": [
        {
          "internalType": "uint256",
          "name": "",
          "type": "uint256"
        }
      ],
      "stateMutability": "view",
      "type": "function"
    },
    {
      "inputs": [
        {
          "internalType": "uint256",
          "name": "_id",
          "type": "uint256"
        }
      ],
      "name": "delRewardToken",
      "outputs": [],
      "stateMutability": "nonpayable",
      "type": "function"
    },
    {
      "inputs": [],
      "name": "nextLuckyId",
      "outputs": [
        {
          "internalType": "uint256",
          "name": "",
          "type": "uint256"
        }
      ],
      "stateMutability": "view",
      "type": "function"
    },
    {
      "inputs": [],
      "name": "openLuckyPool",
      "outputs": [],
      "stateMutability": "nonpayable",
      "type": "function"
    },
    {
      "inputs": [],
      "name": "owner",
      "outputs": [
        {
          "internalType": "address",
          "name": "",
          "type": "address"
        }
      ],
      "stateMutability": "view",
      "type": "function"
    },
    {
      "inputs": [
        {
          "internalType": "uint256",
          "name": "",
          "type": "uint256"
        }
      ],
      "name": "poolInfo",
      "outputs": [
        {
          "internalType": "uint256",
          "name": "beginAt",
          "type": "uint256"
        },
        {
          "internalType": "uint256",
          "name": "openAt",
          "type": "uint256"
        },
        {
          "internalType": "uint256",
          "name": "countAt",
          "type": "uint256"
        },
        {
          "internalType": "uint256",
          "name": "finishAt",
          "type": "uint256"
        },
        {
          "internalType": "uint256",
          "name": "userNum",
          "type": "uint256"
        },
        {
          "internalType": "uint256",
          "name": "claimNum",
          "type": "uint256"
        },
        {
          "internalType": "uint256",
          "name": "winers",
          "type": "uint256"
        },
        {
          "internalType": "address",
          "name": "bestUser",
          "type": "address"
        }
      ],
      "stateMutability": "view",
      "type": "function"
    },
    {
      "inputs": [],
      "name": "renounceOwnership",
      "outputs": [],
      "stateMutability": "nonpayable",
      "type": "function"
    },
    {
      "inputs": [
        {
          "internalType": "address",
          "name": "newOwner",
          "type": "address"
        }
      ],
      "name": "transferOwnership",
      "outputs": [],
      "stateMutability": "nonpayable",
      "type": "function"
    }
  ],
  "transactionHash": "0x569fdb1556f23358fd5cebf8831214fac513c1edf2cd35c236415be23805c54b",
  "args": [
    "0x26CeF7683a8dC396e8456B015031766F17d2E2d7"
  ],
  "solcInputHash": "df303fbcf552e45b0d65b88e14a74681",
  "bytecode": "0x608060405234801561001057600080fd5b50604051611c19380380611c198339818101604052602081101561003357600080fd5b5051600061003f6100ae565b600080546001600160a01b0319166001600160a01b0383169081178255604051929350917f8be0079c531659141344cd1fd0a4f28419497f9722a3daafe3b4186f6b6457e0908290a350600180546001600160a01b0319166001600160a01b03929092169190911790556100b2565b3390565b611b58806100c16000396000f3fe608060405234801561001057600080fd5b50600436106100f55760003560e01c8063715018a611610097578063e839506811610066578063e8395068146102c4578063ef4d7688146102cc578063f2fde38b146102d4578063f3fe12c9146102fa576100f5565b8063715018a6146101ed578063823eb50e146101f55780638da5cb5b146101fd57806390865fa814610221576100f5565b80634e063f6b116100d35780634e063f6b146101a65780635524364c146101c0578063562c7cec146101c857806366cc8c82146101d0576100f5565b80631526fe27146100fa578063188bb325146101615780631c03e6cc14610180575b600080fd5b6101176004803603602081101561011057600080fd5b50356103a0565b604080519889526020890197909752878701959095526060870193909352608086019190915260a085015260c08401526001600160a01b031660e083015251908190036101000190f35b61017e6004803603602081101561017757600080fd5b50356103fc565b005b61017e6004803603602081101561019657600080fd5b50356001600160a01b03166105da565b6101ae610691565b60408051918252519081900360200190f35b61017e6106a7565b6101ae610a1e565b61017e600480360360208110156101e657600080fd5b5035610a24565b61017e610b70565b6101ae610c2e565b610205610c33565b604080516001600160a01b039092168252519081900360200190f35b61017e6004803603602081101561023757600080fd5b81019060208101813564010000000081111561025257600080fd5b82018360208201111561026457600080fd5b8035906020019184602083028401116401000000008311171561028657600080fd5b919080806020026020016040519081016040528093929190818152602001838360200280828437600092019190915250929550610c42945050505050565b6101ae610e2d565b6101ae610e32565b61017e600480360360208110156102ea57600080fd5b50356001600160a01b0316610e37565b61017e6004803603602081101561031057600080fd5b81019060208101813564010000000081111561032b57600080fd5b82018360208201111561033d57600080fd5b8035906020019184600183028401116401000000008311171561035f57600080fd5b91908080601f016020809104026020016040519081016040528093929190818152602001838380828437600092019190915250929550610f4b945050505050565b600481815481106103ad57fe5b600091825260209091206008909102018054600182015460028301546003840154600485015460058601546006870154600790970154959750939592949193909290916001600160a01b031688565b610404610c33565b6001600160a01b0316336001600160a01b0316148061042257503330145b610461576040805162461bcd60e51b815260206004820152601e6024820152600080516020611ad9833981519152604482015290519081900360640190fd5b428110156104aa576040805162461bcd60e51b81526020600482015260116024820152700696c6c6567616c2074696d657374616d7607c1b604482015290519081900360640190fd5b600454156105a8576104ba611a3e565b6004805460001981019081106104cc57fe5b6000918252602091829020604080516101008101825260089093029091018054835260018101549383019390935260028301549082018190526003830154606083015260048301546080830152600583015460a0830152600683015460c08301526007909201546001600160a01b031660e0820152915015801590610555575081816040015111155b6105a6576040805162461bcd60e51b815260206004820152601960248201527f6c617374206c75636b79506f6f6c206e6f742066696e69736800000000000000604482015290519081900360640190fd5b505b6005546105b361122f565b6000600482815481106105c257fe5b60009182526020909120600890910201929092555050565b6105e2610c33565b6001600160a01b0316336001600160a01b0316148061060057503330145b61063f576040805162461bcd60e51b815260206004820152601e6024820152600080516020611ad9833981519152604482015290519081900360640190fd5b600280546001810182556000919091527f405787fa12a823e0f2b7631cc41b3ba8828b3321ca811111fa75cd3aa3bb5ace0180546001600160a01b0319166001600160a01b0392909216919091179055565b6005546000906106a2906001611242565b905090565b6106af610c33565b6001600160a01b0316336001600160a01b031614806106cd57503330145b61070c576040805162461bcd60e51b815260206004820152601e6024820152600080516020611ad9833981519152604482015290519081900360640190fd5b60055460009061071d9060016112a3565b9050610727611a3e565b6004828154811061073457fe5b60009182526020918290206040805161010081018252600890930290910180548084526001820154948401949094526002810154918301919091526003810154606083015260048101546080830152600581015460a0830152600681015460c0830152600701546001600160a01b031660e08201529150421180156107bb57506020810151155b610801576040805162461bcd60e51b81526020600482015260126024820152716e6f74207468652072696768742074696d6560701b604482015290519081900360640190fd5b426004838154811061080f57fe5b906000526020600020906008020160010181905550426202a300016004838154811061083757fe5b9060005260206000209060080201600201819055504262069780016004838154811061085f57fe5b906000526020600020906008020160030181905550606060028054806020026020016040519081016040528092919081815260200182805480156108cc57602002820191906000526020600020905b81546001600160a01b031681526001909101906020018083116108ae575b5050505050905060005b8151811015610a0a57600084815260066020526040902082518390839081106108fb57fe5b60209081029190910181015182546001810184556000938452919092200180546001600160a01b0319166001600160a01b03909216919091179055600280548290811061094457fe5b60009182526020918290200154604080516370a0823160e01b815230600482015290516001600160a01b03909216926370a0823192602480840193829003018186803b15801561099357600080fd5b505afa1580156109a7573d6000803e3d6000fd5b505050506040513d60208110156109bd57600080fd5b5051600085815260076020526040812084519091908590859081106109de57fe5b6020908102919091018101516001600160a01b03168252810191909152604001600020556001016108d6565b50610a194262069780016103fc565b505050565b60055481565b610a2c610c33565b6001600160a01b0316336001600160a01b03161480610a4a57503330145b610a89576040805162461bcd60e51b815260206004820152601e6024820152600080516020611ad9833981519152604482015290519081900360640190fd5b6002548110610acc576040805162461bcd60e51b815260206004820152600a6024820152691a5b1b1959d85b081a5960b21b604482015290519081900360640190fd5b600254600019018114610b4057600280546000198101908110610aeb57fe5b600091825260209091200154600280546001600160a01b039092169183908110610b1157fe5b9060005260206000200160006101000a8154816001600160a01b0302191690836001600160a01b031602179055505b6002805480610b4b57fe5b600082815260209020810160001990810180546001600160a01b031916905501905550565b610b78611300565b6001600160a01b0316610b89610c33565b6001600160a01b031614610be4576040805162461bcd60e51b815260206004820181905260248201527f4f776e61626c653a2063616c6c6572206973206e6f7420746865206f776e6572604482015290519081900360640190fd5b600080546040516001600160a01b03909116907f8be0079c531659141344cd1fd0a4f28419497f9722a3daafe3b4186f6b6457e0908390a3600080546001600160a01b0319169055565b600181565b6000546001600160a01b031690565b610c4a610c33565b6001600160a01b0316336001600160a01b03161480610c6857503330145b610ca7576040805162461bcd60e51b815260206004820152601e6024820152600080516020611ad9833981519152604482015290519081900360640190fd5b600554600090610cb89060026112a3565b9050610cc2611a3e565b60048281548110610ccf57fe5b6000918252602091829020604080516101008101825260089093029091018054835260018101549383018490526002810154918301919091526003810154606083015260048101546080830152600581015460a0830152600681015460c0830152600701546001600160a01b031660e0820152915015801590610d56575080602001514210155b8015610d66575080606001514211155b610dac576040805162461bcd60e51b81526020600482015260126024820152716e6f74207468652072696768742074696d6560701b604482015290519081900360640190fd5b60005b8351811015610df5578260086000868481518110610dc957fe5b6020908102919091018101516001600160a01b0316825281019190915260400160002055600101610daf565b5082516080820151610e0691611242565b60048381548110610e1357fe5b906000526020600020906008020160040181905550505050565b600b81565b600a81565b610e3f611300565b6001600160a01b0316610e50610c33565b6001600160a01b031614610eab576040805162461bcd60e51b815260206004820181905260248201527f4f776e61626c653a2063616c6c6572206973206e6f7420746865206f776e6572604482015290519081900360640190fd5b6001600160a01b038116610ef05760405162461bcd60e51b8152600401808060200182810382526026815260200180611a8d6026913960400191505060405180910390fd5b600080546040516001600160a01b03808516939216917f8be0079c531659141344cd1fd0a4f28419497f9722a3daafe3b4186f6b6457e091a3600080546001600160a01b0319166001600160a01b0392909216919091179055565b600554600090610f5c9060026112a3565b9050610f66611a3e565b60048281548110610f7357fe5b6000918252602091829020604080516101008101825260089093029091018054835260018101549383019390935260028301549082018190526003830154606083015260048301546080830152600583015460a0830152600683015460c08301526007909201546001600160a01b031660e082015291504210801590610ffd575080606001514211155b611043576040805162461bcd60e51b81526020600482015260126024820152716e6f74207468652072696768742074696d6560701b604482015290519081900360640190fd5b33600090815260086020526040902054821461109c576040805162461bcd60e51b8152602060048201526013602482015272646f206e6f74206861766520746865206f707360681b604482015290519081900360640190fd5b600082815260096020908152604080832033845290915290205460ff16156110fd576040805162461bcd60e51b815260206004820152600f60248201526e616c726561647920646f207468697360881b604482015290519081900360640190fd5b60a081015161110d906001611242565b6004838154811061111a57fe5b600091825260209091206005600890920201015560c081015160019061114290600b906112a3565b60a08301516080840151611155916112a3565b11156111675761116484611304565b90505b8061119757505060009081526009602090815260408083203384529091529020805460ff1916600117905561122c565b60048260c0015110806111b6575060e08201516001600160a01b031615155b156111f4576000838152600960209081526040808320338085529252909120805460ff191660029081179091556111ef91859190611466565b611228565b6000838152600960209081526040808320338085529252909120805460ff1916600390811790915561122891859190611466565b5050505b50565b60055461123d906001611242565b600555565b60008282018381101561129c576040805162461bcd60e51b815260206004820152601b60248201527f536166654d6174683a206164646974696f6e206f766572666c6f770000000000604482015290519081900360640190fd5b9392505050565b6000828211156112fa576040805162461bcd60e51b815260206004820152601e60248201527f536166654d6174683a207375627472616374696f6e206f766572666c6f770000604482015290519081900360640190fd5b50900390565b3390565b6040805142602080830191909152448284015233606090811b8184015241901b6074830152436088808401919091528351808403909101815260a890920190925280519101206000908180365a3a60405160200180858580828437808301925050508381526020018281526020019450505050506040516020818303038152906040528051906020012090506000600a6003548484886040516020018085815260200184815260200183815260200182805190602001908083835b602083106113de5780518252601f1990920191602091820191016113bf565b6001836020036101000a0380198251168184511680821785525050505050509050019450505050506040516020818303038152906040528051906020012060001c8161142657fe5b6040805160208082019790975280820195909552805180860382018152606090950190528351939094019290922060035550900660ff1660011492915050565b6000838152600660209081526040918290208054835181840281018401909452808452606093928301828280156114c657602002820191906000526020600020905b81546001600160a01b031681526001909101906020018083116114a8575b505050505090508260ff16600214156115825760005b815181101561157c5760008581526007602052604081208351829085908590811061150357fe5b60200260200101516001600160a01b03166001600160a01b0316815260200190815260200160002054905060008111156115735761157383838151811061154657fe5b60200260200101518561156e600a6115686002876116bc90919063ffffffff16565b906116bc565b611723565b506001016114dc565b50611662565b8260ff16600314156116625760005b8151811015611660576000858152600760205260408120835182908590859081106115b857fe5b60200260200101516001600160a01b03166001600160a01b031681526020019081526020016000205490506000811115611618576116188383815181106115fb57fe5b60200260200101518561156e6002856116bc90919063ffffffff16565b836004878154811061162657fe5b6000918252602090912060089091020160070180546001600160a01b0319166001600160a01b039290921691909117905550600101611591565b505b61169460016004868154811061167457fe5b90600052602060002090600802016006015461124290919063ffffffff16565b600485815481106116a157fe5b90600052602060002090600802016006018190555050505050565b6000808211611712576040805162461bcd60e51b815260206004820152601a60248201527f536166654d6174683a206469766973696f6e206279207a65726f000000000000604482015290519081900360640190fd5b81838161171b57fe5b049392505050565b604080516001600160a01b038416602482015260448082018490528251808303909101815260649091019091526020810180516001600160e01b031663a9059cbb60e01b179052610a1990849060606117c5826040518060400160405280602081526020017f5361666545524332303a206c6f772d6c6576656c2063616c6c206661696c6564815250856001600160a01b03166118219092919063ffffffff16565b805190915015610a19578080602001905160208110156117e457600080fd5b5051610a195760405162461bcd60e51b815260040180806020018281038252602a815260200180611af9602a913960400191505060405180910390fd5b60606118308484600085611838565b949350505050565b6060824710156118795760405162461bcd60e51b8152600401808060200182810382526026815260200180611ab36026913960400191505060405180910390fd5b61188285611994565b6118d3576040805162461bcd60e51b815260206004820152601d60248201527f416464726573733a2063616c6c20746f206e6f6e2d636f6e7472616374000000604482015290519081900360640190fd5b60006060866001600160a01b031685876040518082805190602001908083835b602083106119125780518252601f1990920191602091820191016118f3565b6001836020036101000a03801982511681845116808217855250505050505090500191505060006040518083038185875af1925050503d8060008114611974576040519150601f19603f3d011682016040523d82523d6000602084013e611979565b606091505b509150915061198982828661199a565b979650505050505050565b3b151590565b606083156119a957508161129c565b8251156119b95782518084602001fd5b8160405162461bcd60e51b81526004018080602001828103825283818151815260200191508051906020019080838360005b83811015611a035781810151838201526020016119eb565b50505050905090810190601f168015611a305780820380516001836020036101000a031916815260200191505b509250505060405180910390fd5b6040518061010001604052806000815260200160008152602001600081526020016000815260200160008152602001600081526020016000815260200160006001600160a01b03168152509056fe4f776e61626c653a206e6577206f776e657220697320746865207a65726f2061646472657373416464726573733a20696e73756666696369656e742062616c616e636520666f722063616c6c6f6e6c79206f776e6572206f722073656c662063616e20646f207468697300005361666545524332303a204552433230206f7065726174696f6e20646964206e6f742073756363656564a26469706673582212209edd81a1d06108de1d78c8dcb6711900cf98dbbc1ee39a26db2cdfb8ff77bae264736f6c63430007020033",
  "devdoc": {
    "kind": "dev",
    "methods": {
      "owner()": {
        "details": "Returns the address of the current owner."
      },
      "renounceOwnership()": {
        "details": "Leaves the contract without owner. It will not be possible to call `onlyOwner` functions anymore. Can only be called by the current owner. NOTE: Renouncing ownership will leave the contract without an owner, thereby removing any functionality that is only available to the owner."
      },
      "transferOwnership(address)": {
        "details": "Transfers ownership of the contract to a new account (`newOwner`). Can only be called by the current owner."
      }
    },
    "version": 1
  },
  "userdoc": {
    "kind": "user",
    "methods": {},
    "version": 1
  },
  "storageLayout": {
    "storage": [
      {
        "astId": 7,
        "contract": "contracts/farm/LuckyPool.sol:LuckyPool",
        "label": "_owner",
        "offset": 0,
        "slot": "0",
        "type": "t_address"
      },
      {
        "astId": 3247,
        "contract": "contracts/farm/LuckyPool.sol:LuckyPool",
        "label": "user",
        "offset": 0,
        "slot": "1",
        "type": "t_contract(IUser)7661"
      },
      {
        "astId": 3250,
        "contract": "contracts/farm/LuckyPool.sol:LuckyPool",
        "label": "rewardToken",
        "offset": 0,
        "slot": "2",
        "type": "t_array(t_contract(IERC20)1045)dyn_storage"
      },
      {
        "astId": 3252,
        "contract": "contracts/farm/LuckyPool.sol:LuckyPool",
        "label": "data",
        "offset": 0,
        "slot": "3",
        "type": "t_bytes32"
      },
      {
        "astId": 3272,
        "contract": "contracts/farm/LuckyPool.sol:LuckyPool",
        "label": "poolInfo",
        "offset": 0,
        "slot": "4",
        "type": "t_array(t_struct(PoolInfo)3269_storage)dyn_storage"
      },
      {
        "astId": 3274,
        "contract": "contracts/farm/LuckyPool.sol:LuckyPool",
        "label": "currentLuckyId",
        "offset": 0,
        "slot": "5",
        "type": "t_uint256"
      },
      {
        "astId": 3279,
        "contract": "contracts/farm/LuckyPool.sol:LuckyPool",
        "label": "poolRewardToken",
        "offset": 0,
        "slot": "6",
        "type": "t_mapping(t_uint256,t_array(t_contract(IERC20)1045)dyn_storage)"
      },
      {
        "astId": 3285,
        "contract": "contracts/farm/LuckyPool.sol:LuckyPool",
        "label": "poolRewardAmount",
        "offset": 0,
        "slot": "7",
        "type": "t_mapping(t_uint256,t_mapping(t_contract(IERC20)1045,t_uint256))"
      },
      {
        "astId": 3289,
        "contract": "contracts/farm/LuckyPool.sol:LuckyPool",
        "label": "luckyUser",
        "offset": 0,
        "slot": "8",
        "type": "t_mapping(t_address,t_uint256)"
      },
      {
        "astId": 3295,
        "contract": "contracts/farm/LuckyPool.sol:LuckyPool",
        "label": "winers",
        "offset": 0,
        "slot": "9",
        "type": "t_mapping(t_uint256,t_mapping(t_address,t_uint8))"
      }
    ],
    "types": {
      "t_address": {
        "encoding": "inplace",
        "label": "address",
        "numberOfBytes": "20"
      },
      "t_array(t_contract(IERC20)1045)dyn_storage": {
        "base": "t_contract(IERC20)1045",
        "encoding": "dynamic_array",
        "label": "contract IERC20[]",
        "numberOfBytes": "32"
      },
      "t_array(t_struct(PoolInfo)3269_storage)dyn_storage": {
        "base": "t_struct(PoolInfo)3269_storage",
        "encoding": "dynamic_array",
        "label": "struct LuckyPool.PoolInfo[]",
        "numberOfBytes": "32"
      },
      "t_bytes32": {
        "encoding": "inplace",
        "label": "bytes32",
        "numberOfBytes": "32"
      },
      "t_contract(IERC20)1045": {
        "encoding": "inplace",
        "label": "contract IERC20",
        "numberOfBytes": "20"
      },
      "t_contract(IUser)7661": {
        "encoding": "inplace",
        "label": "contract IUser",
        "numberOfBytes": "20"
      },
      "t_mapping(t_address,t_uint256)": {
        "encoding": "mapping",
        "key": "t_address",
        "label": "mapping(address => uint256)",
        "numberOfBytes": "32",
        "value": "t_uint256"
      },
      "t_mapping(t_address,t_uint8)": {
        "encoding": "mapping",
        "key": "t_address",
        "label": "mapping(address => uint8)",
        "numberOfBytes": "32",
        "value": "t_uint8"
      },
      "t_mapping(t_contract(IERC20)1045,t_uint256)": {
        "encoding": "mapping",
        "key": "t_contract(IERC20)1045",
        "label": "mapping(contract IERC20 => uint256)",
        "numberOfBytes": "32",
        "value": "t_uint256"
      },
      "t_mapping(t_uint256,t_array(t_contract(IERC20)1045)dyn_storage)": {
        "encoding": "mapping",
        "key": "t_uint256",
        "label": "mapping(uint256 => contract IERC20[])",
        "numberOfBytes": "32",
        "value": "t_array(t_contract(IERC20)1045)dyn_storage"
      },
      "t_mapping(t_uint256,t_mapping(t_address,t_uint8))": {
        "encoding": "mapping",
        "key": "t_uint256",
        "label": "mapping(uint256 => mapping(address => uint8))",
        "numberOfBytes": "32",
        "value": "t_mapping(t_address,t_uint8)"
      },
      "t_mapping(t_uint256,t_mapping(t_contract(IERC20)1045,t_uint256))": {
        "encoding": "mapping",
        "key": "t_uint256",
        "label": "mapping(uint256 => mapping(contract IERC20 => uint256))",
        "numberOfBytes": "32",
        "value": "t_mapping(t_contract(IERC20)1045,t_uint256)"
      },
      "t_struct(PoolInfo)3269_storage": {
        "encoding": "inplace",
        "label": "struct LuckyPool.PoolInfo",
        "members": [
          {
            "astId": 3254,
            "contract": "contracts/farm/LuckyPool.sol:LuckyPool",
            "label": "beginAt",
            "offset": 0,
            "slot": "0",
            "type": "t_uint256"
          },
          {
            "astId": 3256,
            "contract": "contracts/farm/LuckyPool.sol:LuckyPool",
            "label": "openAt",
            "offset": 0,
            "slot": "1",
            "type": "t_uint256"
          },
          {
            "astId": 3258,
            "contract": "contracts/farm/LuckyPool.sol:LuckyPool",
            "label": "countAt",
            "offset": 0,
            "slot": "2",
            "type": "t_uint256"
          },
          {
            "astId": 3260,
            "contract": "contracts/farm/LuckyPool.sol:LuckyPool",
            "label": "finishAt",
            "offset": 0,
            "slot": "3",
            "type": "t_uint256"
          },
          {
            "astId": 3262,
            "contract": "contracts/farm/LuckyPool.sol:LuckyPool",
            "label": "userNum",
            "offset": 0,
            "slot": "4",
            "type": "t_uint256"
          },
          {
            "astId": 3264,
            "contract": "contracts/farm/LuckyPool.sol:LuckyPool",
            "label": "claimNum",
            "offset": 0,
            "slot": "5",
            "type": "t_uint256"
          },
          {
            "astId": 3266,
            "contract": "contracts/farm/LuckyPool.sol:LuckyPool",
            "label": "winers",
            "offset": 0,
            "slot": "6",
            "type": "t_uint256"
          },
          {
            "astId": 3268,
            "contract": "contracts/farm/LuckyPool.sol:LuckyPool",
            "label": "bestUser",
            "offset": 0,
            "slot": "7",
            "type": "t_address"
          }
        ],
        "numberOfBytes": "256"
      },
      "t_uint256": {
        "encoding": "inplace",
        "label": "uint256",
        "numberOfBytes": "32"
      },
      "t_uint8": {
        "encoding": "inplace",
        "label": "uint8",
        "numberOfBytes": "1"
      }
    }
  }
}