{
  "address": "0x213C71e95B4F35737A2a76Fd441Fb5449bfd6968",
  "abi": [
    {
      "inputs": [
        {
          "internalType": "contract IUser",
          "name": "_user",
          "type": "address"
        },
        {
          "internalType": "address",
          "name": "_weth",
          "type": "address"
        }
      ],
      "stateMutability": "nonpayable",
      "type": "constructor"
    },
    {
      "anonymous": false,
      "inputs": [
        {
          "indexed": true,
          "internalType": "address",
          "name": "user",
          "type": "address"
        },
        {
          "indexed": true,
          "internalType": "address",
          "name": "pair",
          "type": "address"
        },
        {
          "indexed": false,
          "internalType": "uint256",
          "name": "amount",
          "type": "uint256"
        },
        {
          "indexed": false,
          "internalType": "uint256",
          "name": "lockType",
          "type": "uint256"
        }
      ],
      "name": "Deposit",
      "type": "event"
    },
    {
      "anonymous": false,
      "inputs": [
        {
          "indexed": true,
          "internalType": "address",
          "name": "previousOwner",
          "type": "address"
        },
        {
          "indexed": true,
          "internalType": "address",
          "name": "newOwner",
          "type": "address"
        }
      ],
      "name": "OwnershipTransferred",
      "type": "event"
    },
    {
      "anonymous": false,
      "inputs": [
        {
          "indexed": true,
          "internalType": "address",
          "name": "user",
          "type": "address"
        },
        {
          "indexed": false,
          "internalType": "uint256",
          "name": "lockID",
          "type": "uint256"
        },
        {
          "indexed": false,
          "internalType": "uint256",
          "name": "amount",
          "type": "uint256"
        },
        {
          "indexed": false,
          "internalType": "uint256",
          "name": "shares",
          "type": "uint256"
        },
        {
          "indexed": false,
          "internalType": "uint256",
          "name": "lockType",
          "type": "uint256"
        }
      ],
      "name": "Withdraw",
      "type": "event"
    },
    {
      "inputs": [],
      "name": "WETH",
      "outputs": [
        {
          "internalType": "address",
          "name": "",
          "type": "address"
        }
      ],
      "stateMutability": "view",
      "type": "function"
    },
    {
      "inputs": [
        {
          "internalType": "contract IKeplerPair",
          "name": "_pair",
          "type": "address"
        },
        {
          "internalType": "address",
          "name": "_token",
          "type": "address"
        }
      ],
      "name": "claimInviteMine",
      "outputs": [],
      "stateMutability": "nonpayable",
      "type": "function"
    },
    {
      "inputs": [
        {
          "internalType": "contract IKeplerPair",
          "name": "_pair",
          "type": "address"
        },
        {
          "internalType": "address",
          "name": "_token",
          "type": "address"
        }
      ],
      "name": "claimMine",
      "outputs": [],
      "stateMutability": "nonpayable",
      "type": "function"
    },
    {
      "inputs": [
        {
          "internalType": "uint256",
          "name": "id",
          "type": "uint256"
        }
      ],
      "name": "createSnapshot",
      "outputs": [],
      "stateMutability": "nonpayable",
      "type": "function"
    },
    {
      "inputs": [],
      "name": "currentSnapshotId",
      "outputs": [
        {
          "internalType": "uint256",
          "name": "",
          "type": "uint256"
        }
      ],
      "stateMutability": "view",
      "type": "function"
    },
    {
      "inputs": [
        {
          "internalType": "contract IKeplerPair",
          "name": "_pair",
          "type": "address"
        },
        {
          "internalType": "uint256",
          "name": "_amount",
          "type": "uint256"
        },
        {
          "internalType": "uint256",
          "name": "_lockType",
          "type": "uint256"
        }
      ],
      "name": "deposit",
      "outputs": [],
      "stateMutability": "nonpayable",
      "type": "function"
    },
    {
      "inputs": [
        {
          "internalType": "contract IKeplerPair",
          "name": "_pair",
          "type": "address"
        },
        {
          "internalType": "uint256",
          "name": "_amount",
          "type": "uint256"
        },
        {
          "internalType": "uint256",
          "name": "_lockType",
          "type": "uint256"
        },
        {
          "internalType": "address",
          "name": "to",
          "type": "address"
        }
      ],
      "name": "depositFor",
      "outputs": [],
      "stateMutability": "nonpayable",
      "type": "function"
    },
    {
      "inputs": [
        {
          "internalType": "contract IKeplerPair",
          "name": "pair",
          "type": "address"
        },
        {
          "internalType": "contract IERC20",
          "name": "token",
          "type": "address"
        },
        {
          "internalType": "uint256",
          "name": "amount",
          "type": "uint256"
        }
      ],
      "name": "doInviteMiner",
      "outputs": [],
      "stateMutability": "nonpayable",
      "type": "function"
    },
    {
      "inputs": [
        {
          "internalType": "contract IKeplerPair",
          "name": "pair",
          "type": "address"
        },
        {
          "internalType": "contract IERC20",
          "name": "token",
          "type": "address"
        },
        {
          "internalType": "uint256",
          "name": "amount",
          "type": "uint256"
        }
      ],
      "name": "doMiner",
      "outputs": [],
      "stateMutability": "nonpayable",
      "type": "function"
    },
    {
      "inputs": [
        {
          "internalType": "contract IKeplerPair",
          "name": "_pair",
          "type": "address"
        }
      ],
      "name": "getInvitePoolInfo",
      "outputs": [
        {
          "internalType": "uint256",
          "name": "totalShares",
          "type": "uint256"
        },
        {
          "internalType": "uint256",
          "name": "token0AccPerShare",
          "type": "uint256"
        },
        {
          "internalType": "uint256",
          "name": "token1AccPerShare",
          "type": "uint256"
        }
      ],
      "stateMutability": "view",
      "type": "function"
    },
    {
      "inputs": [
        {
          "internalType": "contract IKeplerPair",
          "name": "_pair",
          "type": "address"
        },
        {
          "internalType": "address",
          "name": "_user",
          "type": "address"
        }
      ],
      "name": "getInviteUserInfo",
      "outputs": [
        {
          "internalType": "uint256",
          "name": "amount",
          "type": "uint256"
        },
        {
          "internalType": "uint256",
          "name": "shares",
          "type": "uint256"
        },
        {
          "internalType": "uint256",
          "name": "token0Debt",
          "type": "uint256"
        },
        {
          "internalType": "uint256",
          "name": "token1Debt",
          "type": "uint256"
        },
        {
          "internalType": "uint256",
          "name": "token0Pending",
          "type": "uint256"
        },
        {
          "internalType": "uint256",
          "name": "token1Pending",
          "type": "uint256"
        }
      ],
      "stateMutability": "view",
      "type": "function"
    },
    {
      "inputs": [
        {
          "internalType": "contract IKeplerPair",
          "name": "pair",
          "type": "address"
        },
        {
          "internalType": "address",
          "name": "inviter",
          "type": "address"
        }
      ],
      "name": "getInviterAmount",
      "outputs": [
        {
          "internalType": "uint256",
          "name": "",
          "type": "uint256"
        }
      ],
      "stateMutability": "view",
      "type": "function"
    },
    {
      "inputs": [
        {
          "internalType": "contract IKeplerPair",
          "name": "_pair",
          "type": "address"
        }
      ],
      "name": "getPoolInfo",
      "outputs": [
        {
          "internalType": "uint256",
          "name": "totalShares",
          "type": "uint256"
        },
        {
          "internalType": "uint256",
          "name": "token0AccPerShare",
          "type": "uint256"
        },
        {
          "internalType": "uint256",
          "name": "token1AccPerShare",
          "type": "uint256"
        }
      ],
      "stateMutability": "view",
      "type": "function"
    },
    {
      "inputs": [
        {
          "internalType": "uint256",
          "name": "lockType",
          "type": "uint256"
        }
      ],
      "name": "getType",
      "outputs": [
        {
          "internalType": "uint256",
          "name": "",
          "type": "uint256"
        },
        {
          "internalType": "uint256",
          "name": "",
          "type": "uint256"
        }
      ],
      "stateMutability": "pure",
      "type": "function"
    },
    {
      "inputs": [
        {
          "internalType": "contract IKeplerPair",
          "name": "pair",
          "type": "address"
        },
        {
          "internalType": "address",
          "name": "_user",
          "type": "address"
        },
        {
          "internalType": "uint256",
          "name": "lockType",
          "type": "uint256"
        }
      ],
      "name": "getUserAmount",
      "outputs": [
        {
          "internalType": "uint256",
          "name": "",
          "type": "uint256"
        }
      ],
      "stateMutability": "view",
      "type": "function"
    },
    {
      "inputs": [
        {
          "internalType": "contract IKeplerPair",
          "name": "_pair",
          "type": "address"
        },
        {
          "internalType": "address",
          "name": "_user",
          "type": "address"
        }
      ],
      "name": "getUserInfo",
      "outputs": [
        {
          "internalType": "uint256",
          "name": "amount",
          "type": "uint256"
        },
        {
          "internalType": "uint256",
          "name": "shares",
          "type": "uint256"
        },
        {
          "internalType": "uint256",
          "name": "token0Debt",
          "type": "uint256"
        },
        {
          "internalType": "uint256",
          "name": "token1Debt",
          "type": "uint256"
        },
        {
          "internalType": "uint256",
          "name": "token0Pending",
          "type": "uint256"
        },
        {
          "internalType": "uint256",
          "name": "token1Pending",
          "type": "uint256"
        }
      ],
      "stateMutability": "view",
      "type": "function"
    },
    {
      "inputs": [
        {
          "internalType": "address",
          "name": "pair",
          "type": "address"
        },
        {
          "internalType": "address",
          "name": "_user",
          "type": "address"
        }
      ],
      "name": "getUserSnapshot",
      "outputs": [
        {
          "internalType": "uint256",
          "name": "",
          "type": "uint256"
        }
      ],
      "stateMutability": "view",
      "type": "function"
    },
    {
      "inputs": [
        {
          "internalType": "contract IKeplerPair",
          "name": "",
          "type": "address"
        },
        {
          "internalType": "address",
          "name": "",
          "type": "address"
        }
      ],
      "name": "inviterUserInfo",
      "outputs": [
        {
          "internalType": "uint256",
          "name": "amount",
          "type": "uint256"
        },
        {
          "internalType": "uint256",
          "name": "shares",
          "type": "uint256"
        },
        {
          "internalType": "uint256",
          "name": "token0Debt",
          "type": "uint256"
        },
        {
          "internalType": "uint256",
          "name": "token1Debt",
          "type": "uint256"
        },
        {
          "internalType": "uint256",
          "name": "token0Pending",
          "type": "uint256"
        },
        {
          "internalType": "uint256",
          "name": "token1Pending",
          "type": "uint256"
        }
      ],
      "stateMutability": "view",
      "type": "function"
    },
    {
      "inputs": [],
      "name": "owner",
      "outputs": [
        {
          "internalType": "address",
          "name": "",
          "type": "address"
        }
      ],
      "stateMutability": "view",
      "type": "function"
    },
    {
      "inputs": [],
      "name": "renounceOwnership",
      "outputs": [],
      "stateMutability": "nonpayable",
      "type": "function"
    },
    {
      "inputs": [
        {
          "internalType": "address",
          "name": "_snapshotCreateCaller",
          "type": "address"
        }
      ],
      "name": "setSnapshotCreateCaller",
      "outputs": [],
      "stateMutability": "nonpayable",
      "type": "function"
    },
    {
      "inputs": [
        {
          "internalType": "address",
          "name": "newOwner",
          "type": "address"
        }
      ],
      "name": "transferOwnership",
      "outputs": [],
      "stateMutability": "nonpayable",
      "type": "function"
    },
    {
      "inputs": [
        {
          "internalType": "contract IKeplerPair",
          "name": "",
          "type": "address"
        },
        {
          "internalType": "address",
          "name": "",
          "type": "address"
        }
      ],
      "name": "userInfo",
      "outputs": [
        {
          "internalType": "uint256",
          "name": "amount",
          "type": "uint256"
        },
        {
          "internalType": "uint256",
          "name": "shares",
          "type": "uint256"
        },
        {
          "internalType": "uint256",
          "name": "token0Debt",
          "type": "uint256"
        },
        {
          "internalType": "uint256",
          "name": "token1Debt",
          "type": "uint256"
        },
        {
          "internalType": "uint256",
          "name": "token0Pending",
          "type": "uint256"
        },
        {
          "internalType": "uint256",
          "name": "token1Pending",
          "type": "uint256"
        }
      ],
      "stateMutability": "view",
      "type": "function"
    },
    {
      "inputs": [
        {
          "internalType": "contract IKeplerPair",
          "name": "",
          "type": "address"
        },
        {
          "internalType": "address",
          "name": "",
          "type": "address"
        },
        {
          "internalType": "uint256",
          "name": "",
          "type": "uint256"
        }
      ],
      "name": "userLockInfo",
      "outputs": [
        {
          "internalType": "uint256",
          "name": "amount",
          "type": "uint256"
        },
        {
          "internalType": "uint256",
          "name": "shares",
          "type": "uint256"
        },
        {
          "internalType": "uint256",
          "name": "lockType",
          "type": "uint256"
        },
        {
          "internalType": "uint256",
          "name": "expireAt",
          "type": "uint256"
        }
      ],
      "stateMutability": "view",
      "type": "function"
    },
    {
      "inputs": [
        {
          "internalType": "contract IKeplerPair",
          "name": "_pair",
          "type": "address"
        },
        {
          "internalType": "address",
          "name": "_user",
          "type": "address"
        }
      ],
      "name": "userLockNum",
      "outputs": [
        {
          "internalType": "uint256",
          "name": "",
          "type": "uint256"
        }
      ],
      "stateMutability": "view",
      "type": "function"
    },
    {
      "inputs": [
        {
          "internalType": "contract IKeplerPair",
          "name": "",
          "type": "address"
        },
        {
          "internalType": "address",
          "name": "",
          "type": "address"
        },
        {
          "internalType": "uint256",
          "name": "",
          "type": "uint256"
        }
      ],
      "name": "userLockTypeAmount",
      "outputs": [
        {
          "internalType": "uint256",
          "name": "",
          "type": "uint256"
        }
      ],
      "stateMutability": "view",
      "type": "function"
    },
    {
      "inputs": [
        {
          "internalType": "contract IKeplerPair",
          "name": "_pair",
          "type": "address"
        },
        {
          "internalType": "uint256",
          "name": "_lockId",
          "type": "uint256"
        }
      ],
      "name": "withdraw",
      "outputs": [],
      "stateMutability": "nonpayable",
      "type": "function"
    }
  ],
  "transactionHash": "0x8b6ad3f35c467f7792ab050f8dd79b9d393141067213cd29f13e68141ce14248",
  "args": [
    "0x26CeF7683a8dC396e8456B015031766F17d2E2d7",
    "0x9C03457b5b565F57898e4d0353601978c3f7fa15"
  ],
  "solcInputHash": "df303fbcf552e45b0d65b88e14a74681",
  "bytecode": "0x60a06040523480156200001157600080fd5b5060405162003b8538038062003b85833981810160405260408110156200003757600080fd5b50805160209091015160006200004c620000cd565b600080546001600160a01b0319166001600160a01b0383169081178255604051929350917f8be0079c531659141344cd1fd0a4f28419497f9722a3daafe3b4186f6b6457e0908290a350600180546001600160a01b0319166001600160a01b03939093169290921790915560601b6001600160601b031916608052620000d1565b3390565b60805160601c613a8262000103600039806115ce52806120f352806121bc528061234e528061241c5250613a826000f3fe608060405234801561001057600080fd5b50600436106101a95760003560e01c8063715018a6116100f9578063ceb04d5311610097578063f2801fe711610071578063f2801fe7146105f6578063f2fde38b14610624578063f3fef3a31461064a578063f741198f14610676576101a9565b8063ceb04d5314610560578063cefbc49614610596578063ef3a2174146105bc576101a9565b8063964f5517116100d3578063964f5517146104fd578063970875ce1461051a578063a260988c14610522578063ad5c464814610558576101a9565b8063715018a6146104ab5780638da5cb5b146104b35780638f2a1e51146104d7576101a9565b80632526da0e116101665780632d2d55eb116101405780632d2d55eb146103e35780633cb79e64146104115780634036ab7814610447578063658e43d81461047d576101a9565b80632526da0e1461033f57806329aaf8731461036d5780632cae426b146103a3576101a9565b806306bfa938146101ae57806308cc72d8146101f25780630efe6a8b1461024e5780630f208beb14610282578063132f129f146102e357806315d68ed714610311575b600080fd5b6101d4600480360360208110156101c457600080fd5b50356001600160a01b03166106a4565b60408051938452602084019290925282820152519081900360600190f35b6102286004803603606081101561020857600080fd5b506001600160a01b0381358116916020810135909116906040013561070a565b604080519485526020850193909352838301919091526060830152519081900360800190f35b6102806004803603606081101561026457600080fd5b506001600160a01b03813516906020810135906040013561075c565b005b6102b06004803603604081101561029857600080fd5b506001600160a01b038135811691602001351661076d565b604080519687526020870195909552858501939093526060850191909152608084015260a0830152519081900360c00190f35b610280600480360360408110156102f957600080fd5b506001600160a01b03813581169160200135166107ad565b6102806004803603604081101561032757600080fd5b506001600160a01b0381358116916020013516610ab7565b6102b06004803603604081101561035557600080fd5b506001600160a01b0381358116916020013516610d29565b6102806004803603606081101561038357600080fd5b506001600160a01b03813581169160208101359091169060400135610d69565b6103d1600480360360408110156103b957600080fd5b506001600160a01b0381358116916020013516610fd4565b60408051918252519081900360200190f35b6103d1600480360360408110156103f957600080fd5b506001600160a01b0381358116916020013516611001565b6102806004803603606081101561042757600080fd5b506001600160a01b038135811691602081013590911690604001356110c1565b6104646004803603602081101561045d57600080fd5b5035611315565b6040805192835260208301919091528051918290030190f35b6103d16004803603604081101561049357600080fd5b506001600160a01b03813581169160200135166113b4565b6102806113df565b6104bb61149d565b604080516001600160a01b039092168252519081900360200190f35b610280600480360360208110156104ed57600080fd5b50356001600160a01b03166114ac565b6102806004803603602081101561051357600080fd5b5035611542565b6103d1611590565b6103d16004803603606081101561053857600080fd5b506001600160a01b03813581169160208101359091169060400135611596565b6104bb6115cc565b6103d16004803603606081101561057657600080fd5b506001600160a01b038135811691602081013590911690604001356115f0565b6101d4600480360360208110156105ac57600080fd5b50356001600160a01b0316611613565b610280600480360360808110156105d257600080fd5b506001600160a01b0381358116916020810135916040820135916060013516611679565b6102b06004803603604081101561060c57600080fd5b506001600160a01b0381358116916020013516611a75565b6102806004803603602081101561063a57600080fd5b50356001600160a01b0316611b0a565b6102806004803603604081101561066057600080fd5b506001600160a01b038135169060200135611c1e565b6102b06004803603604081101561068c57600080fd5b506001600160a01b0381358116916020013516612825565b60008060006106b16138e5565b505050506001600160a01b0316600090815260066020908152604091829020825160808101845281548082526001830154938201849052600283015494820185905260039092015460ff16151560609091015292909190565b6008602052826000526040600020602052816000526040600020818154811061072f57fe5b60009182526020909120600490910201805460018201546002830154600390930154919550935090915084565b61076883838333611679565b505050565b6007602090815260009283526040808420909152908252902080546001820154600283015460038401546004850154600590950154939492939192909186565b6000826001600160a01b0316630dfe16816040518163ffffffff1660e01b815260040160206040518083038186803b1580156107e857600080fd5b505afa1580156107fc573d6000803e3d6000fd5b505050506040513d602081101561081257600080fd5b50516040805163d21220a760e01b815290519192506000916001600160a01b0386169163d21220a7916004808301926020929190829003018186803b15801561085a57600080fd5b505afa15801561086e573d6000803e3d6000fd5b505050506040513d602081101561088457600080fd5b50516001600160a01b0385166000908152600760209081526040808320338452909152902054909150806108ba57505050610ab3565b826001600160a01b0316846001600160a01b0316141561099a576001600160a01b0385166000908152600a60209081526040808320600190810154600b8452828520338652909352922091820154600283015460049093015491929091610947816109418461093b670de0b6b3a76400006109358a8a6128ba565b90612913565b9061297a565b906129d7565b945061095f670de0b6b3a764000061093586866128ba565b6001600160a01b038a166000908152600b602090815260408083203384529091528120600281019290925560049091015550610aa492505050565b816001600160a01b0316846001600160a01b03161415610a67576001600160a01b0385166000908152600a6020908152604080832060020154600b835281842033855290925290912060018101546003820154600590920154909190610a14816109418461093b670de0b6b3a76400006109358a8a6128ba565b9450610a2c670de0b6b3a764000061093586866128ba565b6001600160a01b038a166000908152600b602090815260408083203384529091528120600381019290925560059091015550610aa492505050565b6040805162461bcd60e51b815260206004820152600d60248201526c34b63632b3b0b6103a37b5b2b760991b604482015290519081900360640190fd5b610aaf843383612a31565b5050505b5050565b6000826001600160a01b0316630dfe16816040518163ffffffff1660e01b815260040160206040518083038186803b158015610af257600080fd5b505afa158015610b06573d6000803e3d6000fd5b505050506040513d6020811015610b1c57600080fd5b50516040805163d21220a760e01b815290519192506000916001600160a01b0386169163d21220a7916004808301926020929190829003018186803b158015610b6457600080fd5b505afa158015610b78573d6000803e3d6000fd5b505050506040513d6020811015610b8e57600080fd5b5051905060006001600160a01b038481169084161415610c5c576001600160a01b038516600090815260066020908152604080832060019081015460078452828520338652909352922091820154600283015460049093015491929091610c09816109418461093b670de0b6b3a76400006109358a8a6128ba565b9450610c21670de0b6b3a764000061093586866128ba565b6001600160a01b038a1660009081526007602090815260408083203384529091528120600281019290925560049091015550610aa492505050565b816001600160a01b0316846001600160a01b03161415610a67576001600160a01b0385166000908152600660209081526040808320600201546007835281842033855290925290912060018101546003820154600590920154909190610cd6816109418461093b670de0b6b3a76400006109358a8a6128ba565b9450610cee670de0b6b3a764000061093586866128ba565b6001600160a01b038a1660009081526007602090815260408083203384529091528120600381019290925560059091015550610aa492505050565b600b602090815260009283526040808420909152908252902080546001820154600283015460038401546004850154600590950154939492939192909186565b610d7283612a83565b6000836001600160a01b0316630dfe16816040518163ffffffff1660e01b815260040160206040518083038186803b158015610dad57600080fd5b505afa158015610dc1573d6000803e3d6000fd5b505050506040513d6020811015610dd757600080fd5b50516040805163d21220a760e01b815290519192506000916001600160a01b0387169163d21220a7916004808301926020929190829003018186803b158015610e1f57600080fd5b505afa158015610e33573d6000803e3d6000fd5b505050506040513d6020811015610e4957600080fd5b505190506001600160a01b038481169083161480610e785750806001600160a01b0316846001600160a01b0316145b610eb9576040805162461bcd60e51b815260206004820152600d60248201526c34b63632b3b0b6103a37b5b2b760991b604482015290519081900360640190fd5b6001600160a01b0384811690831614610ed485333087612b26565b610edc6138e5565b506001600160a01b038616600090815260066020908152604091829020825160808101845281548082526001830154938201939093526002820154938101939093526003015460ff1615156060830152610f395750505050610768565b8115610f87578051610f6690610f5b9061093588670de0b6b3a76400006128ba565b6020830151906129d7565b6001600160a01b038816600090815260066020526040902060010155610fcb565b8051610fae90610fa39061093588670de0b6b3a76400006128ba565b6040830151906129d7565b6001600160a01b0388166000908152600660205260409020600201555b50505050505050565b6001600160a01b038083166000908152600b60209081526040808320938516835292905220545b92915050565b60006002546000141561103a57506001600160a01b03808316600090815260076020908152604080832093851683529290522054610ffb565b6002546001600160a01b03808516600090815260036020908152604080832093871683529290522054141561109557506001600160a01b03808316600090815260046020908152604080832093851683529290522054610ffb565b506001600160a01b03808316600090815260076020908152604080832093851683529290522054610ffb565b6110ca83612a83565b6000836001600160a01b0316630dfe16816040518163ffffffff1660e01b815260040160206040518083038186803b15801561110557600080fd5b505afa158015611119573d6000803e3d6000fd5b505050506040513d602081101561112f57600080fd5b50516040805163d21220a760e01b815290519192506000916001600160a01b0387169163d21220a7916004808301926020929190829003018186803b15801561117757600080fd5b505afa15801561118b573d6000803e3d6000fd5b505050506040513d60208110156111a157600080fd5b505190506001600160a01b0384811690831614806111d05750806001600160a01b0316846001600160a01b0316145b611211576040805162461bcd60e51b815260206004820152600d60248201526c34b63632b3b0b6103a37b5b2b760991b604482015290519081900360640190fd5b6001600160a01b038481169083161461122c85333087612b26565b6112346138e5565b506001600160a01b0386166000908152600a6020908152604091829020825160808101845281548082526001830154938201939093526002820154938101939093526003015460ff16151560608301526112915750505050610768565b81156112d45780516112b390610f5b9061093588670de0b6b3a76400006128ba565b6001600160a01b0388166000908152600a6020526040902060010155610fcb565b80516112f090610fa39061093588670de0b6b3a76400006128ba565b6001600160a01b0388166000908152600a602052604090206002015550505050505050565b6000808261132957506003905060006113af565b82600114156113405750600a905062278d006113af565b82600214156113575750600f90506276a7006113af565b826003141561136f5750601e90506301da9c006113af565b6040805162461bcd60e51b815260206004820152601060248201526f696c6c6567616c206c6f636b5479706560801b604482015290519081900360640190fd5b915091565b6001600160a01b03918216600090815260086020908152604080832093909416825291909152205490565b6113e7612b86565b6001600160a01b03166113f861149d565b6001600160a01b031614611453576040805162461bcd60e51b815260206004820181905260248201527f4f776e61626c653a2063616c6c6572206973206e6f7420746865206f776e6572604482015290519081900360640190fd5b600080546040516001600160a01b03909116907f8be0079c531659141344cd1fd0a4f28419497f9722a3daafe3b4186f6b6457e0908390a3600080546001600160a01b0319169055565b6000546001600160a01b031690565b6114b4612b86565b6001600160a01b03166114c561149d565b6001600160a01b031614611520576040805162461bcd60e51b815260206004820181905260248201527f4f776e61626c653a2063616c6c6572206973206e6f7420746865206f776e6572604482015290519081900360640190fd5b600580546001600160a01b0319166001600160a01b0392909216919091179055565b6005546001600160a01b0316331461158b5760405162461bcd60e51b81526004018080602001828103825260258152602001806139ba6025913960400191505060405180910390fd5b600255565b60025481565b6001600160a01b0380841660009081526009602090815260408083209386168352928152828220848352905220545b9392505050565b7f000000000000000000000000000000000000000000000000000000000000000081565b600960209081526000938452604080852082529284528284209052825290205481565b60008060006116206138e5565b505050506001600160a01b03166000908152600a6020908152604091829020825160808101845281548082526001830154938201849052600283015494820185905260039092015460ff16151560609091015292909190565b61168284612a83565b60008061168e84611315565b9150915061169a6138e5565b506001600160a01b03861660009081526006602090815260409182902082516080810184528154815260018201549281019290925260028101549282019290925260039091015460ff16151560608201526116f361390f565b506001600160a01b038088166000908152600760209081526040808320938816835292815290829020825160c08101845281548152600182015492810192909252600281015492820192909252600382015460608201526004820154608082015260059091015460a082015261176b88868484612b8a565b600061177788866128ba565b90508715611a0b5761178b8987308b612b26565b6001600160a01b03808a166000908152600860209081526040808320938a16835292815282822083516080810185528c81528083018681529481018c8152428a01606083019081528354600181810186559487529585902092516004909602909201948555945191840191909155925160028301559151600390910155820151611873576118198987612c9e565b6001600160a01b03808a166000818152600b60209081526040808320948b16835293815283822060010154928252600a90529190912054611859916129d7565b6001600160a01b038a166000908152600a60205260409020555b825161187f90826129d7565b6001600160a01b038a166000908152600660209081526040909120919091558201516118ab90826129d7565b6001600160a01b03808b166000908152600760209081526040808320938b168352929052206001015581516118e090896129d7565b6001600160a01b03808b166000908152600760209081526040808320938b16835292815291902091909155838101519083015161193691670de0b6b3a764000091610935919061193090866129d7565b906128ba565b6001600160a01b03808b166000908152600760209081526040808320938b16835292815290829020600201929092558401519083015161198991670de0b6b3a764000091610935919061193090866129d7565b6001600160a01b03808b166000818152600760209081526040808320948c1680845294825280832060030195909555918152600982528381209281529181528282208a8352905220546119dc90896129d7565b6001600160a01b03808b166000908152600960209081526040808320938b1683529281528282208b8352905220555b611a17868a8a84612e96565b886001600160a01b0316866001600160a01b03167fdcbc1c05240f31ff3ad067ef1ee35ce4997762752e3a095284754544f4c709d78a8a604051808381526020018281526020019250505060405180910390a3505050505050505050565b600080600080600080611a8661390f565b505050506001600160a01b039485166000908152600760209081526040808320969097168252948552859020855160c08101875281548082526001830154968201879052600283015497820188905260038301546060830181905260048401546080840181905260059094015460a090930183905290989697969095509193509150565b611b12612b86565b6001600160a01b0316611b2361149d565b6001600160a01b031614611b7e576040805162461bcd60e51b815260206004820181905260248201527f4f776e61626c653a2063616c6c6572206973206e6f7420746865206f776e6572604482015290519081900360640190fd5b6001600160a01b038116611bc35760405162461bcd60e51b815260040180806020018281038252602681526020018061396e6026913960400191505060405180910390fd5b600080546040516001600160a01b03808516939216917f8be0079c531659141344cd1fd0a4f28419497f9722a3daafe3b4186f6b6457e091a3600080546001600160a01b0319166001600160a01b0392909216919091179055565b6001600160a01b0382166000908152600860209081526040808320338452909152902054808210611c87576040805162461bcd60e51b815260206004820152600e60248201526d1a5b1b1959d85b081b1bd8dad25160921b604482015290519081900360640190fd5b611c8f613945565b6001600160a01b03841660009081526008602090815260408083203384529091529020805484908110611cbe57fe5b906000526020600020906004020160405180608001604052908160008201548152602001600182015481526020016002820154815260200160038201548152505090508060600151421015611d4f576040805162461bcd60e51b81526020600482015260126024820152716e6f74207468652072696768742074696d6560701b604482015290519081900360640190fd5b611d576138e5565b506001600160a01b03841660009081526006602090815260409182902082516080810184528154815260018201549281019290925260028101549282019290925260039091015460ff1615156060820152611db061390f565b506001600160a01b03851660009081526007602090815260408083203380855290835292819020815160c0810183528154815260018201549381019390935260028101549183019190915260038101546060830152600481015460808301526005015460a082015290611e269087908484612b8a565b60208301518251611e369161297a565b6001600160a01b0387166000908152600660209081526040909120919091558381015190820151611e669161297a565b6001600160a01b038716600090815260076020908152604080832033845290915290206001015582518151611e9a9161297a565b6001600160a01b0387166000818152600760209081526040808320338085529083528184209590955587519383526009825280832094835293815283822087850151835290529190912054611eee9161297a565b6001600160a01b0387166000908152600960209081526040808320338452825280832087820151845282529091209190915583810151908201511415611f8d57611f388633612c9e565b6001600160a01b0386166000818152600b60209081526040808320338452825280832060010154938352600a909152902054611f739161297a565b6001600160a01b0387166000908152600a60205260409020555b82511561251a576000866001600160a01b0316630dfe16816040518163ffffffff1660e01b815260040160206040518083038186803b158015611fcf57600080fd5b505afa158015611fe3573d6000803e3d6000fd5b505050506040513d6020811015611ff957600080fd5b50516040805163d21220a760e01b815290519192506000916001600160a01b038a169163d21220a7916004808301926020929190829003018186803b15801561204157600080fd5b505afa158015612055573d6000803e3d6000fd5b505050506040513d602081101561206b57600080fd5b505185516040805163a9059cbb60e01b81526001600160a01b038c166004820181905260248201939093529051929350909163a9059cbb916044808201926020929091908290030181600087803b1580156120c557600080fd5b505af11580156120d9573d6000803e3d6000fd5b505050506040513d60208110156120ef57600080fd5b50507f00000000000000000000000000000000000000000000000000000000000000006001600160a01b03908116908316141561234c57600080896001600160a01b03166389afcb44306040518263ffffffff1660e01b815260040180826001600160a01b031681526020019150506040805180830381600087803b15801561217757600080fd5b505af115801561218b573d6000803e3d6000fd5b505050506040513d60408110156121a157600080fd5b50805160209091015190925090506121ba833383612a31565b7f00000000000000000000000000000000000000000000000000000000000000006001600160a01b0316632e1a7d4d836040518263ffffffff1660e01b815260040180828152602001915050600060405180830381600087803b15801561222057600080fd5b505af1158015612234573d6000803e3d6000fd5b506000925033915084905082805b506040519080825280601f01601f19166020018201604052801561226d576020820181803683370190505b506040518082805190602001908083835b6020831061229d5780518252601f19909201916020918201910161227e565b6001836020036101000a03801982511681845116808217855250505050505090500191505060006040518083038185875af1925050503d80600081146122ff576040519150601f19603f3d011682016040523d82523d6000602084013e612304565b606091505b50509050806123445760405162461bcd60e51b8152600401808060200182810382526023815260200180613a006023913960400191505060405180910390fd5b505050612517565b7f00000000000000000000000000000000000000000000000000000000000000006001600160a01b0316816001600160a01b031614156124a657600080896001600160a01b03166389afcb44306040518263ffffffff1660e01b815260040180826001600160a01b031681526020019150506040805180830381600087803b1580156123d757600080fd5b505af11580156123eb573d6000803e3d6000fd5b505050506040513d604081101561240157600080fd5b508051602090910151909250905061241a843384612a31565b7f00000000000000000000000000000000000000000000000000000000000000006001600160a01b0316632e1a7d4d826040518263ffffffff1660e01b815260040180828152602001915050600060405180830381600087803b15801561248057600080fd5b505af1158015612494573d6000803e3d6000fd5b50600092503391508390508280612242565b6040805163226bf2d160e21b815233600482015281516001600160a01b038b16926389afcb4492602480820193918290030181600087803b1580156124ea57600080fd5b505af11580156124fe573d6000803e3d6000fd5b505050506040513d604081101561251457600080fd5b50505b50505b82516020840151600019860187146126bc57612534613945565b6001600160a01b038916600090815260086020908152604080832033845290915290208054600019890190811061256757fe5b60009182526020808320604080516080810182526004909402909101805480855260018201548585015260028201548584015260039091015460608501526001600160a01b038e168552600883528185203386529092529092208054919350908a9081106125d157fe5b60009182526020808320600490920290910192909255828201516001600160a01b038c16825260088352604080832033845290935291902080548a90811061261557fe5b60009182526020808320600160049093020191909101929092556040808401516001600160a01b038d16835260088452818320338452909352902080548a90811061265c57fe5b600091825260208083206002600490930201919091019290925560608301516001600160a01b038c16825260088352604080832033845290935291902080548a9081106126a557fe5b906000526020600020906004020160030181905550505b6001600160a01b038816600090815260086020908152604080832033845290915290208054806126e857fe5b600082815260208082206004600019909401938402018281556001810183905560028101839055600301919091559155848101519084015161273d91670de0b6b3a7640000916109359190611930908661297a565b6001600160a01b0389166000908152600760209081526040808320338452825291829020600201929092558501519084015161278c91670de0b6b3a7640000916109359190611930908661297a565b6001600160a01b0389166000908152600760209081526040808320338085529252909120600301919091556127c3908984846131ac565b845160208087015160408089015181518c815293840194909452828101919091526060820192909252905133917fe08737ac48a1dab4b1a46c7dc9398bd5bfc6d7ad6fabb7cd8caa254de14def35919081900360800190a25050505050505050565b60008060008060008061283661390f565b505050506001600160a01b039485166000908152600b60209081526040808320969097168252948552859020855160c08101875281548082526001830154968201879052600283015497820188905260038301546060830181905260048401546080840181905260059094015460a090930183905290989697969095509193509150565b6000826128c957506000610ffb565b828202828482816128d657fe5b04146115c55760405162461bcd60e51b81526004018080602001828103825260218152602001806139df6021913960400191505060405180910390fd5b6000808211612969576040805162461bcd60e51b815260206004820152601a60248201527f536166654d6174683a206469766973696f6e206279207a65726f000000000000604482015290519081900360640190fd5b81838161297257fe5b049392505050565b6000828211156129d1576040805162461bcd60e51b815260206004820152601e60248201527f536166654d6174683a207375627472616374696f6e206f766572666c6f770000604482015290519081900360640190fd5b50900390565b6000828201838110156115c5576040805162461bcd60e51b815260206004820152601b60248201527f536166654d6174683a206164646974696f6e206f766572666c6f770000000000604482015290519081900360640190fd5b604080516001600160a01b038416602482015260448082018490528251808303909101815260649091019091526020810180516001600160e01b031663a9059cbb60e01b179052610768908490613492565b6001600160a01b03811660009081526006602052604090206003015460ff16151560011415612ab157612b23565b6001600160a01b03811660009081526006602090815260408083206003808201805460ff19166001908117909155600a90945291909320015460ff1615151415612afb5750612b23565b506001600160a01b0381166000908152600a60205260409020600301805460ff191660011790555b50565b604080516001600160a01b0380861660248301528416604482015260648082018490528251808303909101815260849091019091526020810180516001600160e01b03166323b872dd60e01b179052612b80908590613492565b50505050565b3390565b602081015115612b80576000612bbd670de0b6b3a7640000610935856020015185602001516128ba90919063ffffffff16565b9050612be4612bd983604001518361297a90919063ffffffff16565b6080840151906129d7565b6001600160a01b0386811660009081526007602090815260408083209389168352928152918120600481019390935560029092018390558481015190840151612c3a91670de0b6b3a764000091610935916128ba565b9050612c61612c5684606001518361297a90919063ffffffff16565b60a0850151906129d7565b6001600160a01b03968716600090815260076020908152604080832098909916825296909652959094206005810195909555505050600390910155565b6001600160a01b038083166000908152600b602090815260408083209385168352929052206001015415610ab3576001600160a01b038083166000908152600a60209081526040808320600190810154600b8452828520958716855294909252822001549091612d1c91670de0b6b3a76400009161093591906128ba565b6001600160a01b038085166000908152600b6020908152604080832093871683529290522060020154909150612d8690612d5790839061297a565b6001600160a01b038086166000908152600b6020908152604080832093881683529290522060040154906129d7565b6001600160a01b038085166000818152600b60209081526040808320948816808452858352818420600481019790975560028701889055938352600a8252822060019081015493835293905291909201549091612df191670de0b6b3a76400009161093591906128ba565b6001600160a01b038086166000908152600b6020908152604080832093881683529290522060030154909150612e5b90612e2c90839061297a565b6001600160a01b038087166000908152600b6020908152604080832093891683529290522060050154906129d7565b6001600160a01b039485166000908152600b602090815260408083209690971682529490945293909220600581019390935550600390910155565b6001546040805163774785bd60e11b81526001600160a01b0387811660048301529151600093929092169163ee8f0b7a91602480820192602092909190829003018186803b158015612ee757600080fd5b505afa158015612efb573d6000803e3d6000fd5b505050506040513d6020811015612f1157600080fd5b505190506001600160a01b038116612f63576040805162461bcd60e51b815260206004820152601060248201526f75736572206e6f74207265676973746560801b604482015290519081900360640190fd5b612f6b6138e5565b506001600160a01b0384166000908152600a602090815260409182902082516080810184528154815260018201549281019290925260028101549282019290925260039091015460ff1615156060820152612fc461390f565b506001600160a01b038086166000908152600b60209081526040808320938616835292815290829020825160c08101845281548152600182015492810192909252600281015492820192909252600382015460608201526004820154608082015260059091015460a082015261303c86888484613543565b8315610fcb576001600160a01b038087166000908152600760209081526040808320938716835292905220600101541561309657815161307c90856129d7565b6001600160a01b0387166000908152600a60205260409020555b80516130a290856129d7565b6001600160a01b038088166000908152600b602090815260408083209388168352929052206001015580516130d790866129d7565b6001600160a01b038088166000908152600b60209081526040808320938816835292815291902091909155828101519082015161312791670de0b6b3a764000091610935919061193090896129d7565b6001600160a01b038088166000908152600b60209081526040808320938816835292815290829020600201929092558301519082015161317a91670de0b6b3a764000091610935919061193090896129d7565b6001600160a01b038088166000908152600b602090815260408083209388168352929052206003015550505050505050565b6001546040805163774785bd60e11b81526001600160a01b0387811660048301529151600093929092169163ee8f0b7a91602480820192602092909190829003018186803b1580156131fd57600080fd5b505afa158015613211573d6000803e3d6000fd5b505050506040513d602081101561322757600080fd5b505190506001600160a01b038116613279576040805162461bcd60e51b815260206004820152601060248201526f75736572206e6f74207265676973746560801b604482015290519081900360640190fd5b6132816138e5565b506001600160a01b0384166000908152600a602090815260409182902082516080810184528154815260018201549281019290925260028101549282019290925260039091015460ff16151560608201526132da61390f565b506001600160a01b038086166000908152600b60209081526040808320938616835292815290829020825160c08101845281548152600182015492810192909252600281015492820192909252600382015460608201526004820154608082015260059091015460a082015261335286338484613543565b8315613414576001600160a01b03808716600090815260076020908152604080832093871683529290522060010154156133ac578151613392908561297a565b6001600160a01b0387166000908152600a60205260409020555b80516133b8908561297a565b6001600160a01b038088166000908152600b602090815260408083209388168352929052206001015580516133ed908661297a565b6001600160a01b038088166000908152600b60209081526040808320938816835292905220555b61343f670de0b6b3a7640000610935846020015161193088866020015161297a90919063ffffffff16565b6001600160a01b038088166000908152600b60209081526040808320938816835292815290829020600201929092558301519082015161317a91670de0b6b3a7640000916109359190611930908961297a565b60606134e7826040518060400160405280602081526020017f5361666545524332303a206c6f772d6c6576656c2063616c6c206661696c6564815250856001600160a01b03166136c89092919063ffffffff16565b8051909150156107685780806020019051602081101561350657600080fd5b50516107685760405162461bcd60e51b815260040180806020018281038252602a815260200180613a23602a913960400191505060405180910390fd5b602081015115612b80576001600160a01b0380851660009081526007602090815260408083209387168352928152918120600101548483015192840151909261359a91670de0b6b3a76400009161093591906128ba565b905081156135f1576135c76135bc84604001518361297a90919063ffffffff16565b6080850151906129d7565b6001600160a01b038088166000908152600b60209081526040808320938a16835292905220600401555b6001600160a01b038087166000908152600b6020908152604080832093891683529281529181206002018390558582015191850151909161364091670de0b6b3a76400009161093591906128ba565b905082156136975761366d61366285606001518361297a90919063ffffffff16565b60a0860151906129d7565b6001600160a01b038089166000908152600b60209081526040808320938b16835292905220600501555b6001600160a01b038088166000908152600b60209081526040808320938a1683529290522060030155505050505050565b60606136d784846000856136df565b949350505050565b6060824710156137205760405162461bcd60e51b81526004018080602001828103825260268152602001806139946026913960400191505060405180910390fd5b6137298561383b565b61377a576040805162461bcd60e51b815260206004820152601d60248201527f416464726573733a2063616c6c20746f206e6f6e2d636f6e7472616374000000604482015290519081900360640190fd5b60006060866001600160a01b031685876040518082805190602001908083835b602083106137b95780518252601f19909201916020918201910161379a565b6001836020036101000a03801982511681845116808217855250505050505090500191505060006040518083038185875af1925050503d806000811461381b576040519150601f19603f3d011682016040523d82523d6000602084013e613820565b606091505b5091509150613830828286613841565b979650505050505050565b3b151590565b606083156138505750816115c5565b8251156138605782518084602001fd5b8160405162461bcd60e51b81526004018080602001828103825283818151815260200191508051906020019080838360005b838110156138aa578181015183820152602001613892565b50505050905090810190601f1680156138d75780820380516001836020036101000a031916815260200191505b509250505060405180910390fd5b60405180608001604052806000815260200160008152602001600081526020016000151581525090565b6040518060c001604052806000815260200160008152602001600081526020016000815260200160008152602001600081525090565b604051806080016040528060008152602001600081526020016000815260200160008152509056fe4f776e61626c653a206e6577206f776e657220697320746865207a65726f2061646472657373416464726573733a20696e73756666696369656e742062616c616e636520666f722063616c6c6f6e6c7920736e617073686f7443726561746543616c6c65722063616e20646f2074686973536166654d6174683a206d756c7469706c69636174696f6e206f766572666c6f775472616e7366657248656c7065723a204554485f5452414e534645525f4641494c45445361666545524332303a204552433230206f7065726174696f6e20646964206e6f742073756363656564a26469706673582212209c5f3db045eb769ae82b11ec23026e599ffad212e57a79ff3348780e68fdbb6e64736f6c63430007020033",
  "devdoc": {
    "kind": "dev",
    "methods": {
      "owner()": {
        "details": "Returns the address of the current owner."
      },
      "renounceOwnership()": {
        "details": "Leaves the contract without owner. It will not be possible to call `onlyOwner` functions anymore. Can only be called by the current owner. NOTE: Renouncing ownership will leave the contract without an owner, thereby removing any functionality that is only available to the owner."
      },
      "transferOwnership(address)": {
        "details": "Transfers ownership of the contract to a new account (`newOwner`). Can only be called by the current owner."
      }
    },
    "version": 1
  },
  "userdoc": {
    "kind": "user",
    "methods": {},
    "version": 1
  },
  "storageLayout": {
    "storage": [
      {
        "astId": 7,
        "contract": "contracts/farm/MasterChef.sol:MasterChef",
        "label": "_owner",
        "offset": 0,
        "slot": "0",
        "type": "t_address"
      },
      {
        "astId": 4046,
        "contract": "contracts/farm/MasterChef.sol:MasterChef",
        "label": "user",
        "offset": 0,
        "slot": "1",
        "type": "t_contract(IUser)7661"
      },
      {
        "astId": 4050,
        "contract": "contracts/farm/MasterChef.sol:MasterChef",
        "label": "currentSnapshotId",
        "offset": 0,
        "slot": "2",
        "type": "t_uint256"
      },
      {
        "astId": 4056,
        "contract": "contracts/farm/MasterChef.sol:MasterChef",
        "label": "userSnapshotId",
        "offset": 0,
        "slot": "3",
        "type": "t_mapping(t_contract(IKeplerPair)7247,t_mapping(t_address,t_uint256))"
      },
      {
        "astId": 4062,
        "contract": "contracts/farm/MasterChef.sol:MasterChef",
        "label": "userSnapshotAmount",
        "offset": 0,
        "slot": "4",
        "type": "t_mapping(t_contract(IKeplerPair)7247,t_mapping(t_address,t_uint256))"
      },
      {
        "astId": 4064,
        "contract": "contracts/farm/MasterChef.sol:MasterChef",
        "label": "snapshotCreateCaller",
        "offset": 0,
        "slot": "5",
        "type": "t_address"
      },
      {
        "astId": 4099,
        "contract": "contracts/farm/MasterChef.sol:MasterChef",
        "label": "poolInfo",
        "offset": 0,
        "slot": "6",
        "type": "t_mapping(t_contract(IKeplerPair)7247,t_struct(PoolInfo)4095_storage)"
      },
      {
        "astId": 4105,
        "contract": "contracts/farm/MasterChef.sol:MasterChef",
        "label": "userInfo",
        "offset": 0,
        "slot": "7",
        "type": "t_mapping(t_contract(IKeplerPair)7247,t_mapping(t_address,t_struct(UserInfo)4086_storage))"
      },
      {
        "astId": 4112,
        "contract": "contracts/farm/MasterChef.sol:MasterChef",
        "label": "userLockInfo",
        "offset": 0,
        "slot": "8",
        "type": "t_mapping(t_contract(IKeplerPair)7247,t_mapping(t_address,t_array(t_struct(UserLockInfo)4073_storage)dyn_storage))"
      },
      {
        "astId": 4120,
        "contract": "contracts/farm/MasterChef.sol:MasterChef",
        "label": "userLockTypeAmount",
        "offset": 0,
        "slot": "9",
        "type": "t_mapping(t_contract(IKeplerPair)7247,t_mapping(t_address,t_mapping(t_uint256,t_uint256)))"
      },
      {
        "astId": 4124,
        "contract": "contracts/farm/MasterChef.sol:MasterChef",
        "label": "inviterPoolInfo",
        "offset": 0,
        "slot": "10",
        "type": "t_mapping(t_contract(IKeplerPair)7247,t_struct(PoolInfo)4095_storage)"
      },
      {
        "astId": 4130,
        "contract": "contracts/farm/MasterChef.sol:MasterChef",
        "label": "inviterUserInfo",
        "offset": 0,
        "slot": "11",
        "type": "t_mapping(t_contract(IKeplerPair)7247,t_mapping(t_address,t_struct(UserInfo)4086_storage))"
      }
    ],
    "types": {
      "t_address": {
        "encoding": "inplace",
        "label": "address",
        "numberOfBytes": "20"
      },
      "t_array(t_struct(UserLockInfo)4073_storage)dyn_storage": {
        "base": "t_struct(UserLockInfo)4073_storage",
        "encoding": "dynamic_array",
        "label": "struct MasterChef.UserLockInfo[]",
        "numberOfBytes": "32"
      },
      "t_bool": {
        "encoding": "inplace",
        "label": "bool",
        "numberOfBytes": "1"
      },
      "t_contract(IKeplerPair)7247": {
        "encoding": "inplace",
        "label": "contract IKeplerPair",
        "numberOfBytes": "20"
      },
      "t_contract(IUser)7661": {
        "encoding": "inplace",
        "label": "contract IUser",
        "numberOfBytes": "20"
      },
      "t_mapping(t_address,t_array(t_struct(UserLockInfo)4073_storage)dyn_storage)": {
        "encoding": "mapping",
        "key": "t_address",
        "label": "mapping(address => struct MasterChef.UserLockInfo[])",
        "numberOfBytes": "32",
        "value": "t_array(t_struct(UserLockInfo)4073_storage)dyn_storage"
      },
      "t_mapping(t_address,t_mapping(t_uint256,t_uint256))": {
        "encoding": "mapping",
        "key": "t_address",
        "label": "mapping(address => mapping(uint256 => uint256))",
        "numberOfBytes": "32",
        "value": "t_mapping(t_uint256,t_uint256)"
      },
      "t_mapping(t_address,t_struct(UserInfo)4086_storage)": {
        "encoding": "mapping",
        "key": "t_address",
        "label": "mapping(address => struct MasterChef.UserInfo)",
        "numberOfBytes": "32",
        "value": "t_struct(UserInfo)4086_storage"
      },
      "t_mapping(t_address,t_uint256)": {
        "encoding": "mapping",
        "key": "t_address",
        "label": "mapping(address => uint256)",
        "numberOfBytes": "32",
        "value": "t_uint256"
      },
      "t_mapping(t_contract(IKeplerPair)7247,t_mapping(t_address,t_array(t_struct(UserLockInfo)4073_storage)dyn_storage))": {
        "encoding": "mapping",
        "key": "t_contract(IKeplerPair)7247",
        "label": "mapping(contract IKeplerPair => mapping(address => struct MasterChef.UserLockInfo[]))",
        "numberOfBytes": "32",
        "value": "t_mapping(t_address,t_array(t_struct(UserLockInfo)4073_storage)dyn_storage)"
      },
      "t_mapping(t_contract(IKeplerPair)7247,t_mapping(t_address,t_mapping(t_uint256,t_uint256)))": {
        "encoding": "mapping",
        "key": "t_contract(IKeplerPair)7247",
        "label": "mapping(contract IKeplerPair => mapping(address => mapping(uint256 => uint256)))",
        "numberOfBytes": "32",
        "value": "t_mapping(t_address,t_mapping(t_uint256,t_uint256))"
      },
      "t_mapping(t_contract(IKeplerPair)7247,t_mapping(t_address,t_struct(UserInfo)4086_storage))": {
        "encoding": "mapping",
        "key": "t_contract(IKeplerPair)7247",
        "label": "mapping(contract IKeplerPair => mapping(address => struct MasterChef.UserInfo))",
        "numberOfBytes": "32",
        "value": "t_mapping(t_address,t_struct(UserInfo)4086_storage)"
      },
      "t_mapping(t_contract(IKeplerPair)7247,t_mapping(t_address,t_uint256))": {
        "encoding": "mapping",
        "key": "t_contract(IKeplerPair)7247",
        "label": "mapping(contract IKeplerPair => mapping(address => uint256))",
        "numberOfBytes": "32",
        "value": "t_mapping(t_address,t_uint256)"
      },
      "t_mapping(t_contract(IKeplerPair)7247,t_struct(PoolInfo)4095_storage)": {
        "encoding": "mapping",
        "key": "t_contract(IKeplerPair)7247",
        "label": "mapping(contract IKeplerPair => struct MasterChef.PoolInfo)",
        "numberOfBytes": "32",
        "value": "t_struct(PoolInfo)4095_storage"
      },
      "t_mapping(t_uint256,t_uint256)": {
        "encoding": "mapping",
        "key": "t_uint256",
        "label": "mapping(uint256 => uint256)",
        "numberOfBytes": "32",
        "value": "t_uint256"
      },
      "t_struct(PoolInfo)4095_storage": {
        "encoding": "inplace",
        "label": "struct MasterChef.PoolInfo",
        "members": [
          {
            "astId": 4088,
            "contract": "contracts/farm/MasterChef.sol:MasterChef",
            "label": "totalShares",
            "offset": 0,
            "slot": "0",
            "type": "t_uint256"
          },
          {
            "astId": 4090,
            "contract": "contracts/farm/MasterChef.sol:MasterChef",
            "label": "token0AccPerShare",
            "offset": 0,
            "slot": "1",
            "type": "t_uint256"
          },
          {
            "astId": 4092,
            "contract": "contracts/farm/MasterChef.sol:MasterChef",
            "label": "token1AccPerShare",
            "offset": 0,
            "slot": "2",
            "type": "t_uint256"
          },
          {
            "astId": 4094,
            "contract": "contracts/farm/MasterChef.sol:MasterChef",
            "label": "avaliable",
            "offset": 0,
            "slot": "3",
            "type": "t_bool"
          }
        ],
        "numberOfBytes": "128"
      },
      "t_struct(UserInfo)4086_storage": {
        "encoding": "inplace",
        "label": "struct MasterChef.UserInfo",
        "members": [
          {
            "astId": 4075,
            "contract": "contracts/farm/MasterChef.sol:MasterChef",
            "label": "amount",
            "offset": 0,
            "slot": "0",
            "type": "t_uint256"
          },
          {
            "astId": 4077,
            "contract": "contracts/farm/MasterChef.sol:MasterChef",
            "label": "shares",
            "offset": 0,
            "slot": "1",
            "type": "t_uint256"
          },
          {
            "astId": 4079,
            "contract": "contracts/farm/MasterChef.sol:MasterChef",
            "label": "token0Debt",
            "offset": 0,
            "slot": "2",
            "type": "t_uint256"
          },
          {
            "astId": 4081,
            "contract": "contracts/farm/MasterChef.sol:MasterChef",
            "label": "token1Debt",
            "offset": 0,
            "slot": "3",
            "type": "t_uint256"
          },
          {
            "astId": 4083,
            "contract": "contracts/farm/MasterChef.sol:MasterChef",
            "label": "token0Pending",
            "offset": 0,
            "slot": "4",
            "type": "t_uint256"
          },
          {
            "astId": 4085,
            "contract": "contracts/farm/MasterChef.sol:MasterChef",
            "label": "token1Pending",
            "offset": 0,
            "slot": "5",
            "type": "t_uint256"
          }
        ],
        "numberOfBytes": "192"
      },
      "t_struct(UserLockInfo)4073_storage": {
        "encoding": "inplace",
        "label": "struct MasterChef.UserLockInfo",
        "members": [
          {
            "astId": 4066,
            "contract": "contracts/farm/MasterChef.sol:MasterChef",
            "label": "amount",
            "offset": 0,
            "slot": "0",
            "type": "t_uint256"
          },
          {
            "astId": 4068,
            "contract": "contracts/farm/MasterChef.sol:MasterChef",
            "label": "shares",
            "offset": 0,
            "slot": "1",
            "type": "t_uint256"
          },
          {
            "astId": 4070,
            "contract": "contracts/farm/MasterChef.sol:MasterChef",
            "label": "lockType",
            "offset": 0,
            "slot": "2",
            "type": "t_uint256"
          },
          {
            "astId": 4072,
            "contract": "contracts/farm/MasterChef.sol:MasterChef",
            "label": "expireAt",
            "offset": 0,
            "slot": "3",
            "type": "t_uint256"
          }
        ],
        "numberOfBytes": "128"
      },
      "t_uint256": {
        "encoding": "inplace",
        "label": "uint256",
        "numberOfBytes": "32"
      }
    }
  }
}