{
  "address": "0x975B2c44F9cd6433077936A533823a8D94E7eA9C",
  "abi": [
    {
      "inputs": [
        {
          "internalType": "contract IUser",
          "name": "_user",
          "type": "address"
        }
      ],
      "stateMutability": "nonpayable",
      "type": "constructor"
    },
    {
      "anonymous": false,
      "inputs": [
        {
          "indexed": true,
          "internalType": "address",
          "name": "user",
          "type": "address"
        },
        {
          "indexed": true,
          "internalType": "address",
          "name": "pair",
          "type": "address"
        },
        {
          "indexed": false,
          "internalType": "uint256",
          "name": "amount",
          "type": "uint256"
        },
        {
          "indexed": false,
          "internalType": "uint256",
          "name": "lockType",
          "type": "uint256"
        }
      ],
      "name": "Deposit",
      "type": "event"
    },
    {
      "anonymous": false,
      "inputs": [
        {
          "indexed": true,
          "internalType": "address",
          "name": "previousOwner",
          "type": "address"
        },
        {
          "indexed": true,
          "internalType": "address",
          "name": "newOwner",
          "type": "address"
        }
      ],
      "name": "OwnershipTransferred",
      "type": "event"
    },
    {
      "anonymous": false,
      "inputs": [
        {
          "indexed": true,
          "internalType": "address",
          "name": "user",
          "type": "address"
        },
        {
          "indexed": false,
          "internalType": "uint256",
          "name": "lockID",
          "type": "uint256"
        },
        {
          "indexed": false,
          "internalType": "uint256",
          "name": "amount",
          "type": "uint256"
        },
        {
          "indexed": false,
          "internalType": "uint256",
          "name": "shares",
          "type": "uint256"
        },
        {
          "indexed": false,
          "internalType": "uint256",
          "name": "lockType",
          "type": "uint256"
        }
      ],
      "name": "Withdraw",
      "type": "event"
    },
    {
      "inputs": [
        {
          "internalType": "contract IKeplerPair",
          "name": "_pair",
          "type": "address"
        },
        {
          "internalType": "address",
          "name": "_token",
          "type": "address"
        }
      ],
      "name": "claimInviteMine",
      "outputs": [],
      "stateMutability": "nonpayable",
      "type": "function"
    },
    {
      "inputs": [
        {
          "internalType": "contract IKeplerPair",
          "name": "_pair",
          "type": "address"
        },
        {
          "internalType": "address",
          "name": "_token",
          "type": "address"
        }
      ],
      "name": "claimMine",
      "outputs": [],
      "stateMutability": "nonpayable",
      "type": "function"
    },
    {
      "inputs": [
        {
          "internalType": "uint256",
          "name": "id",
          "type": "uint256"
        }
      ],
      "name": "createSnapshot",
      "outputs": [],
      "stateMutability": "nonpayable",
      "type": "function"
    },
    {
      "inputs": [],
      "name": "currentSnapshotId",
      "outputs": [
        {
          "internalType": "uint256",
          "name": "",
          "type": "uint256"
        }
      ],
      "stateMutability": "view",
      "type": "function"
    },
    {
      "inputs": [
        {
          "internalType": "contract IKeplerPair",
          "name": "_pair",
          "type": "address"
        },
        {
          "internalType": "uint256",
          "name": "_amount",
          "type": "uint256"
        },
        {
          "internalType": "uint256",
          "name": "_lockType",
          "type": "uint256"
        }
      ],
      "name": "deposit",
      "outputs": [],
      "stateMutability": "nonpayable",
      "type": "function"
    },
    {
      "inputs": [
        {
          "internalType": "contract IKeplerPair",
          "name": "pair",
          "type": "address"
        },
        {
          "internalType": "contract IERC20",
          "name": "token",
          "type": "address"
        },
        {
          "internalType": "uint256",
          "name": "amount",
          "type": "uint256"
        }
      ],
      "name": "doInviteMiner",
      "outputs": [],
      "stateMutability": "nonpayable",
      "type": "function"
    },
    {
      "inputs": [
        {
          "internalType": "contract IKeplerPair",
          "name": "pair",
          "type": "address"
        },
        {
          "internalType": "contract IERC20",
          "name": "token",
          "type": "address"
        },
        {
          "internalType": "uint256",
          "name": "amount",
          "type": "uint256"
        }
      ],
      "name": "doMiner",
      "outputs": [],
      "stateMutability": "nonpayable",
      "type": "function"
    },
    {
      "inputs": [
        {
          "internalType": "contract IKeplerPair",
          "name": "_pair",
          "type": "address"
        }
      ],
      "name": "getInvitePoolInfo",
      "outputs": [
        {
          "internalType": "uint256",
          "name": "totalShares",
          "type": "uint256"
        },
        {
          "internalType": "uint256",
          "name": "token0AccPerShare",
          "type": "uint256"
        },
        {
          "internalType": "uint256",
          "name": "token1AccPerShare",
          "type": "uint256"
        }
      ],
      "stateMutability": "view",
      "type": "function"
    },
    {
      "inputs": [
        {
          "internalType": "contract IKeplerPair",
          "name": "_pair",
          "type": "address"
        },
        {
          "internalType": "address",
          "name": "_user",
          "type": "address"
        }
      ],
      "name": "getInviteUserInfo",
      "outputs": [
        {
          "internalType": "uint256",
          "name": "amount",
          "type": "uint256"
        },
        {
          "internalType": "uint256",
          "name": "shares",
          "type": "uint256"
        },
        {
          "internalType": "uint256",
          "name": "token0Debt",
          "type": "uint256"
        },
        {
          "internalType": "uint256",
          "name": "token1Debt",
          "type": "uint256"
        },
        {
          "internalType": "uint256",
          "name": "token0Pending",
          "type": "uint256"
        },
        {
          "internalType": "uint256",
          "name": "token1Pending",
          "type": "uint256"
        }
      ],
      "stateMutability": "view",
      "type": "function"
    },
    {
      "inputs": [
        {
          "internalType": "contract IKeplerPair",
          "name": "pair",
          "type": "address"
        },
        {
          "internalType": "address",
          "name": "inviter",
          "type": "address"
        }
      ],
      "name": "getInviterAmount",
      "outputs": [
        {
          "internalType": "uint256",
          "name": "",
          "type": "uint256"
        }
      ],
      "stateMutability": "view",
      "type": "function"
    },
    {
      "inputs": [
        {
          "internalType": "contract IKeplerPair",
          "name": "_pair",
          "type": "address"
        }
      ],
      "name": "getPoolInfo",
      "outputs": [
        {
          "internalType": "uint256",
          "name": "totalShares",
          "type": "uint256"
        },
        {
          "internalType": "uint256",
          "name": "token0AccPerShare",
          "type": "uint256"
        },
        {
          "internalType": "uint256",
          "name": "token1AccPerShare",
          "type": "uint256"
        }
      ],
      "stateMutability": "view",
      "type": "function"
    },
    {
      "inputs": [
        {
          "internalType": "uint256",
          "name": "lockType",
          "type": "uint256"
        }
      ],
      "name": "getType",
      "outputs": [
        {
          "internalType": "uint256",
          "name": "",
          "type": "uint256"
        },
        {
          "internalType": "uint256",
          "name": "",
          "type": "uint256"
        }
      ],
      "stateMutability": "pure",
      "type": "function"
    },
    {
      "inputs": [
        {
          "internalType": "contract IKeplerPair",
          "name": "pair",
          "type": "address"
        },
        {
          "internalType": "address",
          "name": "_user",
          "type": "address"
        },
        {
          "internalType": "uint256",
          "name": "lockType",
          "type": "uint256"
        }
      ],
      "name": "getUserAmount",
      "outputs": [
        {
          "internalType": "uint256",
          "name": "",
          "type": "uint256"
        }
      ],
      "stateMutability": "view",
      "type": "function"
    },
    {
      "inputs": [
        {
          "internalType": "contract IKeplerPair",
          "name": "_pair",
          "type": "address"
        },
        {
          "internalType": "address",
          "name": "_user",
          "type": "address"
        }
      ],
      "name": "getUserInfo",
      "outputs": [
        {
          "internalType": "uint256",
          "name": "amount",
          "type": "uint256"
        },
        {
          "internalType": "uint256",
          "name": "shares",
          "type": "uint256"
        },
        {
          "internalType": "uint256",
          "name": "token0Debt",
          "type": "uint256"
        },
        {
          "internalType": "uint256",
          "name": "token1Debt",
          "type": "uint256"
        },
        {
          "internalType": "uint256",
          "name": "token0Pending",
          "type": "uint256"
        },
        {
          "internalType": "uint256",
          "name": "token1Pending",
          "type": "uint256"
        }
      ],
      "stateMutability": "view",
      "type": "function"
    },
    {
      "inputs": [
        {
          "internalType": "address",
          "name": "pair",
          "type": "address"
        },
        {
          "internalType": "address",
          "name": "_user",
          "type": "address"
        }
      ],
      "name": "getUserSnapshot",
      "outputs": [
        {
          "internalType": "uint256",
          "name": "",
          "type": "uint256"
        }
      ],
      "stateMutability": "view",
      "type": "function"
    },
    {
      "inputs": [
        {
          "internalType": "contract IKeplerPair",
          "name": "",
          "type": "address"
        },
        {
          "internalType": "address",
          "name": "",
          "type": "address"
        }
      ],
      "name": "inviterUserInfo",
      "outputs": [
        {
          "internalType": "uint256",
          "name": "amount",
          "type": "uint256"
        },
        {
          "internalType": "uint256",
          "name": "shares",
          "type": "uint256"
        },
        {
          "internalType": "uint256",
          "name": "token0Debt",
          "type": "uint256"
        },
        {
          "internalType": "uint256",
          "name": "token1Debt",
          "type": "uint256"
        },
        {
          "internalType": "uint256",
          "name": "token0Pending",
          "type": "uint256"
        },
        {
          "internalType": "uint256",
          "name": "token1Pending",
          "type": "uint256"
        }
      ],
      "stateMutability": "view",
      "type": "function"
    },
    {
      "inputs": [],
      "name": "owner",
      "outputs": [
        {
          "internalType": "address",
          "name": "",
          "type": "address"
        }
      ],
      "stateMutability": "view",
      "type": "function"
    },
    {
      "inputs": [],
      "name": "renounceOwnership",
      "outputs": [],
      "stateMutability": "nonpayable",
      "type": "function"
    },
    {
      "inputs": [
        {
          "internalType": "address",
          "name": "_snapshotCreateCaller",
          "type": "address"
        }
      ],
      "name": "setSnapshotCreateCaller",
      "outputs": [],
      "stateMutability": "nonpayable",
      "type": "function"
    },
    {
      "inputs": [
        {
          "internalType": "address",
          "name": "newOwner",
          "type": "address"
        }
      ],
      "name": "transferOwnership",
      "outputs": [],
      "stateMutability": "nonpayable",
      "type": "function"
    },
    {
      "inputs": [
        {
          "internalType": "contract IKeplerPair",
          "name": "",
          "type": "address"
        },
        {
          "internalType": "address",
          "name": "",
          "type": "address"
        }
      ],
      "name": "userInfo",
      "outputs": [
        {
          "internalType": "uint256",
          "name": "amount",
          "type": "uint256"
        },
        {
          "internalType": "uint256",
          "name": "shares",
          "type": "uint256"
        },
        {
          "internalType": "uint256",
          "name": "token0Debt",
          "type": "uint256"
        },
        {
          "internalType": "uint256",
          "name": "token1Debt",
          "type": "uint256"
        },
        {
          "internalType": "uint256",
          "name": "token0Pending",
          "type": "uint256"
        },
        {
          "internalType": "uint256",
          "name": "token1Pending",
          "type": "uint256"
        }
      ],
      "stateMutability": "view",
      "type": "function"
    },
    {
      "inputs": [
        {
          "internalType": "contract IKeplerPair",
          "name": "",
          "type": "address"
        },
        {
          "internalType": "address",
          "name": "",
          "type": "address"
        },
        {
          "internalType": "uint256",
          "name": "",
          "type": "uint256"
        }
      ],
      "name": "userLockInfo",
      "outputs": [
        {
          "internalType": "uint256",
          "name": "amount",
          "type": "uint256"
        },
        {
          "internalType": "uint256",
          "name": "shares",
          "type": "uint256"
        },
        {
          "internalType": "uint256",
          "name": "lockType",
          "type": "uint256"
        },
        {
          "internalType": "uint256",
          "name": "expireAt",
          "type": "uint256"
        }
      ],
      "stateMutability": "view",
      "type": "function"
    },
    {
      "inputs": [
        {
          "internalType": "contract IKeplerPair",
          "name": "",
          "type": "address"
        },
        {
          "internalType": "address",
          "name": "",
          "type": "address"
        },
        {
          "internalType": "uint256",
          "name": "",
          "type": "uint256"
        }
      ],
      "name": "userLockTypeAmount",
      "outputs": [
        {
          "internalType": "uint256",
          "name": "",
          "type": "uint256"
        }
      ],
      "stateMutability": "view",
      "type": "function"
    },
    {
      "inputs": [
        {
          "internalType": "contract IKeplerPair",
          "name": "_pair",
          "type": "address"
        },
        {
          "internalType": "uint256",
          "name": "_lockId",
          "type": "uint256"
        }
      ],
      "name": "withdraw",
      "outputs": [],
      "stateMutability": "nonpayable",
      "type": "function"
    }
  ],
  "transactionHash": "0x4920069315e67f5a12c16a1ad939107682c231359e0ba3d23787306efa97f744",
  "args": [
    "0x790C8012539F5f245e26BCEe14e47A53703e3f97"
  ],
  "solcInputHash": "b23861fd4cc5066e011dd2d307c05e17",
  "bytecode": "0x60806040523480156200001157600080fd5b506040516200346538038062003465833981810160405260208110156200003757600080fd5b5051600062000045620000b5565b600080546001600160a01b0319166001600160a01b0383169081178255604051929350917f8be0079c531659141344cd1fd0a4f28419497f9722a3daafe3b4186f6b6457e0908290a350600180546001600160a01b0319166001600160a01b0392909216919091179055620000b9565b3390565b61339c80620000c96000396000f3fe608060405234801561001057600080fd5b50600436106101585760003560e01c8063715018a6116100c3578063ceb04d531161007c578063ceb04d53146104d9578063cefbc4961461050f578063f2801fe714610535578063f2fde38b14610563578063f3fef3a314610589578063f741198f146105b557610158565b8063715018a61461042c5780638da5cb5b146104345780638f2a1e5114610458578063964f55171461047e578063970875ce1461049b578063a260988c146104a357610158565b80632526da0e116101155780632526da0e146102ee57806329aaf8731461031c5780632cae426b146103525780632d2d55eb146103925780633cb79e64146103c05780634036ab78146103f657610158565b806306bfa9381461015d57806308cc72d8146101a15780630efe6a8b146101fd5780630f208beb14610231578063132f129f1461029257806315d68ed7146102c0575b600080fd5b6101836004803603602081101561017357600080fd5b50356001600160a01b03166105e3565b60408051938452602084019290925282820152519081900360600190f35b6101d7600480360360608110156101b757600080fd5b506001600160a01b03813581169160208101359091169060400135610649565b604080519485526020850193909352838301919091526060830152519081900360800190f35b61022f6004803603606081101561021357600080fd5b506001600160a01b03813516906020810135906040013561069b565b005b61025f6004803603604081101561024757600080fd5b506001600160a01b0381358116916020013516610a7b565b604080519687526020870195909552858501939093526060850191909152608084015260a0830152519081900360c00190f35b61022f600480360360408110156102a857600080fd5b506001600160a01b0381358116916020013516610abb565b61022f600480360360408110156102d657600080fd5b506001600160a01b0381358116916020013516610dbf565b61025f6004803603604081101561030457600080fd5b506001600160a01b0381358116916020013516611031565b61022f6004803603606081101561033257600080fd5b506001600160a01b03813581169160208101359091169060400135611071565b6103806004803603604081101561036857600080fd5b506001600160a01b03813581169160200135166112dd565b60408051918252519081900360200190f35b610380600480360360408110156103a857600080fd5b506001600160a01b038135811691602001351661130a565b61022f600480360360608110156103d657600080fd5b506001600160a01b038135811691602081013590911690604001356113ca565b6104136004803603602081101561040c57600080fd5b503561161e565b6040805192835260208301919091528051918290030190f35b61022f6116bd565b61043c61177b565b604080516001600160a01b039092168252519081900360200190f35b61022f6004803603602081101561046e57600080fd5b50356001600160a01b031661178a565b61022f6004803603602081101561049457600080fd5b5035611820565b61038061186e565b610380600480360360608110156104b957600080fd5b506001600160a01b03813581169160208101359091169060400135611874565b610380600480360360608110156104ef57600080fd5b506001600160a01b038135811691602081013590911690604001356118aa565b6101836004803603602081101561052557600080fd5b50356001600160a01b03166118cd565b61025f6004803603604081101561054b57600080fd5b506001600160a01b0381358116916020013516611933565b61022f6004803603602081101561057957600080fd5b50356001600160a01b03166119c8565b61022f6004803603604081101561059f57600080fd5b506001600160a01b038135169060200135611adc565b61025f600480360360408110156105cb57600080fd5b506001600160a01b038135811691602001351661216c565b60008060006105f0613222565b505050506001600160a01b0316600090815260066020908152604091829020825160808101845281548082526001830154938201849052600283015494820185905260039092015460ff16151560609091015292909190565b6008602052826000526040600020602052816000526040600020818154811061066e57fe5b60009182526020909120600490910201805460018201546002830154600390930154919550935090915084565b6106a483612201565b6000806106b08361161e565b915091506106bc613222565b506001600160a01b03851660009081526006602090815260409182902082516080810184528154815260018201549281019290925260028101549282019290925260039091015460ff161515606082015261071561324c565b506001600160a01b03861660009081526007602090815260408083203380855290835292819020815160c0810183528154815260018201549381019390935260028101549183019190915260038101546060830152600481015460808301526005015460a08201529061078b90889084846122a4565b600061079787866123b4565b90508615610a1d576107ab8833308a61240d565b6001600160a01b0388166000908152600860209081526040808320338452825280832081516080810183528b81528084018681529281018b8152428a01606083019081528354600181810186559488529686902092516004909702909201958655925191850191909155905160028401555160039092019190915582015161088c576108378833612467565b6001600160a01b0388166000818152600b60209081526040808320338452825280832060010154938352600a9091529020546108729161265f565b6001600160a01b0389166000908152600a60205260409020555b8251610898908261265f565b6001600160a01b0389166000908152600660209081526040909120919091558201516108c4908261265f565b6001600160a01b038916600090815260076020908152604080832033845290915290206001015581516108f7908861265f565b6001600160a01b0389166000908152600760209081526040808320338452825290912091909155838101519083015161094f91670de0b6b3a7640000916109499190610943908661265f565b906123b4565b906126b9565b6001600160a01b0389166000908152600760209081526040808320338452825291829020600201929092558401519083015161099e91670de0b6b3a7640000916109499190610943908661265f565b6001600160a01b03891660008181526007602090815260408083203380855290835281842060030195909555928252600981528282209382529283528181208982529092529020546109f0908861265f565b6001600160a01b038916600090815260096020908152604080832033845282528083208a84529091529020555b610a2933898984612720565b604080518881526020810188905281516001600160a01b038b169233927fdcbc1c05240f31ff3ad067ef1ee35ce4997762752e3a095284754544f4c709d7929081900390910190a35050505050505050565b6007602090815260009283526040808420909152908252902080546001820154600283015460038401546004850154600590950154939492939192909186565b6000826001600160a01b0316630dfe16816040518163ffffffff1660e01b815260040160206040518083038186803b158015610af657600080fd5b505afa158015610b0a573d6000803e3d6000fd5b505050506040513d6020811015610b2057600080fd5b50516040805163d21220a760e01b815290519192506000916001600160a01b0386169163d21220a7916004808301926020929190829003018186803b158015610b6857600080fd5b505afa158015610b7c573d6000803e3d6000fd5b505050506040513d6020811015610b9257600080fd5b50516001600160a01b038516600090815260076020908152604080832033845290915290205490915080610bc857505050610dbb565b826001600160a01b0316846001600160a01b03161415610ca2576001600160a01b0385166000908152600a60209081526040808320600190810154600b8452828520338652909352922091820154600283015460049093015491929091610c4f81610c4984610c43670de0b6b3a76400006109498a8a6123b4565b90612a36565b9061265f565b9450610c67670de0b6b3a764000061094986866123b4565b6001600160a01b038a166000908152600b602090815260408083203384529091528120600281019290925560049091015550610dac92505050565b816001600160a01b0316846001600160a01b03161415610d6f576001600160a01b0385166000908152600a6020908152604080832060020154600b835281842033855290925290912060018101546003820154600590920154909190610d1c81610c4984610c43670de0b6b3a76400006109498a8a6123b4565b9450610d34670de0b6b3a764000061094986866123b4565b6001600160a01b038a166000908152600b602090815260408083203384529091528120600381019290925560059091015550610dac92505050565b6040805162461bcd60e51b815260206004820152600d60248201526c34b63632b3b0b6103a37b5b2b760991b604482015290519081900360640190fd5b610db7843383612a93565b5050505b5050565b6000826001600160a01b0316630dfe16816040518163ffffffff1660e01b815260040160206040518083038186803b158015610dfa57600080fd5b505afa158015610e0e573d6000803e3d6000fd5b505050506040513d6020811015610e2457600080fd5b50516040805163d21220a760e01b815290519192506000916001600160a01b0386169163d21220a7916004808301926020929190829003018186803b158015610e6c57600080fd5b505afa158015610e80573d6000803e3d6000fd5b505050506040513d6020811015610e9657600080fd5b5051905060006001600160a01b038481169084161415610f64576001600160a01b038516600090815260066020908152604080832060019081015460078452828520338652909352922091820154600283015460049093015491929091610f1181610c4984610c43670de0b6b3a76400006109498a8a6123b4565b9450610f29670de0b6b3a764000061094986866123b4565b6001600160a01b038a1660009081526007602090815260408083203384529091528120600281019290925560049091015550610dac92505050565b816001600160a01b0316846001600160a01b03161415610d6f576001600160a01b0385166000908152600660209081526040808320600201546007835281842033855290925290912060018101546003820154600590920154909190610fde81610c4984610c43670de0b6b3a76400006109498a8a6123b4565b9450610ff6670de0b6b3a764000061094986866123b4565b6001600160a01b038a1660009081526007602090815260408083203384529091528120600381019290925560059091015550610dac92505050565b600b602090815260009283526040808420909152908252902080546001820154600283015460038401546004850154600590950154939492939192909186565b61107a83612201565b6000836001600160a01b0316630dfe16816040518163ffffffff1660e01b815260040160206040518083038186803b1580156110b557600080fd5b505afa1580156110c9573d6000803e3d6000fd5b505050506040513d60208110156110df57600080fd5b50516040805163d21220a760e01b815290519192506000916001600160a01b0387169163d21220a7916004808301926020929190829003018186803b15801561112757600080fd5b505afa15801561113b573d6000803e3d6000fd5b505050506040513d602081101561115157600080fd5b505190506001600160a01b0384811690831614806111805750806001600160a01b0316846001600160a01b0316145b6111c1576040805162461bcd60e51b815260206004820152600d60248201526c34b63632b3b0b6103a37b5b2b760991b604482015290519081900360640190fd5b6001600160a01b03848116908316146111dc8533308761240d565b6111e4613222565b506001600160a01b038616600090815260066020908152604091829020825160808101845281548082526001830154938201939093526002820154938101939093526003015460ff161515606083015261124157505050506112d8565b811561128f57805161126e906112639061094988670de0b6b3a76400006123b4565b60208301519061265f565b6001600160a01b0388166000908152600660205260409020600101556112d3565b80516112b6906112ab9061094988670de0b6b3a76400006123b4565b60408301519061265f565b6001600160a01b0388166000908152600660205260409020600201555b505050505b505050565b6001600160a01b038083166000908152600b60209081526040808320938516835292905220545b92915050565b60006002546000141561134357506001600160a01b03808316600090815260076020908152604080832093851683529290522054611304565b6002546001600160a01b03808516600090815260036020908152604080832093871683529290522054141561139e57506001600160a01b03808316600090815260046020908152604080832093851683529290522054611304565b506001600160a01b03808316600090815260076020908152604080832093851683529290522054611304565b6113d383612201565b6000836001600160a01b0316630dfe16816040518163ffffffff1660e01b815260040160206040518083038186803b15801561140e57600080fd5b505afa158015611422573d6000803e3d6000fd5b505050506040513d602081101561143857600080fd5b50516040805163d21220a760e01b815290519192506000916001600160a01b0387169163d21220a7916004808301926020929190829003018186803b15801561148057600080fd5b505afa158015611494573d6000803e3d6000fd5b505050506040513d60208110156114aa57600080fd5b505190506001600160a01b0384811690831614806114d95750806001600160a01b0316846001600160a01b0316145b61151a576040805162461bcd60e51b815260206004820152600d60248201526c34b63632b3b0b6103a37b5b2b760991b604482015290519081900360640190fd5b6001600160a01b03848116908316146115358533308761240d565b61153d613222565b506001600160a01b0386166000908152600a6020908152604091829020825160808101845281548082526001830154938201939093526002820154938101939093526003015460ff161515606083015261159a57505050506112d8565b81156115dd5780516115bc906112639061094988670de0b6b3a76400006123b4565b6001600160a01b0388166000908152600a60205260409020600101556112d3565b80516115f9906112ab9061094988670de0b6b3a76400006123b4565b6001600160a01b0388166000908152600a602052604090206002015550505050505050565b6000808261163257506003905060006116b8565b82600114156116495750600a905062278d006116b8565b82600214156116605750600f90506276a7006116b8565b82600314156116785750601e90506301da9c006116b8565b6040805162461bcd60e51b815260206004820152601060248201526f696c6c6567616c206c6f636b5479706560801b604482015290519081900360640190fd5b915091565b6116c5612ae5565b6001600160a01b03166116d661177b565b6001600160a01b031614611731576040805162461bcd60e51b815260206004820181905260248201527f4f776e61626c653a2063616c6c6572206973206e6f7420746865206f776e6572604482015290519081900360640190fd5b600080546040516001600160a01b03909116907f8be0079c531659141344cd1fd0a4f28419497f9722a3daafe3b4186f6b6457e0908390a3600080546001600160a01b0319169055565b6000546001600160a01b031690565b611792612ae5565b6001600160a01b03166117a361177b565b6001600160a01b0316146117fe576040805162461bcd60e51b815260206004820181905260248201527f4f776e61626c653a2063616c6c6572206973206e6f7420746865206f776e6572604482015290519081900360640190fd5b600580546001600160a01b0319166001600160a01b0392909216919091179055565b6005546001600160a01b031633146118695760405162461bcd60e51b81526004018080602001828103825260258152602001806132f76025913960400191505060405180910390fd5b600255565b60025481565b6001600160a01b0380841660009081526009602090815260408083209386168352928152828220848352905220545b9392505050565b600960209081526000938452604080852082529284528284209052825290205481565b60008060006118da613222565b505050506001600160a01b03166000908152600a6020908152604091829020825160808101845281548082526001830154938201849052600283015494820185905260039092015460ff16151560609091015292909190565b60008060008060008061194461324c565b505050506001600160a01b039485166000908152600760209081526040808320969097168252948552859020855160c08101875281548082526001830154968201879052600283015497820188905260038301546060830181905260048401546080840181905260059094015460a090930183905290989697969095509193509150565b6119d0612ae5565b6001600160a01b03166119e161177b565b6001600160a01b031614611a3c576040805162461bcd60e51b815260206004820181905260248201527f4f776e61626c653a2063616c6c6572206973206e6f7420746865206f776e6572604482015290519081900360640190fd5b6001600160a01b038116611a815760405162461bcd60e51b81526004018080602001828103825260268152602001806132ab6026913960400191505060405180910390fd5b600080546040516001600160a01b03808516939216917f8be0079c531659141344cd1fd0a4f28419497f9722a3daafe3b4186f6b6457e091a3600080546001600160a01b0319166001600160a01b0392909216919091179055565b6001600160a01b0382166000908152600860209081526040808320338452909152902054808210611b45576040805162461bcd60e51b815260206004820152600e60248201526d1a5b1b1959d85b081b1bd8dad25160921b604482015290519081900360640190fd5b611b4d613282565b6001600160a01b03841660009081526008602090815260408083203384529091529020805484908110611b7c57fe5b906000526020600020906004020160405180608001604052908160008201548152602001600182015481526020016002820154815260200160038201548152505090508060600151421015611c0d576040805162461bcd60e51b81526020600482015260126024820152716e6f74207468652072696768742074696d6560701b604482015290519081900360640190fd5b611c15613222565b506001600160a01b03841660009081526006602090815260409182902082516080810184528154815260018201549281019290925260028101549282019290925260039091015460ff1615156060820152611c6e61324c565b506001600160a01b03851660009081526007602090815260408083203380855290835292819020815160c0810183528154815260018201549381019390935260028101549183019190915260038101546060830152600481015460808301526005015460a082015290611ce490879084846122a4565b60208301518251611cf491612a36565b6001600160a01b0387166000908152600660209081526040909120919091558381015190820151611d2491612a36565b6001600160a01b038716600090815260076020908152604080832033845290915290206001015582518151611d5891612a36565b6001600160a01b0387166000818152600760209081526040808320338085529083528184209590955587519383526009825280832094835293815283822087850151835290529190912054611dac91612a36565b6001600160a01b0387166000908152600960209081526040808320338452825280832087820151845282529091209190915583810151908201511415611e4b57611df68633612467565b6001600160a01b0386166000818152600b60209081526040808320338452825280832060010154938352600a909152902054611e3191612a36565b6001600160a01b0387166000908152600a60205260409020555b825115611e6157611e6186338560000151612a93565b825160208401516000198601871461200357611e7b613282565b6001600160a01b0389166000908152600860209081526040808320338452909152902080546000198901908110611eae57fe5b60009182526020808320604080516080810182526004909402909101805480855260018201548585015260028201548584015260039091015460608501526001600160a01b038e168552600883528185203386529092529092208054919350908a908110611f1857fe5b60009182526020808320600490920290910192909255828201516001600160a01b038c16825260088352604080832033845290935291902080548a908110611f5c57fe5b60009182526020808320600160049093020191909101929092556040808401516001600160a01b038d16835260088452818320338452909352902080548a908110611fa357fe5b600091825260208083206002600490930201919091019290925560608301516001600160a01b038c16825260088352604080832033845290935291902080548a908110611fec57fe5b906000526020600020906004020160030181905550505b6001600160a01b0388166000908152600860209081526040808320338452909152902080548061202f57fe5b600082815260208082206004600019909401938402018281556001810183905560028101839055600301919091559155848101519084015161208491670de0b6b3a76400009161094991906109439086612a36565b6001600160a01b038916600090815260076020908152604080832033845282529182902060020192909255850151908401516120d391670de0b6b3a76400009161094991906109439086612a36565b6001600160a01b03891660009081526007602090815260408083203380855292529091206003019190915561210a90898484612ae9565b845160208087015160408089015181518c815293840194909452828101919091526060820192909252905133917fe08737ac48a1dab4b1a46c7dc9398bd5bfc6d7ad6fabb7cd8caa254de14def35919081900360800190a25050505050505050565b60008060008060008061217d61324c565b505050506001600160a01b039485166000908152600b60209081526040808320969097168252948552859020855160c08101875281548082526001830154968201879052600283015497820188905260038301546060830181905260048401546080840181905260059094015460a090930183905290989697969095509193509150565b6001600160a01b03811660009081526006602052604090206003015460ff1615156001141561222f576122a1565b6001600160a01b03811660009081526006602090815260408083206003808201805460ff19166001908117909155600a90945291909320015460ff161515141561227957506122a1565b506001600160a01b0381166000908152600a60205260409020600301805460ff191660011790555b50565b6020810151156123ae5760006122d7670de0b6b3a7640000610949856020015185602001516123b490919063ffffffff16565b90506122fe6122f3836040015183612a3690919063ffffffff16565b60808401519061265f565b6001600160a01b038681166000908152600760209081526040808320938916835292815291812060048101939093556002909201839055848101519084015161235491670de0b6b3a764000091610949916123b4565b905061237b612370846060015183612a3690919063ffffffff16565b60a08501519061265f565b6001600160a01b038781166000908152600760209081526040808320938a16835292905220600581019190915560030155505b50505050565b6000826123c357506000611304565b828202828482816123d057fe5b04146118a35760405162461bcd60e51b815260040180806020018281038252602181526020018061331c6021913960400191505060405180910390fd5b604080516001600160a01b0380861660248301528416604482015260648082018490528251808303909101815260849091019091526020810180516001600160e01b03166323b872dd60e01b1790526123ae908590612dcf565b6001600160a01b038083166000908152600b602090815260408083209385168352929052206001015415610dbb576001600160a01b038083166000908152600a60209081526040808320600190810154600b84528285209587168552949092528220015490916124e591670de0b6b3a76400009161094991906123b4565b6001600160a01b038085166000908152600b602090815260408083209387168352929052206002015490915061254f90612520908390612a36565b6001600160a01b038086166000908152600b60209081526040808320938816835292905220600401549061265f565b6001600160a01b038085166000818152600b60209081526040808320948816808452858352818420600481019790975560028701889055938352600a82528220600190810154938352939052919092015490916125ba91670de0b6b3a76400009161094991906123b4565b6001600160a01b038086166000908152600b6020908152604080832093881683529290522060030154909150612624906125f5908390612a36565b6001600160a01b038087166000908152600b60209081526040808320938916835292905220600501549061265f565b6001600160a01b039485166000908152600b602090815260408083209690971682529490945293909220600581019390935550600390910155565b6000828201838110156118a3576040805162461bcd60e51b815260206004820152601b60248201527f536166654d6174683a206164646974696f6e206f766572666c6f770000000000604482015290519081900360640190fd5b600080821161270f576040805162461bcd60e51b815260206004820152601a60248201527f536166654d6174683a206469766973696f6e206279207a65726f000000000000604482015290519081900360640190fd5b81838161271857fe5b049392505050565b6001546040805163774785bd60e11b81526001600160a01b0387811660048301529151600093929092169163ee8f0b7a91602480820192602092909190829003018186803b15801561277157600080fd5b505afa158015612785573d6000803e3d6000fd5b505050506040513d602081101561279b57600080fd5b505190506001600160a01b0381166127ed576040805162461bcd60e51b815260206004820152601060248201526f75736572206e6f74207265676973746560801b604482015290519081900360640190fd5b6127f5613222565b506001600160a01b0384166000908152600a602090815260409182902082516080810184528154815260018201549281019290925260028101549282019290925260039091015460ff161515606082015261284e61324c565b506001600160a01b038086166000908152600b60209081526040808320938616835292815290829020825160c08101845281548152600182015492810192909252600281015492820192909252600382015460608201526004820154608082015260059091015460a08201526128c686888484612e80565b83156112d3576001600160a01b0380871660009081526007602090815260408083209387168352929052206001015415612920578151612906908561265f565b6001600160a01b0387166000908152600a60205260409020555b805161292c908561265f565b6001600160a01b038088166000908152600b60209081526040808320938816835292905220600101558051612961908661265f565b6001600160a01b038088166000908152600b6020908152604080832093881683529281529190209190915582810151908201516129b191670de0b6b3a7640000916109499190610943908961265f565b6001600160a01b038088166000908152600b602090815260408083209388168352928152908290206002019290925583015190820151612a0491670de0b6b3a7640000916109499190610943908961265f565b6001600160a01b038088166000908152600b602090815260408083209388168352929052206003015550505050505050565b600082821115612a8d576040805162461bcd60e51b815260206004820152601e60248201527f536166654d6174683a207375627472616374696f6e206f766572666c6f770000604482015290519081900360640190fd5b50900390565b604080516001600160a01b038416602482015260448082018490528251808303909101815260649091019091526020810180516001600160e01b031663a9059cbb60e01b1790526112d8908490612dcf565b3390565b6001546040805163774785bd60e11b81526001600160a01b0387811660048301529151600093929092169163ee8f0b7a91602480820192602092909190829003018186803b158015612b3a57600080fd5b505afa158015612b4e573d6000803e3d6000fd5b505050506040513d6020811015612b6457600080fd5b505190506001600160a01b038116612bb6576040805162461bcd60e51b815260206004820152601060248201526f75736572206e6f74207265676973746560801b604482015290519081900360640190fd5b612bbe613222565b506001600160a01b0384166000908152600a602090815260409182902082516080810184528154815260018201549281019290925260028101549282019290925260039091015460ff1615156060820152612c1761324c565b506001600160a01b038086166000908152600b60209081526040808320938616835292815290829020825160c08101845281548152600182015492810192909252600281015492820192909252600382015460608201526004820154608082015260059091015460a0820152612c8f86338484612e80565b8315612d51576001600160a01b0380871660009081526007602090815260408083209387168352929052206001015415612ce9578151612ccf9085612a36565b6001600160a01b0387166000908152600a60205260409020555b8051612cf59085612a36565b6001600160a01b038088166000908152600b60209081526040808320938816835292905220600101558051612d2a9086612a36565b6001600160a01b038088166000908152600b60209081526040808320938816835292905220555b612d7c670de0b6b3a76400006109498460200151610943888660200151612a3690919063ffffffff16565b6001600160a01b038088166000908152600b602090815260408083209388168352928152908290206002019290925583015190820151612a0491670de0b6b3a76400009161094991906109439089612a36565b6060612e24826040518060400160405280602081526020017f5361666545524332303a206c6f772d6c6576656c2063616c6c206661696c6564815250856001600160a01b03166130059092919063ffffffff16565b8051909150156112d857808060200190516020811015612e4357600080fd5b50516112d85760405162461bcd60e51b815260040180806020018281038252602a81526020018061333d602a913960400191505060405180910390fd5b6020810151156123ae576001600160a01b03808516600090815260076020908152604080832093871683529281529181206001015484830151928401519092612ed791670de0b6b3a76400009161094991906123b4565b90508115612f2e57612f04612ef9846040015183612a3690919063ffffffff16565b60808501519061265f565b6001600160a01b038088166000908152600b60209081526040808320938a16835292905220600401555b6001600160a01b038087166000908152600b60209081526040808320938916835292815291812060020183905585820151918501519091612f7d91670de0b6b3a76400009161094991906123b4565b90508215612fd457612faa612f9f856060015183612a3690919063ffffffff16565b60a08601519061265f565b6001600160a01b038089166000908152600b60209081526040808320938b16835292905220600501555b6001600160a01b038088166000908152600b60209081526040808320938a1683529290522060030155505050505050565b6060613014848460008561301c565b949350505050565b60608247101561305d5760405162461bcd60e51b81526004018080602001828103825260268152602001806132d16026913960400191505060405180910390fd5b61306685613178565b6130b7576040805162461bcd60e51b815260206004820152601d60248201527f416464726573733a2063616c6c20746f206e6f6e2d636f6e7472616374000000604482015290519081900360640190fd5b60006060866001600160a01b031685876040518082805190602001908083835b602083106130f65780518252601f1990920191602091820191016130d7565b6001836020036101000a03801982511681845116808217855250505050505090500191505060006040518083038185875af1925050503d8060008114613158576040519150601f19603f3d011682016040523d82523d6000602084013e61315d565b606091505b509150915061316d82828661317e565b979650505050505050565b3b151590565b6060831561318d5750816118a3565b82511561319d5782518084602001fd5b8160405162461bcd60e51b81526004018080602001828103825283818151815260200191508051906020019080838360005b838110156131e75781810151838201526020016131cf565b50505050905090810190601f1680156132145780820380516001836020036101000a031916815260200191505b509250505060405180910390fd5b60405180608001604052806000815260200160008152602001600081526020016000151581525090565b6040518060c001604052806000815260200160008152602001600081526020016000815260200160008152602001600081525090565b604051806080016040528060008152602001600081526020016000815260200160008152509056fe4f776e61626c653a206e6577206f776e657220697320746865207a65726f2061646472657373416464726573733a20696e73756666696369656e742062616c616e636520666f722063616c6c6f6e6c7920736e617073686f7443726561746543616c6c65722063616e20646f2074686973536166654d6174683a206d756c7469706c69636174696f6e206f766572666c6f775361666545524332303a204552433230206f7065726174696f6e20646964206e6f742073756363656564a2646970667358221220355441edcb523296f467a761c0e84c15416815e55b9b6db10c4cd58f0a4a211864736f6c63430007020033",
  "devdoc": {
    "kind": "dev",
    "methods": {
      "owner()": {
        "details": "Returns the address of the current owner."
      },
      "renounceOwnership()": {
        "details": "Leaves the contract without owner. It will not be possible to call `onlyOwner` functions anymore. Can only be called by the current owner. NOTE: Renouncing ownership will leave the contract without an owner, thereby removing any functionality that is only available to the owner."
      },
      "transferOwnership(address)": {
        "details": "Transfers ownership of the contract to a new account (`newOwner`). Can only be called by the current owner."
      }
    },
    "version": 1
  },
  "userdoc": {
    "kind": "user",
    "methods": {},
    "version": 1
  },
  "storageLayout": {
    "storage": [
      {
        "astId": 7,
        "contract": "contracts/farm/MasterChef.sol:MasterChef",
        "label": "_owner",
        "offset": 0,
        "slot": "0",
        "type": "t_address"
      },
      {
        "astId": 4043,
        "contract": "contracts/farm/MasterChef.sol:MasterChef",
        "label": "user",
        "offset": 0,
        "slot": "1",
        "type": "t_contract(IUser)7464"
      },
      {
        "astId": 4045,
        "contract": "contracts/farm/MasterChef.sol:MasterChef",
        "label": "currentSnapshotId",
        "offset": 0,
        "slot": "2",
        "type": "t_uint256"
      },
      {
        "astId": 4051,
        "contract": "contracts/farm/MasterChef.sol:MasterChef",
        "label": "userSnapshotId",
        "offset": 0,
        "slot": "3",
        "type": "t_mapping(t_contract(IKeplerPair)7091,t_mapping(t_address,t_uint256))"
      },
      {
        "astId": 4057,
        "contract": "contracts/farm/MasterChef.sol:MasterChef",
        "label": "userSnapshotAmount",
        "offset": 0,
        "slot": "4",
        "type": "t_mapping(t_contract(IKeplerPair)7091,t_mapping(t_address,t_uint256))"
      },
      {
        "astId": 4059,
        "contract": "contracts/farm/MasterChef.sol:MasterChef",
        "label": "snapshotCreateCaller",
        "offset": 0,
        "slot": "5",
        "type": "t_address"
      },
      {
        "astId": 4094,
        "contract": "contracts/farm/MasterChef.sol:MasterChef",
        "label": "poolInfo",
        "offset": 0,
        "slot": "6",
        "type": "t_mapping(t_contract(IKeplerPair)7091,t_struct(PoolInfo)4090_storage)"
      },
      {
        "astId": 4100,
        "contract": "contracts/farm/MasterChef.sol:MasterChef",
        "label": "userInfo",
        "offset": 0,
        "slot": "7",
        "type": "t_mapping(t_contract(IKeplerPair)7091,t_mapping(t_address,t_struct(UserInfo)4081_storage))"
      },
      {
        "astId": 4107,
        "contract": "contracts/farm/MasterChef.sol:MasterChef",
        "label": "userLockInfo",
        "offset": 0,
        "slot": "8",
        "type": "t_mapping(t_contract(IKeplerPair)7091,t_mapping(t_address,t_array(t_struct(UserLockInfo)4068_storage)dyn_storage))"
      },
      {
        "astId": 4115,
        "contract": "contracts/farm/MasterChef.sol:MasterChef",
        "label": "userLockTypeAmount",
        "offset": 0,
        "slot": "9",
        "type": "t_mapping(t_contract(IKeplerPair)7091,t_mapping(t_address,t_mapping(t_uint256,t_uint256)))"
      },
      {
        "astId": 4119,
        "contract": "contracts/farm/MasterChef.sol:MasterChef",
        "label": "inviterPoolInfo",
        "offset": 0,
        "slot": "10",
        "type": "t_mapping(t_contract(IKeplerPair)7091,t_struct(PoolInfo)4090_storage)"
      },
      {
        "astId": 4125,
        "contract": "contracts/farm/MasterChef.sol:MasterChef",
        "label": "inviterUserInfo",
        "offset": 0,
        "slot": "11",
        "type": "t_mapping(t_contract(IKeplerPair)7091,t_mapping(t_address,t_struct(UserInfo)4081_storage))"
      }
    ],
    "types": {
      "t_address": {
        "encoding": "inplace",
        "label": "address",
        "numberOfBytes": "20"
      },
      "t_array(t_struct(UserLockInfo)4068_storage)dyn_storage": {
        "base": "t_struct(UserLockInfo)4068_storage",
        "encoding": "dynamic_array",
        "label": "struct MasterChef.UserLockInfo[]",
        "numberOfBytes": "32"
      },
      "t_bool": {
        "encoding": "inplace",
        "label": "bool",
        "numberOfBytes": "1"
      },
      "t_contract(IKeplerPair)7091": {
        "encoding": "inplace",
        "label": "contract IKeplerPair",
        "numberOfBytes": "20"
      },
      "t_contract(IUser)7464": {
        "encoding": "inplace",
        "label": "contract IUser",
        "numberOfBytes": "20"
      },
      "t_mapping(t_address,t_array(t_struct(UserLockInfo)4068_storage)dyn_storage)": {
        "encoding": "mapping",
        "key": "t_address",
        "label": "mapping(address => struct MasterChef.UserLockInfo[])",
        "numberOfBytes": "32",
        "value": "t_array(t_struct(UserLockInfo)4068_storage)dyn_storage"
      },
      "t_mapping(t_address,t_mapping(t_uint256,t_uint256))": {
        "encoding": "mapping",
        "key": "t_address",
        "label": "mapping(address => mapping(uint256 => uint256))",
        "numberOfBytes": "32",
        "value": "t_mapping(t_uint256,t_uint256)"
      },
      "t_mapping(t_address,t_struct(UserInfo)4081_storage)": {
        "encoding": "mapping",
        "key": "t_address",
        "label": "mapping(address => struct MasterChef.UserInfo)",
        "numberOfBytes": "32",
        "value": "t_struct(UserInfo)4081_storage"
      },
      "t_mapping(t_address,t_uint256)": {
        "encoding": "mapping",
        "key": "t_address",
        "label": "mapping(address => uint256)",
        "numberOfBytes": "32",
        "value": "t_uint256"
      },
      "t_mapping(t_contract(IKeplerPair)7091,t_mapping(t_address,t_array(t_struct(UserLockInfo)4068_storage)dyn_storage))": {
        "encoding": "mapping",
        "key": "t_contract(IKeplerPair)7091",
        "label": "mapping(contract IKeplerPair => mapping(address => struct MasterChef.UserLockInfo[]))",
        "numberOfBytes": "32",
        "value": "t_mapping(t_address,t_array(t_struct(UserLockInfo)4068_storage)dyn_storage)"
      },
      "t_mapping(t_contract(IKeplerPair)7091,t_mapping(t_address,t_mapping(t_uint256,t_uint256)))": {
        "encoding": "mapping",
        "key": "t_contract(IKeplerPair)7091",
        "label": "mapping(contract IKeplerPair => mapping(address => mapping(uint256 => uint256)))",
        "numberOfBytes": "32",
        "value": "t_mapping(t_address,t_mapping(t_uint256,t_uint256))"
      },
      "t_mapping(t_contract(IKeplerPair)7091,t_mapping(t_address,t_struct(UserInfo)4081_storage))": {
        "encoding": "mapping",
        "key": "t_contract(IKeplerPair)7091",
        "label": "mapping(contract IKeplerPair => mapping(address => struct MasterChef.UserInfo))",
        "numberOfBytes": "32",
        "value": "t_mapping(t_address,t_struct(UserInfo)4081_storage)"
      },
      "t_mapping(t_contract(IKeplerPair)7091,t_mapping(t_address,t_uint256))": {
        "encoding": "mapping",
        "key": "t_contract(IKeplerPair)7091",
        "label": "mapping(contract IKeplerPair => mapping(address => uint256))",
        "numberOfBytes": "32",
        "value": "t_mapping(t_address,t_uint256)"
      },
      "t_mapping(t_contract(IKeplerPair)7091,t_struct(PoolInfo)4090_storage)": {
        "encoding": "mapping",
        "key": "t_contract(IKeplerPair)7091",
        "label": "mapping(contract IKeplerPair => struct MasterChef.PoolInfo)",
        "numberOfBytes": "32",
        "value": "t_struct(PoolInfo)4090_storage"
      },
      "t_mapping(t_uint256,t_uint256)": {
        "encoding": "mapping",
        "key": "t_uint256",
        "label": "mapping(uint256 => uint256)",
        "numberOfBytes": "32",
        "value": "t_uint256"
      },
      "t_struct(PoolInfo)4090_storage": {
        "encoding": "inplace",
        "label": "struct MasterChef.PoolInfo",
        "members": [
          {
            "astId": 4083,
            "contract": "contracts/farm/MasterChef.sol:MasterChef",
            "label": "totalShares",
            "offset": 0,
            "slot": "0",
            "type": "t_uint256"
          },
          {
            "astId": 4085,
            "contract": "contracts/farm/MasterChef.sol:MasterChef",
            "label": "token0AccPerShare",
            "offset": 0,
            "slot": "1",
            "type": "t_uint256"
          },
          {
            "astId": 4087,
            "contract": "contracts/farm/MasterChef.sol:MasterChef",
            "label": "token1AccPerShare",
            "offset": 0,
            "slot": "2",
            "type": "t_uint256"
          },
          {
            "astId": 4089,
            "contract": "contracts/farm/MasterChef.sol:MasterChef",
            "label": "avaliable",
            "offset": 0,
            "slot": "3",
            "type": "t_bool"
          }
        ],
        "numberOfBytes": "128"
      },
      "t_struct(UserInfo)4081_storage": {
        "encoding": "inplace",
        "label": "struct MasterChef.UserInfo",
        "members": [
          {
            "astId": 4070,
            "contract": "contracts/farm/MasterChef.sol:MasterChef",
            "label": "amount",
            "offset": 0,
            "slot": "0",
            "type": "t_uint256"
          },
          {
            "astId": 4072,
            "contract": "contracts/farm/MasterChef.sol:MasterChef",
            "label": "shares",
            "offset": 0,
            "slot": "1",
            "type": "t_uint256"
          },
          {
            "astId": 4074,
            "contract": "contracts/farm/MasterChef.sol:MasterChef",
            "label": "token0Debt",
            "offset": 0,
            "slot": "2",
            "type": "t_uint256"
          },
          {
            "astId": 4076,
            "contract": "contracts/farm/MasterChef.sol:MasterChef",
            "label": "token1Debt",
            "offset": 0,
            "slot": "3",
            "type": "t_uint256"
          },
          {
            "astId": 4078,
            "contract": "contracts/farm/MasterChef.sol:MasterChef",
            "label": "token0Pending",
            "offset": 0,
            "slot": "4",
            "type": "t_uint256"
          },
          {
            "astId": 4080,
            "contract": "contracts/farm/MasterChef.sol:MasterChef",
            "label": "token1Pending",
            "offset": 0,
            "slot": "5",
            "type": "t_uint256"
          }
        ],
        "numberOfBytes": "192"
      },
      "t_struct(UserLockInfo)4068_storage": {
        "encoding": "inplace",
        "label": "struct MasterChef.UserLockInfo",
        "members": [
          {
            "astId": 4061,
            "contract": "contracts/farm/MasterChef.sol:MasterChef",
            "label": "amount",
            "offset": 0,
            "slot": "0",
            "type": "t_uint256"
          },
          {
            "astId": 4063,
            "contract": "contracts/farm/MasterChef.sol:MasterChef",
            "label": "shares",
            "offset": 0,
            "slot": "1",
            "type": "t_uint256"
          },
          {
            "astId": 4065,
            "contract": "contracts/farm/MasterChef.sol:MasterChef",
            "label": "lockType",
            "offset": 0,
            "slot": "2",
            "type": "t_uint256"
          },
          {
            "astId": 4067,
            "contract": "contracts/farm/MasterChef.sol:MasterChef",
            "label": "expireAt",
            "offset": 0,
            "slot": "3",
            "type": "t_uint256"
          }
        ],
        "numberOfBytes": "128"
      },
      "t_uint256": {
        "encoding": "inplace",
        "label": "uint256",
        "numberOfBytes": "32"
      }
    }
  }
}