{
  "address": "0xc9a3A7efDaa9DaebBe7413d5dA091C60CC15dDE4",
  "abi": [
    {
      "inputs": [
        {
          "internalType": "contract IUser",
          "name": "_user",
          "type": "address"
        },
        {
          "internalType": "address",
          "name": "_weth",
          "type": "address"
        }
      ],
      "stateMutability": "nonpayable",
      "type": "constructor"
    },
    {
      "anonymous": false,
      "inputs": [
        {
          "indexed": true,
          "internalType": "address",
          "name": "user",
          "type": "address"
        },
        {
          "indexed": true,
          "internalType": "address",
          "name": "pair",
          "type": "address"
        },
        {
          "indexed": false,
          "internalType": "uint256",
          "name": "amount",
          "type": "uint256"
        },
        {
          "indexed": false,
          "internalType": "uint256",
          "name": "lockType",
          "type": "uint256"
        }
      ],
      "name": "Deposit",
      "type": "event"
    },
    {
      "anonymous": false,
      "inputs": [
        {
          "indexed": true,
          "internalType": "address",
          "name": "previousOwner",
          "type": "address"
        },
        {
          "indexed": true,
          "internalType": "address",
          "name": "newOwner",
          "type": "address"
        }
      ],
      "name": "OwnershipTransferred",
      "type": "event"
    },
    {
      "anonymous": false,
      "inputs": [
        {
          "indexed": true,
          "internalType": "address",
          "name": "user",
          "type": "address"
        },
        {
          "indexed": false,
          "internalType": "uint256",
          "name": "lockID",
          "type": "uint256"
        },
        {
          "indexed": false,
          "internalType": "uint256",
          "name": "amount",
          "type": "uint256"
        },
        {
          "indexed": false,
          "internalType": "uint256",
          "name": "shares",
          "type": "uint256"
        },
        {
          "indexed": false,
          "internalType": "uint256",
          "name": "lockType",
          "type": "uint256"
        }
      ],
      "name": "Withdraw",
      "type": "event"
    },
    {
      "inputs": [],
      "name": "WETH",
      "outputs": [
        {
          "internalType": "address",
          "name": "",
          "type": "address"
        }
      ],
      "stateMutability": "view",
      "type": "function"
    },
    {
      "inputs": [
        {
          "internalType": "contract IKeplerPair",
          "name": "_pair",
          "type": "address"
        },
        {
          "internalType": "address",
          "name": "_token",
          "type": "address"
        }
      ],
      "name": "claimInviteMine",
      "outputs": [],
      "stateMutability": "nonpayable",
      "type": "function"
    },
    {
      "inputs": [
        {
          "internalType": "contract IKeplerPair",
          "name": "_pair",
          "type": "address"
        },
        {
          "internalType": "address",
          "name": "_token",
          "type": "address"
        }
      ],
      "name": "claimMine",
      "outputs": [],
      "stateMutability": "nonpayable",
      "type": "function"
    },
    {
      "inputs": [
        {
          "internalType": "uint256",
          "name": "id",
          "type": "uint256"
        }
      ],
      "name": "createSnapshot",
      "outputs": [],
      "stateMutability": "nonpayable",
      "type": "function"
    },
    {
      "inputs": [],
      "name": "currentSnapshotId",
      "outputs": [
        {
          "internalType": "uint256",
          "name": "",
          "type": "uint256"
        }
      ],
      "stateMutability": "view",
      "type": "function"
    },
    {
      "inputs": [
        {
          "internalType": "contract IKeplerPair",
          "name": "_pair",
          "type": "address"
        },
        {
          "internalType": "uint256",
          "name": "_amount",
          "type": "uint256"
        },
        {
          "internalType": "uint256",
          "name": "_lockType",
          "type": "uint256"
        }
      ],
      "name": "deposit",
      "outputs": [],
      "stateMutability": "nonpayable",
      "type": "function"
    },
    {
      "inputs": [
        {
          "internalType": "contract IKeplerPair",
          "name": "_pair",
          "type": "address"
        },
        {
          "internalType": "uint256",
          "name": "_amount",
          "type": "uint256"
        },
        {
          "internalType": "uint256",
          "name": "_lockType",
          "type": "uint256"
        },
        {
          "internalType": "address",
          "name": "to",
          "type": "address"
        }
      ],
      "name": "depositFor",
      "outputs": [],
      "stateMutability": "nonpayable",
      "type": "function"
    },
    {
      "inputs": [
        {
          "internalType": "contract IKeplerPair",
          "name": "pair",
          "type": "address"
        },
        {
          "internalType": "contract IERC20",
          "name": "token",
          "type": "address"
        },
        {
          "internalType": "uint256",
          "name": "amount",
          "type": "uint256"
        }
      ],
      "name": "doInviteMiner",
      "outputs": [],
      "stateMutability": "nonpayable",
      "type": "function"
    },
    {
      "inputs": [
        {
          "internalType": "contract IKeplerPair",
          "name": "pair",
          "type": "address"
        },
        {
          "internalType": "contract IERC20",
          "name": "token",
          "type": "address"
        },
        {
          "internalType": "uint256",
          "name": "amount",
          "type": "uint256"
        }
      ],
      "name": "doMiner",
      "outputs": [],
      "stateMutability": "nonpayable",
      "type": "function"
    },
    {
      "inputs": [
        {
          "internalType": "contract IKeplerPair",
          "name": "_pair",
          "type": "address"
        }
      ],
      "name": "getInvitePoolInfo",
      "outputs": [
        {
          "internalType": "uint256",
          "name": "totalShares",
          "type": "uint256"
        },
        {
          "internalType": "uint256",
          "name": "token0AccPerShare",
          "type": "uint256"
        },
        {
          "internalType": "uint256",
          "name": "token1AccPerShare",
          "type": "uint256"
        }
      ],
      "stateMutability": "view",
      "type": "function"
    },
    {
      "inputs": [
        {
          "internalType": "contract IKeplerPair",
          "name": "_pair",
          "type": "address"
        },
        {
          "internalType": "address",
          "name": "_user",
          "type": "address"
        }
      ],
      "name": "getInviteUserInfo",
      "outputs": [
        {
          "internalType": "uint256",
          "name": "amount",
          "type": "uint256"
        },
        {
          "internalType": "uint256",
          "name": "shares",
          "type": "uint256"
        },
        {
          "internalType": "uint256",
          "name": "token0Debt",
          "type": "uint256"
        },
        {
          "internalType": "uint256",
          "name": "token1Debt",
          "type": "uint256"
        },
        {
          "internalType": "uint256",
          "name": "token0Pending",
          "type": "uint256"
        },
        {
          "internalType": "uint256",
          "name": "token1Pending",
          "type": "uint256"
        }
      ],
      "stateMutability": "view",
      "type": "function"
    },
    {
      "inputs": [
        {
          "internalType": "contract IKeplerPair",
          "name": "pair",
          "type": "address"
        },
        {
          "internalType": "address",
          "name": "inviter",
          "type": "address"
        }
      ],
      "name": "getInviterAmount",
      "outputs": [
        {
          "internalType": "uint256",
          "name": "",
          "type": "uint256"
        }
      ],
      "stateMutability": "view",
      "type": "function"
    },
    {
      "inputs": [
        {
          "internalType": "contract IKeplerPair",
          "name": "_pair",
          "type": "address"
        }
      ],
      "name": "getPoolInfo",
      "outputs": [
        {
          "internalType": "uint256",
          "name": "totalShares",
          "type": "uint256"
        },
        {
          "internalType": "uint256",
          "name": "token0AccPerShare",
          "type": "uint256"
        },
        {
          "internalType": "uint256",
          "name": "token1AccPerShare",
          "type": "uint256"
        }
      ],
      "stateMutability": "view",
      "type": "function"
    },
    {
      "inputs": [
        {
          "internalType": "uint256",
          "name": "lockType",
          "type": "uint256"
        }
      ],
      "name": "getType",
      "outputs": [
        {
          "internalType": "uint256",
          "name": "",
          "type": "uint256"
        },
        {
          "internalType": "uint256",
          "name": "",
          "type": "uint256"
        }
      ],
      "stateMutability": "pure",
      "type": "function"
    },
    {
      "inputs": [
        {
          "internalType": "contract IKeplerPair",
          "name": "pair",
          "type": "address"
        },
        {
          "internalType": "address",
          "name": "_user",
          "type": "address"
        },
        {
          "internalType": "uint256",
          "name": "lockType",
          "type": "uint256"
        }
      ],
      "name": "getUserAmount",
      "outputs": [
        {
          "internalType": "uint256",
          "name": "",
          "type": "uint256"
        }
      ],
      "stateMutability": "view",
      "type": "function"
    },
    {
      "inputs": [
        {
          "internalType": "contract IKeplerPair",
          "name": "_pair",
          "type": "address"
        },
        {
          "internalType": "address",
          "name": "_user",
          "type": "address"
        }
      ],
      "name": "getUserInfo",
      "outputs": [
        {
          "internalType": "uint256",
          "name": "amount",
          "type": "uint256"
        },
        {
          "internalType": "uint256",
          "name": "shares",
          "type": "uint256"
        },
        {
          "internalType": "uint256",
          "name": "token0Debt",
          "type": "uint256"
        },
        {
          "internalType": "uint256",
          "name": "token1Debt",
          "type": "uint256"
        },
        {
          "internalType": "uint256",
          "name": "token0Pending",
          "type": "uint256"
        },
        {
          "internalType": "uint256",
          "name": "token1Pending",
          "type": "uint256"
        }
      ],
      "stateMutability": "view",
      "type": "function"
    },
    {
      "inputs": [
        {
          "internalType": "address",
          "name": "pair",
          "type": "address"
        },
        {
          "internalType": "address",
          "name": "_user",
          "type": "address"
        }
      ],
      "name": "getUserSnapshot",
      "outputs": [
        {
          "internalType": "uint256",
          "name": "",
          "type": "uint256"
        }
      ],
      "stateMutability": "view",
      "type": "function"
    },
    {
      "inputs": [
        {
          "internalType": "contract IKeplerPair",
          "name": "",
          "type": "address"
        },
        {
          "internalType": "address",
          "name": "",
          "type": "address"
        }
      ],
      "name": "inviterUserInfo",
      "outputs": [
        {
          "internalType": "uint256",
          "name": "amount",
          "type": "uint256"
        },
        {
          "internalType": "uint256",
          "name": "shares",
          "type": "uint256"
        },
        {
          "internalType": "uint256",
          "name": "token0Debt",
          "type": "uint256"
        },
        {
          "internalType": "uint256",
          "name": "token1Debt",
          "type": "uint256"
        },
        {
          "internalType": "uint256",
          "name": "token0Pending",
          "type": "uint256"
        },
        {
          "internalType": "uint256",
          "name": "token1Pending",
          "type": "uint256"
        }
      ],
      "stateMutability": "view",
      "type": "function"
    },
    {
      "inputs": [],
      "name": "owner",
      "outputs": [
        {
          "internalType": "address",
          "name": "",
          "type": "address"
        }
      ],
      "stateMutability": "view",
      "type": "function"
    },
    {
      "inputs": [],
      "name": "renounceOwnership",
      "outputs": [],
      "stateMutability": "nonpayable",
      "type": "function"
    },
    {
      "inputs": [
        {
          "internalType": "address",
          "name": "_snapshotCreateCaller",
          "type": "address"
        }
      ],
      "name": "setSnapshotCreateCaller",
      "outputs": [],
      "stateMutability": "nonpayable",
      "type": "function"
    },
    {
      "inputs": [
        {
          "internalType": "address",
          "name": "newOwner",
          "type": "address"
        }
      ],
      "name": "transferOwnership",
      "outputs": [],
      "stateMutability": "nonpayable",
      "type": "function"
    },
    {
      "inputs": [
        {
          "internalType": "contract IKeplerPair",
          "name": "",
          "type": "address"
        },
        {
          "internalType": "address",
          "name": "",
          "type": "address"
        }
      ],
      "name": "userInfo",
      "outputs": [
        {
          "internalType": "uint256",
          "name": "amount",
          "type": "uint256"
        },
        {
          "internalType": "uint256",
          "name": "shares",
          "type": "uint256"
        },
        {
          "internalType": "uint256",
          "name": "token0Debt",
          "type": "uint256"
        },
        {
          "internalType": "uint256",
          "name": "token1Debt",
          "type": "uint256"
        },
        {
          "internalType": "uint256",
          "name": "token0Pending",
          "type": "uint256"
        },
        {
          "internalType": "uint256",
          "name": "token1Pending",
          "type": "uint256"
        }
      ],
      "stateMutability": "view",
      "type": "function"
    },
    {
      "inputs": [
        {
          "internalType": "contract IKeplerPair",
          "name": "",
          "type": "address"
        },
        {
          "internalType": "address",
          "name": "",
          "type": "address"
        },
        {
          "internalType": "uint256",
          "name": "",
          "type": "uint256"
        }
      ],
      "name": "userLockInfo",
      "outputs": [
        {
          "internalType": "uint256",
          "name": "amount",
          "type": "uint256"
        },
        {
          "internalType": "uint256",
          "name": "shares",
          "type": "uint256"
        },
        {
          "internalType": "uint256",
          "name": "lockType",
          "type": "uint256"
        },
        {
          "internalType": "uint256",
          "name": "depositAt",
          "type": "uint256"
        },
        {
          "internalType": "uint256",
          "name": "expireAt",
          "type": "uint256"
        }
      ],
      "stateMutability": "view",
      "type": "function"
    },
    {
      "inputs": [
        {
          "internalType": "contract IKeplerPair",
          "name": "_pair",
          "type": "address"
        },
        {
          "internalType": "address",
          "name": "_user",
          "type": "address"
        }
      ],
      "name": "userLockNum",
      "outputs": [
        {
          "internalType": "uint256",
          "name": "",
          "type": "uint256"
        }
      ],
      "stateMutability": "view",
      "type": "function"
    },
    {
      "inputs": [
        {
          "internalType": "contract IKeplerPair",
          "name": "",
          "type": "address"
        },
        {
          "internalType": "address",
          "name": "",
          "type": "address"
        },
        {
          "internalType": "uint256",
          "name": "",
          "type": "uint256"
        }
      ],
      "name": "userLockTypeAmount",
      "outputs": [
        {
          "internalType": "uint256",
          "name": "",
          "type": "uint256"
        }
      ],
      "stateMutability": "view",
      "type": "function"
    },
    {
      "inputs": [
        {
          "internalType": "contract IKeplerPair",
          "name": "_pair",
          "type": "address"
        },
        {
          "internalType": "uint256",
          "name": "_lockId",
          "type": "uint256"
        }
      ],
      "name": "withdraw",
      "outputs": [],
      "stateMutability": "nonpayable",
      "type": "function"
    }
  ],
  "transactionHash": "0xffc3af82a14f682406635e10679a11d06a681780547e9fc24317aaf09e094f0d",
  "args": [
    "0x26CeF7683a8dC396e8456B015031766F17d2E2d7",
    "0x9C03457b5b565F57898e4d0353601978c3f7fa15"
  ],
  "solcInputHash": "40ec0bdbea7300671a5565b441469db5",
  "bytecode": "0x60a06040523480156200001157600080fd5b5060405162003c0938038062003c09833981810160405260408110156200003757600080fd5b50805160209091015160006200004c620000cd565b600080546001600160a01b0319166001600160a01b0383169081178255604051929350917f8be0079c531659141344cd1fd0a4f28419497f9722a3daafe3b4186f6b6457e0908290a350600180546001600160a01b0319166001600160a01b03939093169290921790915560601b6001600160601b031916608052620000d1565b3390565b60805160601c613b0662000103600039806115d8528061211652806121df5280612371528061243f5250613b066000f3fe608060405234801561001057600080fd5b50600436106101a95760003560e01c8063715018a6116100f9578063ceb04d5311610097578063f2801fe711610071578063f2801fe7146105fb578063f2fde38b14610629578063f3fef3a31461064f578063f741198f1461067b576101a9565b8063ceb04d5314610565578063cefbc4961461059b578063ef3a2174146105c1576101a9565b8063964f5517116100d3578063964f551714610502578063970875ce1461051f578063a260988c14610527578063ad5c46481461055d576101a9565b8063715018a6146104b05780638da5cb5b146104b85780638f2a1e51146104dc576101a9565b80632526da0e116101665780632d2d55eb116101405780632d2d55eb146103e85780633cb79e64146104165780634036ab781461044c578063658e43d814610482576101a9565b80632526da0e1461034457806329aaf873146103725780632cae426b146103a8576101a9565b806306bfa938146101ae57806308cc72d8146101f25780630efe6a8b146102535780630f208beb14610287578063132f129f146102e857806315d68ed714610316575b600080fd5b6101d4600480360360208110156101c457600080fd5b50356001600160a01b03166106a9565b60408051938452602084019290925282820152519081900360600190f35b6102286004803603606081101561020857600080fd5b506001600160a01b0381358116916020810135909116906040013561070f565b6040805195865260208601949094528484019290925260608401526080830152519081900360a00190f35b6102856004803603606081101561026957600080fd5b506001600160a01b038135169060208101359060400135610766565b005b6102b56004803603604081101561029d57600080fd5b506001600160a01b0381358116916020013516610777565b604080519687526020870195909552858501939093526060850191909152608084015260a0830152519081900360c00190f35b610285600480360360408110156102fe57600080fd5b506001600160a01b03813581169160200135166107b7565b6102856004803603604081101561032c57600080fd5b506001600160a01b0381358116916020013516610ac1565b6102b56004803603604081101561035a57600080fd5b506001600160a01b0381358116916020013516610d33565b6102856004803603606081101561038857600080fd5b506001600160a01b03813581169160208101359091169060400135610d73565b6103d6600480360360408110156103be57600080fd5b506001600160a01b0381358116916020013516610fde565b60408051918252519081900360200190f35b6103d6600480360360408110156103fe57600080fd5b506001600160a01b038135811691602001351661100b565b6102856004803603606081101561042c57600080fd5b506001600160a01b038135811691602081013590911690604001356110cb565b6104696004803603602081101561046257600080fd5b503561131f565b6040805192835260208301919091528051918290030190f35b6103d66004803603604081101561049857600080fd5b506001600160a01b03813581169160200135166113be565b6102856113e9565b6104c06114a7565b604080516001600160a01b039092168252519081900360200190f35b610285600480360360208110156104f257600080fd5b50356001600160a01b03166114b6565b6102856004803603602081101561051857600080fd5b503561154c565b6103d661159a565b6103d66004803603606081101561053d57600080fd5b506001600160a01b038135811691602081013590911690604001356115a0565b6104c06115d6565b6103d66004803603606081101561057b57600080fd5b506001600160a01b038135811691602081013590911690604001356115fa565b6101d4600480360360208110156105b157600080fd5b50356001600160a01b031661161d565b610285600480360360808110156105d757600080fd5b506001600160a01b0381358116916020810135916040820135916060013516611683565b6102b56004803603604081101561061157600080fd5b506001600160a01b0381358116916020013516611a8e565b6102856004803603602081101561063f57600080fd5b50356001600160a01b0316611b23565b6102856004803603604081101561066557600080fd5b506001600160a01b038135169060200135611c37565b6102b56004803603604081101561069157600080fd5b506001600160a01b03813581169160200135166128a2565b60008060006106b6613962565b505050506001600160a01b0316600090815260066020908152604091829020825160808101845281548082526001830154938201849052600283015494820185905260039092015460ff16151560609091015292909190565b6008602052826000526040600020602052816000526040600020818154811061073457fe5b600091825260209091206005909102018054600182015460028301546003840154600490940154929650909450925085565b61077283838333611683565b505050565b6007602090815260009283526040808420909152908252902080546001820154600283015460038401546004850154600590950154939492939192909186565b6000826001600160a01b0316630dfe16816040518163ffffffff1660e01b815260040160206040518083038186803b1580156107f257600080fd5b505afa158015610806573d6000803e3d6000fd5b505050506040513d602081101561081c57600080fd5b50516040805163d21220a760e01b815290519192506000916001600160a01b0386169163d21220a7916004808301926020929190829003018186803b15801561086457600080fd5b505afa158015610878573d6000803e3d6000fd5b505050506040513d602081101561088e57600080fd5b50516001600160a01b0385166000908152600760209081526040808320338452909152902054909150806108c457505050610abd565b826001600160a01b0316846001600160a01b031614156109a4576001600160a01b0385166000908152600a60209081526040808320600190810154600b84528285203386529093529220918201546002830154600490930154919290916109518161094b84610945670de0b6b3a764000061093f8a8a612937565b90612990565b906129f7565b90612a54565b9450610969670de0b6b3a764000061093f8686612937565b6001600160a01b038a166000908152600b602090815260408083203384529091528120600281019290925560049091015550610aae92505050565b816001600160a01b0316846001600160a01b03161415610a71576001600160a01b0385166000908152600a6020908152604080832060020154600b835281842033855290925290912060018101546003820154600590920154909190610a1e8161094b84610945670de0b6b3a764000061093f8a8a612937565b9450610a36670de0b6b3a764000061093f8686612937565b6001600160a01b038a166000908152600b602090815260408083203384529091528120600381019290925560059091015550610aae92505050565b6040805162461bcd60e51b815260206004820152600d60248201526c34b63632b3b0b6103a37b5b2b760991b604482015290519081900360640190fd5b610ab9843383612aae565b5050505b5050565b6000826001600160a01b0316630dfe16816040518163ffffffff1660e01b815260040160206040518083038186803b158015610afc57600080fd5b505afa158015610b10573d6000803e3d6000fd5b505050506040513d6020811015610b2657600080fd5b50516040805163d21220a760e01b815290519192506000916001600160a01b0386169163d21220a7916004808301926020929190829003018186803b158015610b6e57600080fd5b505afa158015610b82573d6000803e3d6000fd5b505050506040513d6020811015610b9857600080fd5b5051905060006001600160a01b038481169084161415610c66576001600160a01b038516600090815260066020908152604080832060019081015460078452828520338652909352922091820154600283015460049093015491929091610c138161094b84610945670de0b6b3a764000061093f8a8a612937565b9450610c2b670de0b6b3a764000061093f8686612937565b6001600160a01b038a1660009081526007602090815260408083203384529091528120600281019290925560049091015550610aae92505050565b816001600160a01b0316846001600160a01b03161415610a71576001600160a01b0385166000908152600660209081526040808320600201546007835281842033855290925290912060018101546003820154600590920154909190610ce08161094b84610945670de0b6b3a764000061093f8a8a612937565b9450610cf8670de0b6b3a764000061093f8686612937565b6001600160a01b038a1660009081526007602090815260408083203384529091528120600381019290925560059091015550610aae92505050565b600b602090815260009283526040808420909152908252902080546001820154600283015460038401546004850154600590950154939492939192909186565b610d7c83612b00565b6000836001600160a01b0316630dfe16816040518163ffffffff1660e01b815260040160206040518083038186803b158015610db757600080fd5b505afa158015610dcb573d6000803e3d6000fd5b505050506040513d6020811015610de157600080fd5b50516040805163d21220a760e01b815290519192506000916001600160a01b0387169163d21220a7916004808301926020929190829003018186803b158015610e2957600080fd5b505afa158015610e3d573d6000803e3d6000fd5b505050506040513d6020811015610e5357600080fd5b505190506001600160a01b038481169083161480610e825750806001600160a01b0316846001600160a01b0316145b610ec3576040805162461bcd60e51b815260206004820152600d60248201526c34b63632b3b0b6103a37b5b2b760991b604482015290519081900360640190fd5b6001600160a01b0384811690831614610ede85333087612ba3565b610ee6613962565b506001600160a01b038616600090815260066020908152604091829020825160808101845281548082526001830154938201939093526002820154938101939093526003015460ff1615156060830152610f435750505050610772565b8115610f91578051610f7090610f659061093f88670de0b6b3a7640000612937565b602083015190612a54565b6001600160a01b038816600090815260066020526040902060010155610fd5565b8051610fb890610fad9061093f88670de0b6b3a7640000612937565b604083015190612a54565b6001600160a01b0388166000908152600660205260409020600201555b50505050505050565b6001600160a01b038083166000908152600b60209081526040808320938516835292905220545b92915050565b60006002546000141561104457506001600160a01b03808316600090815260076020908152604080832093851683529290522054611005565b6002546001600160a01b03808516600090815260036020908152604080832093871683529290522054141561109f57506001600160a01b03808316600090815260046020908152604080832093851683529290522054611005565b506001600160a01b03808316600090815260076020908152604080832093851683529290522054611005565b6110d483612b00565b6000836001600160a01b0316630dfe16816040518163ffffffff1660e01b815260040160206040518083038186803b15801561110f57600080fd5b505afa158015611123573d6000803e3d6000fd5b505050506040513d602081101561113957600080fd5b50516040805163d21220a760e01b815290519192506000916001600160a01b0387169163d21220a7916004808301926020929190829003018186803b15801561118157600080fd5b505afa158015611195573d6000803e3d6000fd5b505050506040513d60208110156111ab57600080fd5b505190506001600160a01b0384811690831614806111da5750806001600160a01b0316846001600160a01b0316145b61121b576040805162461bcd60e51b815260206004820152600d60248201526c34b63632b3b0b6103a37b5b2b760991b604482015290519081900360640190fd5b6001600160a01b038481169083161461123685333087612ba3565b61123e613962565b506001600160a01b0386166000908152600a6020908152604091829020825160808101845281548082526001830154938201939093526002820154938101939093526003015460ff161515606083015261129b5750505050610772565b81156112de5780516112bd90610f659061093f88670de0b6b3a7640000612937565b6001600160a01b0388166000908152600a6020526040902060010155610fd5565b80516112fa90610fad9061093f88670de0b6b3a7640000612937565b6001600160a01b0388166000908152600a602052604090206002015550505050505050565b6000808261133357506003905060006113b9565b826001141561134a5750600a905062278d006113b9565b82600214156113615750600f90506276a7006113b9565b82600314156113795750601e90506301da9c006113b9565b6040805162461bcd60e51b815260206004820152601060248201526f696c6c6567616c206c6f636b5479706560801b604482015290519081900360640190fd5b915091565b6001600160a01b03918216600090815260086020908152604080832093909416825291909152205490565b6113f1612c03565b6001600160a01b03166114026114a7565b6001600160a01b03161461145d576040805162461bcd60e51b815260206004820181905260248201527f4f776e61626c653a2063616c6c6572206973206e6f7420746865206f776e6572604482015290519081900360640190fd5b600080546040516001600160a01b03909116907f8be0079c531659141344cd1fd0a4f28419497f9722a3daafe3b4186f6b6457e0908390a3600080546001600160a01b0319169055565b6000546001600160a01b031690565b6114be612c03565b6001600160a01b03166114cf6114a7565b6001600160a01b03161461152a576040805162461bcd60e51b815260206004820181905260248201527f4f776e61626c653a2063616c6c6572206973206e6f7420746865206f776e6572604482015290519081900360640190fd5b600580546001600160a01b0319166001600160a01b0392909216919091179055565b6005546001600160a01b031633146115955760405162461bcd60e51b8152600401808060200182810382526025815260200180613a3e6025913960400191505060405180910390fd5b600255565b60025481565b6001600160a01b0380841660009081526009602090815260408083209386168352928152828220848352905220545b9392505050565b7f000000000000000000000000000000000000000000000000000000000000000081565b600960209081526000938452604080852082529284528284209052825290205481565b600080600061162a613962565b505050506001600160a01b03166000908152600a6020908152604091829020825160808101845281548082526001830154938201849052600283015494820185905260039092015460ff16151560609091015292909190565b61168c84612b00565b6000806116988461131f565b915091506116a4613962565b506001600160a01b03861660009081526006602090815260409182902082516080810184528154815260018201549281019290925260028101549282019290925260039091015460ff16151560608201526116fd61398c565b506001600160a01b038088166000908152600760209081526040808320938816835292815290829020825160c08101845281548152600182015492810192909252600281015492820192909252600382015460608201526004820154608082015260059091015460a082015261177588868484612c07565b60006117818886612937565b90508715611a24576117958933308b612ba3565b6001600160a01b03808a166000908152600860209081526040808320938a168352928152828220835160a0810185528c81528083018681529481018c81524260608301818152908b016080840190815284546001818101875595885296869020935160059097029093019586559551928501929092559051600284015592516003830155915160049091015582015161188c576118328987612d1b565b6001600160a01b03808a166000818152600b60209081526040808320948b16835293815283822060010154928252600a9052919091205461187291612a54565b6001600160a01b038a166000908152600a60205260409020555b82516118989082612a54565b6001600160a01b038a166000908152600660209081526040909120919091558201516118c49082612a54565b6001600160a01b03808b166000908152600760209081526040808320938b168352929052206001015581516118f99089612a54565b6001600160a01b03808b166000908152600760209081526040808320938b16835292815291902091909155838101519083015161194f91670de0b6b3a76400009161093f91906119499086612a54565b90612937565b6001600160a01b03808b166000908152600760209081526040808320938b1683529281529082902060020192909255840151908301516119a291670de0b6b3a76400009161093f91906119499086612a54565b6001600160a01b03808b166000818152600760209081526040808320948c1680845294825280832060030195909555918152600982528381209281529181528282208a8352905220546119f59089612a54565b6001600160a01b03808b166000908152600960209081526040808320938b1683529281528282208b8352905220555b611a30868a8a84612f13565b886001600160a01b0316866001600160a01b03167fdcbc1c05240f31ff3ad067ef1ee35ce4997762752e3a095284754544f4c709d78a8a604051808381526020018281526020019250505060405180910390a3505050505050505050565b600080600080600080611a9f61398c565b505050506001600160a01b039485166000908152600760209081526040808320969097168252948552859020855160c08101875281548082526001830154968201879052600283015497820188905260038301546060830181905260048401546080840181905260059094015460a090930183905290989697969095509193509150565b611b2b612c03565b6001600160a01b0316611b3c6114a7565b6001600160a01b031614611b97576040805162461bcd60e51b815260206004820181905260248201527f4f776e61626c653a2063616c6c6572206973206e6f7420746865206f776e6572604482015290519081900360640190fd5b6001600160a01b038116611bdc5760405162461bcd60e51b81526004018080602001828103825260268152602001806139f26026913960400191505060405180910390fd5b600080546040516001600160a01b03808516939216917f8be0079c531659141344cd1fd0a4f28419497f9722a3daafe3b4186f6b6457e091a3600080546001600160a01b0319166001600160a01b0392909216919091179055565b6001600160a01b0382166000908152600860209081526040808320338452909152902054808210611ca0576040805162461bcd60e51b815260206004820152600e60248201526d1a5b1b1959d85b081b1bd8dad25160921b604482015290519081900360640190fd5b611ca86139c2565b6001600160a01b03841660009081526008602090815260408083203384529091529020805484908110611cd757fe5b90600052602060002090600502016040518060a00160405290816000820154815260200160018201548152602001600282015481526020016003820154815260200160048201548152505090508060800151421015611d72576040805162461bcd60e51b81526020600482015260126024820152716e6f74207468652072696768742074696d6560701b604482015290519081900360640190fd5b611d7a613962565b506001600160a01b03841660009081526006602090815260409182902082516080810184528154815260018201549281019290925260028101549282019290925260039091015460ff1615156060820152611dd361398c565b506001600160a01b03851660009081526007602090815260408083203380855290835292819020815160c0810183528154815260018201549381019390935260028101549183019190915260038101546060830152600481015460808301526005015460a082015290611e499087908484612c07565b60208301518251611e59916129f7565b6001600160a01b0387166000908152600660209081526040909120919091558381015190820151611e89916129f7565b6001600160a01b038716600090815260076020908152604080832033845290915290206001015582518151611ebd916129f7565b6001600160a01b0387166000818152600760209081526040808320338085529083528184209590955587519383526009825280832094835293815283822087850151835290529190912054611f11916129f7565b6001600160a01b0387166000908152600960209081526040808320338452825280832087820151845282529091209190915583810151908201511415611fb057611f5b8633612d1b565b6001600160a01b0386166000818152600b60209081526040808320338452825280832060010154938352600a909152902054611f96916129f7565b6001600160a01b0387166000908152600a60205260409020555b82511561253d576000866001600160a01b0316630dfe16816040518163ffffffff1660e01b815260040160206040518083038186803b158015611ff257600080fd5b505afa158015612006573d6000803e3d6000fd5b505050506040513d602081101561201c57600080fd5b50516040805163d21220a760e01b815290519192506000916001600160a01b038a169163d21220a7916004808301926020929190829003018186803b15801561206457600080fd5b505afa158015612078573d6000803e3d6000fd5b505050506040513d602081101561208e57600080fd5b505185516040805163a9059cbb60e01b81526001600160a01b038c166004820181905260248201939093529051929350909163a9059cbb916044808201926020929091908290030181600087803b1580156120e857600080fd5b505af11580156120fc573d6000803e3d6000fd5b505050506040513d602081101561211257600080fd5b50507f00000000000000000000000000000000000000000000000000000000000000006001600160a01b03908116908316141561236f57600080896001600160a01b03166389afcb44306040518263ffffffff1660e01b815260040180826001600160a01b031681526020019150506040805180830381600087803b15801561219a57600080fd5b505af11580156121ae573d6000803e3d6000fd5b505050506040513d60408110156121c457600080fd5b50805160209091015190925090506121dd833383612aae565b7f00000000000000000000000000000000000000000000000000000000000000006001600160a01b0316632e1a7d4d836040518263ffffffff1660e01b815260040180828152602001915050600060405180830381600087803b15801561224357600080fd5b505af1158015612257573d6000803e3d6000fd5b506000925033915084905082805b506040519080825280601f01601f191660200182016040528015612290576020820181803683370190505b506040518082805190602001908083835b602083106122c05780518252601f1990920191602091820191016122a1565b6001836020036101000a03801982511681845116808217855250505050505090500191505060006040518083038185875af1925050503d8060008114612322576040519150601f19603f3d011682016040523d82523d6000602084013e612327565b606091505b50509050806123675760405162461bcd60e51b8152600401808060200182810382526023815260200180613a846023913960400191505060405180910390fd5b50505061253a565b7f00000000000000000000000000000000000000000000000000000000000000006001600160a01b0316816001600160a01b031614156124c957600080896001600160a01b03166389afcb44306040518263ffffffff1660e01b815260040180826001600160a01b031681526020019150506040805180830381600087803b1580156123fa57600080fd5b505af115801561240e573d6000803e3d6000fd5b505050506040513d604081101561242457600080fd5b508051602090910151909250905061243d843384612aae565b7f00000000000000000000000000000000000000000000000000000000000000006001600160a01b0316632e1a7d4d826040518263ffffffff1660e01b815260040180828152602001915050600060405180830381600087803b1580156124a357600080fd5b505af11580156124b7573d6000803e3d6000fd5b50600092503391508390508280612265565b6040805163226bf2d160e21b815233600482015281516001600160a01b038b16926389afcb4492602480820193918290030181600087803b15801561250d57600080fd5b505af1158015612521573d6000803e3d6000fd5b505050506040513d604081101561253757600080fd5b50505b50505b8251602084015160001986018714612732576125576139c2565b6001600160a01b038916600090815260086020908152604080832033845290915290208054600019890190811061258a57fe5b600091825260208083206040805160a081018252600590940290910180548085526001820154858501526002820154858401526003820154606086015260049091015460808501526001600160a01b038e168552600883528185203386529092529092208054919350908a9081106125fe57fe5b60009182526020808320600590920290910192909255828201516001600160a01b038c16825260088352604080832033845290935291902080548a90811061264257fe5b60009182526020808320600160059093020191909101929092556040808401516001600160a01b038d16835260088452818320338452909352902080548a90811061268957fe5b600091825260208083206002600590930201919091019290925560608301516001600160a01b038c16825260088352604080832033845290935291902080548a9081106126d257fe5b600091825260208083206003600590930201919091019290925560808301516001600160a01b038c16825260088352604080832033845290935291902080548a90811061271b57fe5b906000526020600020906005020160040181905550505b6001600160a01b0388166000908152600860209081526040808320338452909152902080548061275e57fe5b6000828152602080822060056000199094019384020182815560018101839055600281018390556003810183905560040191909155915584810151908401516127ba91670de0b6b3a76400009161093f919061194990866129f7565b6001600160a01b0389166000908152600760209081526040808320338452825291829020600201929092558501519084015161280991670de0b6b3a76400009161093f919061194990866129f7565b6001600160a01b03891660009081526007602090815260408083203380855292529091206003019190915561284090898484613229565b845160208087015160408089015181518c815293840194909452828101919091526060820192909252905133917fe08737ac48a1dab4b1a46c7dc9398bd5bfc6d7ad6fabb7cd8caa254de14def35919081900360800190a25050505050505050565b6000806000806000806128b361398c565b505050506001600160a01b039485166000908152600b60209081526040808320969097168252948552859020855160c08101875281548082526001830154968201879052600283015497820188905260038301546060830181905260048401546080840181905260059094015460a090930183905290989697969095509193509150565b60008261294657506000611005565b8282028284828161295357fe5b04146115cf5760405162461bcd60e51b8152600401808060200182810382526021815260200180613a636021913960400191505060405180910390fd5b60008082116129e6576040805162461bcd60e51b815260206004820152601a60248201527f536166654d6174683a206469766973696f6e206279207a65726f000000000000604482015290519081900360640190fd5b8183816129ef57fe5b049392505050565b600082821115612a4e576040805162461bcd60e51b815260206004820152601e60248201527f536166654d6174683a207375627472616374696f6e206f766572666c6f770000604482015290519081900360640190fd5b50900390565b6000828201838110156115cf576040805162461bcd60e51b815260206004820152601b60248201527f536166654d6174683a206164646974696f6e206f766572666c6f770000000000604482015290519081900360640190fd5b604080516001600160a01b038416602482015260448082018490528251808303909101815260649091019091526020810180516001600160e01b031663a9059cbb60e01b17905261077290849061350f565b6001600160a01b03811660009081526006602052604090206003015460ff16151560011415612b2e57612ba0565b6001600160a01b03811660009081526006602090815260408083206003808201805460ff19166001908117909155600a90945291909320015460ff1615151415612b785750612ba0565b506001600160a01b0381166000908152600a60205260409020600301805460ff191660011790555b50565b604080516001600160a01b0380861660248301528416604482015260648082018490528251808303909101815260849091019091526020810180516001600160e01b03166323b872dd60e01b179052612bfd90859061350f565b50505050565b3390565b602081015115612bfd576000612c3a670de0b6b3a764000061093f8560200151856020015161293790919063ffffffff16565b9050612c61612c568360400151836129f790919063ffffffff16565b608084015190612a54565b6001600160a01b0386811660009081526007602090815260408083209389168352928152918120600481019390935560029092018390558481015190840151612cb791670de0b6b3a76400009161093f91612937565b9050612cde612cd38460600151836129f790919063ffffffff16565b60a085015190612a54565b6001600160a01b03968716600090815260076020908152604080832098909916825296909652959094206005810195909555505050600390910155565b6001600160a01b038083166000908152600b602090815260408083209385168352929052206001015415610abd576001600160a01b038083166000908152600a60209081526040808320600190810154600b8452828520958716855294909252822001549091612d9991670de0b6b3a76400009161093f9190612937565b6001600160a01b038085166000908152600b6020908152604080832093871683529290522060020154909150612e0390612dd49083906129f7565b6001600160a01b038086166000908152600b602090815260408083209388168352929052206004015490612a54565b6001600160a01b038085166000818152600b60209081526040808320948816808452858352818420600481019790975560028701889055938352600a8252822060019081015493835293905291909201549091612e6e91670de0b6b3a76400009161093f9190612937565b6001600160a01b038086166000908152600b6020908152604080832093881683529290522060030154909150612ed890612ea99083906129f7565b6001600160a01b038087166000908152600b602090815260408083209389168352929052206005015490612a54565b6001600160a01b039485166000908152600b602090815260408083209690971682529490945293909220600581019390935550600390910155565b6001546040805163774785bd60e11b81526001600160a01b0387811660048301529151600093929092169163ee8f0b7a91602480820192602092909190829003018186803b158015612f6457600080fd5b505afa158015612f78573d6000803e3d6000fd5b505050506040513d6020811015612f8e57600080fd5b505190506001600160a01b038116612fe0576040805162461bcd60e51b815260206004820152601060248201526f75736572206e6f74207265676973746560801b604482015290519081900360640190fd5b612fe8613962565b506001600160a01b0384166000908152600a602090815260409182902082516080810184528154815260018201549281019290925260028101549282019290925260039091015460ff161515606082015261304161398c565b506001600160a01b038086166000908152600b60209081526040808320938616835292815290829020825160c08101845281548152600182015492810192909252600281015492820192909252600382015460608201526004820154608082015260059091015460a08201526130b9868884846135c0565b8315610fd5576001600160a01b03808716600090815260076020908152604080832093871683529290522060010154156131135781516130f99085612a54565b6001600160a01b0387166000908152600a60205260409020555b805161311f9085612a54565b6001600160a01b038088166000908152600b602090815260408083209388168352929052206001015580516131549086612a54565b6001600160a01b038088166000908152600b6020908152604080832093881683529281529190209190915582810151908201516131a491670de0b6b3a76400009161093f91906119499089612a54565b6001600160a01b038088166000908152600b6020908152604080832093881683529281529082902060020192909255830151908201516131f791670de0b6b3a76400009161093f91906119499089612a54565b6001600160a01b038088166000908152600b602090815260408083209388168352929052206003015550505050505050565b6001546040805163774785bd60e11b81526001600160a01b0387811660048301529151600093929092169163ee8f0b7a91602480820192602092909190829003018186803b15801561327a57600080fd5b505afa15801561328e573d6000803e3d6000fd5b505050506040513d60208110156132a457600080fd5b505190506001600160a01b0381166132f6576040805162461bcd60e51b815260206004820152601060248201526f75736572206e6f74207265676973746560801b604482015290519081900360640190fd5b6132fe613962565b506001600160a01b0384166000908152600a602090815260409182902082516080810184528154815260018201549281019290925260028101549282019290925260039091015460ff161515606082015261335761398c565b506001600160a01b038086166000908152600b60209081526040808320938616835292815290829020825160c08101845281548152600182015492810192909252600281015492820192909252600382015460608201526004820154608082015260059091015460a08201526133cf863384846135c0565b8315613491576001600160a01b038087166000908152600760209081526040808320938716835292905220600101541561342957815161340f90856129f7565b6001600160a01b0387166000908152600a60205260409020555b805161343590856129f7565b6001600160a01b038088166000908152600b6020908152604080832093881683529290522060010155805161346a90866129f7565b6001600160a01b038088166000908152600b60209081526040808320938816835292905220555b6134bc670de0b6b3a764000061093f84602001516119498886602001516129f790919063ffffffff16565b6001600160a01b038088166000908152600b6020908152604080832093881683529281529082902060020192909255830151908201516131f791670de0b6b3a76400009161093f919061194990896129f7565b6060613564826040518060400160405280602081526020017f5361666545524332303a206c6f772d6c6576656c2063616c6c206661696c6564815250856001600160a01b03166137459092919063ffffffff16565b8051909150156107725780806020019051602081101561358357600080fd5b50516107725760405162461bcd60e51b815260040180806020018281038252602a815260200180613aa7602a913960400191505060405180910390fd5b602081015115612bfd576001600160a01b0380851660009081526007602090815260408083209387168352928152918120600101548483015192840151909261361791670de0b6b3a76400009161093f9190612937565b9050811561366e576136446136398460400151836129f790919063ffffffff16565b608085015190612a54565b6001600160a01b038088166000908152600b60209081526040808320938a16835292905220600401555b6001600160a01b038087166000908152600b602090815260408083209389168352928152918120600201839055858201519185015190916136bd91670de0b6b3a76400009161093f9190612937565b90508215613714576136ea6136df8560600151836129f790919063ffffffff16565b60a086015190612a54565b6001600160a01b038089166000908152600b60209081526040808320938b16835292905220600501555b6001600160a01b038088166000908152600b60209081526040808320938a1683529290522060030155505050505050565b6060613754848460008561375c565b949350505050565b60608247101561379d5760405162461bcd60e51b8152600401808060200182810382526026815260200180613a186026913960400191505060405180910390fd5b6137a6856138b8565b6137f7576040805162461bcd60e51b815260206004820152601d60248201527f416464726573733a2063616c6c20746f206e6f6e2d636f6e7472616374000000604482015290519081900360640190fd5b60006060866001600160a01b031685876040518082805190602001908083835b602083106138365780518252601f199092019160209182019101613817565b6001836020036101000a03801982511681845116808217855250505050505090500191505060006040518083038185875af1925050503d8060008114613898576040519150601f19603f3d011682016040523d82523d6000602084013e61389d565b606091505b50915091506138ad8282866138be565b979650505050505050565b3b151590565b606083156138cd5750816115cf565b8251156138dd5782518084602001fd5b8160405162461bcd60e51b81526004018080602001828103825283818151815260200191508051906020019080838360005b8381101561392757818101518382015260200161390f565b50505050905090810190601f1680156139545780820380516001836020036101000a031916815260200191505b509250505060405180910390fd5b60405180608001604052806000815260200160008152602001600081526020016000151581525090565b6040518060c001604052806000815260200160008152602001600081526020016000815260200160008152602001600081525090565b6040518060a001604052806000815260200160008152602001600081526020016000815260200160008152509056fe4f776e61626c653a206e6577206f776e657220697320746865207a65726f2061646472657373416464726573733a20696e73756666696369656e742062616c616e636520666f722063616c6c6f6e6c7920736e617073686f7443726561746543616c6c65722063616e20646f2074686973536166654d6174683a206d756c7469706c69636174696f6e206f766572666c6f775472616e7366657248656c7065723a204554485f5452414e534645525f4641494c45445361666545524332303a204552433230206f7065726174696f6e20646964206e6f742073756363656564a2646970667358221220a652b7824071c2910b3dd06a7d4fdaf0a9af972c14d6ee8cc135dc84cffa2bdb64736f6c63430007020033",
  "devdoc": {
    "kind": "dev",
    "methods": {
      "owner()": {
        "details": "Returns the address of the current owner."
      },
      "renounceOwnership()": {
        "details": "Leaves the contract without owner. It will not be possible to call `onlyOwner` functions anymore. Can only be called by the current owner. NOTE: Renouncing ownership will leave the contract without an owner, thereby removing any functionality that is only available to the owner."
      },
      "transferOwnership(address)": {
        "details": "Transfers ownership of the contract to a new account (`newOwner`). Can only be called by the current owner."
      }
    },
    "version": 1
  },
  "userdoc": {
    "kind": "user",
    "methods": {},
    "version": 1
  },
  "storageLayout": {
    "storage": [
      {
        "astId": 7,
        "contract": "contracts/farm/MasterChef.sol:MasterChef",
        "label": "_owner",
        "offset": 0,
        "slot": "0",
        "type": "t_address"
      },
      {
        "astId": 4046,
        "contract": "contracts/farm/MasterChef.sol:MasterChef",
        "label": "user",
        "offset": 0,
        "slot": "1",
        "type": "t_contract(IUser)7681"
      },
      {
        "astId": 4050,
        "contract": "contracts/farm/MasterChef.sol:MasterChef",
        "label": "currentSnapshotId",
        "offset": 0,
        "slot": "2",
        "type": "t_uint256"
      },
      {
        "astId": 4056,
        "contract": "contracts/farm/MasterChef.sol:MasterChef",
        "label": "userSnapshotId",
        "offset": 0,
        "slot": "3",
        "type": "t_mapping(t_contract(IKeplerPair)7265,t_mapping(t_address,t_uint256))"
      },
      {
        "astId": 4062,
        "contract": "contracts/farm/MasterChef.sol:MasterChef",
        "label": "userSnapshotAmount",
        "offset": 0,
        "slot": "4",
        "type": "t_mapping(t_contract(IKeplerPair)7265,t_mapping(t_address,t_uint256))"
      },
      {
        "astId": 4064,
        "contract": "contracts/farm/MasterChef.sol:MasterChef",
        "label": "snapshotCreateCaller",
        "offset": 0,
        "slot": "5",
        "type": "t_address"
      },
      {
        "astId": 4101,
        "contract": "contracts/farm/MasterChef.sol:MasterChef",
        "label": "poolInfo",
        "offset": 0,
        "slot": "6",
        "type": "t_mapping(t_contract(IKeplerPair)7265,t_struct(PoolInfo)4097_storage)"
      },
      {
        "astId": 4107,
        "contract": "contracts/farm/MasterChef.sol:MasterChef",
        "label": "userInfo",
        "offset": 0,
        "slot": "7",
        "type": "t_mapping(t_contract(IKeplerPair)7265,t_mapping(t_address,t_struct(UserInfo)4088_storage))"
      },
      {
        "astId": 4114,
        "contract": "contracts/farm/MasterChef.sol:MasterChef",
        "label": "userLockInfo",
        "offset": 0,
        "slot": "8",
        "type": "t_mapping(t_contract(IKeplerPair)7265,t_mapping(t_address,t_array(t_struct(UserLockInfo)4075_storage)dyn_storage))"
      },
      {
        "astId": 4122,
        "contract": "contracts/farm/MasterChef.sol:MasterChef",
        "label": "userLockTypeAmount",
        "offset": 0,
        "slot": "9",
        "type": "t_mapping(t_contract(IKeplerPair)7265,t_mapping(t_address,t_mapping(t_uint256,t_uint256)))"
      },
      {
        "astId": 4126,
        "contract": "contracts/farm/MasterChef.sol:MasterChef",
        "label": "inviterPoolInfo",
        "offset": 0,
        "slot": "10",
        "type": "t_mapping(t_contract(IKeplerPair)7265,t_struct(PoolInfo)4097_storage)"
      },
      {
        "astId": 4132,
        "contract": "contracts/farm/MasterChef.sol:MasterChef",
        "label": "inviterUserInfo",
        "offset": 0,
        "slot": "11",
        "type": "t_mapping(t_contract(IKeplerPair)7265,t_mapping(t_address,t_struct(UserInfo)4088_storage))"
      }
    ],
    "types": {
      "t_address": {
        "encoding": "inplace",
        "label": "address",
        "numberOfBytes": "20"
      },
      "t_array(t_struct(UserLockInfo)4075_storage)dyn_storage": {
        "base": "t_struct(UserLockInfo)4075_storage",
        "encoding": "dynamic_array",
        "label": "struct MasterChef.UserLockInfo[]",
        "numberOfBytes": "32"
      },
      "t_bool": {
        "encoding": "inplace",
        "label": "bool",
        "numberOfBytes": "1"
      },
      "t_contract(IKeplerPair)7265": {
        "encoding": "inplace",
        "label": "contract IKeplerPair",
        "numberOfBytes": "20"
      },
      "t_contract(IUser)7681": {
        "encoding": "inplace",
        "label": "contract IUser",
        "numberOfBytes": "20"
      },
      "t_mapping(t_address,t_array(t_struct(UserLockInfo)4075_storage)dyn_storage)": {
        "encoding": "mapping",
        "key": "t_address",
        "label": "mapping(address => struct MasterChef.UserLockInfo[])",
        "numberOfBytes": "32",
        "value": "t_array(t_struct(UserLockInfo)4075_storage)dyn_storage"
      },
      "t_mapping(t_address,t_mapping(t_uint256,t_uint256))": {
        "encoding": "mapping",
        "key": "t_address",
        "label": "mapping(address => mapping(uint256 => uint256))",
        "numberOfBytes": "32",
        "value": "t_mapping(t_uint256,t_uint256)"
      },
      "t_mapping(t_address,t_struct(UserInfo)4088_storage)": {
        "encoding": "mapping",
        "key": "t_address",
        "label": "mapping(address => struct MasterChef.UserInfo)",
        "numberOfBytes": "32",
        "value": "t_struct(UserInfo)4088_storage"
      },
      "t_mapping(t_address,t_uint256)": {
        "encoding": "mapping",
        "key": "t_address",
        "label": "mapping(address => uint256)",
        "numberOfBytes": "32",
        "value": "t_uint256"
      },
      "t_mapping(t_contract(IKeplerPair)7265,t_mapping(t_address,t_array(t_struct(UserLockInfo)4075_storage)dyn_storage))": {
        "encoding": "mapping",
        "key": "t_contract(IKeplerPair)7265",
        "label": "mapping(contract IKeplerPair => mapping(address => struct MasterChef.UserLockInfo[]))",
        "numberOfBytes": "32",
        "value": "t_mapping(t_address,t_array(t_struct(UserLockInfo)4075_storage)dyn_storage)"
      },
      "t_mapping(t_contract(IKeplerPair)7265,t_mapping(t_address,t_mapping(t_uint256,t_uint256)))": {
        "encoding": "mapping",
        "key": "t_contract(IKeplerPair)7265",
        "label": "mapping(contract IKeplerPair => mapping(address => mapping(uint256 => uint256)))",
        "numberOfBytes": "32",
        "value": "t_mapping(t_address,t_mapping(t_uint256,t_uint256))"
      },
      "t_mapping(t_contract(IKeplerPair)7265,t_mapping(t_address,t_struct(UserInfo)4088_storage))": {
        "encoding": "mapping",
        "key": "t_contract(IKeplerPair)7265",
        "label": "mapping(contract IKeplerPair => mapping(address => struct MasterChef.UserInfo))",
        "numberOfBytes": "32",
        "value": "t_mapping(t_address,t_struct(UserInfo)4088_storage)"
      },
      "t_mapping(t_contract(IKeplerPair)7265,t_mapping(t_address,t_uint256))": {
        "encoding": "mapping",
        "key": "t_contract(IKeplerPair)7265",
        "label": "mapping(contract IKeplerPair => mapping(address => uint256))",
        "numberOfBytes": "32",
        "value": "t_mapping(t_address,t_uint256)"
      },
      "t_mapping(t_contract(IKeplerPair)7265,t_struct(PoolInfo)4097_storage)": {
        "encoding": "mapping",
        "key": "t_contract(IKeplerPair)7265",
        "label": "mapping(contract IKeplerPair => struct MasterChef.PoolInfo)",
        "numberOfBytes": "32",
        "value": "t_struct(PoolInfo)4097_storage"
      },
      "t_mapping(t_uint256,t_uint256)": {
        "encoding": "mapping",
        "key": "t_uint256",
        "label": "mapping(uint256 => uint256)",
        "numberOfBytes": "32",
        "value": "t_uint256"
      },
      "t_struct(PoolInfo)4097_storage": {
        "encoding": "inplace",
        "label": "struct MasterChef.PoolInfo",
        "members": [
          {
            "astId": 4090,
            "contract": "contracts/farm/MasterChef.sol:MasterChef",
            "label": "totalShares",
            "offset": 0,
            "slot": "0",
            "type": "t_uint256"
          },
          {
            "astId": 4092,
            "contract": "contracts/farm/MasterChef.sol:MasterChef",
            "label": "token0AccPerShare",
            "offset": 0,
            "slot": "1",
            "type": "t_uint256"
          },
          {
            "astId": 4094,
            "contract": "contracts/farm/MasterChef.sol:MasterChef",
            "label": "token1AccPerShare",
            "offset": 0,
            "slot": "2",
            "type": "t_uint256"
          },
          {
            "astId": 4096,
            "contract": "contracts/farm/MasterChef.sol:MasterChef",
            "label": "avaliable",
            "offset": 0,
            "slot": "3",
            "type": "t_bool"
          }
        ],
        "numberOfBytes": "128"
      },
      "t_struct(UserInfo)4088_storage": {
        "encoding": "inplace",
        "label": "struct MasterChef.UserInfo",
        "members": [
          {
            "astId": 4077,
            "contract": "contracts/farm/MasterChef.sol:MasterChef",
            "label": "amount",
            "offset": 0,
            "slot": "0",
            "type": "t_uint256"
          },
          {
            "astId": 4079,
            "contract": "contracts/farm/MasterChef.sol:MasterChef",
            "label": "shares",
            "offset": 0,
            "slot": "1",
            "type": "t_uint256"
          },
          {
            "astId": 4081,
            "contract": "contracts/farm/MasterChef.sol:MasterChef",
            "label": "token0Debt",
            "offset": 0,
            "slot": "2",
            "type": "t_uint256"
          },
          {
            "astId": 4083,
            "contract": "contracts/farm/MasterChef.sol:MasterChef",
            "label": "token1Debt",
            "offset": 0,
            "slot": "3",
            "type": "t_uint256"
          },
          {
            "astId": 4085,
            "contract": "contracts/farm/MasterChef.sol:MasterChef",
            "label": "token0Pending",
            "offset": 0,
            "slot": "4",
            "type": "t_uint256"
          },
          {
            "astId": 4087,
            "contract": "contracts/farm/MasterChef.sol:MasterChef",
            "label": "token1Pending",
            "offset": 0,
            "slot": "5",
            "type": "t_uint256"
          }
        ],
        "numberOfBytes": "192"
      },
      "t_struct(UserLockInfo)4075_storage": {
        "encoding": "inplace",
        "label": "struct MasterChef.UserLockInfo",
        "members": [
          {
            "astId": 4066,
            "contract": "contracts/farm/MasterChef.sol:MasterChef",
            "label": "amount",
            "offset": 0,
            "slot": "0",
            "type": "t_uint256"
          },
          {
            "astId": 4068,
            "contract": "contracts/farm/MasterChef.sol:MasterChef",
            "label": "shares",
            "offset": 0,
            "slot": "1",
            "type": "t_uint256"
          },
          {
            "astId": 4070,
            "contract": "contracts/farm/MasterChef.sol:MasterChef",
            "label": "lockType",
            "offset": 0,
            "slot": "2",
            "type": "t_uint256"
          },
          {
            "astId": 4072,
            "contract": "contracts/farm/MasterChef.sol:MasterChef",
            "label": "depositAt",
            "offset": 0,
            "slot": "3",
            "type": "t_uint256"
          },
          {
            "astId": 4074,
            "contract": "contracts/farm/MasterChef.sol:MasterChef",
            "label": "expireAt",
            "offset": 0,
            "slot": "4",
            "type": "t_uint256"
          }
        ],
        "numberOfBytes": "160"
      },
      "t_uint256": {
        "encoding": "inplace",
        "label": "uint256",
        "numberOfBytes": "32"
      }
    }
  }
}