{
  "address": "0x790C8012539F5f245e26BCEe14e47A53703e3f97",
  "abi": [
    {
      "inputs": [],
      "stateMutability": "nonpayable",
      "type": "constructor"
    },
    {
      "inputs": [
        {
          "internalType": "address",
          "name": "",
          "type": "address"
        }
      ],
      "name": "inviteNum",
      "outputs": [
        {
          "internalType": "uint256",
          "name": "",
          "type": "uint256"
        }
      ],
      "stateMutability": "view",
      "type": "function"
    },
    {
      "inputs": [
        {
          "internalType": "address",
          "name": "",
          "type": "address"
        }
      ],
      "name": "inviter",
      "outputs": [
        {
          "internalType": "address",
          "name": "",
          "type": "address"
        }
      ],
      "stateMutability": "view",
      "type": "function"
    },
    {
      "inputs": [
        {
          "internalType": "address",
          "name": "_inviter",
          "type": "address"
        }
      ],
      "name": "registe",
      "outputs": [],
      "stateMutability": "nonpayable",
      "type": "function"
    },
    {
      "inputs": [
        {
          "internalType": "address",
          "name": "user",
          "type": "address"
        }
      ],
      "name": "userExists",
      "outputs": [
        {
          "internalType": "bool",
          "name": "",
          "type": "bool"
        }
      ],
      "stateMutability": "view",
      "type": "function"
    },
    {
      "inputs": [],
      "name": "userNum",
      "outputs": [
        {
          "internalType": "uint256",
          "name": "",
          "type": "uint256"
        }
      ],
      "stateMutability": "view",
      "type": "function"
    }
  ],
  "transactionHash": "0x528da8abac5adf661aff9c303e91751d423cebe164c5c32278169b08355f7aa3",
  "args": [],
  "solcInputHash": "b23861fd4cc5066e011dd2d307c05e17",
  "bytecode": "0x608060405234801561001057600080fd5b5061030d806100206000396000f3fe608060405234801561001057600080fd5b50600436106100575760003560e01c80630e666e491461005c5780634867b94c14610096578063bbfc5d6e146100ce578063ee8f0b7a146100d6578063fb56a4ae14610118575b600080fd5b6100826004803603602081101561007257600080fd5b50356001600160a01b0316610140565b604080519115158252519081900360200190f35b6100bc600480360360208110156100ac57600080fd5b50356001600160a01b0316610160565b60408051918252519081900360200190f35b6100bc610172565b6100fc600480360360208110156100ec57600080fd5b50356001600160a01b0316610178565b604080516001600160a01b039092168252519081900360200190f35b61013e6004803603602081101561012e57600080fd5b50356001600160a01b0316610193565b005b6001600160a01b0390811660009081526020819052604090205416151590565b60016020526000908152604090205481565b60025481565b6000602081905290815260409020546001600160a01b031681565b600254156101fc576001600160a01b03818116600090815260208190526040902054166101fc576040805162461bcd60e51b8152602060048201526012602482015271696e7669746572206e6f742065786973747360701b604482015290519081900360640190fd5b33600090815260208190526040902080546001600160a01b0319166001600160a01b038316179055600254610232906001610276565b6002556001600160a01b03811660009081526001602081905260409091205461025a91610276565b6001600160a01b03909116600090815260016020526040902055565b6000828201838110156102d0576040805162461bcd60e51b815260206004820152601b60248201527f536166654d6174683a206164646974696f6e206f766572666c6f770000000000604482015290519081900360640190fd5b939250505056fea2646970667358221220390ad73985d24d8842a560bde1036cfc6464a4adee2a9b004d733a029408d0c064736f6c63430007020033",
  "devdoc": {
    "kind": "dev",
    "methods": {},
    "version": 1
  },
  "userdoc": {
    "kind": "user",
    "methods": {},
    "version": 1
  },
  "storageLayout": {
    "storage": [
      {
        "astId": 12351,
        "contract": "contracts/user/User.sol:User",
        "label": "inviter",
        "offset": 0,
        "slot": "0",
        "type": "t_mapping(t_address,t_address)"
      },
      {
        "astId": 12355,
        "contract": "contracts/user/User.sol:User",
        "label": "inviteNum",
        "offset": 0,
        "slot": "1",
        "type": "t_mapping(t_address,t_uint256)"
      },
      {
        "astId": 12357,
        "contract": "contracts/user/User.sol:User",
        "label": "userNum",
        "offset": 0,
        "slot": "2",
        "type": "t_uint256"
      }
    ],
    "types": {
      "t_address": {
        "encoding": "inplace",
        "label": "address",
        "numberOfBytes": "20"
      },
      "t_mapping(t_address,t_address)": {
        "encoding": "mapping",
        "key": "t_address",
        "label": "mapping(address => address)",
        "numberOfBytes": "32",
        "value": "t_address"
      },
      "t_mapping(t_address,t_uint256)": {
        "encoding": "mapping",
        "key": "t_address",
        "label": "mapping(address => uint256)",
        "numberOfBytes": "32",
        "value": "t_uint256"
      },
      "t_uint256": {
        "encoding": "inplace",
        "label": "uint256",
        "numberOfBytes": "32"
      }
    }
  }
}